{
  "_format": "hh-sol-artifact-1",
  "contractName": "ERC721ATEST",
  "sourceName": "cache/solpp-generated-contracts/ERC721A.sol",
  "abi": [
    {
      "inputs": [],
      "stateMutability": "nonpayable",
      "type": "constructor"
    },
    {
      "inputs": [],
      "name": "ApprovalCallerNotOwnerNorApproved",
      "type": "error"
    },
    {
      "inputs": [],
      "name": "ApprovalQueryForNonexistentToken",
      "type": "error"
    },
    {
      "inputs": [],
      "name": "ApproveToCaller",
      "type": "error"
    },
    {
      "inputs": [],
      "name": "BalanceQueryForZeroAddress",
      "type": "error"
    },
    {
      "inputs": [],
      "name": "InvalidPrice",
      "type": "error"
    },
    {
      "inputs": [],
      "name": "InvalidQuantity",
      "type": "error"
    },
    {
      "inputs": [],
      "name": "MintERC2309QuantityExceedsLimit",
      "type": "error"
    },
    {
      "inputs": [],
      "name": "MintToZeroAddress",
      "type": "error"
    },
    {
      "inputs": [],
      "name": "MintZeroQuantity",
      "type": "error"
    },
    {
      "inputs": [],
      "name": "NoBots",
      "type": "error"
    },
    {
      "inputs": [],
      "name": "OwnerQueryForNonexistentToken",
      "type": "error"
    },
    {
      "inputs": [],
      "name": "OwnershipNotInitializedForExtraData",
      "type": "error"
    },
    {
      "inputs": [],
      "name": "SaleInactive",
      "type": "error"
    },
    {
      "inputs": [],
      "name": "SoldOut",
      "type": "error"
    },
    {
      "inputs": [],
      "name": "TransferCallerNotOwnerNorApproved",
      "type": "error"
    },
    {
      "inputs": [],
      "name": "TransferFromIncorrectOwner",
      "type": "error"
    },
    {
      "inputs": [],
      "name": "TransferToNonERC721ReceiverImplementer",
      "type": "error"
    },
    {
      "inputs": [],
      "name": "TransferToZeroAddress",
      "type": "error"
    },
    {
      "inputs": [],
      "name": "URIQueryForNonexistentToken",
      "type": "error"
    },
    {
      "inputs": [],
      "name": "WithdrawFailed",
      "type": "error"
    },
    {
      "anonymous": false,
      "inputs": [
        {
          "indexed": true,
          "internalType": "address",
          "name": "owner",
          "type": "address"
        },
        {
          "indexed": true,
          "internalType": "address",
          "name": "approved",
          "type": "address"
        },
        {
          "indexed": true,
          "internalType": "uint256",
          "name": "tokenId",
          "type": "uint256"
        }
      ],
      "name": "Approval",
      "type": "event"
    },
    {
      "anonymous": false,
      "inputs": [
        {
          "indexed": true,
          "internalType": "address",
          "name": "owner",
          "type": "address"
        },
        {
          "indexed": true,
          "internalType": "address",
          "name": "operator",
          "type": "address"
        },
        {
          "indexed": false,
          "internalType": "bool",
          "name": "approved",
          "type": "bool"
        }
      ],
      "name": "ApprovalForAll",
      "type": "event"
    },
    {
      "anonymous": false,
      "inputs": [
        {
          "indexed": true,
          "internalType": "uint256",
          "name": "fromTokenId",
          "type": "uint256"
        },
        {
          "indexed": false,
          "internalType": "uint256",
          "name": "toTokenId",
          "type": "uint256"
        },
        {
          "indexed": true,
          "internalType": "address",
          "name": "from",
          "type": "address"
        },
        {
          "indexed": true,
          "internalType": "address",
          "name": "to",
          "type": "address"
        }
      ],
      "name": "ConsecutiveTransfer",
      "type": "event"
    },
    {
      "anonymous": false,
      "inputs": [
        {
          "indexed": true,
          "internalType": "address",
          "name": "previousOwner",
          "type": "address"
        },
        {
          "indexed": true,
          "internalType": "address",
          "name": "newOwner",
          "type": "address"
        }
      ],
      "name": "OwnershipTransferred",
      "type": "event"
    },
    {
      "anonymous": false,
      "inputs": [
        {
          "indexed": true,
          "internalType": "address",
          "name": "from",
          "type": "address"
        },
        {
          "indexed": true,
          "internalType": "address",
          "name": "to",
          "type": "address"
        },
        {
          "indexed": true,
          "internalType": "uint256",
          "name": "tokenId",
          "type": "uint256"
        }
      ],
      "name": "Transfer",
      "type": "event"
    },
    {
      "inputs": [],
      "name": "_baseTokenURI",
      "outputs": [
        {
          "internalType": "string",
          "name": "",
          "type": "string"
        }
      ],
      "stateMutability": "view",
      "type": "function"
    },
    {
      "inputs": [
        {
          "internalType": "address",
          "name": "to",
          "type": "address"
        },
        {
          "internalType": "uint256",
          "name": "tokenId",
          "type": "uint256"
        }
      ],
      "name": "approve",
      "outputs": [],
      "stateMutability": "nonpayable",
      "type": "function"
    },
    {
      "inputs": [
        {
          "internalType": "address",
          "name": "owner",
          "type": "address"
        }
      ],
      "name": "balanceOf",
      "outputs": [
        {
          "internalType": "uint256",
          "name": "",
          "type": "uint256"
        }
      ],
      "stateMutability": "view",
      "type": "function"
    },
    {
      "inputs": [
        {
          "internalType": "address",
          "name": "receiver",
          "type": "address"
        },
        {
          "internalType": "uint256",
          "name": "_quantity",
          "type": "uint256"
        }
      ],
      "name": "devMint",
      "outputs": [],
      "stateMutability": "nonpayable",
      "type": "function"
    },
    {
      "inputs": [
        {
          "internalType": "uint256",
          "name": "tokenId",
          "type": "uint256"
        }
      ],
      "name": "getApproved",
      "outputs": [
        {
          "internalType": "address",
          "name": "",
          "type": "address"
        }
      ],
      "stateMutability": "view",
      "type": "function"
    },
    {
      "inputs": [
        {
          "internalType": "uint256",
          "name": "tokenId",
          "type": "uint256"
        }
      ],
      "name": "getOwnershipData",
      "outputs": [
        {
          "components": [
            {
              "internalType": "address",
              "name": "addr",
              "type": "address"
            },
            {
              "internalType": "uint64",
              "name": "startTimestamp",
              "type": "uint64"
            },
            {
              "internalType": "bool",
              "name": "burned",
              "type": "bool"
            },
            {
              "internalType": "uint24",
              "name": "extraData",
              "type": "uint24"
            }
          ],
          "internalType": "struct IERC721A.TokenOwnership",
          "name": "",
          "type": "tuple"
        }
      ],
      "stateMutability": "view",
      "type": "function"
    },
    {
      "inputs": [
        {
          "internalType": "address",
          "name": "owner",
          "type": "address"
        },
        {
          "internalType": "address",
          "name": "operator",
          "type": "address"
        }
      ],
      "name": "isApprovedForAll",
      "outputs": [
        {
          "internalType": "bool",
          "name": "",
          "type": "bool"
        }
      ],
      "stateMutability": "view",
      "type": "function"
    },
    {
      "inputs": [],
      "name": "maxMintAmountPerTx",
      "outputs": [
        {
          "internalType": "uint256",
          "name": "",
          "type": "uint256"
        }
      ],
      "stateMutability": "view",
      "type": "function"
    },
    {
      "inputs": [],
      "name": "maxSupply",
      "outputs": [
        {
          "internalType": "uint256",
          "name": "",
          "type": "uint256"
        }
      ],
      "stateMutability": "view",
      "type": "function"
    },
    {
      "inputs": [
        {
          "internalType": "uint256",
          "name": "_quantity",
          "type": "uint256"
        }
      ],
      "name": "mint",
      "outputs": [],
      "stateMutability": "payable",
      "type": "function"
    },
    {
      "inputs": [],
      "name": "name",
      "outputs": [
        {
          "internalType": "string",
          "name": "",
          "type": "string"
        }
      ],
      "stateMutability": "view",
      "type": "function"
    },
    {
      "inputs": [],
      "name": "owner",
      "outputs": [
        {
          "internalType": "address",
          "name": "",
          "type": "address"
        }
      ],
      "stateMutability": "view",
      "type": "function"
    },
    {
      "inputs": [
        {
          "internalType": "uint256",
          "name": "tokenId",
          "type": "uint256"
        }
      ],
      "name": "ownerOf",
      "outputs": [
        {
          "internalType": "address",
          "name": "",
          "type": "address"
        }
      ],
      "stateMutability": "view",
      "type": "function"
    },
    {
      "inputs": [],
      "name": "price",
      "outputs": [
        {
          "internalType": "uint256",
          "name": "",
          "type": "uint256"
        }
      ],
      "stateMutability": "view",
      "type": "function"
    },
    {
      "inputs": [],
      "name": "renounceOwnership",
      "outputs": [],
      "stateMutability": "nonpayable",
      "type": "function"
    },
    {
      "inputs": [
        {
          "internalType": "address",
          "name": "from",
          "type": "address"
        },
        {
          "internalType": "address",
          "name": "to",
          "type": "address"
        },
        {
          "internalType": "uint256",
          "name": "tokenId",
          "type": "uint256"
        }
      ],
      "name": "safeTransferFrom",
      "outputs": [],
      "stateMutability": "nonpayable",
      "type": "function"
    },
    {
      "inputs": [
        {
          "internalType": "address",
          "name": "from",
          "type": "address"
        },
        {
          "internalType": "address",
          "name": "to",
          "type": "address"
        },
        {
          "internalType": "uint256",
          "name": "tokenId",
          "type": "uint256"
        },
        {
          "internalType": "bytes",
          "name": "_data",
          "type": "bytes"
        }
      ],
      "name": "safeTransferFrom",
      "outputs": [],
      "stateMutability": "nonpayable",
      "type": "function"
    },
    {
      "inputs": [],
      "name": "saleActive",
      "outputs": [
        {
          "internalType": "bool",
          "name": "",
          "type": "bool"
        }
      ],
      "stateMutability": "view",
      "type": "function"
    },
    {
      "inputs": [
        {
          "internalType": "address",
          "name": "operator",
          "type": "address"
        },
        {
          "internalType": "bool",
          "name": "approved",
          "type": "bool"
        }
      ],
      "name": "setApprovalForAll",
      "outputs": [],
      "stateMutability": "nonpayable",
      "type": "function"
    },
    {
      "inputs": [
        {
          "internalType": "string",
          "name": "baseURI",
          "type": "string"
        }
      ],
      "name": "setBaseURI",
      "outputs": [],
      "stateMutability": "nonpayable",
      "type": "function"
    },
    {
      "inputs": [
        {
          "internalType": "uint256",
          "name": "_maxMintAmountPerTx",
          "type": "uint256"
        }
      ],
      "name": "setMaxMintAmountPerTx",
      "outputs": [],
      "stateMutability": "nonpayable",
      "type": "function"
    },
    {
      "inputs": [
        {
          "internalType": "uint256",
          "name": "_price",
          "type": "uint256"
        }
      ],
      "name": "setPrice",
      "outputs": [],
      "stateMutability": "nonpayable",
      "type": "function"
    },
    {
      "inputs": [
        {
          "internalType": "bool",
          "name": "_state",
          "type": "bool"
        }
      ],
      "name": "setSaleState",
      "outputs": [],
      "stateMutability": "nonpayable",
      "type": "function"
    },
    {
      "inputs": [
        {
          "internalType": "bytes4",
          "name": "interfaceId",
          "type": "bytes4"
        }
      ],
      "name": "supportsInterface",
      "outputs": [
        {
          "internalType": "bool",
          "name": "",
          "type": "bool"
        }
      ],
      "stateMutability": "view",
      "type": "function"
    },
    {
      "inputs": [],
      "name": "symbol",
      "outputs": [
        {
          "internalType": "string",
          "name": "",
          "type": "string"
        }
      ],
      "stateMutability": "view",
      "type": "function"
    },
    {
      "inputs": [
        {
          "internalType": "uint256",
          "name": "_tokenId",
          "type": "uint256"
        }
      ],
      "name": "tokenURI",
      "outputs": [
        {
          "internalType": "string",
          "name": "",
          "type": "string"
        }
      ],
      "stateMutability": "view",
      "type": "function"
    },
    {
      "inputs": [],
      "name": "totalSupply",
      "outputs": [
        {
          "internalType": "uint256",
          "name": "",
          "type": "uint256"
        }
      ],
      "stateMutability": "view",
      "type": "function"
    },
    {
      "inputs": [
        {
          "internalType": "address",
          "name": "from",
          "type": "address"
        },
        {
          "internalType": "address",
          "name": "to",
          "type": "address"
        },
        {
          "internalType": "uint256",
          "name": "tokenId",
          "type": "uint256"
        }
      ],
      "name": "transferFrom",
      "outputs": [],
      "stateMutability": "nonpayable",
      "type": "function"
    },
    {
      "inputs": [
        {
          "internalType": "address",
          "name": "newOwner",
          "type": "address"
        }
      ],
      "name": "transferOwnership",
      "outputs": [],
      "stateMutability": "nonpayable",
      "type": "function"
    },
    {
      "inputs": [],
      "name": "withdraw",
      "outputs": [],
      "stateMutability": "payable",
      "type": "function"
    }
  ],
  "bytecode": "0x6080604052662386f26fc10000600b556005600c556000600d60006101000a81548160ff0219169083151502179055503480156200003c57600080fd5b506040518060400160405280600881526020017f4e4654204e616d650000000000000000000000000000000000000000000000008152506040518060400160405280600581526020017f544f4b454e000000000000000000000000000000000000000000000000000000815250620000c9620000bd6200016f60201b60201c565b6200017760201b60201c565b8160039080519060200190620000e192919062000240565b508060049080519060200190620000fa92919062000240565b506200010b6200023b60201b60201c565b600181905550505060016009819055506040518060400160405280601b81526020017f697066733a2f2f706174685f746f5f68696464656e5f697066732f0000000000815250600a90805190602001906200016892919062000240565b5062000355565b600033905090565b60008060009054906101000a900473ffffffffffffffffffffffffffffffffffffffff169050816000806101000a81548173ffffffffffffffffffffffffffffffffffffffff021916908373ffffffffffffffffffffffffffffffffffffffff1602179055508173ffffffffffffffffffffffffffffffffffffffff168173ffffffffffffffffffffffffffffffffffffffff167f8be0079c531659141344cd1fd0a4f28419497f9722a3daafe3b4186f6b6457e060405160405180910390a35050565b600090565b8280546200024e906200031f565b90600052602060002090601f016020900481019282620002725760008555620002be565b82601f106200028d57805160ff1916838001178555620002be565b82800160010185558215620002be579182015b82811115620002bd578251825591602001919060010190620002a0565b5b509050620002cd9190620002d1565b5090565b5b80821115620002ec576000816000905550600101620002d2565b5090565b7f4e487b7100000000000000000000000000000000000000000000000000000000600052602260045260246000fd5b600060028204905060018216806200033857607f821691505b602082108114156200034f576200034e620002f0565b5b50919050565b6131e880620003656000396000f3fe6080604052600436106101cd5760003560e01c806391b7f5ed116100f7578063b071401b11610095578063cfc86f7b11610064578063cfc86f7b14610644578063d5abeb011461066f578063e985e9c51461069a578063f2fde38b146106d7576101cd565b8063b071401b1461058c578063b88d4fde146105b5578063c4e37095146105de578063c87b56dd14610607576101cd565b806395d89b41116100d157806395d89b41146104f1578063a035b1fe1461051c578063a0712d6814610547578063a22cb46514610563576101cd565b806391b7f5ed146104605780639231ab2a1461048957806394354fd0146104c6576101cd565b806342842e0e1161016f57806368428a1b1161013e57806368428a1b146103b657806370a08231146103e1578063715018a61461041e5780638da5cb5b14610435576101cd565b806342842e0e146102fe57806355f804b314610327578063627804af146103505780636352211e14610379576101cd565b8063095ea7b3116101ab578063095ea7b31461027757806318160ddd146102a057806323b872dd146102cb5780633ccfd60b146102f4576101cd565b806301ffc9a7146101d257806306fdde031461020f578063081812fc1461023a575b600080fd5b3480156101de57600080fd5b506101f960048036038101906101f491906124df565b610700565b6040516102069190612527565b60405180910390f35b34801561021b57600080fd5b50610224610792565b60405161023191906125db565b60405180910390f35b34801561024657600080fd5b50610261600480360381019061025c9190612633565b610824565b60405161026e91906126a1565b60405180910390f35b34801561028357600080fd5b5061029e600480360381019061029991906126e8565b6108a3565b005b3480156102ac57600080fd5b506102b56109e7565b6040516102c29190612737565b60405180910390f35b3480156102d757600080fd5b506102f260048036038101906102ed9190612752565b6109fe565b005b6102fc610d23565b005b34801561030a57600080fd5b5061032560048036038101906103209190612752565b610e4c565b005b34801561033357600080fd5b5061034e600480360381019061034991906128da565b610e6c565b005b34801561035c57600080fd5b50610377600480360381019061037291906126e8565b610f02565b005b34801561038557600080fd5b506103a0600480360381019061039b9190612633565b610fd9565b6040516103ad91906126a1565b60405180910390f35b3480156103c257600080fd5b506103cb610feb565b6040516103d89190612527565b60405180910390f35b3480156103ed57600080fd5b5061040860048036038101906104039190612923565b610ffe565b6040516104159190612737565b60405180910390f35b34801561042a57600080fd5b506104336110b7565b005b34801561044157600080fd5b5061044a61113f565b60405161045791906126a1565b60405180910390f35b34801561046c57600080fd5b5061048760048036038101906104829190612633565b611168565b005b34801561049557600080fd5b506104b060048036038101906104ab9190612633565b6111ee565b6040516104bd9190612a04565b60405180910390f35b3480156104d257600080fd5b506104db611206565b6040516104e89190612737565b60405180910390f35b3480156104fd57600080fd5b5061050661120c565b60405161051391906125db565b60405180910390f35b34801561052857600080fd5b5061053161129e565b60405161053e9190612737565b60405180910390f35b610561600480360381019061055c9190612633565b6112a4565b005b34801561056f57600080fd5b5061058a60048036038101906105859190612a4b565b611434565b005b34801561059857600080fd5b506105b360048036038101906105ae9190612633565b6115ac565b005b3480156105c157600080fd5b506105dc60048036038101906105d79190612b2c565b611632565b005b3480156105ea57600080fd5b5061060560048036038101906106009190612baf565b6116a5565b005b34801561061357600080fd5b5061062e60048036038101906106299190612633565b61173e565b60405161063b91906125db565b60405180910390f35b34801561065057600080fd5b506106596117e5565b60405161066691906125db565b60405180910390f35b34801561067b57600080fd5b50610684611873565b6040516106919190612737565b60405180910390f35b3480156106a657600080fd5b506106c160048036038101906106bc9190612bdc565b611878565b6040516106ce9190612527565b60405180910390f35b3480156106e357600080fd5b506106fe60048036038101906106f99190612923565b61190c565b005b60006301ffc9a760e01b827bffffffffffffffffffffffffffffffffffffffffffffffffffffffff1916148061075b57506380ac58cd60e01b827bffffffffffffffffffffffffffffffffffffffffffffffffffffffff1916145b8061078b5750635b5e139f60e01b827bffffffffffffffffffffffffffffffffffffffffffffffffffffffff1916145b9050919050565b6060600380546107a190612c4b565b80601f01602080910402602001604051908101604052809291908181526020018280546107cd90612c4b565b801561081a5780601f106107ef5761010080835404028352916020019161081a565b820191906000526020600020905b8154815290600101906020018083116107fd57829003601f168201915b5050505050905090565b600061082f82611a04565b610865576040517fcf4700e400000000000000000000000000000000000000000000000000000000815260040160405180910390fd5b6007600083815260200190815260200160002060000160009054906101000a900473ffffffffffffffffffffffffffffffffffffffff169050919050565b60006108ae82610fd9565b90508073ffffffffffffffffffffffffffffffffffffffff166108cf611a63565b73ffffffffffffffffffffffffffffffffffffffff1614610932576108fb816108f6611a63565b611878565b610931576040517fcfb3b94200000000000000000000000000000000000000000000000000000000815260040160405180910390fd5b5b826007600084815260200190815260200160002060000160006101000a81548173ffffffffffffffffffffffffffffffffffffffff021916908373ffffffffffffffffffffffffffffffffffffffff160217905550818373ffffffffffffffffffffffffffffffffffffffff168273ffffffffffffffffffffffffffffffffffffffff167f8c5be1e5ebec7d5bd14f71427d1e84f3dd0314c0f7b2291e5b200ac8c7c3b92560405160405180910390a4505050565b60006109f1611a6b565b6002546001540303905090565b6000610a0982611a70565b90508373ffffffffffffffffffffffffffffffffffffffff168173ffffffffffffffffffffffffffffffffffffffff1614610a70576040517fa114810000000000000000000000000000000000000000000000000000000000815260040160405180910390fd5b600080610a7c84611b3e565b91509150610a928187610a8d611a63565b611b65565b610ade57610aa786610aa2611a63565b611878565b610add576040517f59c896be00000000000000000000000000000000000000000000000000000000815260040160405180910390fd5b5b600073ffffffffffffffffffffffffffffffffffffffff168573ffffffffffffffffffffffffffffffffffffffff161415610b45576040517fea553b3400000000000000000000000000000000000000000000000000000000815260040160405180910390fd5b610b528686866001611ba9565b8015610b5d57600082555b600660008773ffffffffffffffffffffffffffffffffffffffff1673ffffffffffffffffffffffffffffffffffffffff168152602001908152602001600020600081546001900391905081905550600660008673ffffffffffffffffffffffffffffffffffffffff1673ffffffffffffffffffffffffffffffffffffffff1681526020019081526020016000206000815460010191905081905550610c2b85610c07888887611baf565b7c020000000000000000000000000000000000000000000000000000000017611bd7565b600560008681526020019081526020016000208190555060007c020000000000000000000000000000000000000000000000000000000084161415610cb3576000600185019050600060056000838152602001908152602001600020541415610cb1576001548114610cb0578360056000838152602001908152602001600020819055505b5b505b838573ffffffffffffffffffffffffffffffffffffffff168773ffffffffffffffffffffffffffffffffffffffff167fddf252ad1be2c89b69c2b068fc378daa952ba7f163c4a11628f55a4df523b3ef60405160405180910390a4610d1b8686866001611c02565b505050505050565b610d2b611c08565b73ffffffffffffffffffffffffffffffffffffffff16610d4961113f565b73ffffffffffffffffffffffffffffffffffffffff1614610d9f576040517f08c379a0000000000000000000000000000000000000000000000000000000008152600401610d9690612cc9565b60405180910390fd5b6000610da961113f565b73ffffffffffffffffffffffffffffffffffffffff1647604051610dcc90612d1a565b60006040518083038185875af1925050503d8060008114610e09576040519150601f19603f3d011682016040523d82523d6000602084013e610e0e565b606091505b5050905080610e49576040517f750b219c00000000000000000000000000000000000000000000000000000000815260040160405180910390fd5b50565b610e6783838360405180602001604052806000815250611632565b505050565b610e74611c08565b73ffffffffffffffffffffffffffffffffffffffff16610e9261113f565b73ffffffffffffffffffffffffffffffffffffffff1614610ee8576040517f08c379a0000000000000000000000000000000000000000000000000000000008152600401610edf90612cc9565b60405180910390fd5b80600a9080519060200190610efe929190612381565b5050565b610f0a611c08565b73ffffffffffffffffffffffffffffffffffffffff16610f2861113f565b73ffffffffffffffffffffffffffffffffffffffff1614610f7e576040517f08c379a0000000000000000000000000000000000000000000000000000000008152600401610f7590612cc9565b60405180910390fd5b600a81610f896109e7565b610f939190612d5e565b1115610fcb576040517f52df9fe500000000000000000000000000000000000000000000000000000000815260040160405180910390fd5b610fd58282611c10565b5050565b6000610fe482611a70565b9050919050565b600d60009054906101000a900460ff1681565b60008073ffffffffffffffffffffffffffffffffffffffff168273ffffffffffffffffffffffffffffffffffffffff161415611066576040517f8f4eb60400000000000000000000000000000000000000000000000000000000815260040160405180910390fd5b67ffffffffffffffff600660008473ffffffffffffffffffffffffffffffffffffffff1673ffffffffffffffffffffffffffffffffffffffff16815260200190815260200160002054169050919050565b6110bf611c08565b73ffffffffffffffffffffffffffffffffffffffff166110dd61113f565b73ffffffffffffffffffffffffffffffffffffffff1614611133576040517f08c379a000000000000000000000000000000000000000000000000000000000815260040161112a90612cc9565b60405180910390fd5b61113d6000611c2e565b565b60008060009054906101000a900473ffffffffffffffffffffffffffffffffffffffff16905090565b611170611c08565b73ffffffffffffffffffffffffffffffffffffffff1661118e61113f565b73ffffffffffffffffffffffffffffffffffffffff16146111e4576040517f08c379a00000000000000000000000000000000000000000000000000000000081526004016111db90612cc9565b60405180910390fd5b80600b8190555050565b6111f6612407565b6111ff82611cf2565b9050919050565b600c5481565b60606004805461121b90612c4b565b80601f016020809104026020016040519081016040528092919081815260200182805461124790612c4b565b80156112945780601f1061126957610100808354040283529160200191611294565b820191906000526020600020905b81548152906001019060200180831161127757829003601f168201915b5050505050905090565b600b5481565b600d60009054906101000a900460ff166112ea576040517f3f88677400000000000000000000000000000000000000000000000000000000815260040160405180910390fd5b60018110806112fa5750600c5481115b15611331576040517f524f409b00000000000000000000000000000000000000000000000000000000815260040160405180910390fd5b600a8161133c6109e7565b6113469190612d5e565b111561137e576040517f52df9fe500000000000000000000000000000000000000000000000000000000815260040160405180910390fd5b3273ffffffffffffffffffffffffffffffffffffffff163373ffffffffffffffffffffffffffffffffffffffff16146113e2576040517e61c20e00000000000000000000000000000000000000000000000000000000815260040160405180910390fd5b80600b546113f09190612db4565b3414611427576040517ebfc92100000000000000000000000000000000000000000000000000000000815260040160405180910390fd5b6114313382611c10565b50565b61143c611a63565b73ffffffffffffffffffffffffffffffffffffffff168273ffffffffffffffffffffffffffffffffffffffff1614156114a1576040517fb06307db00000000000000000000000000000000000000000000000000000000815260040160405180910390fd5b80600860006114ae611a63565b73ffffffffffffffffffffffffffffffffffffffff1673ffffffffffffffffffffffffffffffffffffffff16815260200190815260200160002060008473ffffffffffffffffffffffffffffffffffffffff1673ffffffffffffffffffffffffffffffffffffffff16815260200190815260200160002060006101000a81548160ff0219169083151502179055508173ffffffffffffffffffffffffffffffffffffffff1661155b611a63565b73ffffffffffffffffffffffffffffffffffffffff167f17307eab39ab6107e8899845ad3d59bd9653f200f220920489ca2b5937696c31836040516115a09190612527565b60405180910390a35050565b6115b4611c08565b73ffffffffffffffffffffffffffffffffffffffff166115d261113f565b73ffffffffffffffffffffffffffffffffffffffff1614611628576040517f08c379a000000000000000000000000000000000000000000000000000000000815260040161161f90612cc9565b60405180910390fd5b80600c8190555050565b61163d8484846109fe565b60008373ffffffffffffffffffffffffffffffffffffffff163b1461169f5761166884848484611d12565b61169e576040517fd1a57ed600000000000000000000000000000000000000000000000000000000815260040160405180910390fd5b5b50505050565b6116ad611c08565b73ffffffffffffffffffffffffffffffffffffffff166116cb61113f565b73ffffffffffffffffffffffffffffffffffffffff1614611721576040517f08c379a000000000000000000000000000000000000000000000000000000000815260040161171890612cc9565b60405180910390fd5b80600d60006101000a81548160ff02191690831515021790555050565b606061174982611a04565b611788576040517f08c379a000000000000000000000000000000000000000000000000000000000815260040161177f90612e80565b60405180910390fd5b6000611792611e63565b905060008151116117b257604051806020016040528060008152506117dd565b806117bc84611ef5565b6040516020016117cd929190612edc565b6040516020818303038152906040525b915050919050565b600a80546117f290612c4b565b80601f016020809104026020016040519081016040528092919081815260200182805461181e90612c4b565b801561186b5780601f106118405761010080835404028352916020019161186b565b820191906000526020600020905b81548152906001019060200180831161184e57829003601f168201915b505050505081565b600a81565b6000600860008473ffffffffffffffffffffffffffffffffffffffff1673ffffffffffffffffffffffffffffffffffffffff16815260200190815260200160002060008373ffffffffffffffffffffffffffffffffffffffff1673ffffffffffffffffffffffffffffffffffffffff16815260200190815260200160002060009054906101000a900460ff16905092915050565b611914611c08565b73ffffffffffffffffffffffffffffffffffffffff1661193261113f565b73ffffffffffffffffffffffffffffffffffffffff1614611988576040517f08c379a000000000000000000000000000000000000000000000000000000000815260040161197f90612cc9565b60405180910390fd5b600073ffffffffffffffffffffffffffffffffffffffff168173ffffffffffffffffffffffffffffffffffffffff1614156119f8576040517f08c379a00000000000000000000000000000000000000000000000000000000081526004016119ef90612f72565b60405180910390fd5b611a0181611c2e565b50565b600081611a0f611a6b565b11158015611a1e575060015482105b8015611a5c575060007c0100000000000000000000000000000000000000000000000000000000600560008581526020019081526020016000205416145b9050919050565b600033905090565b600090565b60008082905080611a7f611a6b565b11611b0757600154811015611b065760006005600083815260200190815260200160002054905060007c010000000000000000000000000000000000000000000000000000000082161415611b04575b6000811415611afa576005600083600190039350838152602001908152602001600020549050611acf565b8092505050611b39565b505b5b6040517fdf2d9b4200000000000000000000000000000000000000000000000000000000815260040160405180910390fd5b919050565b60008060006007600085815260200190815260200160002090508092508254915050915091565b600073ffffffffffffffffffffffffffffffffffffffff8316925073ffffffffffffffffffffffffffffffffffffffff821691508382148383141790509392505050565b50505050565b60008060e883901c905060e8611bc6868684612056565b62ffffff16901b9150509392505050565b600073ffffffffffffffffffffffffffffffffffffffff83169250814260a01b178317905092915050565b50505050565b600033905090565b611c2a82826040518060200160405280600081525061205f565b5050565b60008060009054906101000a900473ffffffffffffffffffffffffffffffffffffffff169050816000806101000a81548173ffffffffffffffffffffffffffffffffffffffff021916908373ffffffffffffffffffffffffffffffffffffffff1602179055508173ffffffffffffffffffffffffffffffffffffffff168173ffffffffffffffffffffffffffffffffffffffff167f8be0079c531659141344cd1fd0a4f28419497f9722a3daafe3b4186f6b6457e060405160405180910390a35050565b611cfa612407565b611d0b611d0683611a70565b6120fd565b9050919050565b60008373ffffffffffffffffffffffffffffffffffffffff1663150b7a02611d38611a63565b8786866040518563ffffffff1660e01b8152600401611d5a9493929190612fe7565b6020604051808303816000875af1925050508015611d9657506040513d601f19601f82011682018060405250810190611d939190613048565b60015b611e10573d8060008114611dc6576040519150601f19603f3d011682016040523d82523d6000602084013e611dcb565b606091505b50600081511415611e08576040517fd1a57ed600000000000000000000000000000000000000000000000000000000815260040160405180910390fd5b805181602001fd5b63150b7a0260e01b7bffffffffffffffffffffffffffffffffffffffffffffffffffffffff1916817bffffffffffffffffffffffffffffffffffffffffffffffffffffffff191614915050949350505050565b6060600a8054611e7290612c4b565b80601f0160208091040260200160405190810160405280929190818152602001828054611e9e90612c4b565b8015611eeb5780601f10611ec057610100808354040283529160200191611eeb565b820191906000526020600020905b815481529060010190602001808311611ece57829003601f168201915b5050505050905090565b60606000821415611f3d576040518060400160405280600181526020017f30000000000000000000000000000000000000000000000000000000000000008152509050612051565b600082905060005b60008214611f6f578080611f5890613075565b915050600a82611f6891906130ed565b9150611f45565b60008167ffffffffffffffff811115611f8b57611f8a6127af565b5b6040519080825280601f01601f191660200182016040528015611fbd5781602001600182028036833780820191505090505b5090505b6000851461204a57600182611fd6919061311e565b9150600a85611fe59190613152565b6030611ff19190612d5e565b60f81b81838151811061200757612006613183565b5b60200101907effffffffffffffffffffffffffffffffffffffffffffffffffffffffffffff1916908160001a905350600a8561204391906130ed565b9450611fc1565b8093505050505b919050565b60009392505050565b61206983836121b3565b60008373ffffffffffffffffffffffffffffffffffffffff163b146120f85760006001549050600083820390505b6120aa6000868380600101945086611d12565b6120e0576040517fd1a57ed600000000000000000000000000000000000000000000000000000000815260040160405180910390fd5b8181106120975781600154146120f557600080fd5b50505b505050565b612105612407565b81816000019073ffffffffffffffffffffffffffffffffffffffff16908173ffffffffffffffffffffffffffffffffffffffff168152505060a082901c816020019067ffffffffffffffff16908167ffffffffffffffff168152505060007c01000000000000000000000000000000000000000000000000000000008316141581604001901515908115158152505060e882901c816060019062ffffff16908162ffffff1681525050919050565b6000600154905060008214156121f5576040517fb562e8dd00000000000000000000000000000000000000000000000000000000815260040160405180910390fd5b6122026000848385611ba9565b600160406001901b178202600660008573ffffffffffffffffffffffffffffffffffffffff1673ffffffffffffffffffffffffffffffffffffffff168152602001908152602001600020600082825401925050819055506122798361226a6000866000611baf565b61227385612371565b17611bd7565b6005600083815260200190815260200160002081905550600080838301905073ffffffffffffffffffffffffffffffffffffffff85169150828260007fddf252ad1be2c89b69c2b068fc378daa952ba7f163c4a11628f55a4df523b3ef600080a4600183015b81811461231a57808360007fddf252ad1be2c89b69c2b068fc378daa952ba7f163c4a11628f55a4df523b3ef600080a46001810190506122df565b506000821415612356576040517f2e07630000000000000000000000000000000000000000000000000000000000815260040160405180910390fd5b80600181905550505061236c6000848385611c02565b505050565b60006001821460e11b9050919050565b82805461238d90612c4b565b90600052602060002090601f0160209004810192826123af57600085556123f6565b82601f106123c857805160ff19168380011785556123f6565b828001600101855582156123f6579182015b828111156123f55782518255916020019190600101906123da565b5b5090506124039190612456565b5090565b6040518060800160405280600073ffffffffffffffffffffffffffffffffffffffff168152602001600067ffffffffffffffff168152602001600015158152602001600062ffffff1681525090565b5b8082111561246f576000816000905550600101612457565b5090565b6000604051905090565b600080fd5b600080fd5b60007fffffffff0000000000000000000000000000000000000000000000000000000082169050919050565b6124bc81612487565b81146124c757600080fd5b50565b6000813590506124d9816124b3565b92915050565b6000602082840312156124f5576124f461247d565b5b6000612503848285016124ca565b91505092915050565b60008115159050919050565b6125218161250c565b82525050565b600060208201905061253c6000830184612518565b92915050565b600081519050919050565b600082825260208201905092915050565b60005b8381101561257c578082015181840152602081019050612561565b8381111561258b576000848401525b50505050565b6000601f19601f8301169050919050565b60006125ad82612542565b6125b7818561254d565b93506125c781856020860161255e565b6125d081612591565b840191505092915050565b600060208201905081810360008301526125f581846125a2565b905092915050565b6000819050919050565b612610816125fd565b811461261b57600080fd5b50565b60008135905061262d81612607565b92915050565b6000602082840312156126495761264861247d565b5b60006126578482850161261e565b91505092915050565b600073ffffffffffffffffffffffffffffffffffffffff82169050919050565b600061268b82612660565b9050919050565b61269b81612680565b82525050565b60006020820190506126b66000830184612692565b92915050565b6126c581612680565b81146126d057600080fd5b50565b6000813590506126e2816126bc565b92915050565b600080604083850312156126ff576126fe61247d565b5b600061270d858286016126d3565b925050602061271e8582860161261e565b9150509250929050565b612731816125fd565b82525050565b600060208201905061274c6000830184612728565b92915050565b60008060006060848603121561276b5761276a61247d565b5b6000612779868287016126d3565b935050602061278a868287016126d3565b925050604061279b8682870161261e565b9150509250925092565b600080fd5b600080fd5b7f4e487b7100000000000000000000000000000000000000000000000000000000600052604160045260246000fd5b6127e782612591565b810181811067ffffffffffffffff82111715612806576128056127af565b5b80604052505050565b6000612819612473565b905061282582826127de565b919050565b600067ffffffffffffffff821115612845576128446127af565b5b61284e82612591565b9050602081019050919050565b82818337600083830152505050565b600061287d6128788461282a565b61280f565b905082815260208101848484011115612899576128986127aa565b5b6128a484828561285b565b509392505050565b600082601f8301126128c1576128c06127a5565b5b81356128d184826020860161286a565b91505092915050565b6000602082840312156128f0576128ef61247d565b5b600082013567ffffffffffffffff81111561290e5761290d612482565b5b61291a848285016128ac565b91505092915050565b6000602082840312156129395761293861247d565b5b6000612947848285016126d3565b91505092915050565b61295981612680565b82525050565b600067ffffffffffffffff82169050919050565b61297c8161295f565b82525050565b61298b8161250c565b82525050565b600062ffffff82169050919050565b6129a981612991565b82525050565b6080820160008201516129c56000850182612950565b5060208201516129d86020850182612973565b5060408201516129eb6040850182612982565b5060608201516129fe60608501826129a0565b50505050565b6000608082019050612a1960008301846129af565b92915050565b612a288161250c565b8114612a3357600080fd5b50565b600081359050612a4581612a1f565b92915050565b60008060408385031215612a6257612a6161247d565b5b6000612a70858286016126d3565b9250506020612a8185828601612a36565b9150509250929050565b600067ffffffffffffffff821115612aa657612aa56127af565b5b612aaf82612591565b9050602081019050919050565b6000612acf612aca84612a8b565b61280f565b905082815260208101848484011115612aeb57612aea6127aa565b5b612af684828561285b565b509392505050565b600082601f830112612b1357612b126127a5565b5b8135612b23848260208601612abc565b91505092915050565b60008060008060808587031215612b4657612b4561247d565b5b6000612b54878288016126d3565b9450506020612b65878288016126d3565b9350506040612b768782880161261e565b925050606085013567ffffffffffffffff811115612b9757612b96612482565b5b612ba387828801612afe565b91505092959194509250565b600060208284031215612bc557612bc461247d565b5b6000612bd384828501612a36565b91505092915050565b60008060408385031215612bf357612bf261247d565b5b6000612c01858286016126d3565b9250506020612c12858286016126d3565b9150509250929050565b7f4e487b7100000000000000000000000000000000000000000000000000000000600052602260045260246000fd5b60006002820490506001821680612c6357607f821691505b60208210811415612c7757612c76612c1c565b5b50919050565b7f4f776e61626c653a2063616c6c6572206973206e6f7420746865206f776e6572600082015250565b6000612cb360208361254d565b9150612cbe82612c7d565b602082019050919050565b60006020820190508181036000830152612ce281612ca6565b9050919050565b600081905092915050565b50565b6000612d04600083612ce9565b9150612d0f82612cf4565b600082019050919050565b6000612d2582612cf7565b9150819050919050565b7f4e487b7100000000000000000000000000000000000000000000000000000000600052601160045260246000fd5b6000612d69826125fd565b9150612d74836125fd565b9250827fffffffffffffffffffffffffffffffffffffffffffffffffffffffffffffffff03821115612da957612da8612d2f565b5b828201905092915050565b6000612dbf826125fd565b9150612dca836125fd565b9250817fffffffffffffffffffffffffffffffffffffffffffffffffffffffffffffffff0483118215151615612e0357612e02612d2f565b5b828202905092915050565b7f4552433732314d657461646174613a2055524920717565727920666f72206e6f60008201527f6e6578697374656e7420746f6b656e0000000000000000000000000000000000602082015250565b6000612e6a602f8361254d565b9150612e7582612e0e565b604082019050919050565b60006020820190508181036000830152612e9981612e5d565b9050919050565b600081905092915050565b6000612eb682612542565b612ec08185612ea0565b9350612ed081856020860161255e565b80840191505092915050565b6000612ee88285612eab565b9150612ef48284612eab565b91508190509392505050565b7f4f776e61626c653a206e6577206f776e657220697320746865207a65726f206160008201527f6464726573730000000000000000000000000000000000000000000000000000602082015250565b6000612f5c60268361254d565b9150612f6782612f00565b604082019050919050565b60006020820190508181036000830152612f8b81612f4f565b9050919050565b600081519050919050565b600082825260208201905092915050565b6000612fb982612f92565b612fc38185612f9d565b9350612fd381856020860161255e565b612fdc81612591565b840191505092915050565b6000608082019050612ffc6000830187612692565b6130096020830186612692565b6130166040830185612728565b81810360608301526130288184612fae565b905095945050505050565b600081519050613042816124b3565b92915050565b60006020828403121561305e5761305d61247d565b5b600061306c84828501613033565b91505092915050565b6000613080826125fd565b91507fffffffffffffffffffffffffffffffffffffffffffffffffffffffffffffffff8214156130b3576130b2612d2f565b5b600182019050919050565b7f4e487b7100000000000000000000000000000000000000000000000000000000600052601260045260246000fd5b60006130f8826125fd565b9150613103836125fd565b925082613113576131126130be565b5b828204905092915050565b6000613129826125fd565b9150613134836125fd565b92508282101561314757613146612d2f565b5b828203905092915050565b600061315d826125fd565b9150613168836125fd565b925082613178576131776130be565b5b828206905092915050565b7f4e487b7100000000000000000000000000000000000000000000000000000000600052603260045260246000fdfea264697066735822122037b5c1e719bfdfb849d471d3c553d1dcf9b168a9b5f0cdd40a0ef516c580f1db64736f6c634300080b0033",
  "linkReferences": {},
  "deployedLinkReferences": {}
}