{
  "_format": "hh-sol-artifact-1",
  "contractName": "ERC721ATEST",
  "sourceName": "cache/solpp-generated-contracts/ERC721A.sol",
  "abi": [
    {
      "inputs": [],
      "stateMutability": "nonpayable",
      "type": "constructor"
    },
    {
      "inputs": [],
      "name": "ApprovalCallerNotOwnerNorApproved",
      "type": "error"
    },
    {
      "inputs": [],
      "name": "ApprovalQueryForNonexistentToken",
      "type": "error"
    },
    {
      "inputs": [],
      "name": "ApprovalToCurrentOwner",
      "type": "error"
    },
    {
      "inputs": [],
      "name": "ApproveToCaller",
      "type": "error"
    },
    {
      "inputs": [],
      "name": "BalanceQueryForZeroAddress",
      "type": "error"
    },
    {
      "inputs": [],
      "name": "InvalidPrice",
      "type": "error"
    },
    {
      "inputs": [],
      "name": "InvalidQuantity",
      "type": "error"
    },
    {
      "inputs": [],
      "name": "MintToZeroAddress",
      "type": "error"
    },
    {
      "inputs": [],
      "name": "MintZeroQuantity",
      "type": "error"
    },
    {
      "inputs": [],
      "name": "NoBots",
      "type": "error"
    },
    {
      "inputs": [],
      "name": "OwnerIndexOutOfBounds",
      "type": "error"
    },
    {
      "inputs": [],
      "name": "OwnerQueryForNonexistentToken",
      "type": "error"
    },
    {
      "inputs": [],
      "name": "SaleInactive",
      "type": "error"
    },
    {
      "inputs": [],
      "name": "SoldOut",
      "type": "error"
    },
    {
      "inputs": [],
      "name": "TokenIndexOutOfBounds",
      "type": "error"
    },
    {
      "inputs": [],
      "name": "TransferCallerNotOwnerNorApproved",
      "type": "error"
    },
    {
      "inputs": [],
      "name": "TransferFromIncorrectOwner",
      "type": "error"
    },
    {
      "inputs": [],
      "name": "TransferToNonERC721ReceiverImplementer",
      "type": "error"
    },
    {
      "inputs": [],
      "name": "TransferToZeroAddress",
      "type": "error"
    },
    {
      "inputs": [],
      "name": "WithdrawFailed",
      "type": "error"
    },
    {
      "anonymous": false,
      "inputs": [
        {
          "indexed": true,
          "internalType": "address",
          "name": "owner",
          "type": "address"
        },
        {
          "indexed": true,
          "internalType": "address",
          "name": "approved",
          "type": "address"
        },
        {
          "indexed": true,
          "internalType": "uint256",
          "name": "tokenId",
          "type": "uint256"
        }
      ],
      "name": "Approval",
      "type": "event"
    },
    {
      "anonymous": false,
      "inputs": [
        {
          "indexed": true,
          "internalType": "address",
          "name": "owner",
          "type": "address"
        },
        {
          "indexed": true,
          "internalType": "address",
          "name": "operator",
          "type": "address"
        },
        {
          "indexed": false,
          "internalType": "bool",
          "name": "approved",
          "type": "bool"
        }
      ],
      "name": "ApprovalForAll",
      "type": "event"
    },
    {
      "anonymous": false,
      "inputs": [
        {
          "indexed": true,
          "internalType": "address",
          "name": "previousOwner",
          "type": "address"
        },
        {
          "indexed": true,
          "internalType": "address",
          "name": "newOwner",
          "type": "address"
        }
      ],
      "name": "OwnershipTransferred",
      "type": "event"
    },
    {
      "anonymous": false,
      "inputs": [
        {
          "indexed": true,
          "internalType": "address",
          "name": "from",
          "type": "address"
        },
        {
          "indexed": true,
          "internalType": "address",
          "name": "to",
          "type": "address"
        },
        {
          "indexed": true,
          "internalType": "uint256",
          "name": "tokenId",
          "type": "uint256"
        }
      ],
      "name": "Transfer",
      "type": "event"
    },
    {
      "inputs": [],
      "name": "_baseTokenURI",
      "outputs": [
        {
          "internalType": "string",
          "name": "",
          "type": "string"
        }
      ],
      "stateMutability": "view",
      "type": "function"
    },
    {
      "inputs": [
        {
          "internalType": "address",
          "name": "to",
          "type": "address"
        },
        {
          "internalType": "uint256",
          "name": "tokenId",
          "type": "uint256"
        }
      ],
      "name": "approve",
      "outputs": [],
      "stateMutability": "nonpayable",
      "type": "function"
    },
    {
      "inputs": [
        {
          "internalType": "address",
          "name": "owner",
          "type": "address"
        }
      ],
      "name": "balanceOf",
      "outputs": [
        {
          "internalType": "uint256",
          "name": "",
          "type": "uint256"
        }
      ],
      "stateMutability": "view",
      "type": "function"
    },
    {
      "inputs": [
        {
          "internalType": "address",
          "name": "receiver",
          "type": "address"
        },
        {
          "internalType": "uint256",
          "name": "_quantity",
          "type": "uint256"
        }
      ],
      "name": "devMint",
      "outputs": [],
      "stateMutability": "nonpayable",
      "type": "function"
    },
    {
      "inputs": [
        {
          "internalType": "uint256",
          "name": "tokenId",
          "type": "uint256"
        }
      ],
      "name": "getApproved",
      "outputs": [
        {
          "internalType": "address",
          "name": "",
          "type": "address"
        }
      ],
      "stateMutability": "view",
      "type": "function"
    },
    {
      "inputs": [
        {
          "internalType": "uint256",
          "name": "tokenId",
          "type": "uint256"
        }
      ],
      "name": "getOwnershipData",
      "outputs": [
        {
          "components": [
            {
              "internalType": "address",
              "name": "addr",
              "type": "address"
            },
            {
              "internalType": "uint64",
              "name": "startTimestamp",
              "type": "uint64"
            },
            {
              "internalType": "bool",
              "name": "burned",
              "type": "bool"
            }
          ],
          "internalType": "struct ERC721A.TokenOwnership",
          "name": "",
          "type": "tuple"
        }
      ],
      "stateMutability": "view",
      "type": "function"
    },
    {
      "inputs": [
        {
          "internalType": "address",
          "name": "owner",
          "type": "address"
        },
        {
          "internalType": "address",
          "name": "operator",
          "type": "address"
        }
      ],
      "name": "isApprovedForAll",
      "outputs": [
        {
          "internalType": "bool",
          "name": "",
          "type": "bool"
        }
      ],
      "stateMutability": "view",
      "type": "function"
    },
    {
      "inputs": [],
      "name": "maxMintAmountPerTx",
      "outputs": [
        {
          "internalType": "uint256",
          "name": "",
          "type": "uint256"
        }
      ],
      "stateMutability": "view",
      "type": "function"
    },
    {
      "inputs": [],
      "name": "maxSupply",
      "outputs": [
        {
          "internalType": "uint256",
          "name": "",
          "type": "uint256"
        }
      ],
      "stateMutability": "view",
      "type": "function"
    },
    {
      "inputs": [
        {
          "internalType": "uint256",
          "name": "_quantity",
          "type": "uint256"
        }
      ],
      "name": "mint",
      "outputs": [],
      "stateMutability": "payable",
      "type": "function"
    },
    {
      "inputs": [],
      "name": "name",
      "outputs": [
        {
          "internalType": "string",
          "name": "",
          "type": "string"
        }
      ],
      "stateMutability": "view",
      "type": "function"
    },
    {
      "inputs": [],
      "name": "owner",
      "outputs": [
        {
          "internalType": "address",
          "name": "",
          "type": "address"
        }
      ],
      "stateMutability": "view",
      "type": "function"
    },
    {
      "inputs": [
        {
          "internalType": "uint256",
          "name": "tokenId",
          "type": "uint256"
        }
      ],
      "name": "ownerOf",
      "outputs": [
        {
          "internalType": "address",
          "name": "",
          "type": "address"
        }
      ],
      "stateMutability": "view",
      "type": "function"
    },
    {
      "inputs": [],
      "name": "price",
      "outputs": [
        {
          "internalType": "uint256",
          "name": "",
          "type": "uint256"
        }
      ],
      "stateMutability": "view",
      "type": "function"
    },
    {
      "inputs": [],
      "name": "renounceOwnership",
      "outputs": [],
      "stateMutability": "nonpayable",
      "type": "function"
    },
    {
      "inputs": [
        {
          "internalType": "address",
          "name": "from",
          "type": "address"
        },
        {
          "internalType": "address",
          "name": "to",
          "type": "address"
        },
        {
          "internalType": "uint256",
          "name": "tokenId",
          "type": "uint256"
        }
      ],
      "name": "safeTransferFrom",
      "outputs": [],
      "stateMutability": "nonpayable",
      "type": "function"
    },
    {
      "inputs": [
        {
          "internalType": "address",
          "name": "from",
          "type": "address"
        },
        {
          "internalType": "address",
          "name": "to",
          "type": "address"
        },
        {
          "internalType": "uint256",
          "name": "tokenId",
          "type": "uint256"
        },
        {
          "internalType": "bytes",
          "name": "_data",
          "type": "bytes"
        }
      ],
      "name": "safeTransferFrom",
      "outputs": [],
      "stateMutability": "nonpayable",
      "type": "function"
    },
    {
      "inputs": [],
      "name": "saleActive",
      "outputs": [
        {
          "internalType": "bool",
          "name": "",
          "type": "bool"
        }
      ],
      "stateMutability": "view",
      "type": "function"
    },
    {
      "inputs": [
        {
          "internalType": "address",
          "name": "operator",
          "type": "address"
        },
        {
          "internalType": "bool",
          "name": "approved",
          "type": "bool"
        }
      ],
      "name": "setApprovalForAll",
      "outputs": [],
      "stateMutability": "nonpayable",
      "type": "function"
    },
    {
      "inputs": [
        {
          "internalType": "string",
          "name": "baseURI",
          "type": "string"
        }
      ],
      "name": "setBaseURI",
      "outputs": [],
      "stateMutability": "nonpayable",
      "type": "function"
    },
    {
      "inputs": [
        {
          "internalType": "uint256",
          "name": "_maxMintAmountPerTx",
          "type": "uint256"
        }
      ],
      "name": "setMaxMintAmountPerTx",
      "outputs": [],
      "stateMutability": "nonpayable",
      "type": "function"
    },
    {
      "inputs": [
        {
          "internalType": "uint256",
          "name": "_price",
          "type": "uint256"
        }
      ],
      "name": "setPrice",
      "outputs": [],
      "stateMutability": "nonpayable",
      "type": "function"
    },
    {
      "inputs": [
        {
          "internalType": "bool",
          "name": "_state",
          "type": "bool"
        }
      ],
      "name": "setSaleState",
      "outputs": [],
      "stateMutability": "nonpayable",
      "type": "function"
    },
    {
      "inputs": [
        {
          "internalType": "bytes4",
          "name": "interfaceId",
          "type": "bytes4"
        }
      ],
      "name": "supportsInterface",
      "outputs": [
        {
          "internalType": "bool",
          "name": "",
          "type": "bool"
        }
      ],
      "stateMutability": "view",
      "type": "function"
    },
    {
      "inputs": [],
      "name": "symbol",
      "outputs": [
        {
          "internalType": "string",
          "name": "",
          "type": "string"
        }
      ],
      "stateMutability": "view",
      "type": "function"
    },
    {
      "inputs": [
        {
          "internalType": "uint256",
          "name": "index",
          "type": "uint256"
        }
      ],
      "name": "tokenByIndex",
      "outputs": [
        {
          "internalType": "uint256",
          "name": "",
          "type": "uint256"
        }
      ],
      "stateMutability": "view",
      "type": "function"
    },
    {
      "inputs": [
        {
          "internalType": "address",
          "name": "owner",
          "type": "address"
        },
        {
          "internalType": "uint256",
          "name": "index",
          "type": "uint256"
        }
      ],
      "name": "tokenOfOwnerByIndex",
      "outputs": [
        {
          "internalType": "uint256",
          "name": "",
          "type": "uint256"
        }
      ],
      "stateMutability": "view",
      "type": "function"
    },
    {
      "inputs": [
        {
          "internalType": "uint256",
          "name": "_tokenId",
          "type": "uint256"
        }
      ],
      "name": "tokenURI",
      "outputs": [
        {
          "internalType": "string",
          "name": "",
          "type": "string"
        }
      ],
      "stateMutability": "view",
      "type": "function"
    },
    {
      "inputs": [],
      "name": "totalSupply",
      "outputs": [
        {
          "internalType": "uint256",
          "name": "",
          "type": "uint256"
        }
      ],
      "stateMutability": "view",
      "type": "function"
    },
    {
      "inputs": [
        {
          "internalType": "address",
          "name": "from",
          "type": "address"
        },
        {
          "internalType": "address",
          "name": "to",
          "type": "address"
        },
        {
          "internalType": "uint256",
          "name": "tokenId",
          "type": "uint256"
        }
      ],
      "name": "transferFrom",
      "outputs": [],
      "stateMutability": "nonpayable",
      "type": "function"
    },
    {
      "inputs": [
        {
          "internalType": "address",
          "name": "newOwner",
          "type": "address"
        }
      ],
      "name": "transferOwnership",
      "outputs": [],
      "stateMutability": "nonpayable",
      "type": "function"
    },
    {
      "inputs": [],
      "name": "withdraw",
      "outputs": [],
      "stateMutability": "payable",
      "type": "function"
    }
  ],
  "bytecode": "0x6080604052662386f26fc10000600a556005600b556000600c60006101000a81548160ff0219169083151502179055503480156200003c57600080fd5b506040518060400160405280600881526020017f4e4654204e616d650000000000000000000000000000000000000000000000008152506040518060400160405280600581526020017f544f4b454e000000000000000000000000000000000000000000000000000000815250620000c9620000bd6200015960201b60201c565b6200016160201b60201c565b8160029080519060200190620000e192919062000225565b508060039080519060200190620000fa92919062000225565b50505060016008819055506040518060400160405280601b81526020017f697066733a2f2f706174685f746f5f68696464656e5f697066732f0000000000815250600990805190602001906200015292919062000225565b506200033a565b600033905090565b60008060009054906101000a900473ffffffffffffffffffffffffffffffffffffffff169050816000806101000a81548173ffffffffffffffffffffffffffffffffffffffff021916908373ffffffffffffffffffffffffffffffffffffffff1602179055508173ffffffffffffffffffffffffffffffffffffffff168173ffffffffffffffffffffffffffffffffffffffff167f8be0079c531659141344cd1fd0a4f28419497f9722a3daafe3b4186f6b6457e060405160405180910390a35050565b828054620002339062000304565b90600052602060002090601f016020900481019282620002575760008555620002a3565b82601f106200027257805160ff1916838001178555620002a3565b82800160010185558215620002a3579182015b82811115620002a257825182559160200191906001019062000285565b5b509050620002b29190620002b6565b5090565b5b80821115620002d1576000816000905550600101620002b7565b5090565b7f4e487b7100000000000000000000000000000000000000000000000000000000600052602260045260246000fd5b600060028204905060018216806200031d57607f821691505b60208210811415620003345762000333620002d5565b5b50919050565b613b77806200034a6000396000f3fe6080604052600436106101e35760003560e01c80638da5cb5b11610102578063b071401b11610095578063cfc86f7b11610064578063cfc86f7b146106d4578063d5abeb01146106ff578063e985e9c51461072a578063f2fde38b14610767576101e3565b8063b071401b1461061c578063b88d4fde14610645578063c4e370951461066e578063c87b56dd14610697576101e3565b806395d89b41116100d157806395d89b4114610581578063a035b1fe146105ac578063a0712d68146105d7578063a22cb465146105f3576101e3565b80638da5cb5b146104c557806391b7f5ed146104f05780639231ab2a1461051957806394354fd014610556576101e3565b806342842e0e1161017a5780636352211e116101495780636352211e1461040957806368428a1b1461044657806370a0823114610471578063715018a6146104ae576101e3565b806342842e0e146103515780634f6ccce71461037a57806355f804b3146103b7578063627804af146103e0576101e3565b806318160ddd116101b657806318160ddd146102b657806323b872dd146102e15780632f745c591461030a5780633ccfd60b14610347576101e3565b806301ffc9a7146101e857806306fdde0314610225578063081812fc14610250578063095ea7b31461028d575b600080fd5b3480156101f457600080fd5b5061020f600480360381019061020a9190612e9f565b610790565b60405161021c9190612ee7565b60405180910390f35b34801561023157600080fd5b5061023a6108da565b6040516102479190612f9b565b60405180910390f35b34801561025c57600080fd5b5061027760048036038101906102729190612ff3565b61096c565b6040516102849190613061565b60405180910390f35b34801561029957600080fd5b506102b460048036038101906102af91906130a8565b6109e8565b005b3480156102c257600080fd5b506102cb610af3565b6040516102d891906130f7565b60405180910390f35b3480156102ed57600080fd5b5061030860048036038101906103039190613112565b610b4b565b005b34801561031657600080fd5b50610331600480360381019061032c91906130a8565b610b5b565b60405161033e91906130f7565b60405180910390f35b61034f610d63565b005b34801561035d57600080fd5b5061037860048036038101906103739190613112565b610e8c565b005b34801561038657600080fd5b506103a1600480360381019061039c9190612ff3565b610eac565b6040516103ae91906130f7565b60405180910390f35b3480156103c357600080fd5b506103de60048036038101906103d9919061329a565b61101f565b005b3480156103ec57600080fd5b50610407600480360381019061040291906130a8565b6110b5565b005b34801561041557600080fd5b50610430600480360381019061042b9190612ff3565b611198565b60405161043d9190613061565b60405180910390f35b34801561045257600080fd5b5061045b6111ae565b6040516104689190612ee7565b60405180910390f35b34801561047d57600080fd5b50610498600480360381019061049391906132e3565b6111c1565b6040516104a591906130f7565b60405180910390f35b3480156104ba57600080fd5b506104c3611291565b005b3480156104d157600080fd5b506104da611319565b6040516104e79190613061565b60405180910390f35b3480156104fc57600080fd5b5061051760048036038101906105129190612ff3565b611342565b005b34801561052557600080fd5b50610540600480360381019061053b9190612ff3565b6113c8565b60405161054d9190613393565b60405180910390f35b34801561056257600080fd5b5061056b6113e0565b60405161057891906130f7565b60405180910390f35b34801561058d57600080fd5b506105966113e6565b6040516105a39190612f9b565b60405180910390f35b3480156105b857600080fd5b506105c1611478565b6040516105ce91906130f7565b60405180910390f35b6105f160048036038101906105ec9190612ff3565b61147e565b005b3480156105ff57600080fd5b5061061a600480360381019061061591906133da565b61161a565b005b34801561062857600080fd5b50610643600480360381019061063e9190612ff3565b611792565b005b34801561065157600080fd5b5061066c600480360381019061066791906134bb565b611818565b005b34801561067a57600080fd5b506106956004803603810190610690919061353e565b61186b565b005b3480156106a357600080fd5b506106be60048036038101906106b99190612ff3565b611904565b6040516106cb9190612f9b565b60405180910390f35b3480156106e057600080fd5b506106e96119ab565b6040516106f69190612f9b565b60405180910390f35b34801561070b57600080fd5b50610714611a39565b60405161072191906130f7565b60405180910390f35b34801561073657600080fd5b50610751600480360381019061074c919061356b565b611a3e565b60405161075e9190612ee7565b60405180910390f35b34801561077357600080fd5b5061078e600480360381019061078991906132e3565b611ad2565b005b60007f80ac58cd000000000000000000000000000000000000000000000000000000007bffffffffffffffffffffffffffffffffffffffffffffffffffffffff1916827bffffffffffffffffffffffffffffffffffffffffffffffffffffffff1916148061085b57507f5b5e139f000000000000000000000000000000000000000000000000000000007bffffffffffffffffffffffffffffffffffffffffffffffffffffffff1916827bffffffffffffffffffffffffffffffffffffffffffffffffffffffff1916145b806108c357507f780e9d63000000000000000000000000000000000000000000000000000000007bffffffffffffffffffffffffffffffffffffffffffffffffffffffff1916827bffffffffffffffffffffffffffffffffffffffffffffffffffffffff1916145b806108d357506108d282611bca565b5b9050919050565b6060600280546108e9906135da565b80601f0160208091040260200160405190810160405280929190818152602001828054610915906135da565b80156109625780601f1061093757610100808354040283529160200191610962565b820191906000526020600020905b81548152906001019060200180831161094557829003601f168201915b5050505050905090565b600061097782611c34565b6109ad576040517fcf4700e400000000000000000000000000000000000000000000000000000000815260040160405180910390fd5b6006600083815260200190815260200160002060009054906101000a900473ffffffffffffffffffffffffffffffffffffffff169050919050565b60006109f382611198565b90508073ffffffffffffffffffffffffffffffffffffffff168373ffffffffffffffffffffffffffffffffffffffff161415610a5b576040517f943f7b8c00000000000000000000000000000000000000000000000000000000815260040160405180910390fd5b8073ffffffffffffffffffffffffffffffffffffffff16610a7a611c9d565b73ffffffffffffffffffffffffffffffffffffffff1614158015610aac5750610aaa81610aa5611c9d565b611a3e565b155b15610ae3576040517fcfb3b94200000000000000000000000000000000000000000000000000000000815260040160405180910390fd5b610aee838383611ca5565b505050565b6000600160109054906101000a90046fffffffffffffffffffffffffffffffff16600160009054906101000a90046fffffffffffffffffffffffffffffffff16036fffffffffffffffffffffffffffffffff16905090565b610b56838383611d57565b505050565b6000610b66836111c1565b8210610b9e576040517f0ddac30e00000000000000000000000000000000000000000000000000000000815260040160405180910390fd5b6000600160009054906101000a90046fffffffffffffffffffffffffffffffff166fffffffffffffffffffffffffffffffff16905060008060005b83811015610d57576000600460008381526020019081526020016000206040518060600160405290816000820160009054906101000a900473ffffffffffffffffffffffffffffffffffffffff1673ffffffffffffffffffffffffffffffffffffffff1673ffffffffffffffffffffffffffffffffffffffff1681526020016000820160149054906101000a900467ffffffffffffffff1667ffffffffffffffff1667ffffffffffffffff16815260200160008201601c9054906101000a900460ff1615151515815250509050806040015115610cb65750610d4a565b600073ffffffffffffffffffffffffffffffffffffffff16816000015173ffffffffffffffffffffffffffffffffffffffff1614610cf657806000015192505b8773ffffffffffffffffffffffffffffffffffffffff168373ffffffffffffffffffffffffffffffffffffffff161415610d485786841415610d3f578195505050505050610d5d565b83806001019450505b505b8080600101915050610bd9565b50600080fd5b92915050565b610d6b611c9d565b73ffffffffffffffffffffffffffffffffffffffff16610d89611319565b73ffffffffffffffffffffffffffffffffffffffff1614610ddf576040517f08c379a0000000000000000000000000000000000000000000000000000000008152600401610dd690613658565b60405180910390fd5b6000610de9611319565b73ffffffffffffffffffffffffffffffffffffffff1647604051610e0c906136a9565b60006040518083038185875af1925050503d8060008114610e49576040519150601f19603f3d011682016040523d82523d6000602084013e610e4e565b606091505b5050905080610e89576040517f750b219c00000000000000000000000000000000000000000000000000000000815260040160405180910390fd5b50565b610ea783838360405180602001604052806000815250611818565b505050565b600080600160009054906101000a90046fffffffffffffffffffffffffffffffff166fffffffffffffffffffffffffffffffff1690506000805b82811015610fe7576000600460008381526020019081526020016000206040518060600160405290816000820160009054906101000a900473ffffffffffffffffffffffffffffffffffffffff1673ffffffffffffffffffffffffffffffffffffffff1673ffffffffffffffffffffffffffffffffffffffff1681526020016000820160149054906101000a900467ffffffffffffffff1667ffffffffffffffff1667ffffffffffffffff16815260200160008201601c9054906101000a900460ff16151515158152505090508060400151610fd95785831415610fd0578194505050505061101a565b82806001019350505b508080600101915050610ee6565b506040517fa723001c00000000000000000000000000000000000000000000000000000000815260040160405180910390fd5b919050565b611027611c9d565b73ffffffffffffffffffffffffffffffffffffffff16611045611319565b73ffffffffffffffffffffffffffffffffffffffff161461109b576040517f08c379a000000000000000000000000000000000000000000000000000000000815260040161109290613658565b60405180910390fd5b80600990805190602001906110b1929190612d4d565b5050565b6110bd611c9d565b73ffffffffffffffffffffffffffffffffffffffff166110db611319565b73ffffffffffffffffffffffffffffffffffffffff1614611131576040517f08c379a000000000000000000000000000000000000000000000000000000000815260040161112890613658565b60405180910390fd5b6001600961113f91906136ed565b81611148610af3565b61115291906136ed565b111561118a576040517f52df9fe500000000000000000000000000000000000000000000000000000000815260040160405180910390fd5b6111948282612276565b5050565b60006111a382612294565b600001519050919050565b600c60009054906101000a900460ff1681565b60008073ffffffffffffffffffffffffffffffffffffffff168273ffffffffffffffffffffffffffffffffffffffff161415611229576040517f8f4eb60400000000000000000000000000000000000000000000000000000000815260040160405180910390fd5b600560008373ffffffffffffffffffffffffffffffffffffffff1673ffffffffffffffffffffffffffffffffffffffff16815260200190815260200160002060000160009054906101000a900467ffffffffffffffff1667ffffffffffffffff169050919050565b611299611c9d565b73ffffffffffffffffffffffffffffffffffffffff166112b7611319565b73ffffffffffffffffffffffffffffffffffffffff161461130d576040517f08c379a000000000000000000000000000000000000000000000000000000000815260040161130490613658565b60405180910390fd5b611317600061253e565b565b60008060009054906101000a900473ffffffffffffffffffffffffffffffffffffffff16905090565b61134a611c9d565b73ffffffffffffffffffffffffffffffffffffffff16611368611319565b73ffffffffffffffffffffffffffffffffffffffff16146113be576040517f08c379a00000000000000000000000000000000000000000000000000000000081526004016113b590613658565b60405180910390fd5b80600a8190555050565b6113d0612dd3565b6113d982612294565b9050919050565b600b5481565b6060600380546113f5906135da565b80601f0160208091040260200160405190810160405280929190818152602001828054611421906135da565b801561146e5780601f106114435761010080835404028352916020019161146e565b820191906000526020600020905b81548152906001019060200180831161145157829003601f168201915b5050505050905090565b600a5481565b600c60009054906101000a900460ff166114c4576040517f3f88677400000000000000000000000000000000000000000000000000000000815260040160405180910390fd5b60018110806114d45750600b5481115b1561150b576040517f524f409b00000000000000000000000000000000000000000000000000000000815260040160405180910390fd5b6001600961151991906136ed565b81611522610af3565b61152c91906136ed565b1115611564576040517f52df9fe500000000000000000000000000000000000000000000000000000000815260040160405180910390fd5b3273ffffffffffffffffffffffffffffffffffffffff163373ffffffffffffffffffffffffffffffffffffffff16146115c8576040517e61c20e00000000000000000000000000000000000000000000000000000000815260040160405180910390fd5b80600a546115d69190613743565b341461160d576040517ebfc92100000000000000000000000000000000000000000000000000000000815260040160405180910390fd5b6116173382612276565b50565b611622611c9d565b73ffffffffffffffffffffffffffffffffffffffff168273ffffffffffffffffffffffffffffffffffffffff161415611687576040517fb06307db00000000000000000000000000000000000000000000000000000000815260040160405180910390fd5b8060076000611694611c9d565b73ffffffffffffffffffffffffffffffffffffffff1673ffffffffffffffffffffffffffffffffffffffff16815260200190815260200160002060008473ffffffffffffffffffffffffffffffffffffffff1673ffffffffffffffffffffffffffffffffffffffff16815260200190815260200160002060006101000a81548160ff0219169083151502179055508173ffffffffffffffffffffffffffffffffffffffff16611741611c9d565b73ffffffffffffffffffffffffffffffffffffffff167f17307eab39ab6107e8899845ad3d59bd9653f200f220920489ca2b5937696c31836040516117869190612ee7565b60405180910390a35050565b61179a611c9d565b73ffffffffffffffffffffffffffffffffffffffff166117b8611319565b73ffffffffffffffffffffffffffffffffffffffff161461180e576040517f08c379a000000000000000000000000000000000000000000000000000000000815260040161180590613658565b60405180910390fd5b80600b8190555050565b611823848484611d57565b61182f84848484612602565b611865576040517fd1a57ed600000000000000000000000000000000000000000000000000000000815260040160405180910390fd5b50505050565b611873611c9d565b73ffffffffffffffffffffffffffffffffffffffff16611891611319565b73ffffffffffffffffffffffffffffffffffffffff16146118e7576040517f08c379a00000000000000000000000000000000000000000000000000000000081526004016118de90613658565b60405180910390fd5b80600c60006101000a81548160ff02191690831515021790555050565b606061190f82611c34565b61194e576040517f08c379a00000000000000000000000000000000000000000000000000000000081526004016119459061380f565b60405180910390fd5b6000611958612781565b9050600081511161197857604051806020016040528060008152506119a3565b8061198284612813565b60405160200161199392919061386b565b6040516020818303038152906040525b915050919050565b600980546119b8906135da565b80601f01602080910402602001604051908101604052809291908181526020018280546119e4906135da565b8015611a315780601f10611a0657610100808354040283529160200191611a31565b820191906000526020600020905b815481529060010190602001808311611a1457829003601f168201915b505050505081565b600981565b6000600760008473ffffffffffffffffffffffffffffffffffffffff1673ffffffffffffffffffffffffffffffffffffffff16815260200190815260200160002060008373ffffffffffffffffffffffffffffffffffffffff1673ffffffffffffffffffffffffffffffffffffffff16815260200190815260200160002060009054906101000a900460ff16905092915050565b611ada611c9d565b73ffffffffffffffffffffffffffffffffffffffff16611af8611319565b73ffffffffffffffffffffffffffffffffffffffff1614611b4e576040517f08c379a0000000000000000000000000000000000000000000000000000000008152600401611b4590613658565b60405180910390fd5b600073ffffffffffffffffffffffffffffffffffffffff168173ffffffffffffffffffffffffffffffffffffffff161415611bbe576040517f08c379a0000000000000000000000000000000000000000000000000000000008152600401611bb590613901565b60405180910390fd5b611bc78161253e565b50565b60007f01ffc9a7000000000000000000000000000000000000000000000000000000007bffffffffffffffffffffffffffffffffffffffffffffffffffffffff1916827bffffffffffffffffffffffffffffffffffffffffffffffffffffffff1916149050919050565b6000600160009054906101000a90046fffffffffffffffffffffffffffffffff166fffffffffffffffffffffffffffffffff1682108015611c96575060046000838152602001908152602001600020600001601c9054906101000a900460ff16155b9050919050565b600033905090565b826006600084815260200190815260200160002060006101000a81548173ffffffffffffffffffffffffffffffffffffffff021916908373ffffffffffffffffffffffffffffffffffffffff160217905550818373ffffffffffffffffffffffffffffffffffffffff168273ffffffffffffffffffffffffffffffffffffffff167f8c5be1e5ebec7d5bd14f71427d1e84f3dd0314c0f7b2291e5b200ac8c7c3b92560405160405180910390a4505050565b6000611d6282612294565b90506000816000015173ffffffffffffffffffffffffffffffffffffffff16611d89611c9d565b73ffffffffffffffffffffffffffffffffffffffff161480611dbc5750611dbb8260000151611db6611c9d565b611a3e565b5b80611e015750611dca611c9d565b73ffffffffffffffffffffffffffffffffffffffff16611de98461096c565b73ffffffffffffffffffffffffffffffffffffffff16145b905080611e3a576040517f59c896be00000000000000000000000000000000000000000000000000000000815260040160405180910390fd5b8473ffffffffffffffffffffffffffffffffffffffff16826000015173ffffffffffffffffffffffffffffffffffffffff1614611ea3576040517fa114810000000000000000000000000000000000000000000000000000000000815260040160405180910390fd5b600073ffffffffffffffffffffffffffffffffffffffff168473ffffffffffffffffffffffffffffffffffffffff161415611f0a576040517fea553b3400000000000000000000000000000000000000000000000000000000815260040160405180910390fd5b611f178585856001612974565b611f276000848460000151611ca5565b6001600560008773ffffffffffffffffffffffffffffffffffffffff1673ffffffffffffffffffffffffffffffffffffffff16815260200190815260200160002060000160008282829054906101000a900467ffffffffffffffff160392506101000a81548167ffffffffffffffff021916908367ffffffffffffffff1602179055506001600560008673ffffffffffffffffffffffffffffffffffffffff1673ffffffffffffffffffffffffffffffffffffffff16815260200190815260200160002060000160008282829054906101000a900467ffffffffffffffff160192506101000a81548167ffffffffffffffff021916908367ffffffffffffffff160217905550836004600085815260200190815260200160002060000160006101000a81548173ffffffffffffffffffffffffffffffffffffffff021916908373ffffffffffffffffffffffffffffffffffffffff160217905550426004600085815260200190815260200160002060000160146101000a81548167ffffffffffffffff021916908367ffffffffffffffff1602179055506000600184019050600073ffffffffffffffffffffffffffffffffffffffff166004600083815260200190815260200160002060000160009054906101000a900473ffffffffffffffffffffffffffffffffffffffff1673ffffffffffffffffffffffffffffffffffffffff16141561220657600160009054906101000a90046fffffffffffffffffffffffffffffffff166fffffffffffffffffffffffffffffffff168110156122055782600001516004600083815260200190815260200160002060000160006101000a81548173ffffffffffffffffffffffffffffffffffffffff021916908373ffffffffffffffffffffffffffffffffffffffff16021790555082602001516004600083815260200190815260200160002060000160146101000a81548167ffffffffffffffff021916908367ffffffffffffffff1602179055505b5b50828473ffffffffffffffffffffffffffffffffffffffff168673ffffffffffffffffffffffffffffffffffffffff167fddf252ad1be2c89b69c2b068fc378daa952ba7f163c4a11628f55a4df523b3ef60405160405180910390a461226f858585600161297a565b5050505050565b612290828260405180602001604052806000815250612980565b5050565b61229c612dd3565b6000829050600160009054906101000a90046fffffffffffffffffffffffffffffffff166fffffffffffffffffffffffffffffffff16811015612507576000600460008381526020019081526020016000206040518060600160405290816000820160009054906101000a900473ffffffffffffffffffffffffffffffffffffffff1673ffffffffffffffffffffffffffffffffffffffff1673ffffffffffffffffffffffffffffffffffffffff1681526020016000820160149054906101000a900467ffffffffffffffff1667ffffffffffffffff1667ffffffffffffffff16815260200160008201601c9054906101000a900460ff1615151515815250509050806040015161250557600073ffffffffffffffffffffffffffffffffffffffff16816000015173ffffffffffffffffffffffffffffffffffffffff16146123e9578092505050612539565b5b60011561250457818060019003925050600460008381526020019081526020016000206040518060600160405290816000820160009054906101000a900473ffffffffffffffffffffffffffffffffffffffff1673ffffffffffffffffffffffffffffffffffffffff1673ffffffffffffffffffffffffffffffffffffffff1681526020016000820160149054906101000a900467ffffffffffffffff1667ffffffffffffffff1667ffffffffffffffff16815260200160008201601c9054906101000a900460ff1615151515815250509050600073ffffffffffffffffffffffffffffffffffffffff16816000015173ffffffffffffffffffffffffffffffffffffffff16146124ff578092505050612539565b6123ea565b5b505b6040517fdf2d9b4200000000000000000000000000000000000000000000000000000000815260040160405180910390fd5b919050565b60008060009054906101000a900473ffffffffffffffffffffffffffffffffffffffff169050816000806101000a81548173ffffffffffffffffffffffffffffffffffffffff021916908373ffffffffffffffffffffffffffffffffffffffff1602179055508173ffffffffffffffffffffffffffffffffffffffff168173ffffffffffffffffffffffffffffffffffffffff167f8be0079c531659141344cd1fd0a4f28419497f9722a3daafe3b4186f6b6457e060405160405180910390a35050565b60006126238473ffffffffffffffffffffffffffffffffffffffff16612992565b15612774578373ffffffffffffffffffffffffffffffffffffffff1663150b7a0261264c611c9d565b8786866040518563ffffffff1660e01b815260040161266e9493929190613976565b6020604051808303816000875af19250505080156126aa57506040513d601f19601f820116820180604052508101906126a791906139d7565b60015b612724573d80600081146126da576040519150601f19603f3d011682016040523d82523d6000602084013e6126df565b606091505b5060008151141561271c576040517fd1a57ed600000000000000000000000000000000000000000000000000000000815260040160405180910390fd5b805181602001fd5b63150b7a0260e01b7bffffffffffffffffffffffffffffffffffffffffffffffffffffffff1916817bffffffffffffffffffffffffffffffffffffffffffffffffffffffff191614915050612779565b600190505b949350505050565b606060098054612790906135da565b80601f01602080910402602001604051908101604052809291908181526020018280546127bc906135da565b80156128095780601f106127de57610100808354040283529160200191612809565b820191906000526020600020905b8154815290600101906020018083116127ec57829003601f168201915b5050505050905090565b6060600082141561285b576040518060400160405280600181526020017f3000000000000000000000000000000000000000000000000000000000000000815250905061296f565b600082905060005b6000821461288d57808061287690613a04565b915050600a826128869190613a7c565b9150612863565b60008167ffffffffffffffff8111156128a9576128a861316f565b5b6040519080825280601f01601f1916602001820160405280156128db5781602001600182028036833780820191505090505b5090505b60008514612968576001826128f49190613aad565b9150600a856129039190613ae1565b603061290f91906136ed565b60f81b81838151811061292557612924613b12565b5b60200101907effffffffffffffffffffffffffffffffffffffffffffffffffffffffffffff1916908160001a905350600a856129619190613a7c565b94506128df565b8093505050505b919050565b50505050565b50505050565b61298d83838360016129b5565b505050565b6000808273ffffffffffffffffffffffffffffffffffffffff163b119050919050565b6000600160009054906101000a90046fffffffffffffffffffffffffffffffff166fffffffffffffffffffffffffffffffff169050600073ffffffffffffffffffffffffffffffffffffffff168573ffffffffffffffffffffffffffffffffffffffff161415612a51576040517f2e07630000000000000000000000000000000000000000000000000000000000815260040160405180910390fd5b6000841415612a8c576040517fb562e8dd00000000000000000000000000000000000000000000000000000000815260040160405180910390fd5b612a996000868387612974565b83600560008773ffffffffffffffffffffffffffffffffffffffff1673ffffffffffffffffffffffffffffffffffffffff16815260200190815260200160002060000160008282829054906101000a900467ffffffffffffffff160192506101000a81548167ffffffffffffffff021916908367ffffffffffffffff16021790555083600560008773ffffffffffffffffffffffffffffffffffffffff1673ffffffffffffffffffffffffffffffffffffffff16815260200190815260200160002060000160088282829054906101000a900467ffffffffffffffff160192506101000a81548167ffffffffffffffff021916908367ffffffffffffffff160217905550846004600083815260200190815260200160002060000160006101000a81548173ffffffffffffffffffffffffffffffffffffffff021916908373ffffffffffffffffffffffffffffffffffffffff160217905550426004600083815260200190815260200160002060000160146101000a81548167ffffffffffffffff021916908367ffffffffffffffff160217905550600081905060005b85811015612cfe57818773ffffffffffffffffffffffffffffffffffffffff16600073ffffffffffffffffffffffffffffffffffffffff167fddf252ad1be2c89b69c2b068fc378daa952ba7f163c4a11628f55a4df523b3ef60405160405180910390a4838015612cb25750612cb06000888488612602565b155b15612ce9576040517fd1a57ed600000000000000000000000000000000000000000000000000000000815260040160405180910390fd5b81806001019250508080600101915050612c37565b5080600160006101000a8154816fffffffffffffffffffffffffffffffff02191690836fffffffffffffffffffffffffffffffff16021790555050612d46600086838761297a565b5050505050565b828054612d59906135da565b90600052602060002090601f016020900481019282612d7b5760008555612dc2565b82601f10612d9457805160ff1916838001178555612dc2565b82800160010185558215612dc2579182015b82811115612dc1578251825591602001919060010190612da6565b5b509050612dcf9190612e16565b5090565b6040518060600160405280600073ffffffffffffffffffffffffffffffffffffffff168152602001600067ffffffffffffffff1681526020016000151581525090565b5b80821115612e2f576000816000905550600101612e17565b5090565b6000604051905090565b600080fd5b600080fd5b60007fffffffff0000000000000000000000000000000000000000000000000000000082169050919050565b612e7c81612e47565b8114612e8757600080fd5b50565b600081359050612e9981612e73565b92915050565b600060208284031215612eb557612eb4612e3d565b5b6000612ec384828501612e8a565b91505092915050565b60008115159050919050565b612ee181612ecc565b82525050565b6000602082019050612efc6000830184612ed8565b92915050565b600081519050919050565b600082825260208201905092915050565b60005b83811015612f3c578082015181840152602081019050612f21565b83811115612f4b576000848401525b50505050565b6000601f19601f8301169050919050565b6000612f6d82612f02565b612f778185612f0d565b9350612f87818560208601612f1e565b612f9081612f51565b840191505092915050565b60006020820190508181036000830152612fb58184612f62565b905092915050565b6000819050919050565b612fd081612fbd565b8114612fdb57600080fd5b50565b600081359050612fed81612fc7565b92915050565b60006020828403121561300957613008612e3d565b5b600061301784828501612fde565b91505092915050565b600073ffffffffffffffffffffffffffffffffffffffff82169050919050565b600061304b82613020565b9050919050565b61305b81613040565b82525050565b60006020820190506130766000830184613052565b92915050565b61308581613040565b811461309057600080fd5b50565b6000813590506130a28161307c565b92915050565b600080604083850312156130bf576130be612e3d565b5b60006130cd85828601613093565b92505060206130de85828601612fde565b9150509250929050565b6130f181612fbd565b82525050565b600060208201905061310c60008301846130e8565b92915050565b60008060006060848603121561312b5761312a612e3d565b5b600061313986828701613093565b935050602061314a86828701613093565b925050604061315b86828701612fde565b9150509250925092565b600080fd5b600080fd5b7f4e487b7100000000000000000000000000000000000000000000000000000000600052604160045260246000fd5b6131a782612f51565b810181811067ffffffffffffffff821117156131c6576131c561316f565b5b80604052505050565b60006131d9612e33565b90506131e5828261319e565b919050565b600067ffffffffffffffff8211156132055761320461316f565b5b61320e82612f51565b9050602081019050919050565b82818337600083830152505050565b600061323d613238846131ea565b6131cf565b9050828152602081018484840111156132595761325861316a565b5b61326484828561321b565b509392505050565b600082601f83011261328157613280613165565b5b813561329184826020860161322a565b91505092915050565b6000602082840312156132b0576132af612e3d565b5b600082013567ffffffffffffffff8111156132ce576132cd612e42565b5b6132da8482850161326c565b91505092915050565b6000602082840312156132f9576132f8612e3d565b5b600061330784828501613093565b91505092915050565b61331981613040565b82525050565b600067ffffffffffffffff82169050919050565b61333c8161331f565b82525050565b61334b81612ecc565b82525050565b6060820160008201516133676000850182613310565b50602082015161337a6020850182613333565b50604082015161338d6040850182613342565b50505050565b60006060820190506133a86000830184613351565b92915050565b6133b781612ecc565b81146133c257600080fd5b50565b6000813590506133d4816133ae565b92915050565b600080604083850312156133f1576133f0612e3d565b5b60006133ff85828601613093565b9250506020613410858286016133c5565b9150509250929050565b600067ffffffffffffffff8211156134355761343461316f565b5b61343e82612f51565b9050602081019050919050565b600061345e6134598461341a565b6131cf565b90508281526020810184848401111561347a5761347961316a565b5b61348584828561321b565b509392505050565b600082601f8301126134a2576134a1613165565b5b81356134b284826020860161344b565b91505092915050565b600080600080608085870312156134d5576134d4612e3d565b5b60006134e387828801613093565b94505060206134f487828801613093565b935050604061350587828801612fde565b925050606085013567ffffffffffffffff81111561352657613525612e42565b5b6135328782880161348d565b91505092959194509250565b60006020828403121561355457613553612e3d565b5b6000613562848285016133c5565b91505092915050565b6000806040838503121561358257613581612e3d565b5b600061359085828601613093565b92505060206135a185828601613093565b9150509250929050565b7f4e487b7100000000000000000000000000000000000000000000000000000000600052602260045260246000fd5b600060028204905060018216806135f257607f821691505b60208210811415613606576136056135ab565b5b50919050565b7f4f776e61626c653a2063616c6c6572206973206e6f7420746865206f776e6572600082015250565b6000613642602083612f0d565b915061364d8261360c565b602082019050919050565b6000602082019050818103600083015261367181613635565b9050919050565b600081905092915050565b50565b6000613693600083613678565b915061369e82613683565b600082019050919050565b60006136b482613686565b9150819050919050565b7f4e487b7100000000000000000000000000000000000000000000000000000000600052601160045260246000fd5b60006136f882612fbd565b915061370383612fbd565b9250827fffffffffffffffffffffffffffffffffffffffffffffffffffffffffffffffff03821115613738576137376136be565b5b828201905092915050565b600061374e82612fbd565b915061375983612fbd565b9250817fffffffffffffffffffffffffffffffffffffffffffffffffffffffffffffffff0483118215151615613792576137916136be565b5b828202905092915050565b7f4552433732314d657461646174613a2055524920717565727920666f72206e6f60008201527f6e6578697374656e7420746f6b656e0000000000000000000000000000000000602082015250565b60006137f9602f83612f0d565b91506138048261379d565b604082019050919050565b60006020820190508181036000830152613828816137ec565b9050919050565b600081905092915050565b600061384582612f02565b61384f818561382f565b935061385f818560208601612f1e565b80840191505092915050565b6000613877828561383a565b9150613883828461383a565b91508190509392505050565b7f4f776e61626c653a206e6577206f776e657220697320746865207a65726f206160008201527f6464726573730000000000000000000000000000000000000000000000000000602082015250565b60006138eb602683612f0d565b91506138f68261388f565b604082019050919050565b6000602082019050818103600083015261391a816138de565b9050919050565b600081519050919050565b600082825260208201905092915050565b600061394882613921565b613952818561392c565b9350613962818560208601612f1e565b61396b81612f51565b840191505092915050565b600060808201905061398b6000830187613052565b6139986020830186613052565b6139a560408301856130e8565b81810360608301526139b7818461393d565b905095945050505050565b6000815190506139d181612e73565b92915050565b6000602082840312156139ed576139ec612e3d565b5b60006139fb848285016139c2565b91505092915050565b6000613a0f82612fbd565b91507fffffffffffffffffffffffffffffffffffffffffffffffffffffffffffffffff821415613a4257613a416136be565b5b600182019050919050565b7f4e487b7100000000000000000000000000000000000000000000000000000000600052601260045260246000fd5b6000613a8782612fbd565b9150613a9283612fbd565b925082613aa257613aa1613a4d565b5b828204905092915050565b6000613ab882612fbd565b9150613ac383612fbd565b925082821015613ad657613ad56136be565b5b828203905092915050565b6000613aec82612fbd565b9150613af783612fbd565b925082613b0757613b06613a4d565b5b828206905092915050565b7f4e487b7100000000000000000000000000000000000000000000000000000000600052603260045260246000fdfea2646970667358221220e47d9bb8f06596ee9f44d53422a05210045c07e86e956204eff5cd0d2fe268fd64736f6c634300080b0033",
  "linkReferences": {},
  "deployedLinkReferences": {}
}