{
  "_format": "hh-sol-artifact-1",
  "contractName": "ERC721ATEST",
  "sourceName": "cache/solpp-generated-contracts/ERC721A.sol",
  "abi": [
    {
      "inputs": [],
      "stateMutability": "nonpayable",
      "type": "constructor"
    },
    {
      "anonymous": false,
      "inputs": [
        {
          "indexed": true,
          "internalType": "address",
          "name": "owner",
          "type": "address"
        },
        {
          "indexed": true,
          "internalType": "address",
          "name": "approved",
          "type": "address"
        },
        {
          "indexed": true,
          "internalType": "uint256",
          "name": "tokenId",
          "type": "uint256"
        }
      ],
      "name": "Approval",
      "type": "event"
    },
    {
      "anonymous": false,
      "inputs": [
        {
          "indexed": true,
          "internalType": "address",
          "name": "owner",
          "type": "address"
        },
        {
          "indexed": true,
          "internalType": "address",
          "name": "operator",
          "type": "address"
        },
        {
          "indexed": false,
          "internalType": "bool",
          "name": "approved",
          "type": "bool"
        }
      ],
      "name": "ApprovalForAll",
      "type": "event"
    },
    {
      "anonymous": false,
      "inputs": [
        {
          "indexed": true,
          "internalType": "address",
          "name": "previousOwner",
          "type": "address"
        },
        {
          "indexed": true,
          "internalType": "address",
          "name": "newOwner",
          "type": "address"
        }
      ],
      "name": "OwnershipTransferred",
      "type": "event"
    },
    {
      "anonymous": false,
      "inputs": [
        {
          "indexed": true,
          "internalType": "address",
          "name": "from",
          "type": "address"
        },
        {
          "indexed": true,
          "internalType": "address",
          "name": "to",
          "type": "address"
        },
        {
          "indexed": true,
          "internalType": "uint256",
          "name": "tokenId",
          "type": "uint256"
        }
      ],
      "name": "Transfer",
      "type": "event"
    },
    {
      "inputs": [
        {
          "internalType": "uint256",
          "name": "_mintAmount",
          "type": "uint256"
        },
        {
          "internalType": "address",
          "name": "_receiver",
          "type": "address"
        }
      ],
      "name": "airdrop",
      "outputs": [],
      "stateMutability": "nonpayable",
      "type": "function"
    },
    {
      "inputs": [
        {
          "internalType": "address",
          "name": "to",
          "type": "address"
        },
        {
          "internalType": "uint256",
          "name": "tokenId",
          "type": "uint256"
        }
      ],
      "name": "approve",
      "outputs": [],
      "stateMutability": "nonpayable",
      "type": "function"
    },
    {
      "inputs": [
        {
          "internalType": "address",
          "name": "owner",
          "type": "address"
        }
      ],
      "name": "balanceOf",
      "outputs": [
        {
          "internalType": "uint256",
          "name": "",
          "type": "uint256"
        }
      ],
      "stateMutability": "view",
      "type": "function"
    },
    {
      "inputs": [],
      "name": "cost",
      "outputs": [
        {
          "internalType": "uint256",
          "name": "",
          "type": "uint256"
        }
      ],
      "stateMutability": "view",
      "type": "function"
    },
    {
      "inputs": [
        {
          "internalType": "uint256",
          "name": "tokenId",
          "type": "uint256"
        }
      ],
      "name": "getApproved",
      "outputs": [
        {
          "internalType": "address",
          "name": "",
          "type": "address"
        }
      ],
      "stateMutability": "view",
      "type": "function"
    },
    {
      "inputs": [
        {
          "internalType": "uint256",
          "name": "tokenId",
          "type": "uint256"
        }
      ],
      "name": "getOwnershipData",
      "outputs": [
        {
          "components": [
            {
              "internalType": "address",
              "name": "addr",
              "type": "address"
            },
            {
              "internalType": "uint64",
              "name": "startTimestamp",
              "type": "uint64"
            }
          ],
          "internalType": "struct ERC721A.TokenOwnership",
          "name": "",
          "type": "tuple"
        }
      ],
      "stateMutability": "view",
      "type": "function"
    },
    {
      "inputs": [],
      "name": "hiddenMetadataUri",
      "outputs": [
        {
          "internalType": "string",
          "name": "",
          "type": "string"
        }
      ],
      "stateMutability": "view",
      "type": "function"
    },
    {
      "inputs": [
        {
          "internalType": "address",
          "name": "owner",
          "type": "address"
        },
        {
          "internalType": "address",
          "name": "operator",
          "type": "address"
        }
      ],
      "name": "isApprovedForAll",
      "outputs": [
        {
          "internalType": "bool",
          "name": "",
          "type": "bool"
        }
      ],
      "stateMutability": "view",
      "type": "function"
    },
    {
      "inputs": [],
      "name": "maxMintAmountPerTx",
      "outputs": [
        {
          "internalType": "uint256",
          "name": "",
          "type": "uint256"
        }
      ],
      "stateMutability": "view",
      "type": "function"
    },
    {
      "inputs": [],
      "name": "maxSupply",
      "outputs": [
        {
          "internalType": "uint256",
          "name": "",
          "type": "uint256"
        }
      ],
      "stateMutability": "view",
      "type": "function"
    },
    {
      "inputs": [
        {
          "internalType": "uint256",
          "name": "_mintAmount",
          "type": "uint256"
        }
      ],
      "name": "mint",
      "outputs": [],
      "stateMutability": "payable",
      "type": "function"
    },
    {
      "inputs": [],
      "name": "name",
      "outputs": [
        {
          "internalType": "string",
          "name": "",
          "type": "string"
        }
      ],
      "stateMutability": "view",
      "type": "function"
    },
    {
      "inputs": [],
      "name": "owner",
      "outputs": [
        {
          "internalType": "address",
          "name": "",
          "type": "address"
        }
      ],
      "stateMutability": "view",
      "type": "function"
    },
    {
      "inputs": [
        {
          "internalType": "uint256",
          "name": "tokenId",
          "type": "uint256"
        }
      ],
      "name": "ownerOf",
      "outputs": [
        {
          "internalType": "address",
          "name": "",
          "type": "address"
        }
      ],
      "stateMutability": "view",
      "type": "function"
    },
    {
      "inputs": [],
      "name": "paused",
      "outputs": [
        {
          "internalType": "bool",
          "name": "",
          "type": "bool"
        }
      ],
      "stateMutability": "view",
      "type": "function"
    },
    {
      "inputs": [],
      "name": "renounceOwnership",
      "outputs": [],
      "stateMutability": "nonpayable",
      "type": "function"
    },
    {
      "inputs": [],
      "name": "revealed",
      "outputs": [
        {
          "internalType": "bool",
          "name": "",
          "type": "bool"
        }
      ],
      "stateMutability": "view",
      "type": "function"
    },
    {
      "inputs": [
        {
          "internalType": "address",
          "name": "from",
          "type": "address"
        },
        {
          "internalType": "address",
          "name": "to",
          "type": "address"
        },
        {
          "internalType": "uint256",
          "name": "tokenId",
          "type": "uint256"
        }
      ],
      "name": "safeTransferFrom",
      "outputs": [],
      "stateMutability": "nonpayable",
      "type": "function"
    },
    {
      "inputs": [
        {
          "internalType": "address",
          "name": "from",
          "type": "address"
        },
        {
          "internalType": "address",
          "name": "to",
          "type": "address"
        },
        {
          "internalType": "uint256",
          "name": "tokenId",
          "type": "uint256"
        },
        {
          "internalType": "bytes",
          "name": "_data",
          "type": "bytes"
        }
      ],
      "name": "safeTransferFrom",
      "outputs": [],
      "stateMutability": "nonpayable",
      "type": "function"
    },
    {
      "inputs": [
        {
          "internalType": "address",
          "name": "operator",
          "type": "address"
        },
        {
          "internalType": "bool",
          "name": "approved",
          "type": "bool"
        }
      ],
      "name": "setApprovalForAll",
      "outputs": [],
      "stateMutability": "nonpayable",
      "type": "function"
    },
    {
      "inputs": [
        {
          "internalType": "uint256",
          "name": "_cost",
          "type": "uint256"
        }
      ],
      "name": "setCost",
      "outputs": [],
      "stateMutability": "nonpayable",
      "type": "function"
    },
    {
      "inputs": [
        {
          "internalType": "string",
          "name": "_hiddenMetadataUri",
          "type": "string"
        }
      ],
      "name": "setHiddenMetadataUri",
      "outputs": [],
      "stateMutability": "nonpayable",
      "type": "function"
    },
    {
      "inputs": [
        {
          "internalType": "uint256",
          "name": "_maxMintAmountPerTx",
          "type": "uint256"
        }
      ],
      "name": "setMaxMintAmountPerTx",
      "outputs": [],
      "stateMutability": "nonpayable",
      "type": "function"
    },
    {
      "inputs": [
        {
          "internalType": "bool",
          "name": "_state",
          "type": "bool"
        }
      ],
      "name": "setPaused",
      "outputs": [],
      "stateMutability": "nonpayable",
      "type": "function"
    },
    {
      "inputs": [
        {
          "internalType": "bool",
          "name": "_state",
          "type": "bool"
        }
      ],
      "name": "setRevealed",
      "outputs": [],
      "stateMutability": "nonpayable",
      "type": "function"
    },
    {
      "inputs": [
        {
          "internalType": "string",
          "name": "_uriPrefix",
          "type": "string"
        }
      ],
      "name": "setUriPrefix",
      "outputs": [],
      "stateMutability": "nonpayable",
      "type": "function"
    },
    {
      "inputs": [
        {
          "internalType": "string",
          "name": "_uriSuffix",
          "type": "string"
        }
      ],
      "name": "setUriSuffix",
      "outputs": [],
      "stateMutability": "nonpayable",
      "type": "function"
    },
    {
      "inputs": [
        {
          "internalType": "bytes4",
          "name": "interfaceId",
          "type": "bytes4"
        }
      ],
      "name": "supportsInterface",
      "outputs": [
        {
          "internalType": "bool",
          "name": "",
          "type": "bool"
        }
      ],
      "stateMutability": "view",
      "type": "function"
    },
    {
      "inputs": [],
      "name": "symbol",
      "outputs": [
        {
          "internalType": "string",
          "name": "",
          "type": "string"
        }
      ],
      "stateMutability": "view",
      "type": "function"
    },
    {
      "inputs": [
        {
          "internalType": "uint256",
          "name": "index",
          "type": "uint256"
        }
      ],
      "name": "tokenByIndex",
      "outputs": [
        {
          "internalType": "uint256",
          "name": "",
          "type": "uint256"
        }
      ],
      "stateMutability": "view",
      "type": "function"
    },
    {
      "inputs": [
        {
          "internalType": "address",
          "name": "owner",
          "type": "address"
        },
        {
          "internalType": "uint256",
          "name": "index",
          "type": "uint256"
        }
      ],
      "name": "tokenOfOwnerByIndex",
      "outputs": [
        {
          "internalType": "uint256",
          "name": "",
          "type": "uint256"
        }
      ],
      "stateMutability": "view",
      "type": "function"
    },
    {
      "inputs": [
        {
          "internalType": "uint256",
          "name": "_tokenId",
          "type": "uint256"
        }
      ],
      "name": "tokenURI",
      "outputs": [
        {
          "internalType": "string",
          "name": "",
          "type": "string"
        }
      ],
      "stateMutability": "view",
      "type": "function"
    },
    {
      "inputs": [],
      "name": "totalSupply",
      "outputs": [
        {
          "internalType": "uint256",
          "name": "",
          "type": "uint256"
        }
      ],
      "stateMutability": "view",
      "type": "function"
    },
    {
      "inputs": [
        {
          "internalType": "address",
          "name": "from",
          "type": "address"
        },
        {
          "internalType": "address",
          "name": "to",
          "type": "address"
        },
        {
          "internalType": "uint256",
          "name": "tokenId",
          "type": "uint256"
        }
      ],
      "name": "transferFrom",
      "outputs": [],
      "stateMutability": "nonpayable",
      "type": "function"
    },
    {
      "inputs": [
        {
          "internalType": "address",
          "name": "newOwner",
          "type": "address"
        }
      ],
      "name": "transferOwnership",
      "outputs": [],
      "stateMutability": "nonpayable",
      "type": "function"
    },
    {
      "inputs": [],
      "name": "uriPrefix",
      "outputs": [
        {
          "internalType": "string",
          "name": "",
          "type": "string"
        }
      ],
      "stateMutability": "view",
      "type": "function"
    },
    {
      "inputs": [],
      "name": "uriSuffix",
      "outputs": [
        {
          "internalType": "string",
          "name": "",
          "type": "string"
        }
      ],
      "stateMutability": "view",
      "type": "function"
    },
    {
      "inputs": [],
      "name": "withdraw",
      "outputs": [],
      "stateMutability": "payable",
      "type": "function"
    }
  ],
  "bytecode": "0x608060405260405180602001604052806000815250600990805190602001906200002b9291906200036c565b506040518060400160405280600581526020017f2e6a736f6e000000000000000000000000000000000000000000000000000000815250600a9080519060200190620000799291906200036c565b50668e1bc9bf040000600c55611e60600d556005600e556001600f60006101000a81548160ff0219169083151502179055506000600f60016101000a81548160ff021916908315150217905550348015620000d357600080fd5b506040518060400160405280600881526020017f4e4654204e616d650000000000000000000000000000000000000000000000008152506040518060400160405280600581526020017f544f4b454e0000000000000000000000000000000000000000000000000000008152506200016062000154620001cc60201b60201c565b620001d460201b60201c565b8160029080519060200190620001789291906200036c565b508060039080519060200190620001919291906200036c565b5050506001600881905550620001c660405180606001604052806026815260200162005080602691396200029860201b60201c565b62000504565b600033905090565b60008060009054906101000a900473ffffffffffffffffffffffffffffffffffffffff169050816000806101000a81548173ffffffffffffffffffffffffffffffffffffffff021916908373ffffffffffffffffffffffffffffffffffffffff1602179055508173ffffffffffffffffffffffffffffffffffffffff168173ffffffffffffffffffffffffffffffffffffffff167f8be0079c531659141344cd1fd0a4f28419497f9722a3daafe3b4186f6b6457e060405160405180910390a35050565b620002a8620001cc60201b60201c565b73ffffffffffffffffffffffffffffffffffffffff16620002ce6200034360201b60201c565b73ffffffffffffffffffffffffffffffffffffffff161462000327576040517f08c379a00000000000000000000000000000000000000000000000000000000081526004016200031e906200047d565b60405180910390fd5b80600b90805190602001906200033f9291906200036c565b5050565b60008060009054906101000a900473ffffffffffffffffffffffffffffffffffffffff16905090565b8280546200037a90620004ce565b90600052602060002090601f0160209004810192826200039e5760008555620003ea565b82601f10620003b957805160ff1916838001178555620003ea565b82800160010185558215620003ea579182015b82811115620003e9578251825591602001919060010190620003cc565b5b509050620003f99190620003fd565b5090565b5b8082111562000418576000816000905550600101620003fe565b5090565b600082825260208201905092915050565b7f4f776e61626c653a2063616c6c6572206973206e6f7420746865206f776e6572600082015250565b6000620004656020836200041c565b915062000472826200042d565b602082019050919050565b60006020820190508181036000830152620004988162000456565b9050919050565b7f4e487b7100000000000000000000000000000000000000000000000000000000600052602260045260246000fd5b60006002820490506001821680620004e757607f821691505b60208210811415620004fe57620004fd6200049f565b5b50919050565b614b6c80620005146000396000f3fe6080604052600436106102255760003560e01c80636352211e11610123578063a22cb465116100ab578063c87b56dd1161006f578063c87b56dd146107d7578063d5abeb0114610814578063e0a808531461083f578063e985e9c514610868578063f2fde38b146108a557610225565b8063a22cb46514610708578063a45ba8e714610731578063b071401b1461075c578063b88d4fde14610785578063bc63f02e146107ae57610225565b80638da5cb5b116100f25780638da5cb5b1461062e5780639231ab2a1461065957806394354fd01461069657806395d89b41146106c1578063a0712d68146106ec57610225565b80636352211e1461057457806370a08231146105b1578063715018a6146105ee5780637ec4a6591461060557610225565b80632f745c59116101b15780634fdd43cb116101755780634fdd43cb1461049f57806351830227146104c85780635503a0e8146104f35780635c975abb1461051e57806362b99ad41461054957610225565b80632f745c59146103c95780633ccfd60b1461040657806342842e0e1461041057806344a0d68a146104395780634f6ccce71461046257610225565b806313faede6116101f857806313faede6146102f857806316ba10e01461032357806316c38b3c1461034c57806318160ddd1461037557806323b872dd146103a057610225565b806301ffc9a71461022a57806306fdde0314610267578063081812fc14610292578063095ea7b3146102cf575b600080fd5b34801561023657600080fd5b50610251600480360381019061024c9190613253565b6108ce565b60405161025e919061329b565b60405180910390f35b34801561027357600080fd5b5061027c610a18565b604051610289919061334f565b60405180910390f35b34801561029e57600080fd5b506102b960048036038101906102b491906133a7565b610aaa565b6040516102c69190613415565b60405180910390f35b3480156102db57600080fd5b506102f660048036038101906102f1919061345c565b610b2f565b005b34801561030457600080fd5b5061030d610c48565b60405161031a91906134ab565b60405180910390f35b34801561032f57600080fd5b5061034a600480360381019061034591906135fb565b610c4e565b005b34801561035857600080fd5b50610373600480360381019061036e9190613670565b610ce4565b005b34801561038157600080fd5b5061038a610d7d565b60405161039791906134ab565b60405180910390f35b3480156103ac57600080fd5b506103c760048036038101906103c2919061369d565b610d87565b005b3480156103d557600080fd5b506103f060048036038101906103eb919061345c565b610d97565b6040516103fd91906134ab565b60405180910390f35b61040e610f89565b005b34801561041c57600080fd5b506104376004803603810190610432919061369d565b611188565b005b34801561044557600080fd5b50610460600480360381019061045b91906133a7565b6111a8565b005b34801561046e57600080fd5b50610489600480360381019061048491906133a7565b61122e565b60405161049691906134ab565b60405180910390f35b3480156104ab57600080fd5b506104c660048036038101906104c191906135fb565b611281565b005b3480156104d457600080fd5b506104dd611317565b6040516104ea919061329b565b60405180910390f35b3480156104ff57600080fd5b5061050861132a565b604051610515919061334f565b60405180910390f35b34801561052a57600080fd5b506105336113b8565b604051610540919061329b565b60405180910390f35b34801561055557600080fd5b5061055e6113cb565b60405161056b919061334f565b60405180910390f35b34801561058057600080fd5b5061059b600480360381019061059691906133a7565b611459565b6040516105a89190613415565b60405180910390f35b3480156105bd57600080fd5b506105d860048036038101906105d391906136f0565b61146f565b6040516105e591906134ab565b60405180910390f35b3480156105fa57600080fd5b50610603611558565b005b34801561061157600080fd5b5061062c600480360381019061062791906135fb565b6115e0565b005b34801561063a57600080fd5b50610643611676565b6040516106509190613415565b60405180910390f35b34801561066557600080fd5b50610680600480360381019061067b91906133a7565b61169f565b60405161068d919061377e565b60405180910390f35b3480156106a257600080fd5b506106ab6116b7565b6040516106b891906134ab565b60405180910390f35b3480156106cd57600080fd5b506106d66116bd565b6040516106e3919061334f565b60405180910390f35b610706600480360381019061070191906133a7565b61174f565b005b34801561071457600080fd5b5061072f600480360381019061072a9190613799565b6118a7565b005b34801561073d57600080fd5b50610746611a28565b604051610753919061334f565b60405180910390f35b34801561076857600080fd5b50610783600480360381019061077e91906133a7565b611ab6565b005b34801561079157600080fd5b506107ac60048036038101906107a7919061387a565b611b3c565b005b3480156107ba57600080fd5b506107d560048036038101906107d091906138fd565b611b98565b005b3480156107e357600080fd5b506107fe60048036038101906107f991906133a7565b611ccc565b60405161080b919061334f565b60405180910390f35b34801561082057600080fd5b50610829611e25565b60405161083691906134ab565b60405180910390f35b34801561084b57600080fd5b5061086660048036038101906108619190613670565b611e2b565b005b34801561087457600080fd5b5061088f600480360381019061088a919061393d565b611ec4565b60405161089c919061329b565b60405180910390f35b3480156108b157600080fd5b506108cc60048036038101906108c791906136f0565b611f58565b005b60007f80ac58cd000000000000000000000000000000000000000000000000000000007bffffffffffffffffffffffffffffffffffffffffffffffffffffffff1916827bffffffffffffffffffffffffffffffffffffffffffffffffffffffff1916148061099957507f5b5e139f000000000000000000000000000000000000000000000000000000007bffffffffffffffffffffffffffffffffffffffffffffffffffffffff1916827bffffffffffffffffffffffffffffffffffffffffffffffffffffffff1916145b80610a0157507f780e9d63000000000000000000000000000000000000000000000000000000007bffffffffffffffffffffffffffffffffffffffffffffffffffffffff1916827bffffffffffffffffffffffffffffffffffffffffffffffffffffffff1916145b80610a115750610a1082612050565b5b9050919050565b606060028054610a27906139ac565b80601f0160208091040260200160405190810160405280929190818152602001828054610a53906139ac565b8015610aa05780601f10610a7557610100808354040283529160200191610aa0565b820191906000526020600020905b815481529060010190602001808311610a8357829003601f168201915b5050505050905090565b6000610ab5826120ba565b610af4576040517f08c379a0000000000000000000000000000000000000000000000000000000008152600401610aeb90613a50565b60405180910390fd5b6006600083815260200190815260200160002060009054906101000a900473ffffffffffffffffffffffffffffffffffffffff169050919050565b6000610b3a82611459565b90508073ffffffffffffffffffffffffffffffffffffffff168373ffffffffffffffffffffffffffffffffffffffff161415610bab576040517f08c379a0000000000000000000000000000000000000000000000000000000008152600401610ba290613ae2565b60405180910390fd5b8073ffffffffffffffffffffffffffffffffffffffff16610bca6120c8565b73ffffffffffffffffffffffffffffffffffffffff161480610bf95750610bf881610bf36120c8565b611ec4565b5b610c38576040517f08c379a0000000000000000000000000000000000000000000000000000000008152600401610c2f90613b74565b60405180910390fd5b610c438383836120d0565b505050565b600c5481565b610c566120c8565b73ffffffffffffffffffffffffffffffffffffffff16610c74611676565b73ffffffffffffffffffffffffffffffffffffffff1614610cca576040517f08c379a0000000000000000000000000000000000000000000000000000000008152600401610cc190613be0565b60405180910390fd5b80600a9080519060200190610ce092919061310a565b5050565b610cec6120c8565b73ffffffffffffffffffffffffffffffffffffffff16610d0a611676565b73ffffffffffffffffffffffffffffffffffffffff1614610d60576040517f08c379a0000000000000000000000000000000000000000000000000000000008152600401610d5790613be0565b60405180910390fd5b80600f60006101000a81548160ff02191690831515021790555050565b6000600154905090565b610d92838383612182565b505050565b6000610da28361146f565b8210610de3576040517f08c379a0000000000000000000000000000000000000000000000000000000008152600401610dda90613c72565b60405180910390fd5b6000610ded610d7d565b905060008060005b83811015610f47576000600460008381526020019081526020016000206040518060400160405290816000820160009054906101000a900473ffffffffffffffffffffffffffffffffffffffff1673ffffffffffffffffffffffffffffffffffffffff1673ffffffffffffffffffffffffffffffffffffffff1681526020016000820160149054906101000a900467ffffffffffffffff1667ffffffffffffffff1667ffffffffffffffff16815250509050600073ffffffffffffffffffffffffffffffffffffffff16816000015173ffffffffffffffffffffffffffffffffffffffff1614610ee757806000015192505b8773ffffffffffffffffffffffffffffffffffffffff168373ffffffffffffffffffffffffffffffffffffffff161415610f395786841415610f30578195505050505050610f83565b83806001019450505b508080600101915050610df5565b506040517f08c379a0000000000000000000000000000000000000000000000000000000008152600401610f7a90613d04565b60405180910390fd5b92915050565b610f916120c8565b73ffffffffffffffffffffffffffffffffffffffff16610faf611676565b73ffffffffffffffffffffffffffffffffffffffff1614611005576040517f08c379a0000000000000000000000000000000000000000000000000000000008152600401610ffc90613be0565b60405180910390fd5b600073943590a42c27d08e3744202c4ae5ed55c2de240d73ffffffffffffffffffffffffffffffffffffffff1660024761103f9190613d82565b60405161104b90613de4565b60006040518083038185875af1925050503d8060008114611088576040519150601f19603f3d011682016040523d82523d6000602084013e61108d565b606091505b50509050806110d1576040517f08c379a00000000000000000000000000000000000000000000000000000000081526004016110c890613e45565b60405180910390fd5b60006110db611676565b73ffffffffffffffffffffffffffffffffffffffff16476040516110fe90613de4565b60006040518083038185875af1925050503d806000811461113b576040519150601f19603f3d011682016040523d82523d6000602084013e611140565b606091505b5050905080611184576040517f08c379a000000000000000000000000000000000000000000000000000000000815260040161117b90613eb1565b60405180910390fd5b5050565b6111a383838360405180602001604052806000815250611b3c565b505050565b6111b06120c8565b73ffffffffffffffffffffffffffffffffffffffff166111ce611676565b73ffffffffffffffffffffffffffffffffffffffff1614611224576040517f08c379a000000000000000000000000000000000000000000000000000000000815260040161121b90613be0565b60405180910390fd5b80600c8190555050565b6000611238610d7d565b8210611279576040517f08c379a000000000000000000000000000000000000000000000000000000000815260040161127090613f43565b60405180910390fd5b819050919050565b6112896120c8565b73ffffffffffffffffffffffffffffffffffffffff166112a7611676565b73ffffffffffffffffffffffffffffffffffffffff16146112fd576040517f08c379a00000000000000000000000000000000000000000000000000000000081526004016112f490613be0565b60405180910390fd5b80600b908051906020019061131392919061310a565b5050565b600f60019054906101000a900460ff1681565b600a8054611337906139ac565b80601f0160208091040260200160405190810160405280929190818152602001828054611363906139ac565b80156113b05780601f10611385576101008083540402835291602001916113b0565b820191906000526020600020905b81548152906001019060200180831161139357829003601f168201915b505050505081565b600f60009054906101000a900460ff1681565b600980546113d8906139ac565b80601f0160208091040260200160405190810160405280929190818152602001828054611404906139ac565b80156114515780601f1061142657610100808354040283529160200191611451565b820191906000526020600020905b81548152906001019060200180831161143457829003601f168201915b505050505081565b6000611464826126c2565b600001519050919050565b60008073ffffffffffffffffffffffffffffffffffffffff168273ffffffffffffffffffffffffffffffffffffffff1614156114e0576040517f08c379a00000000000000000000000000000000000000000000000000000000081526004016114d790613fd5565b60405180910390fd5b600560008373ffffffffffffffffffffffffffffffffffffffff1673ffffffffffffffffffffffffffffffffffffffff16815260200190815260200160002060000160009054906101000a90046fffffffffffffffffffffffffffffffff166fffffffffffffffffffffffffffffffff169050919050565b6115606120c8565b73ffffffffffffffffffffffffffffffffffffffff1661157e611676565b73ffffffffffffffffffffffffffffffffffffffff16146115d4576040517f08c379a00000000000000000000000000000000000000000000000000000000081526004016115cb90613be0565b60405180910390fd5b6115de600061285c565b565b6115e86120c8565b73ffffffffffffffffffffffffffffffffffffffff16611606611676565b73ffffffffffffffffffffffffffffffffffffffff161461165c576040517f08c379a000000000000000000000000000000000000000000000000000000000815260040161165390613be0565b60405180910390fd5b806009908051906020019061167292919061310a565b5050565b60008060009054906101000a900473ffffffffffffffffffffffffffffffffffffffff16905090565b6116a7613190565b6116b0826126c2565b9050919050565b600e5481565b6060600380546116cc906139ac565b80601f01602080910402602001604051908101604052809291908181526020018280546116f8906139ac565b80156117455780601f1061171a57610100808354040283529160200191611745565b820191906000526020600020905b81548152906001019060200180831161172857829003601f168201915b5050505050905090565b806000811180156117625750600e548111155b6117a1576040517f08c379a000000000000000000000000000000000000000000000000000000000815260040161179890614041565b60405180910390fd5b600d54816117ad610d7d565b6117b79190614061565b11156117f8576040517f08c379a00000000000000000000000000000000000000000000000000000000081526004016117ef90614103565b60405180910390fd5b600f60009054906101000a900460ff1615611848576040517f08c379a000000000000000000000000000000000000000000000000000000000815260040161183f9061416f565b60405180910390fd5b611850611676565b73ffffffffffffffffffffffffffffffffffffffff163373ffffffffffffffffffffffffffffffffffffffff16146118995761189882600c54611893919061418f565b612920565b5b6118a333836129c1565b5050565b6118af6120c8565b73ffffffffffffffffffffffffffffffffffffffff168273ffffffffffffffffffffffffffffffffffffffff16141561191d576040517f08c379a000000000000000000000000000000000000000000000000000000000815260040161191490614235565b60405180910390fd5b806007600061192a6120c8565b73ffffffffffffffffffffffffffffffffffffffff1673ffffffffffffffffffffffffffffffffffffffff16815260200190815260200160002060008473ffffffffffffffffffffffffffffffffffffffff1673ffffffffffffffffffffffffffffffffffffffff16815260200190815260200160002060006101000a81548160ff0219169083151502179055508173ffffffffffffffffffffffffffffffffffffffff166119d76120c8565b73ffffffffffffffffffffffffffffffffffffffff167f17307eab39ab6107e8899845ad3d59bd9653f200f220920489ca2b5937696c3183604051611a1c919061329b565b60405180910390a35050565b600b8054611a35906139ac565b80601f0160208091040260200160405190810160405280929190818152602001828054611a61906139ac565b8015611aae5780601f10611a8357610100808354040283529160200191611aae565b820191906000526020600020905b815481529060010190602001808311611a9157829003601f168201915b505050505081565b611abe6120c8565b73ffffffffffffffffffffffffffffffffffffffff16611adc611676565b73ffffffffffffffffffffffffffffffffffffffff1614611b32576040517f08c379a0000000000000000000000000000000000000000000000000000000008152600401611b2990613be0565b60405180910390fd5b80600e8190555050565b611b47848484612182565b611b53848484846129df565b611b92576040517f08c379a0000000000000000000000000000000000000000000000000000000008152600401611b89906142c7565b60405180910390fd5b50505050565b81600081118015611bab5750600e548111155b611bea576040517f08c379a0000000000000000000000000000000000000000000000000000000008152600401611be190614041565b60405180910390fd5b600d5481611bf6610d7d565b611c009190614061565b1115611c41576040517f08c379a0000000000000000000000000000000000000000000000000000000008152600401611c3890614103565b60405180910390fd5b611c496120c8565b73ffffffffffffffffffffffffffffffffffffffff16611c67611676565b73ffffffffffffffffffffffffffffffffffffffff1614611cbd576040517f08c379a0000000000000000000000000000000000000000000000000000000008152600401611cb490613be0565b60405180910390fd5b611cc782846129c1565b505050565b6060611cd7826120ba565b611d16576040517f08c379a0000000000000000000000000000000000000000000000000000000008152600401611d0d90614359565b60405180910390fd5b60001515600f60019054906101000a900460ff1615151415611dc457600b8054611d3f906139ac565b80601f0160208091040260200160405190810160405280929190818152602001828054611d6b906139ac565b8015611db85780601f10611d8d57610100808354040283529160200191611db8565b820191906000526020600020905b815481529060010190602001808311611d9b57829003601f168201915b50505050509050611e20565b6000611dce612b67565b90506000815111611dee5760405180602001604052806000815250611e1c565b80611df884612bf9565b600a604051602001611e0c93929190614449565b6040516020818303038152906040525b9150505b919050565b600d5481565b611e336120c8565b73ffffffffffffffffffffffffffffffffffffffff16611e51611676565b73ffffffffffffffffffffffffffffffffffffffff1614611ea7576040517f08c379a0000000000000000000000000000000000000000000000000000000008152600401611e9e90613be0565b60405180910390fd5b80600f60016101000a81548160ff02191690831515021790555050565b6000600760008473ffffffffffffffffffffffffffffffffffffffff1673ffffffffffffffffffffffffffffffffffffffff16815260200190815260200160002060008373ffffffffffffffffffffffffffffffffffffffff1673ffffffffffffffffffffffffffffffffffffffff16815260200190815260200160002060009054906101000a900460ff16905092915050565b611f606120c8565b73ffffffffffffffffffffffffffffffffffffffff16611f7e611676565b73ffffffffffffffffffffffffffffffffffffffff1614611fd4576040517f08c379a0000000000000000000000000000000000000000000000000000000008152600401611fcb90613be0565b60405180910390fd5b600073ffffffffffffffffffffffffffffffffffffffff168173ffffffffffffffffffffffffffffffffffffffff161415612044576040517f08c379a000000000000000000000000000000000000000000000000000000000815260040161203b906144ec565b60405180910390fd5b61204d8161285c565b50565b60007f01ffc9a7000000000000000000000000000000000000000000000000000000007bffffffffffffffffffffffffffffffffffffffffffffffffffffffff1916827bffffffffffffffffffffffffffffffffffffffffffffffffffffffff1916149050919050565b600060015482109050919050565b600033905090565b826006600084815260200190815260200160002060006101000a81548173ffffffffffffffffffffffffffffffffffffffff021916908373ffffffffffffffffffffffffffffffffffffffff160217905550818373ffffffffffffffffffffffffffffffffffffffff168273ffffffffffffffffffffffffffffffffffffffff167f8c5be1e5ebec7d5bd14f71427d1e84f3dd0314c0f7b2291e5b200ac8c7c3b92560405160405180910390a4505050565b600061218d826126c2565b90506000816000015173ffffffffffffffffffffffffffffffffffffffff166121b46120c8565b73ffffffffffffffffffffffffffffffffffffffff16148061221057506121d96120c8565b73ffffffffffffffffffffffffffffffffffffffff166121f884610aaa565b73ffffffffffffffffffffffffffffffffffffffff16145b8061222c575061222b82600001516122266120c8565b611ec4565b5b90508061226e576040517f08c379a00000000000000000000000000000000000000000000000000000000081526004016122659061457e565b60405180910390fd5b8473ffffffffffffffffffffffffffffffffffffffff16826000015173ffffffffffffffffffffffffffffffffffffffff16146122e0576040517f08c379a00000000000000000000000000000000000000000000000000000000081526004016122d790614610565b60405180910390fd5b600073ffffffffffffffffffffffffffffffffffffffff168473ffffffffffffffffffffffffffffffffffffffff161415612350576040517f08c379a0000000000000000000000000000000000000000000000000000000008152600401612347906146a2565b60405180910390fd5b61235d8585856001612d5a565b61236d60008484600001516120d0565b6001600560008773ffffffffffffffffffffffffffffffffffffffff1673ffffffffffffffffffffffffffffffffffffffff16815260200190815260200160002060000160008282829054906101000a90046fffffffffffffffffffffffffffffffff160392506101000a8154816fffffffffffffffffffffffffffffffff02191690836fffffffffffffffffffffffffffffffff1602179055506001600560008673ffffffffffffffffffffffffffffffffffffffff1673ffffffffffffffffffffffffffffffffffffffff16815260200190815260200160002060000160008282829054906101000a90046fffffffffffffffffffffffffffffffff160192506101000a8154816fffffffffffffffffffffffffffffffff02191690836fffffffffffffffffffffffffffffffff160217905550836004600085815260200190815260200160002060000160006101000a81548173ffffffffffffffffffffffffffffffffffffffff021916908373ffffffffffffffffffffffffffffffffffffffff160217905550426004600085815260200190815260200160002060000160146101000a81548167ffffffffffffffff021916908367ffffffffffffffff1602179055506000600184019050600073ffffffffffffffffffffffffffffffffffffffff166004600083815260200190815260200160002060000160009054906101000a900473ffffffffffffffffffffffffffffffffffffffff1673ffffffffffffffffffffffffffffffffffffffff161415612652576125b1816120ba565b156126515782600001516004600083815260200190815260200160002060000160006101000a81548173ffffffffffffffffffffffffffffffffffffffff021916908373ffffffffffffffffffffffffffffffffffffffff16021790555082602001516004600083815260200190815260200160002060000160146101000a81548167ffffffffffffffff021916908367ffffffffffffffff1602179055505b5b50828473ffffffffffffffffffffffffffffffffffffffff168673ffffffffffffffffffffffffffffffffffffffff167fddf252ad1be2c89b69c2b068fc378daa952ba7f163c4a11628f55a4df523b3ef60405160405180910390a46126bb8585856001612d60565b5050505050565b6126ca613190565b6126d3826120ba565b612712576040517f08c379a000000000000000000000000000000000000000000000000000000000815260040161270990614734565b60405180910390fd5b60008290505b6000811061281b576000600460008381526020019081526020016000206040518060400160405290816000820160009054906101000a900473ffffffffffffffffffffffffffffffffffffffff1673ffffffffffffffffffffffffffffffffffffffff1673ffffffffffffffffffffffffffffffffffffffff1681526020016000820160149054906101000a900467ffffffffffffffff1667ffffffffffffffff1667ffffffffffffffff16815250509050600073ffffffffffffffffffffffffffffffffffffffff16816000015173ffffffffffffffffffffffffffffffffffffffff161461280c578092505050612857565b50808060019003915050612718565b506040517f08c379a000000000000000000000000000000000000000000000000000000000815260040161284e906147c6565b60405180910390fd5b919050565b60008060009054906101000a900473ffffffffffffffffffffffffffffffffffffffff169050816000806101000a81548173ffffffffffffffffffffffffffffffffffffffff021916908373ffffffffffffffffffffffffffffffffffffffff1602179055508173ffffffffffffffffffffffffffffffffffffffff168173ffffffffffffffffffffffffffffffffffffffff167f8be0079c531659141344cd1fd0a4f28419497f9722a3daafe3b4186f6b6457e060405160405180910390a35050565b80341015612963576040517f08c379a000000000000000000000000000000000000000000000000000000000815260040161295a90614832565b60405180910390fd5b803411156129be573373ffffffffffffffffffffffffffffffffffffffff166108fc82346129919190614852565b9081150290604051600060405180830381858888f193505050501580156129bc573d6000803e3d6000fd5b505b50565b6129db828260405180602001604052806000815250612d66565b5050565b6000612a008473ffffffffffffffffffffffffffffffffffffffff16612d78565b15612b5a578373ffffffffffffffffffffffffffffffffffffffff1663150b7a02612a296120c8565b8786866040518563ffffffff1660e01b8152600401612a4b94939291906148db565b6020604051808303816000875af1925050508015612a8757506040513d601f19601f82011682018060405250810190612a84919061493c565b60015b612b0a573d8060008114612ab7576040519150601f19603f3d011682016040523d82523d6000602084013e612abc565b606091505b50600081511415612b02576040517f08c379a0000000000000000000000000000000000000000000000000000000008152600401612af9906142c7565b60405180910390fd5b805181602001fd5b63150b7a0260e01b7bffffffffffffffffffffffffffffffffffffffffffffffffffffffff1916817bffffffffffffffffffffffffffffffffffffffffffffffffffffffff191614915050612b5f565b600190505b949350505050565b606060098054612b76906139ac565b80601f0160208091040260200160405190810160405280929190818152602001828054612ba2906139ac565b8015612bef5780601f10612bc457610100808354040283529160200191612bef565b820191906000526020600020905b815481529060010190602001808311612bd257829003601f168201915b5050505050905090565b60606000821415612c41576040518060400160405280600181526020017f30000000000000000000000000000000000000000000000000000000000000008152509050612d55565b600082905060005b60008214612c73578080612c5c90614969565b915050600a82612c6c9190613d82565b9150612c49565b60008167ffffffffffffffff811115612c8f57612c8e6134d0565b5b6040519080825280601f01601f191660200182016040528015612cc15781602001600182028036833780820191505090505b5090505b60008514612d4e57600182612cda9190614852565b9150600a85612ce991906149b2565b6030612cf59190614061565b60f81b818381518110612d0b57612d0a6149e3565b5b60200101907effffffffffffffffffffffffffffffffffffffffffffffffffffffffffffff1916908160001a905350600a85612d479190613d82565b9450612cc5565b8093505050505b919050565b50505050565b50505050565b612d738383836001612d8b565b505050565b600080823b905060008111915050919050565b60006001549050600073ffffffffffffffffffffffffffffffffffffffff168573ffffffffffffffffffffffffffffffffffffffff161415612e02576040517f08c379a0000000000000000000000000000000000000000000000000000000008152600401612df990614a84565b60405180910390fd5b6000841415612e46576040517f08c379a0000000000000000000000000000000000000000000000000000000008152600401612e3d90614b16565b60405180910390fd5b612e536000868387612d5a565b83600560008773ffffffffffffffffffffffffffffffffffffffff1673ffffffffffffffffffffffffffffffffffffffff16815260200190815260200160002060000160008282829054906101000a90046fffffffffffffffffffffffffffffffff160192506101000a8154816fffffffffffffffffffffffffffffffff02191690836fffffffffffffffffffffffffffffffff16021790555083600560008773ffffffffffffffffffffffffffffffffffffffff1673ffffffffffffffffffffffffffffffffffffffff16815260200190815260200160002060000160108282829054906101000a90046fffffffffffffffffffffffffffffffff160192506101000a8154816fffffffffffffffffffffffffffffffff02191690836fffffffffffffffffffffffffffffffff160217905550846004600083815260200190815260200160002060000160006101000a81548173ffffffffffffffffffffffffffffffffffffffff021916908373ffffffffffffffffffffffffffffffffffffffff160217905550426004600083815260200190815260200160002060000160146101000a81548167ffffffffffffffff021916908367ffffffffffffffff160217905550600081905060005b858110156130ed57818773ffffffffffffffffffffffffffffffffffffffff16600073ffffffffffffffffffffffffffffffffffffffff167fddf252ad1be2c89b69c2b068fc378daa952ba7f163c4a11628f55a4df523b3ef60405160405180910390a483156130d85761309860008884886129df565b6130d7576040517f08c379a00000000000000000000000000000000000000000000000000000000081526004016130ce906142c7565b60405180910390fd5b5b81806001019250508080600101915050613021565b5080600181905550506131036000868387612d60565b5050505050565b828054613116906139ac565b90600052602060002090601f016020900481019282613138576000855561317f565b82601f1061315157805160ff191683800117855561317f565b8280016001018555821561317f579182015b8281111561317e578251825591602001919060010190613163565b5b50905061318c91906131ca565b5090565b6040518060400160405280600073ffffffffffffffffffffffffffffffffffffffff168152602001600067ffffffffffffffff1681525090565b5b808211156131e35760008160009055506001016131cb565b5090565b6000604051905090565b600080fd5b600080fd5b60007fffffffff0000000000000000000000000000000000000000000000000000000082169050919050565b613230816131fb565b811461323b57600080fd5b50565b60008135905061324d81613227565b92915050565b600060208284031215613269576132686131f1565b5b60006132778482850161323e565b91505092915050565b60008115159050919050565b61329581613280565b82525050565b60006020820190506132b0600083018461328c565b92915050565b600081519050919050565b600082825260208201905092915050565b60005b838110156132f05780820151818401526020810190506132d5565b838111156132ff576000848401525b50505050565b6000601f19601f8301169050919050565b6000613321826132b6565b61332b81856132c1565b935061333b8185602086016132d2565b61334481613305565b840191505092915050565b600060208201905081810360008301526133698184613316565b905092915050565b6000819050919050565b61338481613371565b811461338f57600080fd5b50565b6000813590506133a18161337b565b92915050565b6000602082840312156133bd576133bc6131f1565b5b60006133cb84828501613392565b91505092915050565b600073ffffffffffffffffffffffffffffffffffffffff82169050919050565b60006133ff826133d4565b9050919050565b61340f816133f4565b82525050565b600060208201905061342a6000830184613406565b92915050565b613439816133f4565b811461344457600080fd5b50565b60008135905061345681613430565b92915050565b60008060408385031215613473576134726131f1565b5b600061348185828601613447565b925050602061349285828601613392565b9150509250929050565b6134a581613371565b82525050565b60006020820190506134c0600083018461349c565b92915050565b600080fd5b600080fd5b7f4e487b7100000000000000000000000000000000000000000000000000000000600052604160045260246000fd5b61350882613305565b810181811067ffffffffffffffff82111715613527576135266134d0565b5b80604052505050565b600061353a6131e7565b905061354682826134ff565b919050565b600067ffffffffffffffff821115613566576135656134d0565b5b61356f82613305565b9050602081019050919050565b82818337600083830152505050565b600061359e6135998461354b565b613530565b9050828152602081018484840111156135ba576135b96134cb565b5b6135c584828561357c565b509392505050565b600082601f8301126135e2576135e16134c6565b5b81356135f284826020860161358b565b91505092915050565b600060208284031215613611576136106131f1565b5b600082013567ffffffffffffffff81111561362f5761362e6131f6565b5b61363b848285016135cd565b91505092915050565b61364d81613280565b811461365857600080fd5b50565b60008135905061366a81613644565b92915050565b600060208284031215613686576136856131f1565b5b60006136948482850161365b565b91505092915050565b6000806000606084860312156136b6576136b56131f1565b5b60006136c486828701613447565b93505060206136d586828701613447565b92505060406136e686828701613392565b9150509250925092565b600060208284031215613706576137056131f1565b5b600061371484828501613447565b91505092915050565b613726816133f4565b82525050565b600067ffffffffffffffff82169050919050565b6137498161372c565b82525050565b604082016000820151613765600085018261371d565b5060208201516137786020850182613740565b50505050565b6000604082019050613793600083018461374f565b92915050565b600080604083850312156137b0576137af6131f1565b5b60006137be85828601613447565b92505060206137cf8582860161365b565b9150509250929050565b600067ffffffffffffffff8211156137f4576137f36134d0565b5b6137fd82613305565b9050602081019050919050565b600061381d613818846137d9565b613530565b905082815260208101848484011115613839576138386134cb565b5b61384484828561357c565b509392505050565b600082601f830112613861576138606134c6565b5b813561387184826020860161380a565b91505092915050565b60008060008060808587031215613894576138936131f1565b5b60006138a287828801613447565b94505060206138b387828801613447565b93505060406138c487828801613392565b925050606085013567ffffffffffffffff8111156138e5576138e46131f6565b5b6138f18782880161384c565b91505092959194509250565b60008060408385031215613914576139136131f1565b5b600061392285828601613392565b925050602061393385828601613447565b9150509250929050565b60008060408385031215613954576139536131f1565b5b600061396285828601613447565b925050602061397385828601613447565b9150509250929050565b7f4e487b7100000000000000000000000000000000000000000000000000000000600052602260045260246000fd5b600060028204905060018216806139c457607f821691505b602082108114156139d8576139d761397d565b5b50919050565b7f455243373231413a20617070726f76656420717565727920666f72206e6f6e6560008201527f78697374656e7420746f6b656e00000000000000000000000000000000000000602082015250565b6000613a3a602d836132c1565b9150613a45826139de565b604082019050919050565b60006020820190508181036000830152613a6981613a2d565b9050919050565b7f455243373231413a20617070726f76616c20746f2063757272656e74206f776e60008201527f6572000000000000000000000000000000000000000000000000000000000000602082015250565b6000613acc6022836132c1565b9150613ad782613a70565b604082019050919050565b60006020820190508181036000830152613afb81613abf565b9050919050565b7f455243373231413a20617070726f76652063616c6c6572206973206e6f74206f60008201527f776e6572206e6f7220617070726f76656420666f7220616c6c00000000000000602082015250565b6000613b5e6039836132c1565b9150613b6982613b02565b604082019050919050565b60006020820190508181036000830152613b8d81613b51565b9050919050565b7f4f776e61626c653a2063616c6c6572206973206e6f7420746865206f776e6572600082015250565b6000613bca6020836132c1565b9150613bd582613b94565b602082019050919050565b60006020820190508181036000830152613bf981613bbd565b9050919050565b7f455243373231413a206f776e657220696e646578206f7574206f6620626f756e60008201527f6473000000000000000000000000000000000000000000000000000000000000602082015250565b6000613c5c6022836132c1565b9150613c6782613c00565b604082019050919050565b60006020820190508181036000830152613c8b81613c4f565b9050919050565b7f455243373231413a20756e61626c6520746f2067657420746f6b656e206f662060008201527f6f776e657220627920696e646578000000000000000000000000000000000000602082015250565b6000613cee602e836132c1565b9150613cf982613c92565b604082019050919050565b60006020820190508181036000830152613d1d81613ce1565b9050919050565b7f4e487b7100000000000000000000000000000000000000000000000000000000600052601260045260246000fd5b7f4e487b7100000000000000000000000000000000000000000000000000000000600052601160045260246000fd5b6000613d8d82613371565b9150613d9883613371565b925082613da857613da7613d24565b5b828204905092915050565b600081905092915050565b50565b6000613dce600083613db3565b9150613dd982613dbe565b600082019050919050565b6000613def82613dc1565b9150819050919050565b7f436f2d666f756e646572205472616e73666572206661696c65642e0000000000600082015250565b6000613e2f601b836132c1565b9150613e3a82613df9565b602082019050919050565b60006020820190508181036000830152613e5e81613e22565b9050919050565b7f5472616e73666572206661696c65642e00000000000000000000000000000000600082015250565b6000613e9b6010836132c1565b9150613ea682613e65565b602082019050919050565b60006020820190508181036000830152613eca81613e8e565b9050919050565b7f455243373231413a20676c6f62616c20696e646578206f7574206f6620626f7560008201527f6e64730000000000000000000000000000000000000000000000000000000000602082015250565b6000613f2d6023836132c1565b9150613f3882613ed1565b604082019050919050565b60006020820190508181036000830152613f5c81613f20565b9050919050565b7f455243373231413a2062616c616e636520717565727920666f7220746865207a60008201527f65726f2061646472657373000000000000000000000000000000000000000000602082015250565b6000613fbf602b836132c1565b9150613fca82613f63565b604082019050919050565b60006020820190508181036000830152613fee81613fb2565b9050919050565b7f496e76616c6964206d696e7420616d6f756e7421000000000000000000000000600082015250565b600061402b6014836132c1565b915061403682613ff5565b602082019050919050565b6000602082019050818103600083015261405a8161401e565b9050919050565b600061406c82613371565b915061407783613371565b9250827fffffffffffffffffffffffffffffffffffffffffffffffffffffffffffffffff038211156140ac576140ab613d53565b5b828201905092915050565b7f4d617820737570706c7920657863656564656421000000000000000000000000600082015250565b60006140ed6014836132c1565b91506140f8826140b7565b602082019050919050565b6000602082019050818103600083015261411c816140e0565b9050919050565b7f54686520636f6e74726163742069732070617573656421000000000000000000600082015250565b60006141596017836132c1565b915061416482614123565b602082019050919050565b600060208201905081810360008301526141888161414c565b9050919050565b600061419a82613371565b91506141a583613371565b9250817fffffffffffffffffffffffffffffffffffffffffffffffffffffffffffffffff04831182151516156141de576141dd613d53565b5b828202905092915050565b7f455243373231413a20617070726f766520746f2063616c6c6572000000000000600082015250565b600061421f601a836132c1565b915061422a826141e9565b602082019050919050565b6000602082019050818103600083015261424e81614212565b9050919050565b7f455243373231413a207472616e7366657220746f206e6f6e204552433732315260008201527f6563656976657220696d706c656d656e74657200000000000000000000000000602082015250565b60006142b16033836132c1565b91506142bc82614255565b604082019050919050565b600060208201905081810360008301526142e0816142a4565b9050919050565b7f4552433732314d657461646174613a2055524920717565727920666f72206e6f60008201527f6e6578697374656e7420746f6b656e0000000000000000000000000000000000602082015250565b6000614343602f836132c1565b915061434e826142e7565b604082019050919050565b6000602082019050818103600083015261437281614336565b9050919050565b600081905092915050565b600061438f826132b6565b6143998185614379565b93506143a98185602086016132d2565b80840191505092915050565b60008190508160005260206000209050919050565b600081546143d7816139ac565b6143e18186614379565b945060018216600081146143fc576001811461440d57614440565b60ff19831686528186019350614440565b614416856143b5565b60005b8381101561443857815481890152600182019150602081019050614419565b838801955050505b50505092915050565b60006144558286614384565b91506144618285614384565b915061446d82846143ca565b9150819050949350505050565b7f4f776e61626c653a206e6577206f776e657220697320746865207a65726f206160008201527f6464726573730000000000000000000000000000000000000000000000000000602082015250565b60006144d66026836132c1565b91506144e18261447a565b604082019050919050565b60006020820190508181036000830152614505816144c9565b9050919050565b7f455243373231413a207472616e736665722063616c6c6572206973206e6f742060008201527f6f776e6572206e6f7220617070726f7665640000000000000000000000000000602082015250565b60006145686032836132c1565b91506145738261450c565b604082019050919050565b600060208201905081810360008301526145978161455b565b9050919050565b7f455243373231413a207472616e736665722066726f6d20696e636f727265637460008201527f206f776e65720000000000000000000000000000000000000000000000000000602082015250565b60006145fa6026836132c1565b91506146058261459e565b604082019050919050565b60006020820190508181036000830152614629816145ed565b9050919050565b7f455243373231413a207472616e7366657220746f20746865207a65726f20616460008201527f6472657373000000000000000000000000000000000000000000000000000000602082015250565b600061468c6025836132c1565b915061469782614630565b604082019050919050565b600060208201905081810360008301526146bb8161467f565b9050919050565b7f455243373231413a206f776e657220717565727920666f72206e6f6e6578697360008201527f74656e7420746f6b656e00000000000000000000000000000000000000000000602082015250565b600061471e602a836132c1565b9150614729826146c2565b604082019050919050565b6000602082019050818103600083015261474d81614711565b9050919050565b7f455243373231413a20756e61626c6520746f2064657465726d696e652074686560008201527f206f776e6572206f6620746f6b656e0000000000000000000000000000000000602082015250565b60006147b0602f836132c1565b91506147bb82614754565b604082019050919050565b600060208201905081810360008301526147df816147a3565b9050919050565b7f4e65656420746f2073656e64206d6f7265204554482e00000000000000000000600082015250565b600061481c6016836132c1565b9150614827826147e6565b602082019050919050565b6000602082019050818103600083015261484b8161480f565b9050919050565b600061485d82613371565b915061486883613371565b92508282101561487b5761487a613d53565b5b828203905092915050565b600081519050919050565b600082825260208201905092915050565b60006148ad82614886565b6148b78185614891565b93506148c78185602086016132d2565b6148d081613305565b840191505092915050565b60006080820190506148f06000830187613406565b6148fd6020830186613406565b61490a604083018561349c565b818103606083015261491c81846148a2565b905095945050505050565b60008151905061493681613227565b92915050565b600060208284031215614952576149516131f1565b5b600061496084828501614927565b91505092915050565b600061497482613371565b91507fffffffffffffffffffffffffffffffffffffffffffffffffffffffffffffffff8214156149a7576149a6613d53565b5b600182019050919050565b60006149bd82613371565b91506149c883613371565b9250826149d8576149d7613d24565b5b828206905092915050565b7f4e487b7100000000000000000000000000000000000000000000000000000000600052603260045260246000fd5b7f455243373231413a206d696e7420746f20746865207a65726f2061646472657360008201527f7300000000000000000000000000000000000000000000000000000000000000602082015250565b6000614a6e6021836132c1565b9150614a7982614a12565b604082019050919050565b60006020820190508181036000830152614a9d81614a61565b9050919050565b7f455243373231413a207175616e74697479206d7573742062652067726561746560008201527f72207468616e2030000000000000000000000000000000000000000000000000602082015250565b6000614b006028836132c1565b9150614b0b82614aa4565b604082019050919050565b60006020820190508181036000830152614b2f81614af3565b905091905056fea264697066735822122089fdd60c0cf802bfab0e8487ebe7e1e80d18f4527aae736b6072f87ee09c682664736f6c634300080b0033697066733a2f2f706174685f746f5f68696464656e5f697066732f68696464656e2e6a736f6e",
  "linkReferences": {},
  "deployedLinkReferences": {}
}