{
  "_format": "hh-sol-artifact-1",
  "contractName": "ERC721ATEST",
  "sourceName": "cache/solpp-generated-contracts/ERC721A.sol",
  "abi": [
    {
      "inputs": [],
      "stateMutability": "nonpayable",
      "type": "constructor"
    },
    {
      "inputs": [],
      "name": "ApprovalCallerNotOwnerNorApproved",
      "type": "error"
    },
    {
      "inputs": [],
      "name": "ApprovalQueryForNonexistentToken",
      "type": "error"
    },
    {
      "inputs": [],
      "name": "ApprovalToCurrentOwner",
      "type": "error"
    },
    {
      "inputs": [],
      "name": "ApproveToCaller",
      "type": "error"
    },
    {
      "inputs": [],
      "name": "BalanceQueryForZeroAddress",
      "type": "error"
    },
    {
      "inputs": [],
      "name": "MintToZeroAddress",
      "type": "error"
    },
    {
      "inputs": [],
      "name": "MintZeroQuantity",
      "type": "error"
    },
    {
      "inputs": [],
      "name": "OwnerIndexOutOfBounds",
      "type": "error"
    },
    {
      "inputs": [],
      "name": "OwnerQueryForNonexistentToken",
      "type": "error"
    },
    {
      "inputs": [],
      "name": "TokenIndexOutOfBounds",
      "type": "error"
    },
    {
      "inputs": [],
      "name": "TransferCallerNotOwnerNorApproved",
      "type": "error"
    },
    {
      "inputs": [],
      "name": "TransferFromIncorrectOwner",
      "type": "error"
    },
    {
      "inputs": [],
      "name": "TransferToNonERC721ReceiverImplementer",
      "type": "error"
    },
    {
      "inputs": [],
      "name": "TransferToZeroAddress",
      "type": "error"
    },
    {
      "anonymous": false,
      "inputs": [
        {
          "indexed": true,
          "internalType": "address",
          "name": "owner",
          "type": "address"
        },
        {
          "indexed": true,
          "internalType": "address",
          "name": "approved",
          "type": "address"
        },
        {
          "indexed": true,
          "internalType": "uint256",
          "name": "tokenId",
          "type": "uint256"
        }
      ],
      "name": "Approval",
      "type": "event"
    },
    {
      "anonymous": false,
      "inputs": [
        {
          "indexed": true,
          "internalType": "address",
          "name": "owner",
          "type": "address"
        },
        {
          "indexed": true,
          "internalType": "address",
          "name": "operator",
          "type": "address"
        },
        {
          "indexed": false,
          "internalType": "bool",
          "name": "approved",
          "type": "bool"
        }
      ],
      "name": "ApprovalForAll",
      "type": "event"
    },
    {
      "anonymous": false,
      "inputs": [
        {
          "indexed": true,
          "internalType": "address",
          "name": "previousOwner",
          "type": "address"
        },
        {
          "indexed": true,
          "internalType": "address",
          "name": "newOwner",
          "type": "address"
        }
      ],
      "name": "OwnershipTransferred",
      "type": "event"
    },
    {
      "anonymous": false,
      "inputs": [
        {
          "indexed": true,
          "internalType": "address",
          "name": "from",
          "type": "address"
        },
        {
          "indexed": true,
          "internalType": "address",
          "name": "to",
          "type": "address"
        },
        {
          "indexed": true,
          "internalType": "uint256",
          "name": "tokenId",
          "type": "uint256"
        }
      ],
      "name": "Transfer",
      "type": "event"
    },
    {
      "inputs": [
        {
          "internalType": "uint256",
          "name": "_mintAmount",
          "type": "uint256"
        },
        {
          "internalType": "address",
          "name": "_receiver",
          "type": "address"
        }
      ],
      "name": "airdrop",
      "outputs": [],
      "stateMutability": "nonpayable",
      "type": "function"
    },
    {
      "inputs": [
        {
          "internalType": "address",
          "name": "to",
          "type": "address"
        },
        {
          "internalType": "uint256",
          "name": "tokenId",
          "type": "uint256"
        }
      ],
      "name": "approve",
      "outputs": [],
      "stateMutability": "nonpayable",
      "type": "function"
    },
    {
      "inputs": [
        {
          "internalType": "address",
          "name": "owner",
          "type": "address"
        }
      ],
      "name": "balanceOf",
      "outputs": [
        {
          "internalType": "uint256",
          "name": "",
          "type": "uint256"
        }
      ],
      "stateMutability": "view",
      "type": "function"
    },
    {
      "inputs": [],
      "name": "cost",
      "outputs": [
        {
          "internalType": "uint256",
          "name": "",
          "type": "uint256"
        }
      ],
      "stateMutability": "view",
      "type": "function"
    },
    {
      "inputs": [
        {
          "internalType": "uint256",
          "name": "tokenId",
          "type": "uint256"
        }
      ],
      "name": "getApproved",
      "outputs": [
        {
          "internalType": "address",
          "name": "",
          "type": "address"
        }
      ],
      "stateMutability": "view",
      "type": "function"
    },
    {
      "inputs": [
        {
          "internalType": "uint256",
          "name": "tokenId",
          "type": "uint256"
        }
      ],
      "name": "getOwnershipData",
      "outputs": [
        {
          "components": [
            {
              "internalType": "address",
              "name": "addr",
              "type": "address"
            },
            {
              "internalType": "uint64",
              "name": "startTimestamp",
              "type": "uint64"
            },
            {
              "internalType": "bool",
              "name": "burned",
              "type": "bool"
            }
          ],
          "internalType": "struct ERC721A.TokenOwnership",
          "name": "",
          "type": "tuple"
        }
      ],
      "stateMutability": "view",
      "type": "function"
    },
    {
      "inputs": [],
      "name": "hiddenMetadataUri",
      "outputs": [
        {
          "internalType": "string",
          "name": "",
          "type": "string"
        }
      ],
      "stateMutability": "view",
      "type": "function"
    },
    {
      "inputs": [
        {
          "internalType": "address",
          "name": "owner",
          "type": "address"
        },
        {
          "internalType": "address",
          "name": "operator",
          "type": "address"
        }
      ],
      "name": "isApprovedForAll",
      "outputs": [
        {
          "internalType": "bool",
          "name": "",
          "type": "bool"
        }
      ],
      "stateMutability": "view",
      "type": "function"
    },
    {
      "inputs": [],
      "name": "maxMintAmountPerTx",
      "outputs": [
        {
          "internalType": "uint256",
          "name": "",
          "type": "uint256"
        }
      ],
      "stateMutability": "view",
      "type": "function"
    },
    {
      "inputs": [],
      "name": "maxSupply",
      "outputs": [
        {
          "internalType": "uint256",
          "name": "",
          "type": "uint256"
        }
      ],
      "stateMutability": "view",
      "type": "function"
    },
    {
      "inputs": [
        {
          "internalType": "uint256",
          "name": "_mintAmount",
          "type": "uint256"
        }
      ],
      "name": "mint",
      "outputs": [],
      "stateMutability": "payable",
      "type": "function"
    },
    {
      "inputs": [],
      "name": "name",
      "outputs": [
        {
          "internalType": "string",
          "name": "",
          "type": "string"
        }
      ],
      "stateMutability": "view",
      "type": "function"
    },
    {
      "inputs": [],
      "name": "owner",
      "outputs": [
        {
          "internalType": "address",
          "name": "",
          "type": "address"
        }
      ],
      "stateMutability": "view",
      "type": "function"
    },
    {
      "inputs": [
        {
          "internalType": "uint256",
          "name": "tokenId",
          "type": "uint256"
        }
      ],
      "name": "ownerOf",
      "outputs": [
        {
          "internalType": "address",
          "name": "",
          "type": "address"
        }
      ],
      "stateMutability": "view",
      "type": "function"
    },
    {
      "inputs": [],
      "name": "paused",
      "outputs": [
        {
          "internalType": "bool",
          "name": "",
          "type": "bool"
        }
      ],
      "stateMutability": "view",
      "type": "function"
    },
    {
      "inputs": [],
      "name": "renounceOwnership",
      "outputs": [],
      "stateMutability": "nonpayable",
      "type": "function"
    },
    {
      "inputs": [],
      "name": "revealed",
      "outputs": [
        {
          "internalType": "bool",
          "name": "",
          "type": "bool"
        }
      ],
      "stateMutability": "view",
      "type": "function"
    },
    {
      "inputs": [
        {
          "internalType": "address",
          "name": "from",
          "type": "address"
        },
        {
          "internalType": "address",
          "name": "to",
          "type": "address"
        },
        {
          "internalType": "uint256",
          "name": "tokenId",
          "type": "uint256"
        }
      ],
      "name": "safeTransferFrom",
      "outputs": [],
      "stateMutability": "nonpayable",
      "type": "function"
    },
    {
      "inputs": [
        {
          "internalType": "address",
          "name": "from",
          "type": "address"
        },
        {
          "internalType": "address",
          "name": "to",
          "type": "address"
        },
        {
          "internalType": "uint256",
          "name": "tokenId",
          "type": "uint256"
        },
        {
          "internalType": "bytes",
          "name": "_data",
          "type": "bytes"
        }
      ],
      "name": "safeTransferFrom",
      "outputs": [],
      "stateMutability": "nonpayable",
      "type": "function"
    },
    {
      "inputs": [
        {
          "internalType": "address",
          "name": "operator",
          "type": "address"
        },
        {
          "internalType": "bool",
          "name": "approved",
          "type": "bool"
        }
      ],
      "name": "setApprovalForAll",
      "outputs": [],
      "stateMutability": "nonpayable",
      "type": "function"
    },
    {
      "inputs": [
        {
          "internalType": "uint256",
          "name": "_cost",
          "type": "uint256"
        }
      ],
      "name": "setCost",
      "outputs": [],
      "stateMutability": "nonpayable",
      "type": "function"
    },
    {
      "inputs": [
        {
          "internalType": "string",
          "name": "_hiddenMetadataUri",
          "type": "string"
        }
      ],
      "name": "setHiddenMetadataUri",
      "outputs": [],
      "stateMutability": "nonpayable",
      "type": "function"
    },
    {
      "inputs": [
        {
          "internalType": "uint256",
          "name": "_maxMintAmountPerTx",
          "type": "uint256"
        }
      ],
      "name": "setMaxMintAmountPerTx",
      "outputs": [],
      "stateMutability": "nonpayable",
      "type": "function"
    },
    {
      "inputs": [
        {
          "internalType": "bool",
          "name": "_state",
          "type": "bool"
        }
      ],
      "name": "setPaused",
      "outputs": [],
      "stateMutability": "nonpayable",
      "type": "function"
    },
    {
      "inputs": [
        {
          "internalType": "bool",
          "name": "_state",
          "type": "bool"
        }
      ],
      "name": "setRevealed",
      "outputs": [],
      "stateMutability": "nonpayable",
      "type": "function"
    },
    {
      "inputs": [
        {
          "internalType": "string",
          "name": "_uriPrefix",
          "type": "string"
        }
      ],
      "name": "setUriPrefix",
      "outputs": [],
      "stateMutability": "nonpayable",
      "type": "function"
    },
    {
      "inputs": [
        {
          "internalType": "string",
          "name": "_uriSuffix",
          "type": "string"
        }
      ],
      "name": "setUriSuffix",
      "outputs": [],
      "stateMutability": "nonpayable",
      "type": "function"
    },
    {
      "inputs": [
        {
          "internalType": "bytes4",
          "name": "interfaceId",
          "type": "bytes4"
        }
      ],
      "name": "supportsInterface",
      "outputs": [
        {
          "internalType": "bool",
          "name": "",
          "type": "bool"
        }
      ],
      "stateMutability": "view",
      "type": "function"
    },
    {
      "inputs": [],
      "name": "symbol",
      "outputs": [
        {
          "internalType": "string",
          "name": "",
          "type": "string"
        }
      ],
      "stateMutability": "view",
      "type": "function"
    },
    {
      "inputs": [
        {
          "internalType": "uint256",
          "name": "index",
          "type": "uint256"
        }
      ],
      "name": "tokenByIndex",
      "outputs": [
        {
          "internalType": "uint256",
          "name": "",
          "type": "uint256"
        }
      ],
      "stateMutability": "view",
      "type": "function"
    },
    {
      "inputs": [
        {
          "internalType": "address",
          "name": "owner",
          "type": "address"
        },
        {
          "internalType": "uint256",
          "name": "index",
          "type": "uint256"
        }
      ],
      "name": "tokenOfOwnerByIndex",
      "outputs": [
        {
          "internalType": "uint256",
          "name": "",
          "type": "uint256"
        }
      ],
      "stateMutability": "view",
      "type": "function"
    },
    {
      "inputs": [
        {
          "internalType": "uint256",
          "name": "_tokenId",
          "type": "uint256"
        }
      ],
      "name": "tokenURI",
      "outputs": [
        {
          "internalType": "string",
          "name": "",
          "type": "string"
        }
      ],
      "stateMutability": "view",
      "type": "function"
    },
    {
      "inputs": [],
      "name": "totalSupply",
      "outputs": [
        {
          "internalType": "uint256",
          "name": "",
          "type": "uint256"
        }
      ],
      "stateMutability": "view",
      "type": "function"
    },
    {
      "inputs": [
        {
          "internalType": "address",
          "name": "from",
          "type": "address"
        },
        {
          "internalType": "address",
          "name": "to",
          "type": "address"
        },
        {
          "internalType": "uint256",
          "name": "tokenId",
          "type": "uint256"
        }
      ],
      "name": "transferFrom",
      "outputs": [],
      "stateMutability": "nonpayable",
      "type": "function"
    },
    {
      "inputs": [
        {
          "internalType": "address",
          "name": "newOwner",
          "type": "address"
        }
      ],
      "name": "transferOwnership",
      "outputs": [],
      "stateMutability": "nonpayable",
      "type": "function"
    },
    {
      "inputs": [],
      "name": "uriPrefix",
      "outputs": [
        {
          "internalType": "string",
          "name": "",
          "type": "string"
        }
      ],
      "stateMutability": "view",
      "type": "function"
    },
    {
      "inputs": [],
      "name": "uriSuffix",
      "outputs": [
        {
          "internalType": "string",
          "name": "",
          "type": "string"
        }
      ],
      "stateMutability": "view",
      "type": "function"
    },
    {
      "inputs": [],
      "name": "withdraw",
      "outputs": [],
      "stateMutability": "payable",
      "type": "function"
    }
  ],
  "bytecode": "0x608060405260405180602001604052806000815250600990805190602001906200002b9291906200036c565b506040518060400160405280600581526020017f2e6a736f6e000000000000000000000000000000000000000000000000000000815250600a9080519060200190620000799291906200036c565b50668e1bc9bf040000600c55611e60600d556005600e556001600f60006101000a81548160ff0219169083151502179055506000600f60016101000a81548160ff021916908315150217905550348015620000d357600080fd5b506040518060400160405280600881526020017f4e4654204e616d650000000000000000000000000000000000000000000000008152506040518060400160405280600581526020017f544f4b454e0000000000000000000000000000000000000000000000000000008152506200016062000154620001cc60201b60201c565b620001d460201b60201c565b8160029080519060200190620001789291906200036c565b508060039080519060200190620001919291906200036c565b5050506001600881905550620001c660405180606001604052806026815260200162004944602691396200029860201b60201c565b62000504565b600033905090565b60008060009054906101000a900473ffffffffffffffffffffffffffffffffffffffff169050816000806101000a81548173ffffffffffffffffffffffffffffffffffffffff021916908373ffffffffffffffffffffffffffffffffffffffff1602179055508173ffffffffffffffffffffffffffffffffffffffff168173ffffffffffffffffffffffffffffffffffffffff167f8be0079c531659141344cd1fd0a4f28419497f9722a3daafe3b4186f6b6457e060405160405180910390a35050565b620002a8620001cc60201b60201c565b73ffffffffffffffffffffffffffffffffffffffff16620002ce6200034360201b60201c565b73ffffffffffffffffffffffffffffffffffffffff161462000327576040517f08c379a00000000000000000000000000000000000000000000000000000000081526004016200031e906200047d565b60405180910390fd5b80600b90805190602001906200033f9291906200036c565b5050565b60008060009054906101000a900473ffffffffffffffffffffffffffffffffffffffff16905090565b8280546200037a90620004ce565b90600052602060002090601f0160209004810192826200039e5760008555620003ea565b82601f10620003b957805160ff1916838001178555620003ea565b82800160010185558215620003ea579182015b82811115620003e9578251825591602001919060010190620003cc565b5b509050620003f99190620003fd565b5090565b5b8082111562000418576000816000905550600101620003fe565b5090565b600082825260208201905092915050565b7f4f776e61626c653a2063616c6c6572206973206e6f7420746865206f776e6572600082015250565b6000620004656020836200041c565b915062000472826200042d565b602082019050919050565b60006020820190508181036000830152620004988162000456565b9050919050565b7f4e487b7100000000000000000000000000000000000000000000000000000000600052602260045260246000fd5b60006002820490506001821680620004e757607f821691505b60208210811415620004fe57620004fd6200049f565b5b50919050565b61443080620005146000396000f3fe6080604052600436106102255760003560e01c80636352211e11610123578063a22cb465116100ab578063c87b56dd1161006f578063c87b56dd146107d7578063d5abeb0114610814578063e0a808531461083f578063e985e9c514610868578063f2fde38b146108a557610225565b8063a22cb46514610708578063a45ba8e714610731578063b071401b1461075c578063b88d4fde14610785578063bc63f02e146107ae57610225565b80638da5cb5b116100f25780638da5cb5b1461062e5780639231ab2a1461065957806394354fd01461069657806395d89b41146106c1578063a0712d68146106ec57610225565b80636352211e1461057457806370a08231146105b1578063715018a6146105ee5780637ec4a6591461060557610225565b80632f745c59116101b15780634fdd43cb116101755780634fdd43cb1461049f57806351830227146104c85780635503a0e8146104f35780635c975abb1461051e57806362b99ad41461054957610225565b80632f745c59146103c95780633ccfd60b1461040657806342842e0e1461041057806344a0d68a146104395780634f6ccce71461046257610225565b806313faede6116101f857806313faede6146102f857806316ba10e01461032357806316c38b3c1461034c57806318160ddd1461037557806323b872dd146103a057610225565b806301ffc9a71461022a57806306fdde0314610267578063081812fc14610292578063095ea7b3146102cf575b600080fd5b34801561023657600080fd5b50610251600480360381019061024c919061345b565b6108ce565b60405161025e91906134a3565b60405180910390f35b34801561027357600080fd5b5061027c610a18565b6040516102899190613557565b60405180910390f35b34801561029e57600080fd5b506102b960048036038101906102b491906135af565b610aaa565b6040516102c6919061361d565b60405180910390f35b3480156102db57600080fd5b506102f660048036038101906102f19190613664565b610b26565b005b34801561030457600080fd5b5061030d610c31565b60405161031a91906136b3565b60405180910390f35b34801561032f57600080fd5b5061034a60048036038101906103459190613803565b610c37565b005b34801561035857600080fd5b50610373600480360381019061036e9190613878565b610ccd565b005b34801561038157600080fd5b5061038a610d66565b60405161039791906136b3565b60405180910390f35b3480156103ac57600080fd5b506103c760048036038101906103c291906138a5565b610dbe565b005b3480156103d557600080fd5b506103f060048036038101906103eb9190613664565b610dce565b6040516103fd91906136b3565b60405180910390f35b61040e610fd6565b005b34801561041c57600080fd5b50610437600480360381019061043291906138a5565b611128565b005b34801561044557600080fd5b50610460600480360381019061045b91906135af565b611148565b005b34801561046e57600080fd5b50610489600480360381019061048491906135af565b6111ce565b60405161049691906136b3565b60405180910390f35b3480156104ab57600080fd5b506104c660048036038101906104c19190613803565b611341565b005b3480156104d457600080fd5b506104dd6113d7565b6040516104ea91906134a3565b60405180910390f35b3480156104ff57600080fd5b506105086113ea565b6040516105159190613557565b60405180910390f35b34801561052a57600080fd5b50610533611478565b60405161054091906134a3565b60405180910390f35b34801561055557600080fd5b5061055e61148b565b60405161056b9190613557565b60405180910390f35b34801561058057600080fd5b5061059b600480360381019061059691906135af565b611519565b6040516105a8919061361d565b60405180910390f35b3480156105bd57600080fd5b506105d860048036038101906105d391906138f8565b61152f565b6040516105e591906136b3565b60405180910390f35b3480156105fa57600080fd5b506106036115ff565b005b34801561061157600080fd5b5061062c60048036038101906106279190613803565b611687565b005b34801561063a57600080fd5b5061064361171d565b604051610650919061361d565b60405180910390f35b34801561066557600080fd5b50610680600480360381019061067b91906135af565b611746565b60405161068d91906139a8565b60405180910390f35b3480156106a257600080fd5b506106ab61175e565b6040516106b891906136b3565b60405180910390f35b3480156106cd57600080fd5b506106d6611764565b6040516106e39190613557565b60405180910390f35b610706600480360381019061070191906135af565b6117f6565b005b34801561071457600080fd5b5061072f600480360381019061072a91906139c3565b61194e565b005b34801561073d57600080fd5b50610746611ac6565b6040516107539190613557565b60405180910390f35b34801561076857600080fd5b50610783600480360381019061077e91906135af565b611b54565b005b34801561079157600080fd5b506107ac60048036038101906107a79190613aa4565b611bda565b005b3480156107ba57600080fd5b506107d560048036038101906107d09190613b27565b611c2d565b005b3480156107e357600080fd5b506107fe60048036038101906107f991906135af565b611d61565b60405161080b9190613557565b60405180910390f35b34801561082057600080fd5b50610829611eba565b60405161083691906136b3565b60405180910390f35b34801561084b57600080fd5b5061086660048036038101906108619190613878565b611ec0565b005b34801561087457600080fd5b5061088f600480360381019061088a9190613b67565b611f59565b60405161089c91906134a3565b60405180910390f35b3480156108b157600080fd5b506108cc60048036038101906108c791906138f8565b611fed565b005b60007f80ac58cd000000000000000000000000000000000000000000000000000000007bffffffffffffffffffffffffffffffffffffffffffffffffffffffff1916827bffffffffffffffffffffffffffffffffffffffffffffffffffffffff1916148061099957507f5b5e139f000000000000000000000000000000000000000000000000000000007bffffffffffffffffffffffffffffffffffffffffffffffffffffffff1916827bffffffffffffffffffffffffffffffffffffffffffffffffffffffff1916145b80610a0157507f780e9d63000000000000000000000000000000000000000000000000000000007bffffffffffffffffffffffffffffffffffffffffffffffffffffffff1916827bffffffffffffffffffffffffffffffffffffffffffffffffffffffff1916145b80610a115750610a10826120e5565b5b9050919050565b606060028054610a2790613bd6565b80601f0160208091040260200160405190810160405280929190818152602001828054610a5390613bd6565b8015610aa05780601f10610a7557610100808354040283529160200191610aa0565b820191906000526020600020905b815481529060010190602001808311610a8357829003601f168201915b5050505050905090565b6000610ab58261214f565b610aeb576040517fcf4700e400000000000000000000000000000000000000000000000000000000815260040160405180910390fd5b6006600083815260200190815260200160002060009054906101000a900473ffffffffffffffffffffffffffffffffffffffff169050919050565b6000610b3182611519565b90508073ffffffffffffffffffffffffffffffffffffffff168373ffffffffffffffffffffffffffffffffffffffff161415610b99576040517f943f7b8c00000000000000000000000000000000000000000000000000000000815260040160405180910390fd5b8073ffffffffffffffffffffffffffffffffffffffff16610bb86121b8565b73ffffffffffffffffffffffffffffffffffffffff1614158015610bea5750610be881610be36121b8565b611f59565b155b15610c21576040517fcfb3b94200000000000000000000000000000000000000000000000000000000815260040160405180910390fd5b610c2c8383836121c0565b505050565b600c5481565b610c3f6121b8565b73ffffffffffffffffffffffffffffffffffffffff16610c5d61171d565b73ffffffffffffffffffffffffffffffffffffffff1614610cb3576040517f08c379a0000000000000000000000000000000000000000000000000000000008152600401610caa90613c54565b60405180910390fd5b80600a9080519060200190610cc9929190613309565b5050565b610cd56121b8565b73ffffffffffffffffffffffffffffffffffffffff16610cf361171d565b73ffffffffffffffffffffffffffffffffffffffff1614610d49576040517f08c379a0000000000000000000000000000000000000000000000000000000008152600401610d4090613c54565b60405180910390fd5b80600f60006101000a81548160ff02191690831515021790555050565b6000600160109054906101000a90046fffffffffffffffffffffffffffffffff16600160009054906101000a90046fffffffffffffffffffffffffffffffff16036fffffffffffffffffffffffffffffffff16905090565b610dc9838383612272565b505050565b6000610dd98361152f565b8210610e11576040517f0ddac30e00000000000000000000000000000000000000000000000000000000815260040160405180910390fd5b6000600160009054906101000a90046fffffffffffffffffffffffffffffffff166fffffffffffffffffffffffffffffffff16905060008060005b83811015610fca576000600460008381526020019081526020016000206040518060600160405290816000820160009054906101000a900473ffffffffffffffffffffffffffffffffffffffff1673ffffffffffffffffffffffffffffffffffffffff1673ffffffffffffffffffffffffffffffffffffffff1681526020016000820160149054906101000a900467ffffffffffffffff1667ffffffffffffffff1667ffffffffffffffff16815260200160008201601c9054906101000a900460ff1615151515815250509050806040015115610f295750610fbd565b600073ffffffffffffffffffffffffffffffffffffffff16816000015173ffffffffffffffffffffffffffffffffffffffff1614610f6957806000015192505b8773ffffffffffffffffffffffffffffffffffffffff168373ffffffffffffffffffffffffffffffffffffffff161415610fbb5786841415610fb2578195505050505050610fd0565b83806001019450505b505b8080600101915050610e4c565b50600080fd5b92915050565b610fde6121b8565b73ffffffffffffffffffffffffffffffffffffffff16610ffc61171d565b73ffffffffffffffffffffffffffffffffffffffff1614611052576040517f08c379a000000000000000000000000000000000000000000000000000000000815260040161104990613c54565b60405180910390fd5b60026008541415611098576040517f08c379a000000000000000000000000000000000000000000000000000000000815260040161108f90613cc0565b60405180910390fd5b600260088190555060006110aa61171d565b73ffffffffffffffffffffffffffffffffffffffff16476040516110cd90613d11565b60006040518083038185875af1925050503d806000811461110a576040519150601f19603f3d011682016040523d82523d6000602084013e61110f565b606091505b505090508061111d57600080fd5b506001600881905550565b61114383838360405180602001604052806000815250611bda565b505050565b6111506121b8565b73ffffffffffffffffffffffffffffffffffffffff1661116e61171d565b73ffffffffffffffffffffffffffffffffffffffff16146111c4576040517f08c379a00000000000000000000000000000000000000000000000000000000081526004016111bb90613c54565b60405180910390fd5b80600c8190555050565b600080600160009054906101000a90046fffffffffffffffffffffffffffffffff166fffffffffffffffffffffffffffffffff1690506000805b82811015611309576000600460008381526020019081526020016000206040518060600160405290816000820160009054906101000a900473ffffffffffffffffffffffffffffffffffffffff1673ffffffffffffffffffffffffffffffffffffffff1673ffffffffffffffffffffffffffffffffffffffff1681526020016000820160149054906101000a900467ffffffffffffffff1667ffffffffffffffff1667ffffffffffffffff16815260200160008201601c9054906101000a900460ff161515151581525050905080604001516112fb57858314156112f2578194505050505061133c565b82806001019350505b508080600101915050611208565b506040517fa723001c00000000000000000000000000000000000000000000000000000000815260040160405180910390fd5b919050565b6113496121b8565b73ffffffffffffffffffffffffffffffffffffffff1661136761171d565b73ffffffffffffffffffffffffffffffffffffffff16146113bd576040517f08c379a00000000000000000000000000000000000000000000000000000000081526004016113b490613c54565b60405180910390fd5b80600b90805190602001906113d3929190613309565b5050565b600f60019054906101000a900460ff1681565b600a80546113f790613bd6565b80601f016020809104026020016040519081016040528092919081815260200182805461142390613bd6565b80156114705780601f1061144557610100808354040283529160200191611470565b820191906000526020600020905b81548152906001019060200180831161145357829003601f168201915b505050505081565b600f60009054906101000a900460ff1681565b6009805461149890613bd6565b80601f01602080910402602001604051908101604052809291908181526020018280546114c490613bd6565b80156115115780601f106114e657610100808354040283529160200191611511565b820191906000526020600020905b8154815290600101906020018083116114f457829003601f168201915b505050505081565b600061152482612791565b600001519050919050565b60008073ffffffffffffffffffffffffffffffffffffffff168273ffffffffffffffffffffffffffffffffffffffff161415611597576040517f8f4eb60400000000000000000000000000000000000000000000000000000000815260040160405180910390fd5b600560008373ffffffffffffffffffffffffffffffffffffffff1673ffffffffffffffffffffffffffffffffffffffff16815260200190815260200160002060000160009054906101000a900467ffffffffffffffff1667ffffffffffffffff169050919050565b6116076121b8565b73ffffffffffffffffffffffffffffffffffffffff1661162561171d565b73ffffffffffffffffffffffffffffffffffffffff161461167b576040517f08c379a000000000000000000000000000000000000000000000000000000000815260040161167290613c54565b60405180910390fd5b6116856000612a3b565b565b61168f6121b8565b73ffffffffffffffffffffffffffffffffffffffff166116ad61171d565b73ffffffffffffffffffffffffffffffffffffffff1614611703576040517f08c379a00000000000000000000000000000000000000000000000000000000081526004016116fa90613c54565b60405180910390fd5b8060099080519060200190611719929190613309565b5050565b60008060009054906101000a900473ffffffffffffffffffffffffffffffffffffffff16905090565b61174e61338f565b61175782612791565b9050919050565b600e5481565b60606003805461177390613bd6565b80601f016020809104026020016040519081016040528092919081815260200182805461179f90613bd6565b80156117ec5780601f106117c1576101008083540402835291602001916117ec565b820191906000526020600020905b8154815290600101906020018083116117cf57829003601f168201915b5050505050905090565b806000811180156118095750600e548111155b611848576040517f08c379a000000000000000000000000000000000000000000000000000000000815260040161183f90613d72565b60405180910390fd5b600d5481611854610d66565b61185e9190613dc1565b111561189f576040517f08c379a000000000000000000000000000000000000000000000000000000000815260040161189690613e63565b60405180910390fd5b600f60009054906101000a900460ff16156118ef576040517f08c379a00000000000000000000000000000000000000000000000000000000081526004016118e690613ecf565b60405180910390fd5b6118f761171d565b73ffffffffffffffffffffffffffffffffffffffff163373ffffffffffffffffffffffffffffffffffffffff16146119405761193f82600c5461193a9190613eef565b612aff565b5b61194a3383612ba0565b5050565b6119566121b8565b73ffffffffffffffffffffffffffffffffffffffff168273ffffffffffffffffffffffffffffffffffffffff1614156119bb576040517fb06307db00000000000000000000000000000000000000000000000000000000815260040160405180910390fd5b80600760006119c86121b8565b73ffffffffffffffffffffffffffffffffffffffff1673ffffffffffffffffffffffffffffffffffffffff16815260200190815260200160002060008473ffffffffffffffffffffffffffffffffffffffff1673ffffffffffffffffffffffffffffffffffffffff16815260200190815260200160002060006101000a81548160ff0219169083151502179055508173ffffffffffffffffffffffffffffffffffffffff16611a756121b8565b73ffffffffffffffffffffffffffffffffffffffff167f17307eab39ab6107e8899845ad3d59bd9653f200f220920489ca2b5937696c3183604051611aba91906134a3565b60405180910390a35050565b600b8054611ad390613bd6565b80601f0160208091040260200160405190810160405280929190818152602001828054611aff90613bd6565b8015611b4c5780601f10611b2157610100808354040283529160200191611b4c565b820191906000526020600020905b815481529060010190602001808311611b2f57829003601f168201915b505050505081565b611b5c6121b8565b73ffffffffffffffffffffffffffffffffffffffff16611b7a61171d565b73ffffffffffffffffffffffffffffffffffffffff1614611bd0576040517f08c379a0000000000000000000000000000000000000000000000000000000008152600401611bc790613c54565b60405180910390fd5b80600e8190555050565b611be5848484612272565b611bf184848484612bbe565b611c27576040517fd1a57ed600000000000000000000000000000000000000000000000000000000815260040160405180910390fd5b50505050565b81600081118015611c405750600e548111155b611c7f576040517f08c379a0000000000000000000000000000000000000000000000000000000008152600401611c7690613d72565b60405180910390fd5b600d5481611c8b610d66565b611c959190613dc1565b1115611cd6576040517f08c379a0000000000000000000000000000000000000000000000000000000008152600401611ccd90613e63565b60405180910390fd5b611cde6121b8565b73ffffffffffffffffffffffffffffffffffffffff16611cfc61171d565b73ffffffffffffffffffffffffffffffffffffffff1614611d52576040517f08c379a0000000000000000000000000000000000000000000000000000000008152600401611d4990613c54565b60405180910390fd5b611d5c8284612ba0565b505050565b6060611d6c8261214f565b611dab576040517f08c379a0000000000000000000000000000000000000000000000000000000008152600401611da290613fbb565b60405180910390fd5b60001515600f60019054906101000a900460ff1615151415611e5957600b8054611dd490613bd6565b80601f0160208091040260200160405190810160405280929190818152602001828054611e0090613bd6565b8015611e4d5780601f10611e2257610100808354040283529160200191611e4d565b820191906000526020600020905b815481529060010190602001808311611e3057829003601f168201915b50505050509050611eb5565b6000611e63612d3d565b90506000815111611e835760405180602001604052806000815250611eb1565b80611e8d84612dcf565b600a604051602001611ea1939291906140ab565b6040516020818303038152906040525b9150505b919050565b600d5481565b611ec86121b8565b73ffffffffffffffffffffffffffffffffffffffff16611ee661171d565b73ffffffffffffffffffffffffffffffffffffffff1614611f3c576040517f08c379a0000000000000000000000000000000000000000000000000000000008152600401611f3390613c54565b60405180910390fd5b80600f60016101000a81548160ff02191690831515021790555050565b6000600760008473ffffffffffffffffffffffffffffffffffffffff1673ffffffffffffffffffffffffffffffffffffffff16815260200190815260200160002060008373ffffffffffffffffffffffffffffffffffffffff1673ffffffffffffffffffffffffffffffffffffffff16815260200190815260200160002060009054906101000a900460ff16905092915050565b611ff56121b8565b73ffffffffffffffffffffffffffffffffffffffff1661201361171d565b73ffffffffffffffffffffffffffffffffffffffff1614612069576040517f08c379a000000000000000000000000000000000000000000000000000000000815260040161206090613c54565b60405180910390fd5b600073ffffffffffffffffffffffffffffffffffffffff168173ffffffffffffffffffffffffffffffffffffffff1614156120d9576040517f08c379a00000000000000000000000000000000000000000000000000000000081526004016120d09061414e565b60405180910390fd5b6120e281612a3b565b50565b60007f01ffc9a7000000000000000000000000000000000000000000000000000000007bffffffffffffffffffffffffffffffffffffffffffffffffffffffff1916827bffffffffffffffffffffffffffffffffffffffffffffffffffffffff1916149050919050565b6000600160009054906101000a90046fffffffffffffffffffffffffffffffff166fffffffffffffffffffffffffffffffff16821080156121b1575060046000838152602001908152602001600020600001601c9054906101000a900460ff16155b9050919050565b600033905090565b826006600084815260200190815260200160002060006101000a81548173ffffffffffffffffffffffffffffffffffffffff021916908373ffffffffffffffffffffffffffffffffffffffff160217905550818373ffffffffffffffffffffffffffffffffffffffff168273ffffffffffffffffffffffffffffffffffffffff167f8c5be1e5ebec7d5bd14f71427d1e84f3dd0314c0f7b2291e5b200ac8c7c3b92560405160405180910390a4505050565b600061227d82612791565b90506000816000015173ffffffffffffffffffffffffffffffffffffffff166122a46121b8565b73ffffffffffffffffffffffffffffffffffffffff1614806122d757506122d682600001516122d16121b8565b611f59565b5b8061231c57506122e56121b8565b73ffffffffffffffffffffffffffffffffffffffff1661230484610aaa565b73ffffffffffffffffffffffffffffffffffffffff16145b905080612355576040517f59c896be00000000000000000000000000000000000000000000000000000000815260040160405180910390fd5b8473ffffffffffffffffffffffffffffffffffffffff16826000015173ffffffffffffffffffffffffffffffffffffffff16146123be576040517fa114810000000000000000000000000000000000000000000000000000000000815260040160405180910390fd5b600073ffffffffffffffffffffffffffffffffffffffff168473ffffffffffffffffffffffffffffffffffffffff161415612425576040517fea553b3400000000000000000000000000000000000000000000000000000000815260040160405180910390fd5b6124328585856001612f30565b61244260008484600001516121c0565b6001600560008773ffffffffffffffffffffffffffffffffffffffff1673ffffffffffffffffffffffffffffffffffffffff16815260200190815260200160002060000160008282829054906101000a900467ffffffffffffffff160392506101000a81548167ffffffffffffffff021916908367ffffffffffffffff1602179055506001600560008673ffffffffffffffffffffffffffffffffffffffff1673ffffffffffffffffffffffffffffffffffffffff16815260200190815260200160002060000160008282829054906101000a900467ffffffffffffffff160192506101000a81548167ffffffffffffffff021916908367ffffffffffffffff160217905550836004600085815260200190815260200160002060000160006101000a81548173ffffffffffffffffffffffffffffffffffffffff021916908373ffffffffffffffffffffffffffffffffffffffff160217905550426004600085815260200190815260200160002060000160146101000a81548167ffffffffffffffff021916908367ffffffffffffffff1602179055506000600184019050600073ffffffffffffffffffffffffffffffffffffffff166004600083815260200190815260200160002060000160009054906101000a900473ffffffffffffffffffffffffffffffffffffffff1673ffffffffffffffffffffffffffffffffffffffff16141561272157600160009054906101000a90046fffffffffffffffffffffffffffffffff166fffffffffffffffffffffffffffffffff168110156127205782600001516004600083815260200190815260200160002060000160006101000a81548173ffffffffffffffffffffffffffffffffffffffff021916908373ffffffffffffffffffffffffffffffffffffffff16021790555082602001516004600083815260200190815260200160002060000160146101000a81548167ffffffffffffffff021916908367ffffffffffffffff1602179055505b5b50828473ffffffffffffffffffffffffffffffffffffffff168673ffffffffffffffffffffffffffffffffffffffff167fddf252ad1be2c89b69c2b068fc378daa952ba7f163c4a11628f55a4df523b3ef60405160405180910390a461278a8585856001612f36565b5050505050565b61279961338f565b6000829050600160009054906101000a90046fffffffffffffffffffffffffffffffff166fffffffffffffffffffffffffffffffff16811015612a04576000600460008381526020019081526020016000206040518060600160405290816000820160009054906101000a900473ffffffffffffffffffffffffffffffffffffffff1673ffffffffffffffffffffffffffffffffffffffff1673ffffffffffffffffffffffffffffffffffffffff1681526020016000820160149054906101000a900467ffffffffffffffff1667ffffffffffffffff1667ffffffffffffffff16815260200160008201601c9054906101000a900460ff16151515158152505090508060400151612a0257600073ffffffffffffffffffffffffffffffffffffffff16816000015173ffffffffffffffffffffffffffffffffffffffff16146128e6578092505050612a36565b5b600115612a0157818060019003925050600460008381526020019081526020016000206040518060600160405290816000820160009054906101000a900473ffffffffffffffffffffffffffffffffffffffff1673ffffffffffffffffffffffffffffffffffffffff1673ffffffffffffffffffffffffffffffffffffffff1681526020016000820160149054906101000a900467ffffffffffffffff1667ffffffffffffffff1667ffffffffffffffff16815260200160008201601c9054906101000a900460ff1615151515815250509050600073ffffffffffffffffffffffffffffffffffffffff16816000015173ffffffffffffffffffffffffffffffffffffffff16146129fc578092505050612a36565b6128e7565b5b505b6040517fdf2d9b4200000000000000000000000000000000000000000000000000000000815260040160405180910390fd5b919050565b60008060009054906101000a900473ffffffffffffffffffffffffffffffffffffffff169050816000806101000a81548173ffffffffffffffffffffffffffffffffffffffff021916908373ffffffffffffffffffffffffffffffffffffffff1602179055508173ffffffffffffffffffffffffffffffffffffffff168173ffffffffffffffffffffffffffffffffffffffff167f8be0079c531659141344cd1fd0a4f28419497f9722a3daafe3b4186f6b6457e060405160405180910390a35050565b80341015612b42576040517f08c379a0000000000000000000000000000000000000000000000000000000008152600401612b39906141ba565b60405180910390fd5b80341115612b9d573373ffffffffffffffffffffffffffffffffffffffff166108fc8234612b7091906141da565b9081150290604051600060405180830381858888f19350505050158015612b9b573d6000803e3d6000fd5b505b50565b612bba828260405180602001604052806000815250612f3c565b5050565b6000612bdf8473ffffffffffffffffffffffffffffffffffffffff16612f4e565b15612d30578373ffffffffffffffffffffffffffffffffffffffff1663150b7a02612c086121b8565b8786866040518563ffffffff1660e01b8152600401612c2a9493929190614263565b6020604051808303816000875af1925050508015612c6657506040513d601f19601f82011682018060405250810190612c6391906142c4565b60015b612ce0573d8060008114612c96576040519150601f19603f3d011682016040523d82523d6000602084013e612c9b565b606091505b50600081511415612cd8576040517fd1a57ed600000000000000000000000000000000000000000000000000000000815260040160405180910390fd5b805181602001fd5b63150b7a0260e01b7bffffffffffffffffffffffffffffffffffffffffffffffffffffffff1916817bffffffffffffffffffffffffffffffffffffffffffffffffffffffff191614915050612d35565b600190505b949350505050565b606060098054612d4c90613bd6565b80601f0160208091040260200160405190810160405280929190818152602001828054612d7890613bd6565b8015612dc55780601f10612d9a57610100808354040283529160200191612dc5565b820191906000526020600020905b815481529060010190602001808311612da857829003601f168201915b5050505050905090565b60606000821415612e17576040518060400160405280600181526020017f30000000000000000000000000000000000000000000000000000000000000008152509050612f2b565b600082905060005b60008214612e49578080612e32906142f1565b915050600a82612e429190614369565b9150612e1f565b60008167ffffffffffffffff811115612e6557612e646136d8565b5b6040519080825280601f01601f191660200182016040528015612e975781602001600182028036833780820191505090505b5090505b60008514612f2457600182612eb091906141da565b9150600a85612ebf919061439a565b6030612ecb9190613dc1565b60f81b818381518110612ee157612ee06143cb565b5b60200101907effffffffffffffffffffffffffffffffffffffffffffffffffffffffffffff1916908160001a905350600a85612f1d9190614369565b9450612e9b565b8093505050505b919050565b50505050565b50505050565b612f498383836001612f71565b505050565b6000808273ffffffffffffffffffffffffffffffffffffffff163b119050919050565b6000600160009054906101000a90046fffffffffffffffffffffffffffffffff166fffffffffffffffffffffffffffffffff169050600073ffffffffffffffffffffffffffffffffffffffff168573ffffffffffffffffffffffffffffffffffffffff16141561300d576040517f2e07630000000000000000000000000000000000000000000000000000000000815260040160405180910390fd5b6000841415613048576040517fb562e8dd00000000000000000000000000000000000000000000000000000000815260040160405180910390fd5b6130556000868387612f30565b83600560008773ffffffffffffffffffffffffffffffffffffffff1673ffffffffffffffffffffffffffffffffffffffff16815260200190815260200160002060000160008282829054906101000a900467ffffffffffffffff160192506101000a81548167ffffffffffffffff021916908367ffffffffffffffff16021790555083600560008773ffffffffffffffffffffffffffffffffffffffff1673ffffffffffffffffffffffffffffffffffffffff16815260200190815260200160002060000160088282829054906101000a900467ffffffffffffffff160192506101000a81548167ffffffffffffffff021916908367ffffffffffffffff160217905550846004600083815260200190815260200160002060000160006101000a81548173ffffffffffffffffffffffffffffffffffffffff021916908373ffffffffffffffffffffffffffffffffffffffff160217905550426004600083815260200190815260200160002060000160146101000a81548167ffffffffffffffff021916908367ffffffffffffffff160217905550600081905060005b858110156132ba57818773ffffffffffffffffffffffffffffffffffffffff16600073ffffffffffffffffffffffffffffffffffffffff167fddf252ad1be2c89b69c2b068fc378daa952ba7f163c4a11628f55a4df523b3ef60405160405180910390a483801561326e575061326c6000888488612bbe565b155b156132a5576040517fd1a57ed600000000000000000000000000000000000000000000000000000000815260040160405180910390fd5b818060010192505080806001019150506131f3565b5080600160006101000a8154816fffffffffffffffffffffffffffffffff02191690836fffffffffffffffffffffffffffffffff160217905550506133026000868387612f36565b5050505050565b82805461331590613bd6565b90600052602060002090601f016020900481019282613337576000855561337e565b82601f1061335057805160ff191683800117855561337e565b8280016001018555821561337e579182015b8281111561337d578251825591602001919060010190613362565b5b50905061338b91906133d2565b5090565b6040518060600160405280600073ffffffffffffffffffffffffffffffffffffffff168152602001600067ffffffffffffffff1681526020016000151581525090565b5b808211156133eb5760008160009055506001016133d3565b5090565b6000604051905090565b600080fd5b600080fd5b60007fffffffff0000000000000000000000000000000000000000000000000000000082169050919050565b61343881613403565b811461344357600080fd5b50565b6000813590506134558161342f565b92915050565b600060208284031215613471576134706133f9565b5b600061347f84828501613446565b91505092915050565b60008115159050919050565b61349d81613488565b82525050565b60006020820190506134b86000830184613494565b92915050565b600081519050919050565b600082825260208201905092915050565b60005b838110156134f85780820151818401526020810190506134dd565b83811115613507576000848401525b50505050565b6000601f19601f8301169050919050565b6000613529826134be565b61353381856134c9565b93506135438185602086016134da565b61354c8161350d565b840191505092915050565b60006020820190508181036000830152613571818461351e565b905092915050565b6000819050919050565b61358c81613579565b811461359757600080fd5b50565b6000813590506135a981613583565b92915050565b6000602082840312156135c5576135c46133f9565b5b60006135d38482850161359a565b91505092915050565b600073ffffffffffffffffffffffffffffffffffffffff82169050919050565b6000613607826135dc565b9050919050565b613617816135fc565b82525050565b6000602082019050613632600083018461360e565b92915050565b613641816135fc565b811461364c57600080fd5b50565b60008135905061365e81613638565b92915050565b6000806040838503121561367b5761367a6133f9565b5b60006136898582860161364f565b925050602061369a8582860161359a565b9150509250929050565b6136ad81613579565b82525050565b60006020820190506136c860008301846136a4565b92915050565b600080fd5b600080fd5b7f4e487b7100000000000000000000000000000000000000000000000000000000600052604160045260246000fd5b6137108261350d565b810181811067ffffffffffffffff8211171561372f5761372e6136d8565b5b80604052505050565b60006137426133ef565b905061374e8282613707565b919050565b600067ffffffffffffffff82111561376e5761376d6136d8565b5b6137778261350d565b9050602081019050919050565b82818337600083830152505050565b60006137a66137a184613753565b613738565b9050828152602081018484840111156137c2576137c16136d3565b5b6137cd848285613784565b509392505050565b600082601f8301126137ea576137e96136ce565b5b81356137fa848260208601613793565b91505092915050565b600060208284031215613819576138186133f9565b5b600082013567ffffffffffffffff811115613837576138366133fe565b5b613843848285016137d5565b91505092915050565b61385581613488565b811461386057600080fd5b50565b6000813590506138728161384c565b92915050565b60006020828403121561388e5761388d6133f9565b5b600061389c84828501613863565b91505092915050565b6000806000606084860312156138be576138bd6133f9565b5b60006138cc8682870161364f565b93505060206138dd8682870161364f565b92505060406138ee8682870161359a565b9150509250925092565b60006020828403121561390e5761390d6133f9565b5b600061391c8482850161364f565b91505092915050565b61392e816135fc565b82525050565b600067ffffffffffffffff82169050919050565b61395181613934565b82525050565b61396081613488565b82525050565b60608201600082015161397c6000850182613925565b50602082015161398f6020850182613948565b5060408201516139a26040850182613957565b50505050565b60006060820190506139bd6000830184613966565b92915050565b600080604083850312156139da576139d96133f9565b5b60006139e88582860161364f565b92505060206139f985828601613863565b9150509250929050565b600067ffffffffffffffff821115613a1e57613a1d6136d8565b5b613a278261350d565b9050602081019050919050565b6000613a47613a4284613a03565b613738565b905082815260208101848484011115613a6357613a626136d3565b5b613a6e848285613784565b509392505050565b600082601f830112613a8b57613a8a6136ce565b5b8135613a9b848260208601613a34565b91505092915050565b60008060008060808587031215613abe57613abd6133f9565b5b6000613acc8782880161364f565b9450506020613add8782880161364f565b9350506040613aee8782880161359a565b925050606085013567ffffffffffffffff811115613b0f57613b0e6133fe565b5b613b1b87828801613a76565b91505092959194509250565b60008060408385031215613b3e57613b3d6133f9565b5b6000613b4c8582860161359a565b9250506020613b5d8582860161364f565b9150509250929050565b60008060408385031215613b7e57613b7d6133f9565b5b6000613b8c8582860161364f565b9250506020613b9d8582860161364f565b9150509250929050565b7f4e487b7100000000000000000000000000000000000000000000000000000000600052602260045260246000fd5b60006002820490506001821680613bee57607f821691505b60208210811415613c0257613c01613ba7565b5b50919050565b7f4f776e61626c653a2063616c6c6572206973206e6f7420746865206f776e6572600082015250565b6000613c3e6020836134c9565b9150613c4982613c08565b602082019050919050565b60006020820190508181036000830152613c6d81613c31565b9050919050565b7f5265656e7472616e637947756172643a207265656e7472616e742063616c6c00600082015250565b6000613caa601f836134c9565b9150613cb582613c74565b602082019050919050565b60006020820190508181036000830152613cd981613c9d565b9050919050565b600081905092915050565b50565b6000613cfb600083613ce0565b9150613d0682613ceb565b600082019050919050565b6000613d1c82613cee565b9150819050919050565b7f496e76616c6964206d696e7420616d6f756e7421000000000000000000000000600082015250565b6000613d5c6014836134c9565b9150613d6782613d26565b602082019050919050565b60006020820190508181036000830152613d8b81613d4f565b9050919050565b7f4e487b7100000000000000000000000000000000000000000000000000000000600052601160045260246000fd5b6000613dcc82613579565b9150613dd783613579565b9250827fffffffffffffffffffffffffffffffffffffffffffffffffffffffffffffffff03821115613e0c57613e0b613d92565b5b828201905092915050565b7f4d617820737570706c7920657863656564656421000000000000000000000000600082015250565b6000613e4d6014836134c9565b9150613e5882613e17565b602082019050919050565b60006020820190508181036000830152613e7c81613e40565b9050919050565b7f54686520636f6e74726163742069732070617573656421000000000000000000600082015250565b6000613eb96017836134c9565b9150613ec482613e83565b602082019050919050565b60006020820190508181036000830152613ee881613eac565b9050919050565b6000613efa82613579565b9150613f0583613579565b9250817fffffffffffffffffffffffffffffffffffffffffffffffffffffffffffffffff0483118215151615613f3e57613f3d613d92565b5b828202905092915050565b7f4552433732314d657461646174613a2055524920717565727920666f72206e6f60008201527f6e6578697374656e7420746f6b656e0000000000000000000000000000000000602082015250565b6000613fa5602f836134c9565b9150613fb082613f49565b604082019050919050565b60006020820190508181036000830152613fd481613f98565b9050919050565b600081905092915050565b6000613ff1826134be565b613ffb8185613fdb565b935061400b8185602086016134da565b80840191505092915050565b60008190508160005260206000209050919050565b6000815461403981613bd6565b6140438186613fdb565b9450600182166000811461405e576001811461406f576140a2565b60ff198316865281860193506140a2565b61407885614017565b60005b8381101561409a5781548189015260018201915060208101905061407b565b838801955050505b50505092915050565b60006140b78286613fe6565b91506140c38285613fe6565b91506140cf828461402c565b9150819050949350505050565b7f4f776e61626c653a206e6577206f776e657220697320746865207a65726f206160008201527f6464726573730000000000000000000000000000000000000000000000000000602082015250565b60006141386026836134c9565b9150614143826140dc565b604082019050919050565b600060208201905081810360008301526141678161412b565b9050919050565b7f4e65656420746f2073656e64206d6f7265204554482e00000000000000000000600082015250565b60006141a46016836134c9565b91506141af8261416e565b602082019050919050565b600060208201905081810360008301526141d381614197565b9050919050565b60006141e582613579565b91506141f083613579565b92508282101561420357614202613d92565b5b828203905092915050565b600081519050919050565b600082825260208201905092915050565b60006142358261420e565b61423f8185614219565b935061424f8185602086016134da565b6142588161350d565b840191505092915050565b6000608082019050614278600083018761360e565b614285602083018661360e565b61429260408301856136a4565b81810360608301526142a4818461422a565b905095945050505050565b6000815190506142be8161342f565b92915050565b6000602082840312156142da576142d96133f9565b5b60006142e8848285016142af565b91505092915050565b60006142fc82613579565b91507fffffffffffffffffffffffffffffffffffffffffffffffffffffffffffffffff82141561432f5761432e613d92565b5b600182019050919050565b7f4e487b7100000000000000000000000000000000000000000000000000000000600052601260045260246000fd5b600061437482613579565b915061437f83613579565b92508261438f5761438e61433a565b5b828204905092915050565b60006143a582613579565b91506143b083613579565b9250826143c0576143bf61433a565b5b828206905092915050565b7f4e487b7100000000000000000000000000000000000000000000000000000000600052603260045260246000fdfea2646970667358221220b40e66f9c550d70aa383ed33b72096c5e83068d965de39986f03fc723dc24a5464736f6c634300080b0033697066733a2f2f706174685f746f5f68696464656e5f697066732f68696464656e2e6a736f6e",
  "linkReferences": {},
  "deployedLinkReferences": {}
}