{
  "_format": "hh-sol-artifact-1",
  "contractName": "ERC721ATEST",
  "sourceName": "cache/solpp-generated-contracts/ERC721A.sol",
  "abi": [
    {
      "inputs": [],
      "stateMutability": "nonpayable",
      "type": "constructor"
    },
    {
      "inputs": [],
      "name": "ApprovalCallerNotOwnerNorApproved",
      "type": "error"
    },
    {
      "inputs": [],
      "name": "ApprovalQueryForNonexistentToken",
      "type": "error"
    },
    {
      "inputs": [],
      "name": "ApprovalToCurrentOwner",
      "type": "error"
    },
    {
      "inputs": [],
      "name": "ApproveToCaller",
      "type": "error"
    },
    {
      "inputs": [],
      "name": "BalanceQueryForZeroAddress",
      "type": "error"
    },
    {
      "inputs": [],
      "name": "InvalidPrice",
      "type": "error"
    },
    {
      "inputs": [],
      "name": "InvalidQuantity",
      "type": "error"
    },
    {
      "inputs": [],
      "name": "MintToZeroAddress",
      "type": "error"
    },
    {
      "inputs": [],
      "name": "MintZeroQuantity",
      "type": "error"
    },
    {
      "inputs": [],
      "name": "NoBots",
      "type": "error"
    },
    {
      "inputs": [],
      "name": "OwnerIndexOutOfBounds",
      "type": "error"
    },
    {
      "inputs": [],
      "name": "OwnerQueryForNonexistentToken",
      "type": "error"
    },
    {
      "inputs": [],
      "name": "SaleInactive",
      "type": "error"
    },
    {
      "inputs": [],
      "name": "SoldOut",
      "type": "error"
    },
    {
      "inputs": [],
      "name": "TokenIndexOutOfBounds",
      "type": "error"
    },
    {
      "inputs": [],
      "name": "TransferCallerNotOwnerNorApproved",
      "type": "error"
    },
    {
      "inputs": [],
      "name": "TransferFromIncorrectOwner",
      "type": "error"
    },
    {
      "inputs": [],
      "name": "TransferToNonERC721ReceiverImplementer",
      "type": "error"
    },
    {
      "inputs": [],
      "name": "TransferToZeroAddress",
      "type": "error"
    },
    {
      "inputs": [],
      "name": "WithdrawFailed",
      "type": "error"
    },
    {
      "anonymous": false,
      "inputs": [
        {
          "indexed": true,
          "internalType": "address",
          "name": "owner",
          "type": "address"
        },
        {
          "indexed": true,
          "internalType": "address",
          "name": "approved",
          "type": "address"
        },
        {
          "indexed": true,
          "internalType": "uint256",
          "name": "tokenId",
          "type": "uint256"
        }
      ],
      "name": "Approval",
      "type": "event"
    },
    {
      "anonymous": false,
      "inputs": [
        {
          "indexed": true,
          "internalType": "address",
          "name": "owner",
          "type": "address"
        },
        {
          "indexed": true,
          "internalType": "address",
          "name": "operator",
          "type": "address"
        },
        {
          "indexed": false,
          "internalType": "bool",
          "name": "approved",
          "type": "bool"
        }
      ],
      "name": "ApprovalForAll",
      "type": "event"
    },
    {
      "anonymous": false,
      "inputs": [
        {
          "indexed": true,
          "internalType": "address",
          "name": "previousOwner",
          "type": "address"
        },
        {
          "indexed": true,
          "internalType": "address",
          "name": "newOwner",
          "type": "address"
        }
      ],
      "name": "OwnershipTransferred",
      "type": "event"
    },
    {
      "anonymous": false,
      "inputs": [
        {
          "indexed": true,
          "internalType": "address",
          "name": "from",
          "type": "address"
        },
        {
          "indexed": true,
          "internalType": "address",
          "name": "to",
          "type": "address"
        },
        {
          "indexed": true,
          "internalType": "uint256",
          "name": "tokenId",
          "type": "uint256"
        }
      ],
      "name": "Transfer",
      "type": "event"
    },
    {
      "inputs": [],
      "name": "_baseTokenURI",
      "outputs": [
        {
          "internalType": "string",
          "name": "",
          "type": "string"
        }
      ],
      "stateMutability": "view",
      "type": "function"
    },
    {
      "inputs": [
        {
          "internalType": "address",
          "name": "to",
          "type": "address"
        },
        {
          "internalType": "uint256",
          "name": "tokenId",
          "type": "uint256"
        }
      ],
      "name": "approve",
      "outputs": [],
      "stateMutability": "nonpayable",
      "type": "function"
    },
    {
      "inputs": [
        {
          "internalType": "address",
          "name": "owner",
          "type": "address"
        }
      ],
      "name": "balanceOf",
      "outputs": [
        {
          "internalType": "uint256",
          "name": "",
          "type": "uint256"
        }
      ],
      "stateMutability": "view",
      "type": "function"
    },
    {
      "inputs": [
        {
          "internalType": "address",
          "name": "receiver",
          "type": "address"
        },
        {
          "internalType": "uint256",
          "name": "_quantity",
          "type": "uint256"
        }
      ],
      "name": "devMint",
      "outputs": [],
      "stateMutability": "nonpayable",
      "type": "function"
    },
    {
      "inputs": [
        {
          "internalType": "uint256",
          "name": "tokenId",
          "type": "uint256"
        }
      ],
      "name": "getApproved",
      "outputs": [
        {
          "internalType": "address",
          "name": "",
          "type": "address"
        }
      ],
      "stateMutability": "view",
      "type": "function"
    },
    {
      "inputs": [
        {
          "internalType": "uint256",
          "name": "tokenId",
          "type": "uint256"
        }
      ],
      "name": "getOwnershipData",
      "outputs": [
        {
          "components": [
            {
              "internalType": "address",
              "name": "addr",
              "type": "address"
            },
            {
              "internalType": "uint64",
              "name": "startTimestamp",
              "type": "uint64"
            },
            {
              "internalType": "bool",
              "name": "burned",
              "type": "bool"
            }
          ],
          "internalType": "struct ERC721A.TokenOwnership",
          "name": "",
          "type": "tuple"
        }
      ],
      "stateMutability": "view",
      "type": "function"
    },
    {
      "inputs": [
        {
          "internalType": "address",
          "name": "owner",
          "type": "address"
        },
        {
          "internalType": "address",
          "name": "operator",
          "type": "address"
        }
      ],
      "name": "isApprovedForAll",
      "outputs": [
        {
          "internalType": "bool",
          "name": "",
          "type": "bool"
        }
      ],
      "stateMutability": "view",
      "type": "function"
    },
    {
      "inputs": [],
      "name": "maxMintAmountPerTx",
      "outputs": [
        {
          "internalType": "uint256",
          "name": "",
          "type": "uint256"
        }
      ],
      "stateMutability": "view",
      "type": "function"
    },
    {
      "inputs": [],
      "name": "maxSupply",
      "outputs": [
        {
          "internalType": "uint256",
          "name": "",
          "type": "uint256"
        }
      ],
      "stateMutability": "view",
      "type": "function"
    },
    {
      "inputs": [
        {
          "internalType": "uint256",
          "name": "_quantity",
          "type": "uint256"
        }
      ],
      "name": "mint",
      "outputs": [],
      "stateMutability": "payable",
      "type": "function"
    },
    {
      "inputs": [],
      "name": "name",
      "outputs": [
        {
          "internalType": "string",
          "name": "",
          "type": "string"
        }
      ],
      "stateMutability": "view",
      "type": "function"
    },
    {
      "inputs": [],
      "name": "owner",
      "outputs": [
        {
          "internalType": "address",
          "name": "",
          "type": "address"
        }
      ],
      "stateMutability": "view",
      "type": "function"
    },
    {
      "inputs": [
        {
          "internalType": "uint256",
          "name": "tokenId",
          "type": "uint256"
        }
      ],
      "name": "ownerOf",
      "outputs": [
        {
          "internalType": "address",
          "name": "",
          "type": "address"
        }
      ],
      "stateMutability": "view",
      "type": "function"
    },
    {
      "inputs": [],
      "name": "price",
      "outputs": [
        {
          "internalType": "uint256",
          "name": "",
          "type": "uint256"
        }
      ],
      "stateMutability": "view",
      "type": "function"
    },
    {
      "inputs": [],
      "name": "renounceOwnership",
      "outputs": [],
      "stateMutability": "nonpayable",
      "type": "function"
    },
    {
      "inputs": [
        {
          "internalType": "address",
          "name": "from",
          "type": "address"
        },
        {
          "internalType": "address",
          "name": "to",
          "type": "address"
        },
        {
          "internalType": "uint256",
          "name": "tokenId",
          "type": "uint256"
        }
      ],
      "name": "safeTransferFrom",
      "outputs": [],
      "stateMutability": "nonpayable",
      "type": "function"
    },
    {
      "inputs": [
        {
          "internalType": "address",
          "name": "from",
          "type": "address"
        },
        {
          "internalType": "address",
          "name": "to",
          "type": "address"
        },
        {
          "internalType": "uint256",
          "name": "tokenId",
          "type": "uint256"
        },
        {
          "internalType": "bytes",
          "name": "_data",
          "type": "bytes"
        }
      ],
      "name": "safeTransferFrom",
      "outputs": [],
      "stateMutability": "nonpayable",
      "type": "function"
    },
    {
      "inputs": [],
      "name": "saleActive",
      "outputs": [
        {
          "internalType": "bool",
          "name": "",
          "type": "bool"
        }
      ],
      "stateMutability": "view",
      "type": "function"
    },
    {
      "inputs": [
        {
          "internalType": "address",
          "name": "operator",
          "type": "address"
        },
        {
          "internalType": "bool",
          "name": "approved",
          "type": "bool"
        }
      ],
      "name": "setApprovalForAll",
      "outputs": [],
      "stateMutability": "nonpayable",
      "type": "function"
    },
    {
      "inputs": [
        {
          "internalType": "string",
          "name": "baseURI",
          "type": "string"
        }
      ],
      "name": "setBaseURI",
      "outputs": [],
      "stateMutability": "nonpayable",
      "type": "function"
    },
    {
      "inputs": [
        {
          "internalType": "uint256",
          "name": "_maxMintAmountPerTx",
          "type": "uint256"
        }
      ],
      "name": "setMaxMintAmountPerTx",
      "outputs": [],
      "stateMutability": "nonpayable",
      "type": "function"
    },
    {
      "inputs": [
        {
          "internalType": "uint256",
          "name": "_price",
          "type": "uint256"
        }
      ],
      "name": "setPrice",
      "outputs": [],
      "stateMutability": "nonpayable",
      "type": "function"
    },
    {
      "inputs": [
        {
          "internalType": "bool",
          "name": "_state",
          "type": "bool"
        }
      ],
      "name": "setSaleState",
      "outputs": [],
      "stateMutability": "nonpayable",
      "type": "function"
    },
    {
      "inputs": [
        {
          "internalType": "bytes4",
          "name": "interfaceId",
          "type": "bytes4"
        }
      ],
      "name": "supportsInterface",
      "outputs": [
        {
          "internalType": "bool",
          "name": "",
          "type": "bool"
        }
      ],
      "stateMutability": "view",
      "type": "function"
    },
    {
      "inputs": [],
      "name": "symbol",
      "outputs": [
        {
          "internalType": "string",
          "name": "",
          "type": "string"
        }
      ],
      "stateMutability": "view",
      "type": "function"
    },
    {
      "inputs": [
        {
          "internalType": "uint256",
          "name": "index",
          "type": "uint256"
        }
      ],
      "name": "tokenByIndex",
      "outputs": [
        {
          "internalType": "uint256",
          "name": "",
          "type": "uint256"
        }
      ],
      "stateMutability": "view",
      "type": "function"
    },
    {
      "inputs": [
        {
          "internalType": "address",
          "name": "owner",
          "type": "address"
        },
        {
          "internalType": "uint256",
          "name": "index",
          "type": "uint256"
        }
      ],
      "name": "tokenOfOwnerByIndex",
      "outputs": [
        {
          "internalType": "uint256",
          "name": "",
          "type": "uint256"
        }
      ],
      "stateMutability": "view",
      "type": "function"
    },
    {
      "inputs": [
        {
          "internalType": "uint256",
          "name": "_tokenId",
          "type": "uint256"
        }
      ],
      "name": "tokenURI",
      "outputs": [
        {
          "internalType": "string",
          "name": "",
          "type": "string"
        }
      ],
      "stateMutability": "view",
      "type": "function"
    },
    {
      "inputs": [],
      "name": "totalSupply",
      "outputs": [
        {
          "internalType": "uint256",
          "name": "",
          "type": "uint256"
        }
      ],
      "stateMutability": "view",
      "type": "function"
    },
    {
      "inputs": [
        {
          "internalType": "address",
          "name": "from",
          "type": "address"
        },
        {
          "internalType": "address",
          "name": "to",
          "type": "address"
        },
        {
          "internalType": "uint256",
          "name": "tokenId",
          "type": "uint256"
        }
      ],
      "name": "transferFrom",
      "outputs": [],
      "stateMutability": "nonpayable",
      "type": "function"
    },
    {
      "inputs": [
        {
          "internalType": "address",
          "name": "newOwner",
          "type": "address"
        }
      ],
      "name": "transferOwnership",
      "outputs": [],
      "stateMutability": "nonpayable",
      "type": "function"
    },
    {
      "inputs": [],
      "name": "withdraw",
      "outputs": [],
      "stateMutability": "payable",
      "type": "function"
    }
  ],
  "bytecode": "0x6080604052662386f26fc10000600a556005600b556000600c60006101000a81548160ff0219169083151502179055503480156200003c57600080fd5b506040518060400160405280600881526020017f4e4654204e616d650000000000000000000000000000000000000000000000008152506040518060400160405280600581526020017f544f4b454e000000000000000000000000000000000000000000000000000000815250620000c9620000bd6200015960201b60201c565b6200016160201b60201c565b8160029080519060200190620000e192919062000225565b508060039080519060200190620000fa92919062000225565b50505060016008819055506040518060400160405280601b81526020017f697066733a2f2f706174685f746f5f68696464656e5f697066732f0000000000815250600990805190602001906200015292919062000225565b506200033a565b600033905090565b60008060009054906101000a900473ffffffffffffffffffffffffffffffffffffffff169050816000806101000a81548173ffffffffffffffffffffffffffffffffffffffff021916908373ffffffffffffffffffffffffffffffffffffffff1602179055508173ffffffffffffffffffffffffffffffffffffffff168173ffffffffffffffffffffffffffffffffffffffff167f8be0079c531659141344cd1fd0a4f28419497f9722a3daafe3b4186f6b6457e060405160405180910390a35050565b828054620002339062000304565b90600052602060002090601f016020900481019282620002575760008555620002a3565b82601f106200027257805160ff1916838001178555620002a3565b82800160010185558215620002a3579182015b82811115620002a257825182559160200191906001019062000285565b5b509050620002b29190620002b6565b5090565b5b80821115620002d1576000816000905550600101620002b7565b5090565b7f4e487b7100000000000000000000000000000000000000000000000000000000600052602260045260246000fd5b600060028204905060018216806200031d57607f821691505b60208210811415620003345762000333620002d5565b5b50919050565b613b62806200034a6000396000f3fe6080604052600436106101e35760003560e01c80638da5cb5b11610102578063b071401b11610095578063cfc86f7b11610064578063cfc86f7b146106d4578063d5abeb01146106ff578063e985e9c51461072a578063f2fde38b14610767576101e3565b8063b071401b1461061c578063b88d4fde14610645578063c4e370951461066e578063c87b56dd14610697576101e3565b806395d89b41116100d157806395d89b4114610581578063a035b1fe146105ac578063a0712d68146105d7578063a22cb465146105f3576101e3565b80638da5cb5b146104c557806391b7f5ed146104f05780639231ab2a1461051957806394354fd014610556576101e3565b806342842e0e1161017a5780636352211e116101495780636352211e1461040957806368428a1b1461044657806370a0823114610471578063715018a6146104ae576101e3565b806342842e0e146103515780634f6ccce71461037a57806355f804b3146103b7578063627804af146103e0576101e3565b806318160ddd116101b657806318160ddd146102b657806323b872dd146102e15780632f745c591461030a5780633ccfd60b14610347576101e3565b806301ffc9a7146101e857806306fdde0314610225578063081812fc14610250578063095ea7b31461028d575b600080fd5b3480156101f457600080fd5b5061020f600480360381019061020a9190612e8a565b610790565b60405161021c9190612ed2565b60405180910390f35b34801561023157600080fd5b5061023a6108da565b6040516102479190612f86565b60405180910390f35b34801561025c57600080fd5b5061027760048036038101906102729190612fde565b61096c565b604051610284919061304c565b60405180910390f35b34801561029957600080fd5b506102b460048036038101906102af9190613093565b6109e8565b005b3480156102c257600080fd5b506102cb610af3565b6040516102d891906130e2565b60405180910390f35b3480156102ed57600080fd5b50610308600480360381019061030391906130fd565b610b4b565b005b34801561031657600080fd5b50610331600480360381019061032c9190613093565b610b5b565b60405161033e91906130e2565b60405180910390f35b61034f610d63565b005b34801561035d57600080fd5b50610378600480360381019061037391906130fd565b610e8c565b005b34801561038657600080fd5b506103a1600480360381019061039c9190612fde565b610eac565b6040516103ae91906130e2565b60405180910390f35b3480156103c357600080fd5b506103de60048036038101906103d99190613285565b61101f565b005b3480156103ec57600080fd5b5061040760048036038101906104029190613093565b6110b5565b005b34801561041557600080fd5b50610430600480360381019061042b9190612fde565b61118d565b60405161043d919061304c565b60405180910390f35b34801561045257600080fd5b5061045b6111a3565b6040516104689190612ed2565b60405180910390f35b34801561047d57600080fd5b50610498600480360381019061049391906132ce565b6111b6565b6040516104a591906130e2565b60405180910390f35b3480156104ba57600080fd5b506104c3611286565b005b3480156104d157600080fd5b506104da61130e565b6040516104e7919061304c565b60405180910390f35b3480156104fc57600080fd5b5061051760048036038101906105129190612fde565b611337565b005b34801561052557600080fd5b50610540600480360381019061053b9190612fde565b6113bd565b60405161054d919061337e565b60405180910390f35b34801561056257600080fd5b5061056b6113d5565b60405161057891906130e2565b60405180910390f35b34801561058d57600080fd5b506105966113db565b6040516105a39190612f86565b60405180910390f35b3480156105b857600080fd5b506105c161146d565b6040516105ce91906130e2565b60405180910390f35b6105f160048036038101906105ec9190612fde565b611473565b005b3480156105ff57600080fd5b5061061a600480360381019061061591906133c5565b611604565b005b34801561062857600080fd5b50610643600480360381019061063e9190612fde565b61177c565b005b34801561065157600080fd5b5061066c600480360381019061066791906134a6565b611802565b005b34801561067a57600080fd5b5061069560048036038101906106909190613529565b611855565b005b3480156106a357600080fd5b506106be60048036038101906106b99190612fde565b6118ee565b6040516106cb9190612f86565b60405180910390f35b3480156106e057600080fd5b506106e9611995565b6040516106f69190612f86565b60405180910390f35b34801561070b57600080fd5b50610714611a23565b60405161072191906130e2565b60405180910390f35b34801561073657600080fd5b50610751600480360381019061074c9190613556565b611a29565b60405161075e9190612ed2565b60405180910390f35b34801561077357600080fd5b5061078e600480360381019061078991906132ce565b611abd565b005b60007f80ac58cd000000000000000000000000000000000000000000000000000000007bffffffffffffffffffffffffffffffffffffffffffffffffffffffff1916827bffffffffffffffffffffffffffffffffffffffffffffffffffffffff1916148061085b57507f5b5e139f000000000000000000000000000000000000000000000000000000007bffffffffffffffffffffffffffffffffffffffffffffffffffffffff1916827bffffffffffffffffffffffffffffffffffffffffffffffffffffffff1916145b806108c357507f780e9d63000000000000000000000000000000000000000000000000000000007bffffffffffffffffffffffffffffffffffffffffffffffffffffffff1916827bffffffffffffffffffffffffffffffffffffffffffffffffffffffff1916145b806108d357506108d282611bb5565b5b9050919050565b6060600280546108e9906135c5565b80601f0160208091040260200160405190810160405280929190818152602001828054610915906135c5565b80156109625780601f1061093757610100808354040283529160200191610962565b820191906000526020600020905b81548152906001019060200180831161094557829003601f168201915b5050505050905090565b600061097782611c1f565b6109ad576040517fcf4700e400000000000000000000000000000000000000000000000000000000815260040160405180910390fd5b6006600083815260200190815260200160002060009054906101000a900473ffffffffffffffffffffffffffffffffffffffff169050919050565b60006109f38261118d565b90508073ffffffffffffffffffffffffffffffffffffffff168373ffffffffffffffffffffffffffffffffffffffff161415610a5b576040517f943f7b8c00000000000000000000000000000000000000000000000000000000815260040160405180910390fd5b8073ffffffffffffffffffffffffffffffffffffffff16610a7a611c88565b73ffffffffffffffffffffffffffffffffffffffff1614158015610aac5750610aaa81610aa5611c88565b611a29565b155b15610ae3576040517fcfb3b94200000000000000000000000000000000000000000000000000000000815260040160405180910390fd5b610aee838383611c90565b505050565b6000600160109054906101000a90046fffffffffffffffffffffffffffffffff16600160009054906101000a90046fffffffffffffffffffffffffffffffff16036fffffffffffffffffffffffffffffffff16905090565b610b56838383611d42565b505050565b6000610b66836111b6565b8210610b9e576040517f0ddac30e00000000000000000000000000000000000000000000000000000000815260040160405180910390fd5b6000600160009054906101000a90046fffffffffffffffffffffffffffffffff166fffffffffffffffffffffffffffffffff16905060008060005b83811015610d57576000600460008381526020019081526020016000206040518060600160405290816000820160009054906101000a900473ffffffffffffffffffffffffffffffffffffffff1673ffffffffffffffffffffffffffffffffffffffff1673ffffffffffffffffffffffffffffffffffffffff1681526020016000820160149054906101000a900467ffffffffffffffff1667ffffffffffffffff1667ffffffffffffffff16815260200160008201601c9054906101000a900460ff1615151515815250509050806040015115610cb65750610d4a565b600073ffffffffffffffffffffffffffffffffffffffff16816000015173ffffffffffffffffffffffffffffffffffffffff1614610cf657806000015192505b8773ffffffffffffffffffffffffffffffffffffffff168373ffffffffffffffffffffffffffffffffffffffff161415610d485786841415610d3f578195505050505050610d5d565b83806001019450505b505b8080600101915050610bd9565b50600080fd5b92915050565b610d6b611c88565b73ffffffffffffffffffffffffffffffffffffffff16610d8961130e565b73ffffffffffffffffffffffffffffffffffffffff1614610ddf576040517f08c379a0000000000000000000000000000000000000000000000000000000008152600401610dd690613643565b60405180910390fd5b6000610de961130e565b73ffffffffffffffffffffffffffffffffffffffff1647604051610e0c90613694565b60006040518083038185875af1925050503d8060008114610e49576040519150601f19603f3d011682016040523d82523d6000602084013e610e4e565b606091505b5050905080610e89576040517f750b219c00000000000000000000000000000000000000000000000000000000815260040160405180910390fd5b50565b610ea783838360405180602001604052806000815250611802565b505050565b600080600160009054906101000a90046fffffffffffffffffffffffffffffffff166fffffffffffffffffffffffffffffffff1690506000805b82811015610fe7576000600460008381526020019081526020016000206040518060600160405290816000820160009054906101000a900473ffffffffffffffffffffffffffffffffffffffff1673ffffffffffffffffffffffffffffffffffffffff1673ffffffffffffffffffffffffffffffffffffffff1681526020016000820160149054906101000a900467ffffffffffffffff1667ffffffffffffffff1667ffffffffffffffff16815260200160008201601c9054906101000a900460ff16151515158152505090508060400151610fd95785831415610fd0578194505050505061101a565b82806001019350505b508080600101915050610ee6565b506040517fa723001c00000000000000000000000000000000000000000000000000000000815260040160405180910390fd5b919050565b611027611c88565b73ffffffffffffffffffffffffffffffffffffffff1661104561130e565b73ffffffffffffffffffffffffffffffffffffffff161461109b576040517f08c379a000000000000000000000000000000000000000000000000000000000815260040161109290613643565b60405180910390fd5b80600990805190602001906110b1929190612d38565b5050565b6110bd611c88565b73ffffffffffffffffffffffffffffffffffffffff166110db61130e565b73ffffffffffffffffffffffffffffffffffffffff1614611131576040517f08c379a000000000000000000000000000000000000000000000000000000000815260040161112890613643565b60405180910390fd5b61270f8161113d610af3565b61114791906136d8565b111561117f576040517f524f409b00000000000000000000000000000000000000000000000000000000815260040160405180910390fd5b6111898282612261565b5050565b60006111988261227f565b600001519050919050565b600c60009054906101000a900460ff1681565b60008073ffffffffffffffffffffffffffffffffffffffff168273ffffffffffffffffffffffffffffffffffffffff16141561121e576040517f8f4eb60400000000000000000000000000000000000000000000000000000000815260040160405180910390fd5b600560008373ffffffffffffffffffffffffffffffffffffffff1673ffffffffffffffffffffffffffffffffffffffff16815260200190815260200160002060000160009054906101000a900467ffffffffffffffff1667ffffffffffffffff169050919050565b61128e611c88565b73ffffffffffffffffffffffffffffffffffffffff166112ac61130e565b73ffffffffffffffffffffffffffffffffffffffff1614611302576040517f08c379a00000000000000000000000000000000000000000000000000000000081526004016112f990613643565b60405180910390fd5b61130c6000612529565b565b60008060009054906101000a900473ffffffffffffffffffffffffffffffffffffffff16905090565b61133f611c88565b73ffffffffffffffffffffffffffffffffffffffff1661135d61130e565b73ffffffffffffffffffffffffffffffffffffffff16146113b3576040517f08c379a00000000000000000000000000000000000000000000000000000000081526004016113aa90613643565b60405180910390fd5b80600a8190555050565b6113c5612dbe565b6113ce8261227f565b9050919050565b600b5481565b6060600380546113ea906135c5565b80601f0160208091040260200160405190810160405280929190818152602001828054611416906135c5565b80156114635780601f1061143857610100808354040283529160200191611463565b820191906000526020600020905b81548152906001019060200180831161144657829003601f168201915b5050505050905090565b600a5481565b600c60009054906101000a900460ff166114b9576040517f3f88677400000000000000000000000000000000000000000000000000000000815260040160405180910390fd5b60018110806114c95750600b5481115b15611500576040517f524f409b00000000000000000000000000000000000000000000000000000000815260040160405180910390fd5b61270f8161150c610af3565b61151691906136d8565b111561154e576040517f52df9fe500000000000000000000000000000000000000000000000000000000815260040160405180910390fd5b3273ffffffffffffffffffffffffffffffffffffffff163373ffffffffffffffffffffffffffffffffffffffff16146115b2576040517e61c20e00000000000000000000000000000000000000000000000000000000815260040160405180910390fd5b80600a546115c0919061372e565b34146115f7576040517ebfc92100000000000000000000000000000000000000000000000000000000815260040160405180910390fd5b6116013382612261565b50565b61160c611c88565b73ffffffffffffffffffffffffffffffffffffffff168273ffffffffffffffffffffffffffffffffffffffff161415611671576040517fb06307db00000000000000000000000000000000000000000000000000000000815260040160405180910390fd5b806007600061167e611c88565b73ffffffffffffffffffffffffffffffffffffffff1673ffffffffffffffffffffffffffffffffffffffff16815260200190815260200160002060008473ffffffffffffffffffffffffffffffffffffffff1673ffffffffffffffffffffffffffffffffffffffff16815260200190815260200160002060006101000a81548160ff0219169083151502179055508173ffffffffffffffffffffffffffffffffffffffff1661172b611c88565b73ffffffffffffffffffffffffffffffffffffffff167f17307eab39ab6107e8899845ad3d59bd9653f200f220920489ca2b5937696c31836040516117709190612ed2565b60405180910390a35050565b611784611c88565b73ffffffffffffffffffffffffffffffffffffffff166117a261130e565b73ffffffffffffffffffffffffffffffffffffffff16146117f8576040517f08c379a00000000000000000000000000000000000000000000000000000000081526004016117ef90613643565b60405180910390fd5b80600b8190555050565b61180d848484611d42565b611819848484846125ed565b61184f576040517fd1a57ed600000000000000000000000000000000000000000000000000000000815260040160405180910390fd5b50505050565b61185d611c88565b73ffffffffffffffffffffffffffffffffffffffff1661187b61130e565b73ffffffffffffffffffffffffffffffffffffffff16146118d1576040517f08c379a00000000000000000000000000000000000000000000000000000000081526004016118c890613643565b60405180910390fd5b80600c60006101000a81548160ff02191690831515021790555050565b60606118f982611c1f565b611938576040517f08c379a000000000000000000000000000000000000000000000000000000000815260040161192f906137fa565b60405180910390fd5b600061194261276c565b90506000815111611962576040518060200160405280600081525061198d565b8061196c846127fe565b60405160200161197d929190613856565b6040516020818303038152906040525b915050919050565b600980546119a2906135c5565b80601f01602080910402602001604051908101604052809291908181526020018280546119ce906135c5565b8015611a1b5780601f106119f057610100808354040283529160200191611a1b565b820191906000526020600020905b8154815290600101906020018083116119fe57829003601f168201915b505050505081565b61270f81565b6000600760008473ffffffffffffffffffffffffffffffffffffffff1673ffffffffffffffffffffffffffffffffffffffff16815260200190815260200160002060008373ffffffffffffffffffffffffffffffffffffffff1673ffffffffffffffffffffffffffffffffffffffff16815260200190815260200160002060009054906101000a900460ff16905092915050565b611ac5611c88565b73ffffffffffffffffffffffffffffffffffffffff16611ae361130e565b73ffffffffffffffffffffffffffffffffffffffff1614611b39576040517f08c379a0000000000000000000000000000000000000000000000000000000008152600401611b3090613643565b60405180910390fd5b600073ffffffffffffffffffffffffffffffffffffffff168173ffffffffffffffffffffffffffffffffffffffff161415611ba9576040517f08c379a0000000000000000000000000000000000000000000000000000000008152600401611ba0906138ec565b60405180910390fd5b611bb281612529565b50565b60007f01ffc9a7000000000000000000000000000000000000000000000000000000007bffffffffffffffffffffffffffffffffffffffffffffffffffffffff1916827bffffffffffffffffffffffffffffffffffffffffffffffffffffffff1916149050919050565b6000600160009054906101000a90046fffffffffffffffffffffffffffffffff166fffffffffffffffffffffffffffffffff1682108015611c81575060046000838152602001908152602001600020600001601c9054906101000a900460ff16155b9050919050565b600033905090565b826006600084815260200190815260200160002060006101000a81548173ffffffffffffffffffffffffffffffffffffffff021916908373ffffffffffffffffffffffffffffffffffffffff160217905550818373ffffffffffffffffffffffffffffffffffffffff168273ffffffffffffffffffffffffffffffffffffffff167f8c5be1e5ebec7d5bd14f71427d1e84f3dd0314c0f7b2291e5b200ac8c7c3b92560405160405180910390a4505050565b6000611d4d8261227f565b90506000816000015173ffffffffffffffffffffffffffffffffffffffff16611d74611c88565b73ffffffffffffffffffffffffffffffffffffffff161480611da75750611da68260000151611da1611c88565b611a29565b5b80611dec5750611db5611c88565b73ffffffffffffffffffffffffffffffffffffffff16611dd48461096c565b73ffffffffffffffffffffffffffffffffffffffff16145b905080611e25576040517f59c896be00000000000000000000000000000000000000000000000000000000815260040160405180910390fd5b8473ffffffffffffffffffffffffffffffffffffffff16826000015173ffffffffffffffffffffffffffffffffffffffff1614611e8e576040517fa114810000000000000000000000000000000000000000000000000000000000815260040160405180910390fd5b600073ffffffffffffffffffffffffffffffffffffffff168473ffffffffffffffffffffffffffffffffffffffff161415611ef5576040517fea553b3400000000000000000000000000000000000000000000000000000000815260040160405180910390fd5b611f02858585600161295f565b611f126000848460000151611c90565b6001600560008773ffffffffffffffffffffffffffffffffffffffff1673ffffffffffffffffffffffffffffffffffffffff16815260200190815260200160002060000160008282829054906101000a900467ffffffffffffffff160392506101000a81548167ffffffffffffffff021916908367ffffffffffffffff1602179055506001600560008673ffffffffffffffffffffffffffffffffffffffff1673ffffffffffffffffffffffffffffffffffffffff16815260200190815260200160002060000160008282829054906101000a900467ffffffffffffffff160192506101000a81548167ffffffffffffffff021916908367ffffffffffffffff160217905550836004600085815260200190815260200160002060000160006101000a81548173ffffffffffffffffffffffffffffffffffffffff021916908373ffffffffffffffffffffffffffffffffffffffff160217905550426004600085815260200190815260200160002060000160146101000a81548167ffffffffffffffff021916908367ffffffffffffffff1602179055506000600184019050600073ffffffffffffffffffffffffffffffffffffffff166004600083815260200190815260200160002060000160009054906101000a900473ffffffffffffffffffffffffffffffffffffffff1673ffffffffffffffffffffffffffffffffffffffff1614156121f157600160009054906101000a90046fffffffffffffffffffffffffffffffff166fffffffffffffffffffffffffffffffff168110156121f05782600001516004600083815260200190815260200160002060000160006101000a81548173ffffffffffffffffffffffffffffffffffffffff021916908373ffffffffffffffffffffffffffffffffffffffff16021790555082602001516004600083815260200190815260200160002060000160146101000a81548167ffffffffffffffff021916908367ffffffffffffffff1602179055505b5b50828473ffffffffffffffffffffffffffffffffffffffff168673ffffffffffffffffffffffffffffffffffffffff167fddf252ad1be2c89b69c2b068fc378daa952ba7f163c4a11628f55a4df523b3ef60405160405180910390a461225a8585856001612965565b5050505050565b61227b82826040518060200160405280600081525061296b565b5050565b612287612dbe565b6000829050600160009054906101000a90046fffffffffffffffffffffffffffffffff166fffffffffffffffffffffffffffffffff168110156124f2576000600460008381526020019081526020016000206040518060600160405290816000820160009054906101000a900473ffffffffffffffffffffffffffffffffffffffff1673ffffffffffffffffffffffffffffffffffffffff1673ffffffffffffffffffffffffffffffffffffffff1681526020016000820160149054906101000a900467ffffffffffffffff1667ffffffffffffffff1667ffffffffffffffff16815260200160008201601c9054906101000a900460ff161515151581525050905080604001516124f057600073ffffffffffffffffffffffffffffffffffffffff16816000015173ffffffffffffffffffffffffffffffffffffffff16146123d4578092505050612524565b5b6001156124ef57818060019003925050600460008381526020019081526020016000206040518060600160405290816000820160009054906101000a900473ffffffffffffffffffffffffffffffffffffffff1673ffffffffffffffffffffffffffffffffffffffff1673ffffffffffffffffffffffffffffffffffffffff1681526020016000820160149054906101000a900467ffffffffffffffff1667ffffffffffffffff1667ffffffffffffffff16815260200160008201601c9054906101000a900460ff1615151515815250509050600073ffffffffffffffffffffffffffffffffffffffff16816000015173ffffffffffffffffffffffffffffffffffffffff16146124ea578092505050612524565b6123d5565b5b505b6040517fdf2d9b4200000000000000000000000000000000000000000000000000000000815260040160405180910390fd5b919050565b60008060009054906101000a900473ffffffffffffffffffffffffffffffffffffffff169050816000806101000a81548173ffffffffffffffffffffffffffffffffffffffff021916908373ffffffffffffffffffffffffffffffffffffffff1602179055508173ffffffffffffffffffffffffffffffffffffffff168173ffffffffffffffffffffffffffffffffffffffff167f8be0079c531659141344cd1fd0a4f28419497f9722a3daafe3b4186f6b6457e060405160405180910390a35050565b600061260e8473ffffffffffffffffffffffffffffffffffffffff1661297d565b1561275f578373ffffffffffffffffffffffffffffffffffffffff1663150b7a02612637611c88565b8786866040518563ffffffff1660e01b81526004016126599493929190613961565b6020604051808303816000875af192505050801561269557506040513d601f19601f8201168201806040525081019061269291906139c2565b60015b61270f573d80600081146126c5576040519150601f19603f3d011682016040523d82523d6000602084013e6126ca565b606091505b50600081511415612707576040517fd1a57ed600000000000000000000000000000000000000000000000000000000815260040160405180910390fd5b805181602001fd5b63150b7a0260e01b7bffffffffffffffffffffffffffffffffffffffffffffffffffffffff1916817bffffffffffffffffffffffffffffffffffffffffffffffffffffffff191614915050612764565b600190505b949350505050565b60606009805461277b906135c5565b80601f01602080910402602001604051908101604052809291908181526020018280546127a7906135c5565b80156127f45780601f106127c9576101008083540402835291602001916127f4565b820191906000526020600020905b8154815290600101906020018083116127d757829003601f168201915b5050505050905090565b60606000821415612846576040518060400160405280600181526020017f3000000000000000000000000000000000000000000000000000000000000000815250905061295a565b600082905060005b60008214612878578080612861906139ef565b915050600a826128719190613a67565b915061284e565b60008167ffffffffffffffff8111156128945761289361315a565b5b6040519080825280601f01601f1916602001820160405280156128c65781602001600182028036833780820191505090505b5090505b60008514612953576001826128df9190613a98565b9150600a856128ee9190613acc565b60306128fa91906136d8565b60f81b8183815181106129105761290f613afd565b5b60200101907effffffffffffffffffffffffffffffffffffffffffffffffffffffffffffff1916908160001a905350600a8561294c9190613a67565b94506128ca565b8093505050505b919050565b50505050565b50505050565b61297883838360016129a0565b505050565b6000808273ffffffffffffffffffffffffffffffffffffffff163b119050919050565b6000600160009054906101000a90046fffffffffffffffffffffffffffffffff166fffffffffffffffffffffffffffffffff169050600073ffffffffffffffffffffffffffffffffffffffff168573ffffffffffffffffffffffffffffffffffffffff161415612a3c576040517f2e07630000000000000000000000000000000000000000000000000000000000815260040160405180910390fd5b6000841415612a77576040517fb562e8dd00000000000000000000000000000000000000000000000000000000815260040160405180910390fd5b612a84600086838761295f565b83600560008773ffffffffffffffffffffffffffffffffffffffff1673ffffffffffffffffffffffffffffffffffffffff16815260200190815260200160002060000160008282829054906101000a900467ffffffffffffffff160192506101000a81548167ffffffffffffffff021916908367ffffffffffffffff16021790555083600560008773ffffffffffffffffffffffffffffffffffffffff1673ffffffffffffffffffffffffffffffffffffffff16815260200190815260200160002060000160088282829054906101000a900467ffffffffffffffff160192506101000a81548167ffffffffffffffff021916908367ffffffffffffffff160217905550846004600083815260200190815260200160002060000160006101000a81548173ffffffffffffffffffffffffffffffffffffffff021916908373ffffffffffffffffffffffffffffffffffffffff160217905550426004600083815260200190815260200160002060000160146101000a81548167ffffffffffffffff021916908367ffffffffffffffff160217905550600081905060005b85811015612ce957818773ffffffffffffffffffffffffffffffffffffffff16600073ffffffffffffffffffffffffffffffffffffffff167fddf252ad1be2c89b69c2b068fc378daa952ba7f163c4a11628f55a4df523b3ef60405160405180910390a4838015612c9d5750612c9b60008884886125ed565b155b15612cd4576040517fd1a57ed600000000000000000000000000000000000000000000000000000000815260040160405180910390fd5b81806001019250508080600101915050612c22565b5080600160006101000a8154816fffffffffffffffffffffffffffffffff02191690836fffffffffffffffffffffffffffffffff16021790555050612d316000868387612965565b5050505050565b828054612d44906135c5565b90600052602060002090601f016020900481019282612d665760008555612dad565b82601f10612d7f57805160ff1916838001178555612dad565b82800160010185558215612dad579182015b82811115612dac578251825591602001919060010190612d91565b5b509050612dba9190612e01565b5090565b6040518060600160405280600073ffffffffffffffffffffffffffffffffffffffff168152602001600067ffffffffffffffff1681526020016000151581525090565b5b80821115612e1a576000816000905550600101612e02565b5090565b6000604051905090565b600080fd5b600080fd5b60007fffffffff0000000000000000000000000000000000000000000000000000000082169050919050565b612e6781612e32565b8114612e7257600080fd5b50565b600081359050612e8481612e5e565b92915050565b600060208284031215612ea057612e9f612e28565b5b6000612eae84828501612e75565b91505092915050565b60008115159050919050565b612ecc81612eb7565b82525050565b6000602082019050612ee76000830184612ec3565b92915050565b600081519050919050565b600082825260208201905092915050565b60005b83811015612f27578082015181840152602081019050612f0c565b83811115612f36576000848401525b50505050565b6000601f19601f8301169050919050565b6000612f5882612eed565b612f628185612ef8565b9350612f72818560208601612f09565b612f7b81612f3c565b840191505092915050565b60006020820190508181036000830152612fa08184612f4d565b905092915050565b6000819050919050565b612fbb81612fa8565b8114612fc657600080fd5b50565b600081359050612fd881612fb2565b92915050565b600060208284031215612ff457612ff3612e28565b5b600061300284828501612fc9565b91505092915050565b600073ffffffffffffffffffffffffffffffffffffffff82169050919050565b60006130368261300b565b9050919050565b6130468161302b565b82525050565b6000602082019050613061600083018461303d565b92915050565b6130708161302b565b811461307b57600080fd5b50565b60008135905061308d81613067565b92915050565b600080604083850312156130aa576130a9612e28565b5b60006130b88582860161307e565b92505060206130c985828601612fc9565b9150509250929050565b6130dc81612fa8565b82525050565b60006020820190506130f760008301846130d3565b92915050565b60008060006060848603121561311657613115612e28565b5b60006131248682870161307e565b93505060206131358682870161307e565b925050604061314686828701612fc9565b9150509250925092565b600080fd5b600080fd5b7f4e487b7100000000000000000000000000000000000000000000000000000000600052604160045260246000fd5b61319282612f3c565b810181811067ffffffffffffffff821117156131b1576131b061315a565b5b80604052505050565b60006131c4612e1e565b90506131d08282613189565b919050565b600067ffffffffffffffff8211156131f0576131ef61315a565b5b6131f982612f3c565b9050602081019050919050565b82818337600083830152505050565b6000613228613223846131d5565b6131ba565b90508281526020810184848401111561324457613243613155565b5b61324f848285613206565b509392505050565b600082601f83011261326c5761326b613150565b5b813561327c848260208601613215565b91505092915050565b60006020828403121561329b5761329a612e28565b5b600082013567ffffffffffffffff8111156132b9576132b8612e2d565b5b6132c584828501613257565b91505092915050565b6000602082840312156132e4576132e3612e28565b5b60006132f28482850161307e565b91505092915050565b6133048161302b565b82525050565b600067ffffffffffffffff82169050919050565b6133278161330a565b82525050565b61333681612eb7565b82525050565b60608201600082015161335260008501826132fb565b506020820151613365602085018261331e565b506040820151613378604085018261332d565b50505050565b6000606082019050613393600083018461333c565b92915050565b6133a281612eb7565b81146133ad57600080fd5b50565b6000813590506133bf81613399565b92915050565b600080604083850312156133dc576133db612e28565b5b60006133ea8582860161307e565b92505060206133fb858286016133b0565b9150509250929050565b600067ffffffffffffffff8211156134205761341f61315a565b5b61342982612f3c565b9050602081019050919050565b600061344961344484613405565b6131ba565b90508281526020810184848401111561346557613464613155565b5b613470848285613206565b509392505050565b600082601f83011261348d5761348c613150565b5b813561349d848260208601613436565b91505092915050565b600080600080608085870312156134c0576134bf612e28565b5b60006134ce8782880161307e565b94505060206134df8782880161307e565b93505060406134f087828801612fc9565b925050606085013567ffffffffffffffff81111561351157613510612e2d565b5b61351d87828801613478565b91505092959194509250565b60006020828403121561353f5761353e612e28565b5b600061354d848285016133b0565b91505092915050565b6000806040838503121561356d5761356c612e28565b5b600061357b8582860161307e565b925050602061358c8582860161307e565b9150509250929050565b7f4e487b7100000000000000000000000000000000000000000000000000000000600052602260045260246000fd5b600060028204905060018216806135dd57607f821691505b602082108114156135f1576135f0613596565b5b50919050565b7f4f776e61626c653a2063616c6c6572206973206e6f7420746865206f776e6572600082015250565b600061362d602083612ef8565b9150613638826135f7565b602082019050919050565b6000602082019050818103600083015261365c81613620565b9050919050565b600081905092915050565b50565b600061367e600083613663565b91506136898261366e565b600082019050919050565b600061369f82613671565b9150819050919050565b7f4e487b7100000000000000000000000000000000000000000000000000000000600052601160045260246000fd5b60006136e382612fa8565b91506136ee83612fa8565b9250827fffffffffffffffffffffffffffffffffffffffffffffffffffffffffffffffff03821115613723576137226136a9565b5b828201905092915050565b600061373982612fa8565b915061374483612fa8565b9250817fffffffffffffffffffffffffffffffffffffffffffffffffffffffffffffffff048311821515161561377d5761377c6136a9565b5b828202905092915050565b7f4552433732314d657461646174613a2055524920717565727920666f72206e6f60008201527f6e6578697374656e7420746f6b656e0000000000000000000000000000000000602082015250565b60006137e4602f83612ef8565b91506137ef82613788565b604082019050919050565b60006020820190508181036000830152613813816137d7565b9050919050565b600081905092915050565b600061383082612eed565b61383a818561381a565b935061384a818560208601612f09565b80840191505092915050565b60006138628285613825565b915061386e8284613825565b91508190509392505050565b7f4f776e61626c653a206e6577206f776e657220697320746865207a65726f206160008201527f6464726573730000000000000000000000000000000000000000000000000000602082015250565b60006138d6602683612ef8565b91506138e18261387a565b604082019050919050565b60006020820190508181036000830152613905816138c9565b9050919050565b600081519050919050565b600082825260208201905092915050565b60006139338261390c565b61393d8185613917565b935061394d818560208601612f09565b61395681612f3c565b840191505092915050565b6000608082019050613976600083018761303d565b613983602083018661303d565b61399060408301856130d3565b81810360608301526139a28184613928565b905095945050505050565b6000815190506139bc81612e5e565b92915050565b6000602082840312156139d8576139d7612e28565b5b60006139e6848285016139ad565b91505092915050565b60006139fa82612fa8565b91507fffffffffffffffffffffffffffffffffffffffffffffffffffffffffffffffff821415613a2d57613a2c6136a9565b5b600182019050919050565b7f4e487b7100000000000000000000000000000000000000000000000000000000600052601260045260246000fd5b6000613a7282612fa8565b9150613a7d83612fa8565b925082613a8d57613a8c613a38565b5b828204905092915050565b6000613aa382612fa8565b9150613aae83612fa8565b925082821015613ac157613ac06136a9565b5b828203905092915050565b6000613ad782612fa8565b9150613ae283612fa8565b925082613af257613af1613a38565b5b828206905092915050565b7f4e487b7100000000000000000000000000000000000000000000000000000000600052603260045260246000fdfea26469706673582212200315556855feb003c17b519e8c964f6844e1309bb86b1c34f622fdbda6a6ab8264736f6c634300080b0033",
  "linkReferences": {},
  "deployedLinkReferences": {}
}