{
  "_format": "hh-sol-artifact-1",
  "contractName": "SushiWorld",
  "sourceName": "cache/solpp-generated-contracts/SushiWorld.sol",
  "abi": [
    {
      "inputs": [],
      "stateMutability": "nonpayable",
      "type": "constructor"
    },
    {
      "anonymous": false,
      "inputs": [
        {
          "indexed": true,
          "internalType": "address",
          "name": "owner",
          "type": "address"
        },
        {
          "indexed": true,
          "internalType": "address",
          "name": "approved",
          "type": "address"
        },
        {
          "indexed": true,
          "internalType": "uint256",
          "name": "tokenId",
          "type": "uint256"
        }
      ],
      "name": "Approval",
      "type": "event"
    },
    {
      "anonymous": false,
      "inputs": [
        {
          "indexed": true,
          "internalType": "address",
          "name": "owner",
          "type": "address"
        },
        {
          "indexed": true,
          "internalType": "address",
          "name": "operator",
          "type": "address"
        },
        {
          "indexed": false,
          "internalType": "bool",
          "name": "approved",
          "type": "bool"
        }
      ],
      "name": "ApprovalForAll",
      "type": "event"
    },
    {
      "anonymous": false,
      "inputs": [
        {
          "indexed": true,
          "internalType": "address",
          "name": "previousOwner",
          "type": "address"
        },
        {
          "indexed": true,
          "internalType": "address",
          "name": "newOwner",
          "type": "address"
        }
      ],
      "name": "OwnershipTransferred",
      "type": "event"
    },
    {
      "anonymous": false,
      "inputs": [
        {
          "indexed": true,
          "internalType": "address",
          "name": "from",
          "type": "address"
        },
        {
          "indexed": true,
          "internalType": "address",
          "name": "to",
          "type": "address"
        },
        {
          "indexed": true,
          "internalType": "uint256",
          "name": "tokenId",
          "type": "uint256"
        }
      ],
      "name": "Transfer",
      "type": "event"
    },
    {
      "inputs": [
        {
          "internalType": "uint256",
          "name": "_mintAmount",
          "type": "uint256"
        },
        {
          "internalType": "address",
          "name": "_receiver",
          "type": "address"
        }
      ],
      "name": "airdrop",
      "outputs": [],
      "stateMutability": "nonpayable",
      "type": "function"
    },
    {
      "inputs": [
        {
          "internalType": "address",
          "name": "to",
          "type": "address"
        },
        {
          "internalType": "uint256",
          "name": "tokenId",
          "type": "uint256"
        }
      ],
      "name": "approve",
      "outputs": [],
      "stateMutability": "nonpayable",
      "type": "function"
    },
    {
      "inputs": [
        {
          "internalType": "address",
          "name": "owner",
          "type": "address"
        }
      ],
      "name": "balanceOf",
      "outputs": [
        {
          "internalType": "uint256",
          "name": "",
          "type": "uint256"
        }
      ],
      "stateMutability": "view",
      "type": "function"
    },
    {
      "inputs": [],
      "name": "cost",
      "outputs": [
        {
          "internalType": "uint256",
          "name": "",
          "type": "uint256"
        }
      ],
      "stateMutability": "view",
      "type": "function"
    },
    {
      "inputs": [
        {
          "internalType": "uint256",
          "name": "tokenId",
          "type": "uint256"
        }
      ],
      "name": "getApproved",
      "outputs": [
        {
          "internalType": "address",
          "name": "",
          "type": "address"
        }
      ],
      "stateMutability": "view",
      "type": "function"
    },
    {
      "inputs": [],
      "name": "hiddenMetadataUri",
      "outputs": [
        {
          "internalType": "string",
          "name": "",
          "type": "string"
        }
      ],
      "stateMutability": "view",
      "type": "function"
    },
    {
      "inputs": [
        {
          "internalType": "address",
          "name": "owner",
          "type": "address"
        },
        {
          "internalType": "address",
          "name": "operator",
          "type": "address"
        }
      ],
      "name": "isApprovedForAll",
      "outputs": [
        {
          "internalType": "bool",
          "name": "",
          "type": "bool"
        }
      ],
      "stateMutability": "view",
      "type": "function"
    },
    {
      "inputs": [],
      "name": "maxMintAmountPerTx",
      "outputs": [
        {
          "internalType": "uint256",
          "name": "",
          "type": "uint256"
        }
      ],
      "stateMutability": "view",
      "type": "function"
    },
    {
      "inputs": [],
      "name": "maxSupply",
      "outputs": [
        {
          "internalType": "uint256",
          "name": "",
          "type": "uint256"
        }
      ],
      "stateMutability": "view",
      "type": "function"
    },
    {
      "inputs": [
        {
          "internalType": "uint256",
          "name": "_mintAmount",
          "type": "uint256"
        }
      ],
      "name": "mint",
      "outputs": [],
      "stateMutability": "payable",
      "type": "function"
    },
    {
      "inputs": [],
      "name": "name",
      "outputs": [
        {
          "internalType": "string",
          "name": "",
          "type": "string"
        }
      ],
      "stateMutability": "view",
      "type": "function"
    },
    {
      "inputs": [],
      "name": "owner",
      "outputs": [
        {
          "internalType": "address",
          "name": "",
          "type": "address"
        }
      ],
      "stateMutability": "view",
      "type": "function"
    },
    {
      "inputs": [
        {
          "internalType": "uint256",
          "name": "tokenId",
          "type": "uint256"
        }
      ],
      "name": "ownerOf",
      "outputs": [
        {
          "internalType": "address",
          "name": "",
          "type": "address"
        }
      ],
      "stateMutability": "view",
      "type": "function"
    },
    {
      "inputs": [],
      "name": "paused",
      "outputs": [
        {
          "internalType": "bool",
          "name": "",
          "type": "bool"
        }
      ],
      "stateMutability": "view",
      "type": "function"
    },
    {
      "inputs": [],
      "name": "renounceOwnership",
      "outputs": [],
      "stateMutability": "nonpayable",
      "type": "function"
    },
    {
      "inputs": [],
      "name": "revealed",
      "outputs": [
        {
          "internalType": "bool",
          "name": "",
          "type": "bool"
        }
      ],
      "stateMutability": "view",
      "type": "function"
    },
    {
      "inputs": [
        {
          "internalType": "address",
          "name": "from",
          "type": "address"
        },
        {
          "internalType": "address",
          "name": "to",
          "type": "address"
        },
        {
          "internalType": "uint256",
          "name": "tokenId",
          "type": "uint256"
        }
      ],
      "name": "safeTransferFrom",
      "outputs": [],
      "stateMutability": "nonpayable",
      "type": "function"
    },
    {
      "inputs": [
        {
          "internalType": "address",
          "name": "from",
          "type": "address"
        },
        {
          "internalType": "address",
          "name": "to",
          "type": "address"
        },
        {
          "internalType": "uint256",
          "name": "tokenId",
          "type": "uint256"
        },
        {
          "internalType": "bytes",
          "name": "_data",
          "type": "bytes"
        }
      ],
      "name": "safeTransferFrom",
      "outputs": [],
      "stateMutability": "nonpayable",
      "type": "function"
    },
    {
      "inputs": [
        {
          "internalType": "address",
          "name": "operator",
          "type": "address"
        },
        {
          "internalType": "bool",
          "name": "approved",
          "type": "bool"
        }
      ],
      "name": "setApprovalForAll",
      "outputs": [],
      "stateMutability": "nonpayable",
      "type": "function"
    },
    {
      "inputs": [
        {
          "internalType": "uint256",
          "name": "_cost",
          "type": "uint256"
        }
      ],
      "name": "setCost",
      "outputs": [],
      "stateMutability": "nonpayable",
      "type": "function"
    },
    {
      "inputs": [
        {
          "internalType": "string",
          "name": "_hiddenMetadataUri",
          "type": "string"
        }
      ],
      "name": "setHiddenMetadataUri",
      "outputs": [],
      "stateMutability": "nonpayable",
      "type": "function"
    },
    {
      "inputs": [
        {
          "internalType": "uint256",
          "name": "_maxMintAmountPerTx",
          "type": "uint256"
        }
      ],
      "name": "setMaxMintAmountPerTx",
      "outputs": [],
      "stateMutability": "nonpayable",
      "type": "function"
    },
    {
      "inputs": [
        {
          "internalType": "bool",
          "name": "_state",
          "type": "bool"
        }
      ],
      "name": "setPaused",
      "outputs": [],
      "stateMutability": "nonpayable",
      "type": "function"
    },
    {
      "inputs": [
        {
          "internalType": "bool",
          "name": "_state",
          "type": "bool"
        }
      ],
      "name": "setRevealed",
      "outputs": [],
      "stateMutability": "nonpayable",
      "type": "function"
    },
    {
      "inputs": [
        {
          "internalType": "string",
          "name": "_uriPrefix",
          "type": "string"
        }
      ],
      "name": "setUriPrefix",
      "outputs": [],
      "stateMutability": "nonpayable",
      "type": "function"
    },
    {
      "inputs": [
        {
          "internalType": "string",
          "name": "_uriSuffix",
          "type": "string"
        }
      ],
      "name": "setUriSuffix",
      "outputs": [],
      "stateMutability": "nonpayable",
      "type": "function"
    },
    {
      "inputs": [
        {
          "internalType": "bytes4",
          "name": "interfaceId",
          "type": "bytes4"
        }
      ],
      "name": "supportsInterface",
      "outputs": [
        {
          "internalType": "bool",
          "name": "",
          "type": "bool"
        }
      ],
      "stateMutability": "view",
      "type": "function"
    },
    {
      "inputs": [],
      "name": "sushi",
      "outputs": [
        {
          "internalType": "address",
          "name": "",
          "type": "address"
        }
      ],
      "stateMutability": "view",
      "type": "function"
    },
    {
      "inputs": [],
      "name": "symbol",
      "outputs": [
        {
          "internalType": "string",
          "name": "",
          "type": "string"
        }
      ],
      "stateMutability": "view",
      "type": "function"
    },
    {
      "inputs": [
        {
          "internalType": "uint256",
          "name": "_tokenId",
          "type": "uint256"
        }
      ],
      "name": "tokenURI",
      "outputs": [
        {
          "internalType": "string",
          "name": "",
          "type": "string"
        }
      ],
      "stateMutability": "view",
      "type": "function"
    },
    {
      "inputs": [],
      "name": "totalSupply",
      "outputs": [
        {
          "internalType": "uint256",
          "name": "",
          "type": "uint256"
        }
      ],
      "stateMutability": "view",
      "type": "function"
    },
    {
      "inputs": [
        {
          "internalType": "address",
          "name": "from",
          "type": "address"
        },
        {
          "internalType": "address",
          "name": "to",
          "type": "address"
        },
        {
          "internalType": "uint256",
          "name": "tokenId",
          "type": "uint256"
        }
      ],
      "name": "transferFrom",
      "outputs": [],
      "stateMutability": "nonpayable",
      "type": "function"
    },
    {
      "inputs": [
        {
          "internalType": "address",
          "name": "newOwner",
          "type": "address"
        }
      ],
      "name": "transferOwnership",
      "outputs": [],
      "stateMutability": "nonpayable",
      "type": "function"
    },
    {
      "inputs": [],
      "name": "uriPrefix",
      "outputs": [
        {
          "internalType": "string",
          "name": "",
          "type": "string"
        }
      ],
      "stateMutability": "view",
      "type": "function"
    },
    {
      "inputs": [],
      "name": "uriSuffix",
      "outputs": [
        {
          "internalType": "string",
          "name": "",
          "type": "string"
        }
      ],
      "stateMutability": "view",
      "type": "function"
    },
    {
      "inputs": [
        {
          "internalType": "address",
          "name": "_owner",
          "type": "address"
        }
      ],
      "name": "walletOfOwner",
      "outputs": [
        {
          "internalType": "uint256[]",
          "name": "",
          "type": "uint256[]"
        }
      ],
      "stateMutability": "view",
      "type": "function"
    },
    {
      "inputs": [],
      "name": "withdraw",
      "outputs": [],
      "stateMutability": "payable",
      "type": "function"
    }
  ],
  "bytecode": "0x608060405273cf7de112b381309ec765f0758885187b496873ba600960006101000a81548173ffffffffffffffffffffffffffffffffffffffff021916908373ffffffffffffffffffffffffffffffffffffffff16021790555060405180602001604052806000815250600a908051906020019062000080929190620003c4565b506040518060400160405280600581526020017f2e6a736f6e000000000000000000000000000000000000000000000000000000815250600b9080519060200190620000ce929190620003c4565b5066b1a2bc2ec50000600d55610fa0600e556005600f556001601060006101000a81548160ff0219169083151502179055506000601060016101000a81548160ff0219169083151502179055503480156200012857600080fd5b506040518060400160405280600a81526020017f5375736869576f726c64000000000000000000000000000000000000000000008152506040518060400160405280600581526020017f53555348490000000000000000000000000000000000000000000000000000008152508160009080519060200190620001ad929190620003c4565b508060019080519060200190620001c6929190620003c4565b505050620001e9620001dd6200022160201b60201c565b6200022960201b60201c565b60016007819055506200021b60405180606001604052806026815260200162004af460269139620002ef60201b60201c565b6200055c565b600033905090565b6000600660009054906101000a900473ffffffffffffffffffffffffffffffffffffffff16905081600660006101000a81548173ffffffffffffffffffffffffffffffffffffffff021916908373ffffffffffffffffffffffffffffffffffffffff1602179055508173ffffffffffffffffffffffffffffffffffffffff168173ffffffffffffffffffffffffffffffffffffffff167f8be0079c531659141344cd1fd0a4f28419497f9722a3daafe3b4186f6b6457e060405160405180910390a35050565b620002ff6200022160201b60201c565b73ffffffffffffffffffffffffffffffffffffffff16620003256200039a60201b60201c565b73ffffffffffffffffffffffffffffffffffffffff16146200037e576040517f08c379a00000000000000000000000000000000000000000000000000000000081526004016200037590620004d5565b60405180910390fd5b80600c908051906020019062000396929190620003c4565b5050565b6000600660009054906101000a900473ffffffffffffffffffffffffffffffffffffffff16905090565b828054620003d29062000526565b90600052602060002090601f016020900481019282620003f6576000855562000442565b82601f106200041157805160ff191683800117855562000442565b8280016001018555821562000442579182015b828111156200044157825182559160200191906001019062000424565b5b50905062000451919062000455565b5090565b5b808211156200047057600081600090555060010162000456565b5090565b600082825260208201905092915050565b7f4f776e61626c653a2063616c6c6572206973206e6f7420746865206f776e6572600082015250565b6000620004bd60208362000474565b9150620004ca8262000485565b602082019050919050565b60006020820190508181036000830152620004f081620004ae565b9050919050565b7f4e487b7100000000000000000000000000000000000000000000000000000000600052602260045260246000fd5b600060028204905060018216806200053f57607f821691505b60208210811415620005565762000555620004f7565b5b50919050565b614588806200056c6000396000f3fe60806040526004361061021a5760003560e01c806362b99ad411610123578063a22cb465116100ab578063c87b56dd1161006f578063c87b56dd1461077d578063d5abeb01146107ba578063e0a80853146107e5578063e985e9c51461080e578063f2fde38b1461084b5761021a565b8063a22cb465146106ae578063a45ba8e7146106d7578063b071401b14610702578063b88d4fde1461072b578063bc63f02e146107545761021a565b80637ec4a659116100f25780637ec4a659146105e85780638da5cb5b1461061157806394354fd01461063c57806395d89b4114610667578063a0712d68146106925761021a565b806362b99ad41461052c5780636352211e1461055757806370a0823114610594578063715018a6146105d15761021a565b806323b872dd116101a657806344a0d68a1161017557806344a0d68a146104595780634fdd43cb1461048257806351830227146104ab5780635503a0e8146104d65780635c975abb146105015761021a565b806323b872dd146103c05780633ccfd60b146103e957806342842e0e146103f3578063438b63001461041c5761021a565b80630a087903116101ed5780630a087903146102ed57806313faede61461031857806316ba10e01461034357806316c38b3c1461036c57806318160ddd146103955761021a565b806301ffc9a71461021f57806306fdde031461025c578063081812fc14610287578063095ea7b3146102c4575b600080fd5b34801561022b57600080fd5b5061024660048036038101906102419190612da1565b610874565b6040516102539190612de9565b60405180910390f35b34801561026857600080fd5b50610271610956565b60405161027e9190612e9d565b60405180910390f35b34801561029357600080fd5b506102ae60048036038101906102a99190612ef5565b6109e8565b6040516102bb9190612f63565b60405180910390f35b3480156102d057600080fd5b506102eb60048036038101906102e69190612faa565b610a6d565b005b3480156102f957600080fd5b50610302610b85565b60405161030f9190612f63565b60405180910390f35b34801561032457600080fd5b5061032d610bab565b60405161033a9190612ff9565b60405180910390f35b34801561034f57600080fd5b5061036a60048036038101906103659190613149565b610bb1565b005b34801561037857600080fd5b50610393600480360381019061038e91906131be565b610c47565b005b3480156103a157600080fd5b506103aa610ce0565b6040516103b79190612ff9565b60405180910390f35b3480156103cc57600080fd5b506103e760048036038101906103e291906131eb565b610cf1565b005b6103f1610d51565b005b3480156103ff57600080fd5b5061041a600480360381019061041591906131eb565b610fb4565b005b34801561042857600080fd5b50610443600480360381019061043e919061323e565b610fd4565b6040516104509190613329565b60405180910390f35b34801561046557600080fd5b50610480600480360381019061047b9190612ef5565b6110df565b005b34801561048e57600080fd5b506104a960048036038101906104a49190613149565b611165565b005b3480156104b757600080fd5b506104c06111fb565b6040516104cd9190612de9565b60405180910390f35b3480156104e257600080fd5b506104eb61120e565b6040516104f89190612e9d565b60405180910390f35b34801561050d57600080fd5b5061051661129c565b6040516105239190612de9565b60405180910390f35b34801561053857600080fd5b506105416112af565b60405161054e9190612e9d565b60405180910390f35b34801561056357600080fd5b5061057e60048036038101906105799190612ef5565b61133d565b60405161058b9190612f63565b60405180910390f35b3480156105a057600080fd5b506105bb60048036038101906105b6919061323e565b6113ef565b6040516105c89190612ff9565b60405180910390f35b3480156105dd57600080fd5b506105e66114a7565b005b3480156105f457600080fd5b5061060f600480360381019061060a9190613149565b61152f565b005b34801561061d57600080fd5b506106266115c5565b6040516106339190612f63565b60405180910390f35b34801561064857600080fd5b506106516115ef565b60405161065e9190612ff9565b60405180910390f35b34801561067357600080fd5b5061067c6115f5565b6040516106899190612e9d565b60405180910390f35b6106ac60048036038101906106a79190612ef5565b611687565b005b3480156106ba57600080fd5b506106d560048036038101906106d0919061334b565b6117e1565b005b3480156106e357600080fd5b506106ec6117f7565b6040516106f99190612e9d565b60405180910390f35b34801561070e57600080fd5b5061072960048036038101906107249190612ef5565b611885565b005b34801561073757600080fd5b50610752600480360381019061074d919061342c565b61190b565b005b34801561076057600080fd5b5061077b600480360381019061077691906134af565b61196d565b005b34801561078957600080fd5b506107a4600480360381019061079f9190612ef5565b611aa3565b6040516107b19190612e9d565b60405180910390f35b3480156107c657600080fd5b506107cf611bfc565b6040516107dc9190612ff9565b60405180910390f35b3480156107f157600080fd5b5061080c600480360381019061080791906131be565b611c02565b005b34801561081a57600080fd5b50610835600480360381019061083091906134ef565b611c9b565b6040516108429190612de9565b60405180910390f35b34801561085757600080fd5b50610872600480360381019061086d919061323e565b611d2f565b005b60007f80ac58cd000000000000000000000000000000000000000000000000000000007bffffffffffffffffffffffffffffffffffffffffffffffffffffffff1916827bffffffffffffffffffffffffffffffffffffffffffffffffffffffff1916148061093f57507f5b5e139f000000000000000000000000000000000000000000000000000000007bffffffffffffffffffffffffffffffffffffffffffffffffffffffff1916827bffffffffffffffffffffffffffffffffffffffffffffffffffffffff1916145b8061094f575061094e82611e27565b5b9050919050565b6060600080546109659061355e565b80601f01602080910402602001604051908101604052809291908181526020018280546109919061355e565b80156109de5780601f106109b3576101008083540402835291602001916109de565b820191906000526020600020905b8154815290600101906020018083116109c157829003601f168201915b5050505050905090565b60006109f382611e91565b610a32576040517f08c379a0000000000000000000000000000000000000000000000000000000008152600401610a2990613602565b60405180910390fd5b6004600083815260200190815260200160002060009054906101000a900473ffffffffffffffffffffffffffffffffffffffff169050919050565b6000610a788261133d565b90508073ffffffffffffffffffffffffffffffffffffffff168373ffffffffffffffffffffffffffffffffffffffff161415610ae9576040517f08c379a0000000000000000000000000000000000000000000000000000000008152600401610ae090613694565b60405180910390fd5b8073ffffffffffffffffffffffffffffffffffffffff16610b08611efd565b73ffffffffffffffffffffffffffffffffffffffff161480610b375750610b3681610b31611efd565b611c9b565b5b610b76576040517f08c379a0000000000000000000000000000000000000000000000000000000008152600401610b6d90613726565b60405180910390fd5b610b808383611f05565b505050565b600960009054906101000a900473ffffffffffffffffffffffffffffffffffffffff1681565b600d5481565b610bb9611efd565b73ffffffffffffffffffffffffffffffffffffffff16610bd76115c5565b73ffffffffffffffffffffffffffffffffffffffff1614610c2d576040517f08c379a0000000000000000000000000000000000000000000000000000000008152600401610c2490613792565b60405180910390fd5b80600b9080519060200190610c43929190612c92565b5050565b610c4f611efd565b73ffffffffffffffffffffffffffffffffffffffff16610c6d6115c5565b73ffffffffffffffffffffffffffffffffffffffff1614610cc3576040517f08c379a0000000000000000000000000000000000000000000000000000000008152600401610cba90613792565b60405180910390fd5b80601060006101000a81548160ff02191690831515021790555050565b6000610cec6008611fbe565b905090565b610d02610cfc611efd565b82611fcc565b610d41576040517f08c379a0000000000000000000000000000000000000000000000000000000008152600401610d3890613824565b60405180910390fd5b610d4c8383836120aa565b505050565b610d59611efd565b73ffffffffffffffffffffffffffffffffffffffff16610d776115c5565b73ffffffffffffffffffffffffffffffffffffffff1614610dcd576040517f08c379a0000000000000000000000000000000000000000000000000000000008152600401610dc490613792565b60405180910390fd5b60026007541415610e13576040517f08c379a0000000000000000000000000000000000000000000000000000000008152600401610e0a90613890565b60405180910390fd5b60026007819055506000600960009054906101000a900473ffffffffffffffffffffffffffffffffffffffff1673ffffffffffffffffffffffffffffffffffffffff16600247610e63919061390e565b604051610e6f90613970565b60006040518083038185875af1925050503d8060008114610eac576040519150601f19603f3d011682016040523d82523d6000602084013e610eb1565b606091505b5050905080610ef5576040517f08c379a0000000000000000000000000000000000000000000000000000000008152600401610eec906139d1565b60405180910390fd5b6000610eff6115c5565b73ffffffffffffffffffffffffffffffffffffffff1647604051610f2290613970565b60006040518083038185875af1925050503d8060008114610f5f576040519150601f19603f3d011682016040523d82523d6000602084013e610f64565b606091505b5050905080610fa8576040517f08c379a0000000000000000000000000000000000000000000000000000000008152600401610f9f90613a3d565b60405180910390fd5b50506001600781905550565b610fcf8383836040518060200160405280600081525061190b565b505050565b60606000610fe1836113ef565b905060008167ffffffffffffffff811115610fff57610ffe61301e565b5b60405190808252806020026020018201604052801561102d5781602001602082028036833780820191505090505b50905060006001905060005b838110801561104a5750600e548211155b156110d357600061105a8361133d565b90508673ffffffffffffffffffffffffffffffffffffffff168173ffffffffffffffffffffffffffffffffffffffff1614156110bf57828483815181106110a4576110a3613a5d565b5b60200260200101818152505081806110bb90613a8c565b9250505b82806110ca90613a8c565b93505050611039565b82945050505050919050565b6110e7611efd565b73ffffffffffffffffffffffffffffffffffffffff166111056115c5565b73ffffffffffffffffffffffffffffffffffffffff161461115b576040517f08c379a000000000000000000000000000000000000000000000000000000000815260040161115290613792565b60405180910390fd5b80600d8190555050565b61116d611efd565b73ffffffffffffffffffffffffffffffffffffffff1661118b6115c5565b73ffffffffffffffffffffffffffffffffffffffff16146111e1576040517f08c379a00000000000000000000000000000000000000000000000000000000081526004016111d890613792565b60405180910390fd5b80600c90805190602001906111f7929190612c92565b5050565b601060019054906101000a900460ff1681565b600b805461121b9061355e565b80601f01602080910402602001604051908101604052809291908181526020018280546112479061355e565b80156112945780601f1061126957610100808354040283529160200191611294565b820191906000526020600020905b81548152906001019060200180831161127757829003601f168201915b505050505081565b601060009054906101000a900460ff1681565b600a80546112bc9061355e565b80601f01602080910402602001604051908101604052809291908181526020018280546112e89061355e565b80156113355780601f1061130a57610100808354040283529160200191611335565b820191906000526020600020905b81548152906001019060200180831161131857829003601f168201915b505050505081565b6000806002600084815260200190815260200160002060009054906101000a900473ffffffffffffffffffffffffffffffffffffffff169050600073ffffffffffffffffffffffffffffffffffffffff168173ffffffffffffffffffffffffffffffffffffffff1614156113e6576040517f08c379a00000000000000000000000000000000000000000000000000000000081526004016113dd90613b47565b60405180910390fd5b80915050919050565b60008073ffffffffffffffffffffffffffffffffffffffff168273ffffffffffffffffffffffffffffffffffffffff161415611460576040517f08c379a000000000000000000000000000000000000000000000000000000000815260040161145790613bd9565b60405180910390fd5b600360008373ffffffffffffffffffffffffffffffffffffffff1673ffffffffffffffffffffffffffffffffffffffff168152602001908152602001600020549050919050565b6114af611efd565b73ffffffffffffffffffffffffffffffffffffffff166114cd6115c5565b73ffffffffffffffffffffffffffffffffffffffff1614611523576040517f08c379a000000000000000000000000000000000000000000000000000000000815260040161151a90613792565b60405180910390fd5b61152d6000612311565b565b611537611efd565b73ffffffffffffffffffffffffffffffffffffffff166115556115c5565b73ffffffffffffffffffffffffffffffffffffffff16146115ab576040517f08c379a00000000000000000000000000000000000000000000000000000000081526004016115a290613792565b60405180910390fd5b80600a90805190602001906115c1929190612c92565b5050565b6000600660009054906101000a900473ffffffffffffffffffffffffffffffffffffffff16905090565b600f5481565b6060600180546116049061355e565b80601f01602080910402602001604051908101604052809291908181526020018280546116309061355e565b801561167d5780601f106116525761010080835404028352916020019161167d565b820191906000526020600020905b81548152906001019060200180831161166057829003601f168201915b5050505050905090565b8060008111801561169a5750600f548111155b6116d9576040517f08c379a00000000000000000000000000000000000000000000000000000000081526004016116d090613c45565b60405180910390fd5b600e54816116e76008611fbe565b6116f19190613c65565b1115611732576040517f08c379a000000000000000000000000000000000000000000000000000000000815260040161172990613d07565b60405180910390fd5b601060009054906101000a900460ff1615611782576040517f08c379a000000000000000000000000000000000000000000000000000000000815260040161177990613d73565b60405180910390fd5b61178a6115c5565b73ffffffffffffffffffffffffffffffffffffffff163373ffffffffffffffffffffffffffffffffffffffff16146117d3576117d282600d546117cd9190613d93565b6123d7565b5b6117dd3383612478565b5050565b6117f36117ec611efd565b83836124b8565b5050565b600c80546118049061355e565b80601f01602080910402602001604051908101604052809291908181526020018280546118309061355e565b801561187d5780601f106118525761010080835404028352916020019161187d565b820191906000526020600020905b81548152906001019060200180831161186057829003601f168201915b505050505081565b61188d611efd565b73ffffffffffffffffffffffffffffffffffffffff166118ab6115c5565b73ffffffffffffffffffffffffffffffffffffffff1614611901576040517f08c379a00000000000000000000000000000000000000000000000000000000081526004016118f890613792565b60405180910390fd5b80600f8190555050565b61191c611916611efd565b83611fcc565b61195b576040517f08c379a000000000000000000000000000000000000000000000000000000000815260040161195290613824565b60405180910390fd5b61196784848484612625565b50505050565b816000811180156119805750600f548111155b6119bf576040517f08c379a00000000000000000000000000000000000000000000000000000000081526004016119b690613c45565b60405180910390fd5b600e54816119cd6008611fbe565b6119d79190613c65565b1115611a18576040517f08c379a0000000000000000000000000000000000000000000000000000000008152600401611a0f90613d07565b60405180910390fd5b611a20611efd565b73ffffffffffffffffffffffffffffffffffffffff16611a3e6115c5565b73ffffffffffffffffffffffffffffffffffffffff1614611a94576040517f08c379a0000000000000000000000000000000000000000000000000000000008152600401611a8b90613792565b60405180910390fd5b611a9e8284612478565b505050565b6060611aae82611e91565b611aed576040517f08c379a0000000000000000000000000000000000000000000000000000000008152600401611ae490613e5f565b60405180910390fd5b60001515601060019054906101000a900460ff1615151415611b9b57600c8054611b169061355e565b80601f0160208091040260200160405190810160405280929190818152602001828054611b429061355e565b8015611b8f5780601f10611b6457610100808354040283529160200191611b8f565b820191906000526020600020905b815481529060010190602001808311611b7257829003601f168201915b50505050509050611bf7565b6000611ba5612681565b90506000815111611bc55760405180602001604052806000815250611bf3565b80611bcf84612713565b600b604051602001611be393929190613f4f565b6040516020818303038152906040525b9150505b919050565b600e5481565b611c0a611efd565b73ffffffffffffffffffffffffffffffffffffffff16611c286115c5565b73ffffffffffffffffffffffffffffffffffffffff1614611c7e576040517f08c379a0000000000000000000000000000000000000000000000000000000008152600401611c7590613792565b60405180910390fd5b80601060016101000a81548160ff02191690831515021790555050565b6000600560008473ffffffffffffffffffffffffffffffffffffffff1673ffffffffffffffffffffffffffffffffffffffff16815260200190815260200160002060008373ffffffffffffffffffffffffffffffffffffffff1673ffffffffffffffffffffffffffffffffffffffff16815260200190815260200160002060009054906101000a900460ff16905092915050565b611d37611efd565b73ffffffffffffffffffffffffffffffffffffffff16611d556115c5565b73ffffffffffffffffffffffffffffffffffffffff1614611dab576040517f08c379a0000000000000000000000000000000000000000000000000000000008152600401611da290613792565b60405180910390fd5b600073ffffffffffffffffffffffffffffffffffffffff168173ffffffffffffffffffffffffffffffffffffffff161415611e1b576040517f08c379a0000000000000000000000000000000000000000000000000000000008152600401611e1290613ff2565b60405180910390fd5b611e2481612311565b50565b60007f01ffc9a7000000000000000000000000000000000000000000000000000000007bffffffffffffffffffffffffffffffffffffffffffffffffffffffff1916827bffffffffffffffffffffffffffffffffffffffffffffffffffffffff1916149050919050565b60008073ffffffffffffffffffffffffffffffffffffffff166002600084815260200190815260200160002060009054906101000a900473ffffffffffffffffffffffffffffffffffffffff1673ffffffffffffffffffffffffffffffffffffffff1614159050919050565b600033905090565b816004600083815260200190815260200160002060006101000a81548173ffffffffffffffffffffffffffffffffffffffff021916908373ffffffffffffffffffffffffffffffffffffffff160217905550808273ffffffffffffffffffffffffffffffffffffffff16611f788361133d565b73ffffffffffffffffffffffffffffffffffffffff167f8c5be1e5ebec7d5bd14f71427d1e84f3dd0314c0f7b2291e5b200ac8c7c3b92560405160405180910390a45050565b600081600001549050919050565b6000611fd782611e91565b612016576040517f08c379a000000000000000000000000000000000000000000000000000000000815260040161200d90614084565b60405180910390fd5b60006120218361133d565b90508073ffffffffffffffffffffffffffffffffffffffff168473ffffffffffffffffffffffffffffffffffffffff16148061209057508373ffffffffffffffffffffffffffffffffffffffff16612078846109e8565b73ffffffffffffffffffffffffffffffffffffffff16145b806120a157506120a08185611c9b565b5b91505092915050565b8273ffffffffffffffffffffffffffffffffffffffff166120ca8261133d565b73ffffffffffffffffffffffffffffffffffffffff1614612120576040517f08c379a000000000000000000000000000000000000000000000000000000000815260040161211790614116565b60405180910390fd5b600073ffffffffffffffffffffffffffffffffffffffff168273ffffffffffffffffffffffffffffffffffffffff161415612190576040517f08c379a0000000000000000000000000000000000000000000000000000000008152600401612187906141a8565b60405180910390fd5b61219b838383612874565b6121a6600082611f05565b6001600360008573ffffffffffffffffffffffffffffffffffffffff1673ffffffffffffffffffffffffffffffffffffffff16815260200190815260200160002060008282546121f691906141c8565b925050819055506001600360008473ffffffffffffffffffffffffffffffffffffffff1673ffffffffffffffffffffffffffffffffffffffff168152602001908152602001600020600082825461224d9190613c65565b92505081905550816002600083815260200190815260200160002060006101000a81548173ffffffffffffffffffffffffffffffffffffffff021916908373ffffffffffffffffffffffffffffffffffffffff160217905550808273ffffffffffffffffffffffffffffffffffffffff168473ffffffffffffffffffffffffffffffffffffffff167fddf252ad1be2c89b69c2b068fc378daa952ba7f163c4a11628f55a4df523b3ef60405160405180910390a461230c838383612879565b505050565b6000600660009054906101000a900473ffffffffffffffffffffffffffffffffffffffff16905081600660006101000a81548173ffffffffffffffffffffffffffffffffffffffff021916908373ffffffffffffffffffffffffffffffffffffffff1602179055508173ffffffffffffffffffffffffffffffffffffffff168173ffffffffffffffffffffffffffffffffffffffff167f8be0079c531659141344cd1fd0a4f28419497f9722a3daafe3b4186f6b6457e060405160405180910390a35050565b8034101561241a576040517f08c379a000000000000000000000000000000000000000000000000000000000815260040161241190614248565b60405180910390fd5b80341115612475573373ffffffffffffffffffffffffffffffffffffffff166108fc823461244891906141c8565b9081150290604051600060405180830381858888f19350505050158015612473573d6000803e3d6000fd5b505b50565b60005b818110156124b35761248d600861287e565b6124a08361249b6008611fbe565b612894565b80806124ab90613a8c565b91505061247b565b505050565b8173ffffffffffffffffffffffffffffffffffffffff168373ffffffffffffffffffffffffffffffffffffffff161415612527576040517f08c379a000000000000000000000000000000000000000000000000000000000815260040161251e906142b4565b60405180910390fd5b80600560008573ffffffffffffffffffffffffffffffffffffffff1673ffffffffffffffffffffffffffffffffffffffff16815260200190815260200160002060008473ffffffffffffffffffffffffffffffffffffffff1673ffffffffffffffffffffffffffffffffffffffff16815260200190815260200160002060006101000a81548160ff0219169083151502179055508173ffffffffffffffffffffffffffffffffffffffff168373ffffffffffffffffffffffffffffffffffffffff167f17307eab39ab6107e8899845ad3d59bd9653f200f220920489ca2b5937696c31836040516126189190612de9565b60405180910390a3505050565b6126308484846120aa565b61263c848484846128b2565b61267b576040517f08c379a000000000000000000000000000000000000000000000000000000000815260040161267290614346565b60405180910390fd5b50505050565b6060600a80546126909061355e565b80601f01602080910402602001604051908101604052809291908181526020018280546126bc9061355e565b80156127095780601f106126de57610100808354040283529160200191612709565b820191906000526020600020905b8154815290600101906020018083116126ec57829003601f168201915b5050505050905090565b6060600082141561275b576040518060400160405280600181526020017f3000000000000000000000000000000000000000000000000000000000000000815250905061286f565b600082905060005b6000821461278d57808061277690613a8c565b915050600a82612786919061390e565b9150612763565b60008167ffffffffffffffff8111156127a9576127a861301e565b5b6040519080825280601f01601f1916602001820160405280156127db5781602001600182028036833780820191505090505b5090505b60008514612868576001826127f491906141c8565b9150600a856128039190614366565b603061280f9190613c65565b60f81b81838151811061282557612824613a5d565b5b60200101907effffffffffffffffffffffffffffffffffffffffffffffffffffffffffffff1916908160001a905350600a85612861919061390e565b94506127df565b8093505050505b919050565b505050565b505050565b6001816000016000828254019250508190555050565b6128ae828260405180602001604052806000815250612a3a565b5050565b60006128d38473ffffffffffffffffffffffffffffffffffffffff16612a95565b15612a2d578373ffffffffffffffffffffffffffffffffffffffff1663150b7a026128fc611efd565b8786866040518563ffffffff1660e01b815260040161291e94939291906143ec565b6020604051808303816000875af192505050801561295a57506040513d601f19601f82011682018060405250810190612957919061444d565b60015b6129dd573d806000811461298a576040519150601f19603f3d011682016040523d82523d6000602084013e61298f565b606091505b506000815114156129d5576040517f08c379a00000000000000000000000000000000000000000000000000000000081526004016129cc90614346565b60405180910390fd5b805181602001fd5b63150b7a0260e01b7bffffffffffffffffffffffffffffffffffffffffffffffffffffffff1916817bffffffffffffffffffffffffffffffffffffffffffffffffffffffff191614915050612a32565b600190505b949350505050565b612a448383612ab8565b612a5160008484846128b2565b612a90576040517f08c379a0000000000000000000000000000000000000000000000000000000008152600401612a8790614346565b60405180910390fd5b505050565b6000808273ffffffffffffffffffffffffffffffffffffffff163b119050919050565b600073ffffffffffffffffffffffffffffffffffffffff168273ffffffffffffffffffffffffffffffffffffffff161415612b28576040517f08c379a0000000000000000000000000000000000000000000000000000000008152600401612b1f906144c6565b60405180910390fd5b612b3181611e91565b15612b71576040517f08c379a0000000000000000000000000000000000000000000000000000000008152600401612b6890614532565b60405180910390fd5b612b7d60008383612874565b6001600360008473ffffffffffffffffffffffffffffffffffffffff1673ffffffffffffffffffffffffffffffffffffffff1681526020019081526020016000206000828254612bcd9190613c65565b92505081905550816002600083815260200190815260200160002060006101000a81548173ffffffffffffffffffffffffffffffffffffffff021916908373ffffffffffffffffffffffffffffffffffffffff160217905550808273ffffffffffffffffffffffffffffffffffffffff16600073ffffffffffffffffffffffffffffffffffffffff167fddf252ad1be2c89b69c2b068fc378daa952ba7f163c4a11628f55a4df523b3ef60405160405180910390a4612c8e60008383612879565b5050565b828054612c9e9061355e565b90600052602060002090601f016020900481019282612cc05760008555612d07565b82601f10612cd957805160ff1916838001178555612d07565b82800160010185558215612d07579182015b82811115612d06578251825591602001919060010190612ceb565b5b509050612d149190612d18565b5090565b5b80821115612d31576000816000905550600101612d19565b5090565b6000604051905090565b600080fd5b600080fd5b60007fffffffff0000000000000000000000000000000000000000000000000000000082169050919050565b612d7e81612d49565b8114612d8957600080fd5b50565b600081359050612d9b81612d75565b92915050565b600060208284031215612db757612db6612d3f565b5b6000612dc584828501612d8c565b91505092915050565b60008115159050919050565b612de381612dce565b82525050565b6000602082019050612dfe6000830184612dda565b92915050565b600081519050919050565b600082825260208201905092915050565b60005b83811015612e3e578082015181840152602081019050612e23565b83811115612e4d576000848401525b50505050565b6000601f19601f8301169050919050565b6000612e6f82612e04565b612e798185612e0f565b9350612e89818560208601612e20565b612e9281612e53565b840191505092915050565b60006020820190508181036000830152612eb78184612e64565b905092915050565b6000819050919050565b612ed281612ebf565b8114612edd57600080fd5b50565b600081359050612eef81612ec9565b92915050565b600060208284031215612f0b57612f0a612d3f565b5b6000612f1984828501612ee0565b91505092915050565b600073ffffffffffffffffffffffffffffffffffffffff82169050919050565b6000612f4d82612f22565b9050919050565b612f5d81612f42565b82525050565b6000602082019050612f786000830184612f54565b92915050565b612f8781612f42565b8114612f9257600080fd5b50565b600081359050612fa481612f7e565b92915050565b60008060408385031215612fc157612fc0612d3f565b5b6000612fcf85828601612f95565b9250506020612fe085828601612ee0565b9150509250929050565b612ff381612ebf565b82525050565b600060208201905061300e6000830184612fea565b92915050565b600080fd5b600080fd5b7f4e487b7100000000000000000000000000000000000000000000000000000000600052604160045260246000fd5b61305682612e53565b810181811067ffffffffffffffff821117156130755761307461301e565b5b80604052505050565b6000613088612d35565b9050613094828261304d565b919050565b600067ffffffffffffffff8211156130b4576130b361301e565b5b6130bd82612e53565b9050602081019050919050565b82818337600083830152505050565b60006130ec6130e784613099565b61307e565b90508281526020810184848401111561310857613107613019565b5b6131138482856130ca565b509392505050565b600082601f8301126131305761312f613014565b5b81356131408482602086016130d9565b91505092915050565b60006020828403121561315f5761315e612d3f565b5b600082013567ffffffffffffffff81111561317d5761317c612d44565b5b6131898482850161311b565b91505092915050565b61319b81612dce565b81146131a657600080fd5b50565b6000813590506131b881613192565b92915050565b6000602082840312156131d4576131d3612d3f565b5b60006131e2848285016131a9565b91505092915050565b60008060006060848603121561320457613203612d3f565b5b600061321286828701612f95565b935050602061322386828701612f95565b925050604061323486828701612ee0565b9150509250925092565b60006020828403121561325457613253612d3f565b5b600061326284828501612f95565b91505092915050565b600081519050919050565b600082825260208201905092915050565b6000819050602082019050919050565b6132a081612ebf565b82525050565b60006132b28383613297565b60208301905092915050565b6000602082019050919050565b60006132d68261326b565b6132e08185613276565b93506132eb83613287565b8060005b8381101561331c57815161330388826132a6565b975061330e836132be565b9250506001810190506132ef565b5085935050505092915050565b6000602082019050818103600083015261334381846132cb565b905092915050565b6000806040838503121561336257613361612d3f565b5b600061337085828601612f95565b9250506020613381858286016131a9565b9150509250929050565b600067ffffffffffffffff8211156133a6576133a561301e565b5b6133af82612e53565b9050602081019050919050565b60006133cf6133ca8461338b565b61307e565b9050828152602081018484840111156133eb576133ea613019565b5b6133f68482856130ca565b509392505050565b600082601f83011261341357613412613014565b5b81356134238482602086016133bc565b91505092915050565b6000806000806080858703121561344657613445612d3f565b5b600061345487828801612f95565b945050602061346587828801612f95565b935050604061347687828801612ee0565b925050606085013567ffffffffffffffff81111561349757613496612d44565b5b6134a3878288016133fe565b91505092959194509250565b600080604083850312156134c6576134c5612d3f565b5b60006134d485828601612ee0565b92505060206134e585828601612f95565b9150509250929050565b6000806040838503121561350657613505612d3f565b5b600061351485828601612f95565b925050602061352585828601612f95565b9150509250929050565b7f4e487b7100000000000000000000000000000000000000000000000000000000600052602260045260246000fd5b6000600282049050600182168061357657607f821691505b6020821081141561358a5761358961352f565b5b50919050565b7f4552433732313a20617070726f76656420717565727920666f72206e6f6e657860008201527f697374656e7420746f6b656e0000000000000000000000000000000000000000602082015250565b60006135ec602c83612e0f565b91506135f782613590565b604082019050919050565b6000602082019050818103600083015261361b816135df565b9050919050565b7f4552433732313a20617070726f76616c20746f2063757272656e74206f776e6560008201527f7200000000000000000000000000000000000000000000000000000000000000602082015250565b600061367e602183612e0f565b915061368982613622565b604082019050919050565b600060208201905081810360008301526136ad81613671565b9050919050565b7f4552433732313a20617070726f76652063616c6c6572206973206e6f74206f7760008201527f6e6572206e6f7220617070726f76656420666f7220616c6c0000000000000000602082015250565b6000613710603883612e0f565b915061371b826136b4565b604082019050919050565b6000602082019050818103600083015261373f81613703565b9050919050565b7f4f776e61626c653a2063616c6c6572206973206e6f7420746865206f776e6572600082015250565b600061377c602083612e0f565b915061378782613746565b602082019050919050565b600060208201905081810360008301526137ab8161376f565b9050919050565b7f4552433732313a207472616e736665722063616c6c6572206973206e6f74206f60008201527f776e6572206e6f7220617070726f766564000000000000000000000000000000602082015250565b600061380e603183612e0f565b9150613819826137b2565b604082019050919050565b6000602082019050818103600083015261383d81613801565b9050919050565b7f5265656e7472616e637947756172643a207265656e7472616e742063616c6c00600082015250565b600061387a601f83612e0f565b915061388582613844565b602082019050919050565b600060208201905081810360008301526138a98161386d565b9050919050565b7f4e487b7100000000000000000000000000000000000000000000000000000000600052601260045260246000fd5b7f4e487b7100000000000000000000000000000000000000000000000000000000600052601160045260246000fd5b600061391982612ebf565b915061392483612ebf565b925082613934576139336138b0565b5b828204905092915050565b600081905092915050565b50565b600061395a60008361393f565b91506139658261394a565b600082019050919050565b600061397b8261394d565b9150819050919050565b7f436f2d666f756e646572205472616e73666572206661696c65642e0000000000600082015250565b60006139bb601b83612e0f565b91506139c682613985565b602082019050919050565b600060208201905081810360008301526139ea816139ae565b9050919050565b7f5472616e73666572206661696c65642e00000000000000000000000000000000600082015250565b6000613a27601083612e0f565b9150613a32826139f1565b602082019050919050565b60006020820190508181036000830152613a5681613a1a565b9050919050565b7f4e487b7100000000000000000000000000000000000000000000000000000000600052603260045260246000fd5b6000613a9782612ebf565b91507fffffffffffffffffffffffffffffffffffffffffffffffffffffffffffffffff821415613aca57613ac96138df565b5b600182019050919050565b7f4552433732313a206f776e657220717565727920666f72206e6f6e657869737460008201527f656e7420746f6b656e0000000000000000000000000000000000000000000000602082015250565b6000613b31602983612e0f565b9150613b3c82613ad5565b604082019050919050565b60006020820190508181036000830152613b6081613b24565b9050919050565b7f4552433732313a2062616c616e636520717565727920666f7220746865207a6560008201527f726f206164647265737300000000000000000000000000000000000000000000602082015250565b6000613bc3602a83612e0f565b9150613bce82613b67565b604082019050919050565b60006020820190508181036000830152613bf281613bb6565b9050919050565b7f496e76616c6964206d696e7420616d6f756e7421000000000000000000000000600082015250565b6000613c2f601483612e0f565b9150613c3a82613bf9565b602082019050919050565b60006020820190508181036000830152613c5e81613c22565b9050919050565b6000613c7082612ebf565b9150613c7b83612ebf565b9250827fffffffffffffffffffffffffffffffffffffffffffffffffffffffffffffffff03821115613cb057613caf6138df565b5b828201905092915050565b7f4d617820737570706c7920657863656564656421000000000000000000000000600082015250565b6000613cf1601483612e0f565b9150613cfc82613cbb565b602082019050919050565b60006020820190508181036000830152613d2081613ce4565b9050919050565b7f54686520636f6e74726163742069732070617573656421000000000000000000600082015250565b6000613d5d601783612e0f565b9150613d6882613d27565b602082019050919050565b60006020820190508181036000830152613d8c81613d50565b9050919050565b6000613d9e82612ebf565b9150613da983612ebf565b9250817fffffffffffffffffffffffffffffffffffffffffffffffffffffffffffffffff0483118215151615613de257613de16138df565b5b828202905092915050565b7f4552433732314d657461646174613a2055524920717565727920666f72206e6f60008201527f6e6578697374656e7420746f6b656e0000000000000000000000000000000000602082015250565b6000613e49602f83612e0f565b9150613e5482613ded565b604082019050919050565b60006020820190508181036000830152613e7881613e3c565b9050919050565b600081905092915050565b6000613e9582612e04565b613e9f8185613e7f565b9350613eaf818560208601612e20565b80840191505092915050565b60008190508160005260206000209050919050565b60008154613edd8161355e565b613ee78186613e7f565b94506001821660008114613f025760018114613f1357613f46565b60ff19831686528186019350613f46565b613f1c85613ebb565b60005b83811015613f3e57815481890152600182019150602081019050613f1f565b838801955050505b50505092915050565b6000613f5b8286613e8a565b9150613f678285613e8a565b9150613f738284613ed0565b9150819050949350505050565b7f4f776e61626c653a206e6577206f776e657220697320746865207a65726f206160008201527f6464726573730000000000000000000000000000000000000000000000000000602082015250565b6000613fdc602683612e0f565b9150613fe782613f80565b604082019050919050565b6000602082019050818103600083015261400b81613fcf565b9050919050565b7f4552433732313a206f70657261746f7220717565727920666f72206e6f6e657860008201527f697374656e7420746f6b656e0000000000000000000000000000000000000000602082015250565b600061406e602c83612e0f565b915061407982614012565b604082019050919050565b6000602082019050818103600083015261409d81614061565b9050919050565b7f4552433732313a207472616e736665722066726f6d20696e636f72726563742060008201527f6f776e6572000000000000000000000000000000000000000000000000000000602082015250565b6000614100602583612e0f565b915061410b826140a4565b604082019050919050565b6000602082019050818103600083015261412f816140f3565b9050919050565b7f4552433732313a207472616e7366657220746f20746865207a65726f2061646460008201527f7265737300000000000000000000000000000000000000000000000000000000602082015250565b6000614192602483612e0f565b915061419d82614136565b604082019050919050565b600060208201905081810360008301526141c181614185565b9050919050565b60006141d382612ebf565b91506141de83612ebf565b9250828210156141f1576141f06138df565b5b828203905092915050565b7f4e65656420746f2073656e64206d6f7265204554482e00000000000000000000600082015250565b6000614232601683612e0f565b915061423d826141fc565b602082019050919050565b6000602082019050818103600083015261426181614225565b9050919050565b7f4552433732313a20617070726f766520746f2063616c6c657200000000000000600082015250565b600061429e601983612e0f565b91506142a982614268565b602082019050919050565b600060208201905081810360008301526142cd81614291565b9050919050565b7f4552433732313a207472616e7366657220746f206e6f6e20455243373231526560008201527f63656976657220696d706c656d656e7465720000000000000000000000000000602082015250565b6000614330603283612e0f565b915061433b826142d4565b604082019050919050565b6000602082019050818103600083015261435f81614323565b9050919050565b600061437182612ebf565b915061437c83612ebf565b92508261438c5761438b6138b0565b5b828206905092915050565b600081519050919050565b600082825260208201905092915050565b60006143be82614397565b6143c881856143a2565b93506143d8818560208601612e20565b6143e181612e53565b840191505092915050565b60006080820190506144016000830187612f54565b61440e6020830186612f54565b61441b6040830185612fea565b818103606083015261442d81846143b3565b905095945050505050565b60008151905061444781612d75565b92915050565b60006020828403121561446357614462612d3f565b5b600061447184828501614438565b91505092915050565b7f4552433732313a206d696e7420746f20746865207a65726f2061646472657373600082015250565b60006144b0602083612e0f565b91506144bb8261447a565b602082019050919050565b600060208201905081810360008301526144df816144a3565b9050919050565b7f4552433732313a20746f6b656e20616c7265616479206d696e74656400000000600082015250565b600061451c601c83612e0f565b9150614527826144e6565b602082019050919050565b6000602082019050818103600083015261454b8161450f565b905091905056fea2646970667358221220404bb4212de4d468ec2ba32bd5887eb096da4963094f32d300541d2105adf80464736f6c634300080b0033697066733a2f2f706174685f746f5f68696464656e5f697066732f68696464656e2e6a736f6e",
  "linkReferences": {},
  "deployedLinkReferences": {}
}