{
  "_format": "hh-sol-artifact-1",
  "contractName": "ERC721WL",
  "sourceName": "cache/solpp-generated-contracts/ERC721WL.sol",
  "abi": [
    {
      "inputs": [],
      "stateMutability": "nonpayable",
      "type": "constructor"
    },
    {
      "inputs": [],
      "name": "AlreadyMinted",
      "type": "error"
    },
    {
      "inputs": [],
      "name": "InvalidPrice",
      "type": "error"
    },
    {
      "inputs": [],
      "name": "InvalidSignature",
      "type": "error"
    },
    {
      "inputs": [],
      "name": "InvalidSignerAddress",
      "type": "error"
    },
    {
      "inputs": [],
      "name": "InvalidSpotId",
      "type": "error"
    },
    {
      "inputs": [],
      "name": "NoBots",
      "type": "error"
    },
    {
      "inputs": [],
      "name": "SaleInactive",
      "type": "error"
    },
    {
      "inputs": [],
      "name": "SoldOut",
      "type": "error"
    },
    {
      "inputs": [],
      "name": "WithdrawFailed",
      "type": "error"
    },
    {
      "anonymous": false,
      "inputs": [
        {
          "indexed": true,
          "internalType": "address",
          "name": "owner",
          "type": "address"
        },
        {
          "indexed": true,
          "internalType": "address",
          "name": "approved",
          "type": "address"
        },
        {
          "indexed": true,
          "internalType": "uint256",
          "name": "tokenId",
          "type": "uint256"
        }
      ],
      "name": "Approval",
      "type": "event"
    },
    {
      "anonymous": false,
      "inputs": [
        {
          "indexed": true,
          "internalType": "address",
          "name": "owner",
          "type": "address"
        },
        {
          "indexed": true,
          "internalType": "address",
          "name": "operator",
          "type": "address"
        },
        {
          "indexed": false,
          "internalType": "bool",
          "name": "approved",
          "type": "bool"
        }
      ],
      "name": "ApprovalForAll",
      "type": "event"
    },
    {
      "anonymous": false,
      "inputs": [
        {
          "indexed": true,
          "internalType": "address",
          "name": "previousOwner",
          "type": "address"
        },
        {
          "indexed": true,
          "internalType": "address",
          "name": "newOwner",
          "type": "address"
        }
      ],
      "name": "OwnershipTransferred",
      "type": "event"
    },
    {
      "anonymous": false,
      "inputs": [
        {
          "indexed": true,
          "internalType": "address",
          "name": "from",
          "type": "address"
        },
        {
          "indexed": true,
          "internalType": "address",
          "name": "to",
          "type": "address"
        },
        {
          "indexed": true,
          "internalType": "uint256",
          "name": "tokenId",
          "type": "uint256"
        }
      ],
      "name": "Transfer",
      "type": "event"
    },
    {
      "inputs": [],
      "name": "_baseTokenURI",
      "outputs": [
        {
          "internalType": "string",
          "name": "",
          "type": "string"
        }
      ],
      "stateMutability": "view",
      "type": "function"
    },
    {
      "inputs": [
        {
          "internalType": "bytes[]",
          "name": "_signatures",
          "type": "bytes[]"
        },
        {
          "internalType": "uint256[]",
          "name": "spotIds",
          "type": "uint256[]"
        }
      ],
      "name": "allowlistMint",
      "outputs": [],
      "stateMutability": "payable",
      "type": "function"
    },
    {
      "inputs": [
        {
          "internalType": "address",
          "name": "to",
          "type": "address"
        },
        {
          "internalType": "uint256",
          "name": "tokenId",
          "type": "uint256"
        }
      ],
      "name": "approve",
      "outputs": [],
      "stateMutability": "nonpayable",
      "type": "function"
    },
    {
      "inputs": [
        {
          "internalType": "address",
          "name": "owner",
          "type": "address"
        }
      ],
      "name": "balanceOf",
      "outputs": [
        {
          "internalType": "uint256",
          "name": "",
          "type": "uint256"
        }
      ],
      "stateMutability": "view",
      "type": "function"
    },
    {
      "inputs": [
        {
          "internalType": "address",
          "name": "receiver",
          "type": "address"
        },
        {
          "internalType": "uint256",
          "name": "_quantity",
          "type": "uint256"
        }
      ],
      "name": "devMint",
      "outputs": [],
      "stateMutability": "nonpayable",
      "type": "function"
    },
    {
      "inputs": [
        {
          "internalType": "uint256",
          "name": "tokenId",
          "type": "uint256"
        }
      ],
      "name": "getApproved",
      "outputs": [
        {
          "internalType": "address",
          "name": "",
          "type": "address"
        }
      ],
      "stateMutability": "view",
      "type": "function"
    },
    {
      "inputs": [
        {
          "internalType": "address",
          "name": "owner",
          "type": "address"
        },
        {
          "internalType": "address",
          "name": "operator",
          "type": "address"
        }
      ],
      "name": "isApprovedForAll",
      "outputs": [
        {
          "internalType": "bool",
          "name": "",
          "type": "bool"
        }
      ],
      "stateMutability": "view",
      "type": "function"
    },
    {
      "inputs": [
        {
          "internalType": "uint256",
          "name": "spotId",
          "type": "uint256"
        }
      ],
      "name": "isValidSpot",
      "outputs": [
        {
          "internalType": "bool",
          "name": "",
          "type": "bool"
        }
      ],
      "stateMutability": "view",
      "type": "function"
    },
    {
      "inputs": [],
      "name": "maxMintAmountPerTx",
      "outputs": [
        {
          "internalType": "uint256",
          "name": "",
          "type": "uint256"
        }
      ],
      "stateMutability": "view",
      "type": "function"
    },
    {
      "inputs": [],
      "name": "maxSupply",
      "outputs": [
        {
          "internalType": "uint256",
          "name": "",
          "type": "uint256"
        }
      ],
      "stateMutability": "view",
      "type": "function"
    },
    {
      "inputs": [
        {
          "internalType": "uint256",
          "name": "_quantity",
          "type": "uint256"
        }
      ],
      "name": "mint",
      "outputs": [],
      "stateMutability": "payable",
      "type": "function"
    },
    {
      "inputs": [],
      "name": "name",
      "outputs": [
        {
          "internalType": "string",
          "name": "",
          "type": "string"
        }
      ],
      "stateMutability": "view",
      "type": "function"
    },
    {
      "inputs": [],
      "name": "nextTokenId",
      "outputs": [
        {
          "internalType": "uint256",
          "name": "",
          "type": "uint256"
        }
      ],
      "stateMutability": "view",
      "type": "function"
    },
    {
      "inputs": [],
      "name": "owner",
      "outputs": [
        {
          "internalType": "address",
          "name": "",
          "type": "address"
        }
      ],
      "stateMutability": "view",
      "type": "function"
    },
    {
      "inputs": [
        {
          "internalType": "uint256",
          "name": "tokenId",
          "type": "uint256"
        }
      ],
      "name": "ownerOf",
      "outputs": [
        {
          "internalType": "address",
          "name": "",
          "type": "address"
        }
      ],
      "stateMutability": "view",
      "type": "function"
    },
    {
      "inputs": [],
      "name": "presaleActive",
      "outputs": [
        {
          "internalType": "bool",
          "name": "",
          "type": "bool"
        }
      ],
      "stateMutability": "view",
      "type": "function"
    },
    {
      "inputs": [],
      "name": "price",
      "outputs": [
        {
          "internalType": "uint256",
          "name": "",
          "type": "uint256"
        }
      ],
      "stateMutability": "view",
      "type": "function"
    },
    {
      "inputs": [],
      "name": "publicSaleActive",
      "outputs": [
        {
          "internalType": "bool",
          "name": "",
          "type": "bool"
        }
      ],
      "stateMutability": "view",
      "type": "function"
    },
    {
      "inputs": [],
      "name": "renounceOwnership",
      "outputs": [],
      "stateMutability": "nonpayable",
      "type": "function"
    },
    {
      "inputs": [
        {
          "internalType": "address",
          "name": "from",
          "type": "address"
        },
        {
          "internalType": "address",
          "name": "to",
          "type": "address"
        },
        {
          "internalType": "uint256",
          "name": "tokenId",
          "type": "uint256"
        }
      ],
      "name": "safeTransferFrom",
      "outputs": [],
      "stateMutability": "nonpayable",
      "type": "function"
    },
    {
      "inputs": [
        {
          "internalType": "address",
          "name": "from",
          "type": "address"
        },
        {
          "internalType": "address",
          "name": "to",
          "type": "address"
        },
        {
          "internalType": "uint256",
          "name": "tokenId",
          "type": "uint256"
        },
        {
          "internalType": "bytes",
          "name": "_data",
          "type": "bytes"
        }
      ],
      "name": "safeTransferFrom",
      "outputs": [],
      "stateMutability": "nonpayable",
      "type": "function"
    },
    {
      "inputs": [
        {
          "internalType": "address",
          "name": "operator",
          "type": "address"
        },
        {
          "internalType": "bool",
          "name": "approved",
          "type": "bool"
        }
      ],
      "name": "setApprovalForAll",
      "outputs": [],
      "stateMutability": "nonpayable",
      "type": "function"
    },
    {
      "inputs": [
        {
          "internalType": "string",
          "name": "baseURI",
          "type": "string"
        }
      ],
      "name": "setBaseURI",
      "outputs": [],
      "stateMutability": "nonpayable",
      "type": "function"
    },
    {
      "inputs": [
        {
          "internalType": "uint256",
          "name": "num",
          "type": "uint256"
        }
      ],
      "name": "setClaimGroups",
      "outputs": [],
      "stateMutability": "nonpayable",
      "type": "function"
    },
    {
      "inputs": [
        {
          "internalType": "uint256",
          "name": "_maxMintAmountPerTx",
          "type": "uint256"
        }
      ],
      "name": "setMaxMintAmountPerTx",
      "outputs": [],
      "stateMutability": "nonpayable",
      "type": "function"
    },
    {
      "inputs": [
        {
          "internalType": "bool",
          "name": "_state",
          "type": "bool"
        }
      ],
      "name": "setPresaleState",
      "outputs": [],
      "stateMutability": "nonpayable",
      "type": "function"
    },
    {
      "inputs": [
        {
          "internalType": "uint256",
          "name": "_price",
          "type": "uint256"
        }
      ],
      "name": "setPrice",
      "outputs": [],
      "stateMutability": "nonpayable",
      "type": "function"
    },
    {
      "inputs": [
        {
          "internalType": "bool",
          "name": "_state",
          "type": "bool"
        }
      ],
      "name": "setPublicSaleState",
      "outputs": [],
      "stateMutability": "nonpayable",
      "type": "function"
    },
    {
      "inputs": [
        {
          "internalType": "address",
          "name": "_signer",
          "type": "address"
        }
      ],
      "name": "setSigner",
      "outputs": [],
      "stateMutability": "nonpayable",
      "type": "function"
    },
    {
      "inputs": [
        {
          "internalType": "bytes4",
          "name": "interfaceId",
          "type": "bytes4"
        }
      ],
      "name": "supportsInterface",
      "outputs": [
        {
          "internalType": "bool",
          "name": "",
          "type": "bool"
        }
      ],
      "stateMutability": "view",
      "type": "function"
    },
    {
      "inputs": [],
      "name": "symbol",
      "outputs": [
        {
          "internalType": "string",
          "name": "",
          "type": "string"
        }
      ],
      "stateMutability": "view",
      "type": "function"
    },
    {
      "inputs": [
        {
          "internalType": "uint256",
          "name": "tokenId",
          "type": "uint256"
        }
      ],
      "name": "tokenURI",
      "outputs": [
        {
          "internalType": "string",
          "name": "",
          "type": "string"
        }
      ],
      "stateMutability": "view",
      "type": "function"
    },
    {
      "inputs": [
        {
          "internalType": "address",
          "name": "wallet",
          "type": "address"
        }
      ],
      "name": "tokensOf",
      "outputs": [
        {
          "internalType": "uint256[]",
          "name": "",
          "type": "uint256[]"
        }
      ],
      "stateMutability": "view",
      "type": "function"
    },
    {
      "inputs": [],
      "name": "totalSupply",
      "outputs": [
        {
          "internalType": "uint256",
          "name": "",
          "type": "uint256"
        }
      ],
      "stateMutability": "view",
      "type": "function"
    },
    {
      "inputs": [
        {
          "internalType": "address",
          "name": "from",
          "type": "address"
        },
        {
          "internalType": "address",
          "name": "to",
          "type": "address"
        },
        {
          "internalType": "uint256",
          "name": "tokenId",
          "type": "uint256"
        }
      ],
      "name": "transferFrom",
      "outputs": [],
      "stateMutability": "nonpayable",
      "type": "function"
    },
    {
      "inputs": [
        {
          "internalType": "address",
          "name": "newOwner",
          "type": "address"
        }
      ],
      "name": "transferOwnership",
      "outputs": [],
      "stateMutability": "nonpayable",
      "type": "function"
    },
    {
      "inputs": [],
      "name": "withdraw",
      "outputs": [],
      "stateMutability": "payable",
      "type": "function"
    }
  ],
  "bytecode": "0x60806040526000600860006101000a81548173ffffffffffffffffffffffffffffffffffffffff021916908373ffffffffffffffffffffffffffffffffffffffff1602179055506001600a55662386f26fc10000600b556005600c556000600d60006101000a81548160ff0219169083151502179055506000600d60016101000a81548160ff0219169083151502179055503480156200009e57600080fd5b506040518060400160405280600481526020017f54657374000000000000000000000000000000000000000000000000000000008152506040518060400160405280600481526020017f544553540000000000000000000000000000000000000000000000000000000081525081600090805190602001906200012392919062000281565b5080600190805190602001906200013c92919062000281565b5050506200015f62000153620001b360201b60201c565b620001bb60201b60201c565b6040518060400160405280601b81526020017f697066733a2f2f706174685f746f5f68696464656e5f697066732f000000000081525060099080519060200190620001ac92919062000281565b5062000396565b600033905090565b6000600660009054906101000a900473ffffffffffffffffffffffffffffffffffffffff16905081600660006101000a81548173ffffffffffffffffffffffffffffffffffffffff021916908373ffffffffffffffffffffffffffffffffffffffff1602179055508173ffffffffffffffffffffffffffffffffffffffff168173ffffffffffffffffffffffffffffffffffffffff167f8be0079c531659141344cd1fd0a4f28419497f9722a3daafe3b4186f6b6457e060405160405180910390a35050565b8280546200028f9062000360565b90600052602060002090601f016020900481019282620002b35760008555620002ff565b82601f10620002ce57805160ff1916838001178555620002ff565b82800160010185558215620002ff579182015b82811115620002fe578251825591602001919060010190620002e1565b5b5090506200030e919062000312565b5090565b5b808211156200032d57600081600090555060010162000313565b5090565b7f4e487b7100000000000000000000000000000000000000000000000000000000600052602260045260246000fd5b600060028204905060018216806200037957607f821691505b6020821081141562000390576200038f62000331565b5b50919050565b614d3f80620003a66000396000f3fe60806040526004361061021a5760003560e01c80638da5cb5b11610123578063b071401b116100ab578063cfc86f7b1161006f578063cfc86f7b1461077e578063d5abeb01146107a9578063e985e9c5146107d4578063f04fdc3114610811578063f2fde38b1461084e5761021a565b8063b071401b1461069b578063b88d4fde146106c4578063bc8893b4146106ed578063bce4d6ae14610718578063c87b56dd146107415761021a565b806395d89b41116100f257806395d89b41146105d7578063a035b1fe14610602578063a0712d681461062d578063a22cb46514610649578063abd3784e146106725761021a565b80638da5cb5b1461052f57806391b7f5ed1461055a5780639293a5c71461058357806394354fd0146105ac5761021a565b806355f804b3116101a65780636c19e783116101755780636c19e7831461046b57806370a0823114610494578063715018a6146104d157806375794a3c146104e857806380c47a29146105135761021a565b806355f804b31461039f5780635a3f2672146103c8578063627804af146104055780636352211e1461042e5761021a565b806318160ddd116101ed57806318160ddd146102ed57806323b872dd146103185780633ccfd60b1461034157806342842e0e1461034b57806353135ca0146103745761021a565b806301ffc9a71461021f57806306fdde031461025c578063081812fc14610287578063095ea7b3146102c4575b600080fd5b34801561022b57600080fd5b50610246600480360381019061024191906133b7565b610877565b60405161025391906133ff565b60405180910390f35b34801561026857600080fd5b50610271610959565b60405161027e91906134b3565b60405180910390f35b34801561029357600080fd5b506102ae60048036038101906102a9919061350b565b6109eb565b6040516102bb9190613579565b60405180910390f35b3480156102d057600080fd5b506102eb60048036038101906102e691906135c0565b610a70565b005b3480156102f957600080fd5b50610302610b88565b60405161030f919061360f565b60405180910390f35b34801561032457600080fd5b5061033f600480360381019061033a919061362a565b610b9e565b005b610349610bfe565b005b34801561035757600080fd5b50610372600480360381019061036d919061362a565b610d27565b005b34801561038057600080fd5b50610389610d47565b60405161039691906133ff565b60405180910390f35b3480156103ab57600080fd5b506103c660048036038101906103c191906137b2565b610d5a565b005b3480156103d457600080fd5b506103ef60048036038101906103ea91906137fb565b610df0565b6040516103fc91906138e6565b60405180910390f35b34801561041157600080fd5b5061042c600480360381019061042791906135c0565b610eea565b005b34801561043a57600080fd5b506104556004803603810190610450919061350b565b610ffc565b6040516104629190613579565b60405180910390f35b34801561047757600080fd5b50610492600480360381019061048d91906137fb565b6110ae565b005b3480156104a057600080fd5b506104bb60048036038101906104b691906137fb565b611136565b6040516104c8919061360f565b60405180910390f35b3480156104dd57600080fd5b506104e66111ee565b005b3480156104f457600080fd5b506104fd611276565b60405161050a919061360f565b60405180910390f35b61052d600480360381019061052891906139be565b61127c565b005b34801561053b57600080fd5b50610544611453565b6040516105519190613579565b60405180910390f35b34801561056657600080fd5b50610581600480360381019061057c919061350b565b61147d565b005b34801561058f57600080fd5b506105aa60048036038101906105a59190613a6b565b611503565b005b3480156105b857600080fd5b506105c161159c565b6040516105ce919061360f565b60405180910390f35b3480156105e357600080fd5b506105ec6115a2565b6040516105f991906134b3565b60405180910390f35b34801561060e57600080fd5b50610617611634565b604051610624919061360f565b60405180910390f35b6106476004803603810190610642919061350b565b61163a565b005b34801561065557600080fd5b50610670600480360381019061066b9190613a98565b6117be565b005b34801561067e57600080fd5b506106996004803603810190610694919061350b565b6117d4565b005b3480156106a757600080fd5b506106c260048036038101906106bd919061350b565b61185c565b005b3480156106d057600080fd5b506106eb60048036038101906106e69190613b79565b6118e2565b005b3480156106f957600080fd5b50610702611944565b60405161070f91906133ff565b60405180910390f35b34801561072457600080fd5b5061073f600480360381019061073a9190613a6b565b611957565b005b34801561074d57600080fd5b506107686004803603810190610763919061350b565b6119f0565b60405161077591906134b3565b60405180910390f35b34801561078a57600080fd5b50610793611a97565b6040516107a091906134b3565b60405180910390f35b3480156107b557600080fd5b506107be611b25565b6040516107cb919061360f565b60405180910390f35b3480156107e057600080fd5b506107fb60048036038101906107f69190613bfc565b611b2a565b60405161080891906133ff565b60405180910390f35b34801561081d57600080fd5b506108386004803603810190610833919061350b565b611bbe565b60405161084591906133ff565b60405180910390f35b34801561085a57600080fd5b50610875600480360381019061087091906137fb565b611c6c565b005b60007f80ac58cd000000000000000000000000000000000000000000000000000000007bffffffffffffffffffffffffffffffffffffffffffffffffffffffff1916827bffffffffffffffffffffffffffffffffffffffffffffffffffffffff1916148061094257507f5b5e139f000000000000000000000000000000000000000000000000000000007bffffffffffffffffffffffffffffffffffffffffffffffffffffffff1916827bffffffffffffffffffffffffffffffffffffffffffffffffffffffff1916145b80610952575061095182611d64565b5b9050919050565b60606000805461096890613c6b565b80601f016020809104026020016040519081016040528092919081815260200182805461099490613c6b565b80156109e15780601f106109b6576101008083540402835291602001916109e1565b820191906000526020600020905b8154815290600101906020018083116109c457829003601f168201915b5050505050905090565b60006109f682611dce565b610a35576040517f08c379a0000000000000000000000000000000000000000000000000000000008152600401610a2c90613d0f565b60405180910390fd5b6004600083815260200190815260200160002060009054906101000a900473ffffffffffffffffffffffffffffffffffffffff169050919050565b6000610a7b82610ffc565b90508073ffffffffffffffffffffffffffffffffffffffff168373ffffffffffffffffffffffffffffffffffffffff161415610aec576040517f08c379a0000000000000000000000000000000000000000000000000000000008152600401610ae390613da1565b60405180910390fd5b8073ffffffffffffffffffffffffffffffffffffffff16610b0b611e3a565b73ffffffffffffffffffffffffffffffffffffffff161480610b3a5750610b3981610b34611e3a565b611b2a565b5b610b79576040517f08c379a0000000000000000000000000000000000000000000000000000000008152600401610b7090613e33565b60405180910390fd5b610b838383611e42565b505050565b60006001600a54610b999190613e82565b905090565b610baf610ba9611e3a565b82611efb565b610bee576040517f08c379a0000000000000000000000000000000000000000000000000000000008152600401610be590613f28565b60405180910390fd5b610bf9838383611fd9565b505050565b610c06611e3a565b73ffffffffffffffffffffffffffffffffffffffff16610c24611453565b73ffffffffffffffffffffffffffffffffffffffff1614610c7a576040517f08c379a0000000000000000000000000000000000000000000000000000000008152600401610c7190613f94565b60405180910390fd5b6000610c84611453565b73ffffffffffffffffffffffffffffffffffffffff1647604051610ca790613fe5565b60006040518083038185875af1925050503d8060008114610ce4576040519150601f19603f3d011682016040523d82523d6000602084013e610ce9565b606091505b5050905080610d24576040517f750b219c00000000000000000000000000000000000000000000000000000000815260040160405180910390fd5b50565b610d42838383604051806020016040528060008152506118e2565b505050565b600d60009054906101000a900460ff1681565b610d62611e3a565b73ffffffffffffffffffffffffffffffffffffffff16610d80611453565b73ffffffffffffffffffffffffffffffffffffffff1614610dd6576040517f08c379a0000000000000000000000000000000000000000000000000000000008152600401610dcd90613f94565b60405180910390fd5b8060099080519060200190610dec92919061325b565b5050565b60606000610dfc610b88565b90506000610e0984611136565b67ffffffffffffffff811115610e2257610e21613687565b5b604051908082528060200260200182016040528015610e505781602001602082028036833780820191505090505b509050600080600190505b838111610ede57610e6b81610ffc565b73ffffffffffffffffffffffffffffffffffffffff168673ffffffffffffffffffffffffffffffffffffffff161415610ecb5780838380610eab90613ffa565b945081518110610ebe57610ebd614043565b5b6020026020010181815250505b8080610ed690613ffa565b915050610e5b565b50819350505050919050565b610ef2611e3a565b73ffffffffffffffffffffffffffffffffffffffff16610f10611453565b73ffffffffffffffffffffffffffffffffffffffff1614610f66576040517f08c379a0000000000000000000000000000000000000000000000000000000008152600401610f5d90613f94565b60405180910390fd5b6000600a549050600a600183610f7c9190613e82565b82610f879190614072565b1115610fbf576040517f52df9fe500000000000000000000000000000000000000000000000000000000815260040160405180910390fd5b60005b82811015610fef57610fd48483612240565b81806001019250508080610fe790613ffa565b915050610fc2565b5080600a81905550505050565b6000806002600084815260200190815260200160002060009054906101000a900473ffffffffffffffffffffffffffffffffffffffff169050600073ffffffffffffffffffffffffffffffffffffffff168173ffffffffffffffffffffffffffffffffffffffff1614156110a5576040517f08c379a000000000000000000000000000000000000000000000000000000000815260040161109c9061413a565b60405180910390fd5b80915050919050565b6110b6611e3a565b73ffffffffffffffffffffffffffffffffffffffff166110d4611453565b73ffffffffffffffffffffffffffffffffffffffff161461112a576040517f08c379a000000000000000000000000000000000000000000000000000000000815260040161112190613f94565b60405180910390fd5b6111338161241a565b50565b60008073ffffffffffffffffffffffffffffffffffffffff168273ffffffffffffffffffffffffffffffffffffffff1614156111a7576040517f08c379a000000000000000000000000000000000000000000000000000000000815260040161119e906141cc565b60405180910390fd5b600360008373ffffffffffffffffffffffffffffffffffffffff1673ffffffffffffffffffffffffffffffffffffffff168152602001908152602001600020549050919050565b6111f6611e3a565b73ffffffffffffffffffffffffffffffffffffffff16611214611453565b73ffffffffffffffffffffffffffffffffffffffff161461126a576040517f08c379a000000000000000000000000000000000000000000000000000000000815260040161126190613f94565b60405180910390fd5b611274600061245e565b565b600a5481565b6000600a549050600d60009054906101000a900460ff166112c9576040517f3f88677400000000000000000000000000000000000000000000000000000000815260040160405180910390fd5b600a6001848490506112db9190613e82565b826112e69190614072565b111561131e576040517f52df9fe500000000000000000000000000000000000000000000000000000000815260040160405180910390fd5b3273ffffffffffffffffffffffffffffffffffffffff163373ffffffffffffffffffffffffffffffffffffffff1614611382576040517e61c20e00000000000000000000000000000000000000000000000000000000815260040160405180910390fd5b82829050600b5461139391906141ec565b34146113ca576040517ebfc92100000000000000000000000000000000000000000000000000000000815260040160405180910390fd5b60005b838390508110156114445761141f8686838181106113ee576113ed614043565b5b90506020028101906114009190614255565b86868581811061141357611412614043565b5b90506020020135612524565b6114293383612240565b8180600101925050808061143c90613ffa565b9150506113cd565b5080600a819055505050505050565b6000600660009054906101000a900473ffffffffffffffffffffffffffffffffffffffff16905090565b611485611e3a565b73ffffffffffffffffffffffffffffffffffffffff166114a3611453565b73ffffffffffffffffffffffffffffffffffffffff16146114f9576040517f08c379a00000000000000000000000000000000000000000000000000000000081526004016114f090613f94565b60405180910390fd5b80600b8190555050565b61150b611e3a565b73ffffffffffffffffffffffffffffffffffffffff16611529611453565b73ffffffffffffffffffffffffffffffffffffffff161461157f576040517f08c379a000000000000000000000000000000000000000000000000000000000815260040161157690613f94565b60405180910390fd5b80600d60016101000a81548160ff02191690831515021790555050565b600c5481565b6060600180546115b190613c6b565b80601f01602080910402602001604051908101604052809291908181526020018280546115dd90613c6b565b801561162a5780601f106115ff5761010080835404028352916020019161162a565b820191906000526020600020905b81548152906001019060200180831161160d57829003601f168201915b5050505050905090565b600b5481565b6000600a549050600d60019054906101000a900460ff16611687576040517f3f88677400000000000000000000000000000000000000000000000000000000815260040160405180910390fd5b600a6001836116969190613e82565b826116a19190614072565b11156116d9576040517f52df9fe500000000000000000000000000000000000000000000000000000000815260040160405180910390fd5b3273ffffffffffffffffffffffffffffffffffffffff163373ffffffffffffffffffffffffffffffffffffffff161461173d576040517e61c20e00000000000000000000000000000000000000000000000000000000815260040160405180910390fd5b81600b5461174b91906141ec565b3414611782576040517ebfc92100000000000000000000000000000000000000000000000000000000815260040160405180910390fd5b60005b828110156117b2576117973383612240565b818060010192505080806117aa90613ffa565b915050611785565b5080600a819055505050565b6117d06117c9611e3a565b83836126e6565b5050565b6117dc611e3a565b73ffffffffffffffffffffffffffffffffffffffff166117fa611453565b73ffffffffffffffffffffffffffffffffffffffff1614611850576040517f08c379a000000000000000000000000000000000000000000000000000000000815260040161184790613f94565b60405180910390fd5b61185981612853565b50565b611864611e3a565b73ffffffffffffffffffffffffffffffffffffffff16611882611453565b73ffffffffffffffffffffffffffffffffffffffff16146118d8576040517f08c379a00000000000000000000000000000000000000000000000000000000081526004016118cf90613f94565b60405180910390fd5b80600c8190555050565b6118f36118ed611e3a565b83611efb565b611932576040517f08c379a000000000000000000000000000000000000000000000000000000000815260040161192990613f28565b60405180910390fd5b61193e84848484612939565b50505050565b600d60019054906101000a900460ff1681565b61195f611e3a565b73ffffffffffffffffffffffffffffffffffffffff1661197d611453565b73ffffffffffffffffffffffffffffffffffffffff16146119d3576040517f08c379a00000000000000000000000000000000000000000000000000000000081526004016119ca90613f94565b60405180910390fd5b80600d60006101000a81548160ff02191690831515021790555050565b60606119fb82611dce565b611a3a576040517f08c379a0000000000000000000000000000000000000000000000000000000008152600401611a319061432a565b60405180910390fd5b6000611a44612995565b90506000815111611a645760405180602001604052806000815250611a8f565b80611a6e84612a27565b604051602001611a7f929190614386565b6040516020818303038152906040525b915050919050565b60098054611aa490613c6b565b80601f0160208091040260200160405190810160405280929190818152602001828054611ad090613c6b565b8015611b1d5780601f10611af257610100808354040283529160200191611b1d565b820191906000526020600020905b815481529060010190602001808311611b0057829003601f168201915b505050505081565b600a81565b6000600560008473ffffffffffffffffffffffffffffffffffffffff1673ffffffffffffffffffffffffffffffffffffffff16815260200190815260200160002060008373ffffffffffffffffffffffffffffffffffffffff1673ffffffffffffffffffffffffffffffffffffffff16815260200190815260200160002060009054906101000a900460ff16905092915050565b6000610100600780549050611bd391906141ec565b8210611c0b576040517fc6c61cb200000000000000000000000000000000000000000000000000000000815260040160405180910390fd5b600061010083611c1b91906143d9565b9050600061010084611c2d919061440a565b9050600060078381548110611c4557611c44614043565b5b90600052602060002001549050600060018383901c16905060018114945050505050919050565b611c74611e3a565b73ffffffffffffffffffffffffffffffffffffffff16611c92611453565b73ffffffffffffffffffffffffffffffffffffffff1614611ce8576040517f08c379a0000000000000000000000000000000000000000000000000000000008152600401611cdf90613f94565b60405180910390fd5b600073ffffffffffffffffffffffffffffffffffffffff168173ffffffffffffffffffffffffffffffffffffffff161415611d58576040517f08c379a0000000000000000000000000000000000000000000000000000000008152600401611d4f906144ad565b60405180910390fd5b611d618161245e565b50565b60007f01ffc9a7000000000000000000000000000000000000000000000000000000007bffffffffffffffffffffffffffffffffffffffffffffffffffffffff1916827bffffffffffffffffffffffffffffffffffffffffffffffffffffffff1916149050919050565b60008073ffffffffffffffffffffffffffffffffffffffff166002600084815260200190815260200160002060009054906101000a900473ffffffffffffffffffffffffffffffffffffffff1673ffffffffffffffffffffffffffffffffffffffff1614159050919050565b600033905090565b816004600083815260200190815260200160002060006101000a81548173ffffffffffffffffffffffffffffffffffffffff021916908373ffffffffffffffffffffffffffffffffffffffff160217905550808273ffffffffffffffffffffffffffffffffffffffff16611eb583610ffc565b73ffffffffffffffffffffffffffffffffffffffff167f8c5be1e5ebec7d5bd14f71427d1e84f3dd0314c0f7b2291e5b200ac8c7c3b92560405160405180910390a45050565b6000611f0682611dce565b611f45576040517f08c379a0000000000000000000000000000000000000000000000000000000008152600401611f3c9061453f565b60405180910390fd5b6000611f5083610ffc565b90508073ffffffffffffffffffffffffffffffffffffffff168473ffffffffffffffffffffffffffffffffffffffff161480611fbf57508373ffffffffffffffffffffffffffffffffffffffff16611fa7846109eb565b73ffffffffffffffffffffffffffffffffffffffff16145b80611fd05750611fcf8185611b2a565b5b91505092915050565b8273ffffffffffffffffffffffffffffffffffffffff16611ff982610ffc565b73ffffffffffffffffffffffffffffffffffffffff161461204f576040517f08c379a0000000000000000000000000000000000000000000000000000000008152600401612046906145d1565b60405180910390fd5b600073ffffffffffffffffffffffffffffffffffffffff168273ffffffffffffffffffffffffffffffffffffffff1614156120bf576040517f08c379a00000000000000000000000000000000000000000000000000000000081526004016120b690614663565b60405180910390fd5b6120ca838383612b88565b6120d5600082611e42565b6001600360008573ffffffffffffffffffffffffffffffffffffffff1673ffffffffffffffffffffffffffffffffffffffff16815260200190815260200160002060008282546121259190613e82565b925050819055506001600360008473ffffffffffffffffffffffffffffffffffffffff1673ffffffffffffffffffffffffffffffffffffffff168152602001908152602001600020600082825461217c9190614072565b92505081905550816002600083815260200190815260200160002060006101000a81548173ffffffffffffffffffffffffffffffffffffffff021916908373ffffffffffffffffffffffffffffffffffffffff160217905550808273ffffffffffffffffffffffffffffffffffffffff168473ffffffffffffffffffffffffffffffffffffffff167fddf252ad1be2c89b69c2b068fc378daa952ba7f163c4a11628f55a4df523b3ef60405160405180910390a461223b838383612b8d565b505050565b600073ffffffffffffffffffffffffffffffffffffffff168273ffffffffffffffffffffffffffffffffffffffff1614156122b0576040517f08c379a00000000000000000000000000000000000000000000000000000000081526004016122a7906146cf565b60405180910390fd5b6122b981611dce565b156122f9576040517f08c379a00000000000000000000000000000000000000000000000000000000081526004016122f09061473b565b60405180910390fd5b61230560008383612b88565b6001600360008473ffffffffffffffffffffffffffffffffffffffff1673ffffffffffffffffffffffffffffffffffffffff16815260200190815260200160002060008282546123559190614072565b92505081905550816002600083815260200190815260200160002060006101000a81548173ffffffffffffffffffffffffffffffffffffffff021916908373ffffffffffffffffffffffffffffffffffffffff160217905550808273ffffffffffffffffffffffffffffffffffffffff16600073ffffffffffffffffffffffffffffffffffffffff167fddf252ad1be2c89b69c2b068fc378daa952ba7f163c4a11628f55a4df523b3ef60405160405180910390a461241660008383612b8d565b5050565b80600860006101000a81548173ffffffffffffffffffffffffffffffffffffffff021916908373ffffffffffffffffffffffffffffffffffffffff16021790555050565b6000600660009054906101000a900473ffffffffffffffffffffffffffffffffffffffff16905081600660006101000a81548173ffffffffffffffffffffffffffffffffffffffff021916908373ffffffffffffffffffffffffffffffffffffffff1602179055508173ffffffffffffffffffffffffffffffffffffffff168173ffffffffffffffffffffffffffffffffffffffff167f8be0079c531659141344cd1fd0a4f28419497f9722a3daafe3b4186f6b6457e060405160405180910390a35050565b61259a338260405160200161253a9291906147c4565b6040516020818303038152906040528051906020012084848080601f016020809104026020016040519081016040528093929190818152602001838380828437600081840152601f19601f82011690508083019250505050505050612b92565b6125d0576040517f8baa579f00000000000000000000000000000000000000000000000000000000815260040160405180910390fd5b6101006007805490506125e391906141ec565b811061261b576040517fc6c61cb200000000000000000000000000000000000000000000000000000000815260040160405180910390fd5b6000806000806101008581612633576126326143aa565b5b0493506101008581612648576126476143aa565b5b0692506007848154811061265f5761265e614043565b5b9060005260206000200154915060018383901c16905060008114156126b0576040517fddefae2800000000000000000000000000000000000000000000000000000000815260040160405180910390fd5b826001901b198216915081600785815481106126cf576126ce614043565b5b906000526020600020018190555050505050505050565b8173ffffffffffffffffffffffffffffffffffffffff168373ffffffffffffffffffffffffffffffffffffffff161415612755576040517f08c379a000000000000000000000000000000000000000000000000000000000815260040161274c9061483c565b60405180910390fd5b80600560008573ffffffffffffffffffffffffffffffffffffffff1673ffffffffffffffffffffffffffffffffffffffff16815260200190815260200160002060008473ffffffffffffffffffffffffffffffffffffffff1673ffffffffffffffffffffffffffffffffffffffff16815260200190815260200160002060006101000a81548160ff0219169083151502179055508173ffffffffffffffffffffffffffffffffffffffff168373ffffffffffffffffffffffffffffffffffffffff167f17307eab39ab6107e8899845ad3d59bd9653f200f220920489ca2b5937696c318360405161284691906133ff565b60405180910390a3505050565b600060016101008361286591906143d9565b61286f9190614072565b905060008167ffffffffffffffff81111561288d5761288c613687565b5b6040519080825280602002602001820160405280156128bb5781602001602082028036833780820191505090505b50905060005b8281101561291c577fffffffffffffffffffffffffffffffffffffffffffffffffffffffffffffffff8282815181106128fd576128fc614043565b5b602002602001018181525050808061291490613ffa565b9150506128c1565b5080600790805190602001906129339291906132e1565b50505050565b612944848484611fd9565b61295084848484612c95565b61298f576040517f08c379a0000000000000000000000000000000000000000000000000000000008152600401612986906148ce565b60405180910390fd5b50505050565b6060600980546129a490613c6b565b80601f01602080910402602001604051908101604052809291908181526020018280546129d090613c6b565b8015612a1d5780601f106129f257610100808354040283529160200191612a1d565b820191906000526020600020905b815481529060010190602001808311612a0057829003601f168201915b5050505050905090565b60606000821415612a6f576040518060400160405280600181526020017f30000000000000000000000000000000000000000000000000000000000000008152509050612b83565b600082905060005b60008214612aa1578080612a8a90613ffa565b915050600a82612a9a91906143d9565b9150612a77565b60008167ffffffffffffffff811115612abd57612abc613687565b5b6040519080825280601f01601f191660200182016040528015612aef5781602001600182028036833780820191505090505b5090505b60008514612b7c57600182612b089190613e82565b9150600a85612b17919061440a565b6030612b239190614072565b60f81b818381518110612b3957612b38614043565b5b60200101907effffffffffffffffffffffffffffffffffffffffffffffffffffffffffffff1916908160001a905350600a85612b7591906143d9565b9450612af3565b8093505050505b919050565b505050565b505050565b60008073ffffffffffffffffffffffffffffffffffffffff16600860009054906101000a900473ffffffffffffffffffffffffffffffffffffffff1673ffffffffffffffffffffffffffffffffffffffff161415612c1c576040517f4501a91900000000000000000000000000000000000000000000000000000000815260040160405180910390fd5b6000612c2784612e1d565b9050600860009054906101000a900473ffffffffffffffffffffffffffffffffffffffff1673ffffffffffffffffffffffffffffffffffffffff16612c758483612e4d90919063ffffffff16565b73ffffffffffffffffffffffffffffffffffffffff161491505092915050565b6000612cb68473ffffffffffffffffffffffffffffffffffffffff16612e74565b15612e10578373ffffffffffffffffffffffffffffffffffffffff1663150b7a02612cdf611e3a565b8786866040518563ffffffff1660e01b8152600401612d019493929190614943565b6020604051808303816000875af1925050508015612d3d57506040513d601f19601f82011682018060405250810190612d3a91906149a4565b60015b612dc0573d8060008114612d6d576040519150601f19603f3d011682016040523d82523d6000602084013e612d72565b606091505b50600081511415612db8576040517f08c379a0000000000000000000000000000000000000000000000000000000008152600401612daf906148ce565b60405180910390fd5b805181602001fd5b63150b7a0260e01b7bffffffffffffffffffffffffffffffffffffffffffffffffffffffff1916817bffffffffffffffffffffffffffffffffffffffffffffffffffffffff191614915050612e15565b600190505b949350505050565b600081604051602001612e309190614a48565b604051602081830303815290604052805190602001209050919050565b6000806000612e5c8585612e97565b91509150612e6981612f1a565b819250505092915050565b6000808273ffffffffffffffffffffffffffffffffffffffff163b119050919050565b600080604183511415612ed95760008060006020860151925060408601519150606086015160001a9050612ecd878285856130ef565b94509450505050612f13565b604083511415612f0a576000806020850151915060408501519050612eff8683836131fc565b935093505050612f13565b60006002915091505b9250929050565b60006004811115612f2e57612f2d614a6e565b5b816004811115612f4157612f40614a6e565b5b1415612f4c576130ec565b60016004811115612f6057612f5f614a6e565b5b816004811115612f7357612f72614a6e565b5b1415612fb4576040517f08c379a0000000000000000000000000000000000000000000000000000000008152600401612fab90614ae9565b60405180910390fd5b60026004811115612fc857612fc7614a6e565b5b816004811115612fdb57612fda614a6e565b5b141561301c576040517f08c379a000000000000000000000000000000000000000000000000000000000815260040161301390614b55565b60405180910390fd5b600360048111156130305761302f614a6e565b5b81600481111561304357613042614a6e565b5b1415613084576040517f08c379a000000000000000000000000000000000000000000000000000000000815260040161307b90614be7565b60405180910390fd5b60048081111561309757613096614a6e565b5b8160048111156130aa576130a9614a6e565b5b14156130eb576040517f08c379a00000000000000000000000000000000000000000000000000000000081526004016130e290614c79565b60405180910390fd5b5b50565b6000807f7fffffffffffffffffffffffffffffff5d576e7357a4501ddfe92f46681b20a08360001c111561312a5760006003915091506131f3565b601b8560ff16141580156131425750601c8560ff1614155b156131545760006004915091506131f3565b6000600187878787604051600081526020016040526040516131799493929190614cc4565b6020604051602081039080840390855afa15801561319b573d6000803e3d6000fd5b505050602060405103519050600073ffffffffffffffffffffffffffffffffffffffff168173ffffffffffffffffffffffffffffffffffffffff1614156131ea576000600192509250506131f3565b80600092509250505b94509492505050565b60008060007f7fffffffffffffffffffffffffffffffffffffffffffffffffffffffffffffff60001b841690506000601b60ff8660001c901c61323f9190614072565b905061324d878288856130ef565b935093505050935093915050565b82805461326790613c6b565b90600052602060002090601f01602090048101928261328957600085556132d0565b82601f106132a257805160ff19168380011785556132d0565b828001600101855582156132d0579182015b828111156132cf5782518255916020019190600101906132b4565b5b5090506132dd919061332e565b5090565b82805482825590600052602060002090810192821561331d579160200282015b8281111561331c578251825591602001919060010190613301565b5b50905061332a919061332e565b5090565b5b8082111561334757600081600090555060010161332f565b5090565b6000604051905090565b600080fd5b600080fd5b60007fffffffff0000000000000000000000000000000000000000000000000000000082169050919050565b6133948161335f565b811461339f57600080fd5b50565b6000813590506133b18161338b565b92915050565b6000602082840312156133cd576133cc613355565b5b60006133db848285016133a2565b91505092915050565b60008115159050919050565b6133f9816133e4565b82525050565b600060208201905061341460008301846133f0565b92915050565b600081519050919050565b600082825260208201905092915050565b60005b83811015613454578082015181840152602081019050613439565b83811115613463576000848401525b50505050565b6000601f19601f8301169050919050565b60006134858261341a565b61348f8185613425565b935061349f818560208601613436565b6134a881613469565b840191505092915050565b600060208201905081810360008301526134cd818461347a565b905092915050565b6000819050919050565b6134e8816134d5565b81146134f357600080fd5b50565b600081359050613505816134df565b92915050565b60006020828403121561352157613520613355565b5b600061352f848285016134f6565b91505092915050565b600073ffffffffffffffffffffffffffffffffffffffff82169050919050565b600061356382613538565b9050919050565b61357381613558565b82525050565b600060208201905061358e600083018461356a565b92915050565b61359d81613558565b81146135a857600080fd5b50565b6000813590506135ba81613594565b92915050565b600080604083850312156135d7576135d6613355565b5b60006135e5858286016135ab565b92505060206135f6858286016134f6565b9150509250929050565b613609816134d5565b82525050565b60006020820190506136246000830184613600565b92915050565b60008060006060848603121561364357613642613355565b5b6000613651868287016135ab565b9350506020613662868287016135ab565b9250506040613673868287016134f6565b9150509250925092565b600080fd5b600080fd5b7f4e487b7100000000000000000000000000000000000000000000000000000000600052604160045260246000fd5b6136bf82613469565b810181811067ffffffffffffffff821117156136de576136dd613687565b5b80604052505050565b60006136f161334b565b90506136fd82826136b6565b919050565b600067ffffffffffffffff82111561371d5761371c613687565b5b61372682613469565b9050602081019050919050565b82818337600083830152505050565b600061375561375084613702565b6136e7565b90508281526020810184848401111561377157613770613682565b5b61377c848285613733565b509392505050565b600082601f8301126137995761379861367d565b5b81356137a9848260208601613742565b91505092915050565b6000602082840312156137c8576137c7613355565b5b600082013567ffffffffffffffff8111156137e6576137e561335a565b5b6137f284828501613784565b91505092915050565b60006020828403121561381157613810613355565b5b600061381f848285016135ab565b91505092915050565b600081519050919050565b600082825260208201905092915050565b6000819050602082019050919050565b61385d816134d5565b82525050565b600061386f8383613854565b60208301905092915050565b6000602082019050919050565b600061389382613828565b61389d8185613833565b93506138a883613844565b8060005b838110156138d95781516138c08882613863565b97506138cb8361387b565b9250506001810190506138ac565b5085935050505092915050565b600060208201905081810360008301526139008184613888565b905092915050565b600080fd5b600080fd5b60008083601f8401126139285761392761367d565b5b8235905067ffffffffffffffff81111561394557613944613908565b5b6020830191508360208202830111156139615761396061390d565b5b9250929050565b60008083601f84011261397e5761397d61367d565b5b8235905067ffffffffffffffff81111561399b5761399a613908565b5b6020830191508360208202830111156139b7576139b661390d565b5b9250929050565b600080600080604085870312156139d8576139d7613355565b5b600085013567ffffffffffffffff8111156139f6576139f561335a565b5b613a0287828801613912565b9450945050602085013567ffffffffffffffff811115613a2557613a2461335a565b5b613a3187828801613968565b925092505092959194509250565b613a48816133e4565b8114613a5357600080fd5b50565b600081359050613a6581613a3f565b92915050565b600060208284031215613a8157613a80613355565b5b6000613a8f84828501613a56565b91505092915050565b60008060408385031215613aaf57613aae613355565b5b6000613abd858286016135ab565b9250506020613ace85828601613a56565b9150509250929050565b600067ffffffffffffffff821115613af357613af2613687565b5b613afc82613469565b9050602081019050919050565b6000613b1c613b1784613ad8565b6136e7565b905082815260208101848484011115613b3857613b37613682565b5b613b43848285613733565b509392505050565b600082601f830112613b6057613b5f61367d565b5b8135613b70848260208601613b09565b91505092915050565b60008060008060808587031215613b9357613b92613355565b5b6000613ba1878288016135ab565b9450506020613bb2878288016135ab565b9350506040613bc3878288016134f6565b925050606085013567ffffffffffffffff811115613be457613be361335a565b5b613bf087828801613b4b565b91505092959194509250565b60008060408385031215613c1357613c12613355565b5b6000613c21858286016135ab565b9250506020613c32858286016135ab565b9150509250929050565b7f4e487b7100000000000000000000000000000000000000000000000000000000600052602260045260246000fd5b60006002820490506001821680613c8357607f821691505b60208210811415613c9757613c96613c3c565b5b50919050565b7f4552433732313a20617070726f76656420717565727920666f72206e6f6e657860008201527f697374656e7420746f6b656e0000000000000000000000000000000000000000602082015250565b6000613cf9602c83613425565b9150613d0482613c9d565b604082019050919050565b60006020820190508181036000830152613d2881613cec565b9050919050565b7f4552433732313a20617070726f76616c20746f2063757272656e74206f776e6560008201527f7200000000000000000000000000000000000000000000000000000000000000602082015250565b6000613d8b602183613425565b9150613d9682613d2f565b604082019050919050565b60006020820190508181036000830152613dba81613d7e565b9050919050565b7f4552433732313a20617070726f76652063616c6c6572206973206e6f74206f7760008201527f6e6572206e6f7220617070726f76656420666f7220616c6c0000000000000000602082015250565b6000613e1d603883613425565b9150613e2882613dc1565b604082019050919050565b60006020820190508181036000830152613e4c81613e10565b9050919050565b7f4e487b7100000000000000000000000000000000000000000000000000000000600052601160045260246000fd5b6000613e8d826134d5565b9150613e98836134d5565b925082821015613eab57613eaa613e53565b5b828203905092915050565b7f4552433732313a207472616e736665722063616c6c6572206973206e6f74206f60008201527f776e6572206e6f7220617070726f766564000000000000000000000000000000602082015250565b6000613f12603183613425565b9150613f1d82613eb6565b604082019050919050565b60006020820190508181036000830152613f4181613f05565b9050919050565b7f4f776e61626c653a2063616c6c6572206973206e6f7420746865206f776e6572600082015250565b6000613f7e602083613425565b9150613f8982613f48565b602082019050919050565b60006020820190508181036000830152613fad81613f71565b9050919050565b600081905092915050565b50565b6000613fcf600083613fb4565b9150613fda82613fbf565b600082019050919050565b6000613ff082613fc2565b9150819050919050565b6000614005826134d5565b91507fffffffffffffffffffffffffffffffffffffffffffffffffffffffffffffffff82141561403857614037613e53565b5b600182019050919050565b7f4e487b7100000000000000000000000000000000000000000000000000000000600052603260045260246000fd5b600061407d826134d5565b9150614088836134d5565b9250827fffffffffffffffffffffffffffffffffffffffffffffffffffffffffffffffff038211156140bd576140bc613e53565b5b828201905092915050565b7f4552433732313a206f776e657220717565727920666f72206e6f6e657869737460008201527f656e7420746f6b656e0000000000000000000000000000000000000000000000602082015250565b6000614124602983613425565b915061412f826140c8565b604082019050919050565b6000602082019050818103600083015261415381614117565b9050919050565b7f4552433732313a2062616c616e636520717565727920666f7220746865207a6560008201527f726f206164647265737300000000000000000000000000000000000000000000602082015250565b60006141b6602a83613425565b91506141c18261415a565b604082019050919050565b600060208201905081810360008301526141e5816141a9565b9050919050565b60006141f7826134d5565b9150614202836134d5565b9250817fffffffffffffffffffffffffffffffffffffffffffffffffffffffffffffffff048311821515161561423b5761423a613e53565b5b828202905092915050565b600080fd5b600080fd5b600080fd5b6000808335600160200384360303811261427257614271614246565b5b80840192508235915067ffffffffffffffff8211156142945761429361424b565b5b6020830192506001820236038313156142b0576142af614250565b5b509250929050565b7f4552433732314d657461646174613a2055524920717565727920666f72206e6f60008201527f6e6578697374656e7420746f6b656e0000000000000000000000000000000000602082015250565b6000614314602f83613425565b915061431f826142b8565b604082019050919050565b6000602082019050818103600083015261434381614307565b9050919050565b600081905092915050565b60006143608261341a565b61436a818561434a565b935061437a818560208601613436565b80840191505092915050565b60006143928285614355565b915061439e8284614355565b91508190509392505050565b7f4e487b7100000000000000000000000000000000000000000000000000000000600052601260045260246000fd5b60006143e4826134d5565b91506143ef836134d5565b9250826143ff576143fe6143aa565b5b828204905092915050565b6000614415826134d5565b9150614420836134d5565b9250826144305761442f6143aa565b5b828206905092915050565b7f4f776e61626c653a206e6577206f776e657220697320746865207a65726f206160008201527f6464726573730000000000000000000000000000000000000000000000000000602082015250565b6000614497602683613425565b91506144a28261443b565b604082019050919050565b600060208201905081810360008301526144c68161448a565b9050919050565b7f4552433732313a206f70657261746f7220717565727920666f72206e6f6e657860008201527f697374656e7420746f6b656e0000000000000000000000000000000000000000602082015250565b6000614529602c83613425565b9150614534826144cd565b604082019050919050565b600060208201905081810360008301526145588161451c565b9050919050565b7f4552433732313a207472616e736665722066726f6d20696e636f72726563742060008201527f6f776e6572000000000000000000000000000000000000000000000000000000602082015250565b60006145bb602583613425565b91506145c68261455f565b604082019050919050565b600060208201905081810360008301526145ea816145ae565b9050919050565b7f4552433732313a207472616e7366657220746f20746865207a65726f2061646460008201527f7265737300000000000000000000000000000000000000000000000000000000602082015250565b600061464d602483613425565b9150614658826145f1565b604082019050919050565b6000602082019050818103600083015261467c81614640565b9050919050565b7f4552433732313a206d696e7420746f20746865207a65726f2061646472657373600082015250565b60006146b9602083613425565b91506146c482614683565b602082019050919050565b600060208201905081810360008301526146e8816146ac565b9050919050565b7f4552433732313a20746f6b656e20616c7265616479206d696e74656400000000600082015250565b6000614725601c83613425565b9150614730826146ef565b602082019050919050565b6000602082019050818103600083015261475481614718565b9050919050565b60008160601b9050919050565b60006147738261475b565b9050919050565b600061478582614768565b9050919050565b61479d61479882613558565b61477a565b82525050565b6000819050919050565b6147be6147b9826134d5565b6147a3565b82525050565b60006147d0828561478c565b6014820191506147e082846147ad565b6020820191508190509392505050565b7f4552433732313a20617070726f766520746f2063616c6c657200000000000000600082015250565b6000614826601983613425565b9150614831826147f0565b602082019050919050565b6000602082019050818103600083015261485581614819565b9050919050565b7f4552433732313a207472616e7366657220746f206e6f6e20455243373231526560008201527f63656976657220696d706c656d656e7465720000000000000000000000000000602082015250565b60006148b8603283613425565b91506148c38261485c565b604082019050919050565b600060208201905081810360008301526148e7816148ab565b9050919050565b600081519050919050565b600082825260208201905092915050565b6000614915826148ee565b61491f81856148f9565b935061492f818560208601613436565b61493881613469565b840191505092915050565b6000608082019050614958600083018761356a565b614965602083018661356a565b6149726040830185613600565b8181036060830152614984818461490a565b905095945050505050565b60008151905061499e8161338b565b92915050565b6000602082840312156149ba576149b9613355565b5b60006149c88482850161498f565b91505092915050565b7f19457468657265756d205369676e6564204d6573736167653a0a333200000000600082015250565b6000614a07601c8361434a565b9150614a12826149d1565b601c82019050919050565b6000819050919050565b6000819050919050565b614a42614a3d82614a1d565b614a27565b82525050565b6000614a53826149fa565b9150614a5f8284614a31565b60208201915081905092915050565b7f4e487b7100000000000000000000000000000000000000000000000000000000600052602160045260246000fd5b7f45434453413a20696e76616c6964207369676e61747572650000000000000000600082015250565b6000614ad3601883613425565b9150614ade82614a9d565b602082019050919050565b60006020820190508181036000830152614b0281614ac6565b9050919050565b7f45434453413a20696e76616c6964207369676e6174757265206c656e67746800600082015250565b6000614b3f601f83613425565b9150614b4a82614b09565b602082019050919050565b60006020820190508181036000830152614b6e81614b32565b9050919050565b7f45434453413a20696e76616c6964207369676e6174757265202773272076616c60008201527f7565000000000000000000000000000000000000000000000000000000000000602082015250565b6000614bd1602283613425565b9150614bdc82614b75565b604082019050919050565b60006020820190508181036000830152614c0081614bc4565b9050919050565b7f45434453413a20696e76616c6964207369676e6174757265202776272076616c60008201527f7565000000000000000000000000000000000000000000000000000000000000602082015250565b6000614c63602283613425565b9150614c6e82614c07565b604082019050919050565b60006020820190508181036000830152614c9281614c56565b9050919050565b614ca281614a1d565b82525050565b600060ff82169050919050565b614cbe81614ca8565b82525050565b6000608082019050614cd96000830187614c99565b614ce66020830186614cb5565b614cf36040830185614c99565b614d006060830184614c99565b9594505050505056fea2646970667358221220c8c58177876e271511a75e8b7e98e5da45584d5eb0e4cc6975b52deeb598d11f64736f6c634300080b0033",
  "linkReferences": {},
  "deployedLinkReferences": {}
}