{
  "_format": "hh-sol-artifact-1",
  "contractName": "ERC721WL",
  "sourceName": "cache/solpp-generated-contracts/ERC721WL.sol",
  "abi": [
    {
      "inputs": [],
      "stateMutability": "nonpayable",
      "type": "constructor"
    },
    {
      "inputs": [],
      "name": "AlreadyMinted",
      "type": "error"
    },
    {
      "inputs": [],
      "name": "InvalidPrice",
      "type": "error"
    },
    {
      "inputs": [],
      "name": "InvalidSignature",
      "type": "error"
    },
    {
      "inputs": [],
      "name": "InvalidSignerAddress",
      "type": "error"
    },
    {
      "inputs": [],
      "name": "InvalidSpotId",
      "type": "error"
    },
    {
      "inputs": [],
      "name": "NoBots",
      "type": "error"
    },
    {
      "inputs": [],
      "name": "SaleInactive",
      "type": "error"
    },
    {
      "inputs": [],
      "name": "SoldOut",
      "type": "error"
    },
    {
      "inputs": [],
      "name": "WithdrawFailed",
      "type": "error"
    },
    {
      "anonymous": false,
      "inputs": [
        {
          "indexed": true,
          "internalType": "address",
          "name": "owner",
          "type": "address"
        },
        {
          "indexed": true,
          "internalType": "address",
          "name": "approved",
          "type": "address"
        },
        {
          "indexed": true,
          "internalType": "uint256",
          "name": "tokenId",
          "type": "uint256"
        }
      ],
      "name": "Approval",
      "type": "event"
    },
    {
      "anonymous": false,
      "inputs": [
        {
          "indexed": true,
          "internalType": "address",
          "name": "owner",
          "type": "address"
        },
        {
          "indexed": true,
          "internalType": "address",
          "name": "operator",
          "type": "address"
        },
        {
          "indexed": false,
          "internalType": "bool",
          "name": "approved",
          "type": "bool"
        }
      ],
      "name": "ApprovalForAll",
      "type": "event"
    },
    {
      "anonymous": false,
      "inputs": [
        {
          "indexed": true,
          "internalType": "address",
          "name": "previousOwner",
          "type": "address"
        },
        {
          "indexed": true,
          "internalType": "address",
          "name": "newOwner",
          "type": "address"
        }
      ],
      "name": "OwnershipTransferred",
      "type": "event"
    },
    {
      "anonymous": false,
      "inputs": [
        {
          "indexed": true,
          "internalType": "address",
          "name": "from",
          "type": "address"
        },
        {
          "indexed": true,
          "internalType": "address",
          "name": "to",
          "type": "address"
        },
        {
          "indexed": true,
          "internalType": "uint256",
          "name": "tokenId",
          "type": "uint256"
        }
      ],
      "name": "Transfer",
      "type": "event"
    },
    {
      "inputs": [],
      "name": "_baseTokenURI",
      "outputs": [
        {
          "internalType": "string",
          "name": "",
          "type": "string"
        }
      ],
      "stateMutability": "view",
      "type": "function"
    },
    {
      "inputs": [
        {
          "internalType": "address",
          "name": "to",
          "type": "address"
        },
        {
          "internalType": "uint256",
          "name": "tokenId",
          "type": "uint256"
        }
      ],
      "name": "approve",
      "outputs": [],
      "stateMutability": "nonpayable",
      "type": "function"
    },
    {
      "inputs": [
        {
          "internalType": "address",
          "name": "owner",
          "type": "address"
        }
      ],
      "name": "balanceOf",
      "outputs": [
        {
          "internalType": "uint256",
          "name": "",
          "type": "uint256"
        }
      ],
      "stateMutability": "view",
      "type": "function"
    },
    {
      "inputs": [
        {
          "internalType": "address",
          "name": "receiver",
          "type": "address"
        },
        {
          "internalType": "uint256",
          "name": "qty",
          "type": "uint256"
        }
      ],
      "name": "devMint",
      "outputs": [],
      "stateMutability": "nonpayable",
      "type": "function"
    },
    {
      "inputs": [
        {
          "internalType": "uint256",
          "name": "tokenId",
          "type": "uint256"
        }
      ],
      "name": "getApproved",
      "outputs": [
        {
          "internalType": "address",
          "name": "",
          "type": "address"
        }
      ],
      "stateMutability": "view",
      "type": "function"
    },
    {
      "inputs": [
        {
          "internalType": "address",
          "name": "owner",
          "type": "address"
        },
        {
          "internalType": "address",
          "name": "operator",
          "type": "address"
        }
      ],
      "name": "isApprovedForAll",
      "outputs": [
        {
          "internalType": "bool",
          "name": "",
          "type": "bool"
        }
      ],
      "stateMutability": "view",
      "type": "function"
    },
    {
      "inputs": [
        {
          "internalType": "uint256",
          "name": "spotId",
          "type": "uint256"
        }
      ],
      "name": "isValidSpot",
      "outputs": [
        {
          "internalType": "bool",
          "name": "",
          "type": "bool"
        }
      ],
      "stateMutability": "view",
      "type": "function"
    },
    {
      "inputs": [],
      "name": "maxMintAmountPerTx",
      "outputs": [
        {
          "internalType": "uint256",
          "name": "",
          "type": "uint256"
        }
      ],
      "stateMutability": "view",
      "type": "function"
    },
    {
      "inputs": [],
      "name": "maxSupply",
      "outputs": [
        {
          "internalType": "uint256",
          "name": "",
          "type": "uint256"
        }
      ],
      "stateMutability": "view",
      "type": "function"
    },
    {
      "inputs": [
        {
          "internalType": "bytes[]",
          "name": "_signatures",
          "type": "bytes[]"
        },
        {
          "internalType": "uint256[]",
          "name": "spotIds",
          "type": "uint256[]"
        }
      ],
      "name": "mint",
      "outputs": [],
      "stateMutability": "payable",
      "type": "function"
    },
    {
      "inputs": [],
      "name": "name",
      "outputs": [
        {
          "internalType": "string",
          "name": "",
          "type": "string"
        }
      ],
      "stateMutability": "view",
      "type": "function"
    },
    {
      "inputs": [],
      "name": "nextTokenId",
      "outputs": [
        {
          "internalType": "uint256",
          "name": "",
          "type": "uint256"
        }
      ],
      "stateMutability": "view",
      "type": "function"
    },
    {
      "inputs": [],
      "name": "owner",
      "outputs": [
        {
          "internalType": "address",
          "name": "",
          "type": "address"
        }
      ],
      "stateMutability": "view",
      "type": "function"
    },
    {
      "inputs": [
        {
          "internalType": "uint256",
          "name": "tokenId",
          "type": "uint256"
        }
      ],
      "name": "ownerOf",
      "outputs": [
        {
          "internalType": "address",
          "name": "",
          "type": "address"
        }
      ],
      "stateMutability": "view",
      "type": "function"
    },
    {
      "inputs": [],
      "name": "price",
      "outputs": [
        {
          "internalType": "uint256",
          "name": "",
          "type": "uint256"
        }
      ],
      "stateMutability": "view",
      "type": "function"
    },
    {
      "inputs": [],
      "name": "renounceOwnership",
      "outputs": [],
      "stateMutability": "nonpayable",
      "type": "function"
    },
    {
      "inputs": [
        {
          "internalType": "address",
          "name": "from",
          "type": "address"
        },
        {
          "internalType": "address",
          "name": "to",
          "type": "address"
        },
        {
          "internalType": "uint256",
          "name": "tokenId",
          "type": "uint256"
        }
      ],
      "name": "safeTransferFrom",
      "outputs": [],
      "stateMutability": "nonpayable",
      "type": "function"
    },
    {
      "inputs": [
        {
          "internalType": "address",
          "name": "from",
          "type": "address"
        },
        {
          "internalType": "address",
          "name": "to",
          "type": "address"
        },
        {
          "internalType": "uint256",
          "name": "tokenId",
          "type": "uint256"
        },
        {
          "internalType": "bytes",
          "name": "_data",
          "type": "bytes"
        }
      ],
      "name": "safeTransferFrom",
      "outputs": [],
      "stateMutability": "nonpayable",
      "type": "function"
    },
    {
      "inputs": [],
      "name": "saleActive",
      "outputs": [
        {
          "internalType": "bool",
          "name": "",
          "type": "bool"
        }
      ],
      "stateMutability": "view",
      "type": "function"
    },
    {
      "inputs": [
        {
          "internalType": "address",
          "name": "operator",
          "type": "address"
        },
        {
          "internalType": "bool",
          "name": "approved",
          "type": "bool"
        }
      ],
      "name": "setApprovalForAll",
      "outputs": [],
      "stateMutability": "nonpayable",
      "type": "function"
    },
    {
      "inputs": [
        {
          "internalType": "string",
          "name": "baseURI",
          "type": "string"
        }
      ],
      "name": "setBaseURI",
      "outputs": [],
      "stateMutability": "nonpayable",
      "type": "function"
    },
    {
      "inputs": [
        {
          "internalType": "uint256",
          "name": "num",
          "type": "uint256"
        }
      ],
      "name": "setClaimGroups",
      "outputs": [],
      "stateMutability": "nonpayable",
      "type": "function"
    },
    {
      "inputs": [
        {
          "internalType": "uint256",
          "name": "_maxMintAmountPerTx",
          "type": "uint256"
        }
      ],
      "name": "setMaxMintAmountPerTx",
      "outputs": [],
      "stateMutability": "nonpayable",
      "type": "function"
    },
    {
      "inputs": [
        {
          "internalType": "uint256",
          "name": "_price",
          "type": "uint256"
        }
      ],
      "name": "setPrice",
      "outputs": [],
      "stateMutability": "nonpayable",
      "type": "function"
    },
    {
      "inputs": [
        {
          "internalType": "bool",
          "name": "_state",
          "type": "bool"
        }
      ],
      "name": "setSaleState",
      "outputs": [],
      "stateMutability": "nonpayable",
      "type": "function"
    },
    {
      "inputs": [
        {
          "internalType": "address",
          "name": "_signer",
          "type": "address"
        }
      ],
      "name": "setSigner",
      "outputs": [],
      "stateMutability": "nonpayable",
      "type": "function"
    },
    {
      "inputs": [
        {
          "internalType": "bytes4",
          "name": "interfaceId",
          "type": "bytes4"
        }
      ],
      "name": "supportsInterface",
      "outputs": [
        {
          "internalType": "bool",
          "name": "",
          "type": "bool"
        }
      ],
      "stateMutability": "view",
      "type": "function"
    },
    {
      "inputs": [],
      "name": "symbol",
      "outputs": [
        {
          "internalType": "string",
          "name": "",
          "type": "string"
        }
      ],
      "stateMutability": "view",
      "type": "function"
    },
    {
      "inputs": [
        {
          "internalType": "uint256",
          "name": "tokenId",
          "type": "uint256"
        }
      ],
      "name": "tokenURI",
      "outputs": [
        {
          "internalType": "string",
          "name": "",
          "type": "string"
        }
      ],
      "stateMutability": "view",
      "type": "function"
    },
    {
      "inputs": [
        {
          "internalType": "address",
          "name": "wallet",
          "type": "address"
        }
      ],
      "name": "tokensOf",
      "outputs": [
        {
          "internalType": "uint256[]",
          "name": "",
          "type": "uint256[]"
        }
      ],
      "stateMutability": "view",
      "type": "function"
    },
    {
      "inputs": [],
      "name": "totalSupply",
      "outputs": [
        {
          "internalType": "uint256",
          "name": "",
          "type": "uint256"
        }
      ],
      "stateMutability": "view",
      "type": "function"
    },
    {
      "inputs": [
        {
          "internalType": "address",
          "name": "from",
          "type": "address"
        },
        {
          "internalType": "address",
          "name": "to",
          "type": "address"
        },
        {
          "internalType": "uint256",
          "name": "tokenId",
          "type": "uint256"
        }
      ],
      "name": "transferFrom",
      "outputs": [],
      "stateMutability": "nonpayable",
      "type": "function"
    },
    {
      "inputs": [
        {
          "internalType": "address",
          "name": "newOwner",
          "type": "address"
        }
      ],
      "name": "transferOwnership",
      "outputs": [],
      "stateMutability": "nonpayable",
      "type": "function"
    },
    {
      "inputs": [],
      "name": "withdraw",
      "outputs": [],
      "stateMutability": "payable",
      "type": "function"
    }
  ],
  "bytecode": "0x60806040526000600860006101000a81548173ffffffffffffffffffffffffffffffffffffffff021916908373ffffffffffffffffffffffffffffffffffffffff1602179055506001600a55662386f26fc10000600b556005600c556000600d60006101000a81548160ff0219169083151502179055503480156200008357600080fd5b506040518060400160405280600881526020017f50617373616765730000000000000000000000000000000000000000000000008152506040518060400160405280600381526020017f50534700000000000000000000000000000000000000000000000000000000008152508160009080519060200190620001089291906200024a565b508060019080519060200190620001219291906200024a565b50505062000144620001386200017c60201b60201c565b6200018460201b60201c565b60405180606001604052806036815260200162004ded6036913960099080519060200190620001759291906200024a565b506200035f565b600033905090565b6000600660009054906101000a900473ffffffffffffffffffffffffffffffffffffffff16905081600660006101000a81548173ffffffffffffffffffffffffffffffffffffffff021916908373ffffffffffffffffffffffffffffffffffffffff1602179055508173ffffffffffffffffffffffffffffffffffffffff168173ffffffffffffffffffffffffffffffffffffffff167f8be0079c531659141344cd1fd0a4f28419497f9722a3daafe3b4186f6b6457e060405160405180910390a35050565b828054620002589062000329565b90600052602060002090601f0160209004810192826200027c5760008555620002c8565b82601f106200029757805160ff1916838001178555620002c8565b82800160010185558215620002c8579182015b82811115620002c7578251825591602001919060010190620002aa565b5b509050620002d79190620002db565b5090565b5b80821115620002f6576000816000905550600101620002dc565b5090565b7f4e487b7100000000000000000000000000000000000000000000000000000000600052602260045260246000fd5b600060028204905060018216806200034257607f821691505b60208210811415620003595762000358620002fa565b5b50919050565b614a7e806200036f6000396000f3fe6080604052600436106101f95760003560e01c80638da5cb5b1161010d578063b14990ab116100a0578063cfc86f7b1161006f578063cfc86f7b146106ed578063d5abeb0114610718578063e985e9c514610743578063f04fdc3114610780578063f2fde38b146107bd576101f9565b8063b14990ab14610642578063b88d4fde1461065e578063c4e3709514610687578063c87b56dd146106b0576101f9565b8063a035b1fe116100dc578063a035b1fe1461059c578063a22cb465146105c7578063abd3784e146105f0578063b071401b14610619576101f9565b80638da5cb5b146104f257806391b7f5ed1461051d57806394354fd01461054657806395d89b4114610571576101f9565b806355f804b31161019057806368428a1b1161015f57806368428a1b1461041f5780636c19e7831461044a57806370a0823114610473578063715018a6146104b057806375794a3c146104c7576101f9565b806355f804b3146103535780635a3f26721461037c578063627804af146103b95780636352211e146103e2576101f9565b806318160ddd116101cc57806318160ddd146102cc57806323b872dd146102f75780633ccfd60b1461032057806342842e0e1461032a576101f9565b806301ffc9a7146101fe57806306fdde031461023b578063081812fc14610266578063095ea7b3146102a3575b600080fd5b34801561020a57600080fd5b50610225600480360381019061022091906130f6565b6107e6565b604051610232919061313e565b60405180910390f35b34801561024757600080fd5b506102506108c8565b60405161025d91906131f2565b60405180910390f35b34801561027257600080fd5b5061028d6004803603810190610288919061324a565b61095a565b60405161029a91906132b8565b60405180910390f35b3480156102af57600080fd5b506102ca60048036038101906102c591906132ff565b6109df565b005b3480156102d857600080fd5b506102e1610af7565b6040516102ee919061334e565b60405180910390f35b34801561030357600080fd5b5061031e60048036038101906103199190613369565b610b0d565b005b610328610b6d565b005b34801561033657600080fd5b50610351600480360381019061034c9190613369565b610c96565b005b34801561035f57600080fd5b5061037a600480360381019061037591906134f1565b610cb6565b005b34801561038857600080fd5b506103a3600480360381019061039e919061353a565b610d4c565b6040516103b09190613625565b60405180910390f35b3480156103c557600080fd5b506103e060048036038101906103db91906132ff565b610e46565b005b3480156103ee57600080fd5b506104096004803603810190610404919061324a565b610f58565b60405161041691906132b8565b60405180910390f35b34801561042b57600080fd5b5061043461100a565b604051610441919061313e565b60405180910390f35b34801561045657600080fd5b50610471600480360381019061046c919061353a565b61101d565b005b34801561047f57600080fd5b5061049a6004803603810190610495919061353a565b6110a5565b6040516104a7919061334e565b60405180910390f35b3480156104bc57600080fd5b506104c561115d565b005b3480156104d357600080fd5b506104dc6111e5565b6040516104e9919061334e565b60405180910390f35b3480156104fe57600080fd5b506105076111eb565b60405161051491906132b8565b60405180910390f35b34801561052957600080fd5b50610544600480360381019061053f919061324a565b611215565b005b34801561055257600080fd5b5061055b61129b565b604051610568919061334e565b60405180910390f35b34801561057d57600080fd5b506105866112a1565b60405161059391906131f2565b60405180910390f35b3480156105a857600080fd5b506105b1611333565b6040516105be919061334e565b60405180910390f35b3480156105d357600080fd5b506105ee60048036038101906105e99190613673565b611339565b005b3480156105fc57600080fd5b506106176004803603810190610612919061324a565b61134f565b005b34801561062557600080fd5b50610640600480360381019061063b919061324a565b6113d7565b005b61065c60048036038101906106579190613769565b61145d565b005b34801561066a57600080fd5b506106856004803603810190610680919061388b565b611634565b005b34801561069357600080fd5b506106ae60048036038101906106a9919061390e565b611696565b005b3480156106bc57600080fd5b506106d760048036038101906106d2919061324a565b61172f565b6040516106e491906131f2565b60405180910390f35b3480156106f957600080fd5b506107026117d6565b60405161070f91906131f2565b60405180910390f35b34801561072457600080fd5b5061072d611864565b60405161073a919061334e565b60405180910390f35b34801561074f57600080fd5b5061076a6004803603810190610765919061393b565b611869565b604051610777919061313e565b60405180910390f35b34801561078c57600080fd5b506107a760048036038101906107a2919061324a565b6118fd565b6040516107b4919061313e565b60405180910390f35b3480156107c957600080fd5b506107e460048036038101906107df919061353a565b6119ab565b005b60007f80ac58cd000000000000000000000000000000000000000000000000000000007bffffffffffffffffffffffffffffffffffffffffffffffffffffffff1916827bffffffffffffffffffffffffffffffffffffffffffffffffffffffff191614806108b157507f5b5e139f000000000000000000000000000000000000000000000000000000007bffffffffffffffffffffffffffffffffffffffffffffffffffffffff1916827bffffffffffffffffffffffffffffffffffffffffffffffffffffffff1916145b806108c157506108c082611aa3565b5b9050919050565b6060600080546108d7906139aa565b80601f0160208091040260200160405190810160405280929190818152602001828054610903906139aa565b80156109505780601f1061092557610100808354040283529160200191610950565b820191906000526020600020905b81548152906001019060200180831161093357829003601f168201915b5050505050905090565b600061096582611b0d565b6109a4576040517f08c379a000000000000000000000000000000000000000000000000000000000815260040161099b90613a4e565b60405180910390fd5b6004600083815260200190815260200160002060009054906101000a900473ffffffffffffffffffffffffffffffffffffffff169050919050565b60006109ea82610f58565b90508073ffffffffffffffffffffffffffffffffffffffff168373ffffffffffffffffffffffffffffffffffffffff161415610a5b576040517f08c379a0000000000000000000000000000000000000000000000000000000008152600401610a5290613ae0565b60405180910390fd5b8073ffffffffffffffffffffffffffffffffffffffff16610a7a611b79565b73ffffffffffffffffffffffffffffffffffffffff161480610aa95750610aa881610aa3611b79565b611869565b5b610ae8576040517f08c379a0000000000000000000000000000000000000000000000000000000008152600401610adf90613b72565b60405180910390fd5b610af28383611b81565b505050565b60006001600a54610b089190613bc1565b905090565b610b1e610b18611b79565b82611c3a565b610b5d576040517f08c379a0000000000000000000000000000000000000000000000000000000008152600401610b5490613c67565b60405180910390fd5b610b68838383611d18565b505050565b610b75611b79565b73ffffffffffffffffffffffffffffffffffffffff16610b936111eb565b73ffffffffffffffffffffffffffffffffffffffff1614610be9576040517f08c379a0000000000000000000000000000000000000000000000000000000008152600401610be090613cd3565b60405180910390fd5b6000610bf36111eb565b73ffffffffffffffffffffffffffffffffffffffff1647604051610c1690613d24565b60006040518083038185875af1925050503d8060008114610c53576040519150601f19603f3d011682016040523d82523d6000602084013e610c58565b606091505b5050905080610c93576040517f750b219c00000000000000000000000000000000000000000000000000000000815260040160405180910390fd5b50565b610cb183838360405180602001604052806000815250611634565b505050565b610cbe611b79565b73ffffffffffffffffffffffffffffffffffffffff16610cdc6111eb565b73ffffffffffffffffffffffffffffffffffffffff1614610d32576040517f08c379a0000000000000000000000000000000000000000000000000000000008152600401610d2990613cd3565b60405180910390fd5b8060099080519060200190610d48929190612f9a565b5050565b60606000610d58610af7565b90506000610d65846110a5565b67ffffffffffffffff811115610d7e57610d7d6133c6565b5b604051908082528060200260200182016040528015610dac5781602001602082028036833780820191505090505b509050600080600190505b838111610e3a57610dc781610f58565b73ffffffffffffffffffffffffffffffffffffffff168673ffffffffffffffffffffffffffffffffffffffff161415610e275780838380610e0790613d39565b945081518110610e1a57610e19613d82565b5b6020026020010181815250505b8080610e3290613d39565b915050610db7565b50819350505050919050565b610e4e611b79565b73ffffffffffffffffffffffffffffffffffffffff16610e6c6111eb565b73ffffffffffffffffffffffffffffffffffffffff1614610ec2576040517f08c379a0000000000000000000000000000000000000000000000000000000008152600401610eb990613cd3565b60405180910390fd5b6000600a549050600a600183610ed89190613bc1565b82610ee39190613db1565b1115610f1b576040517f52df9fe500000000000000000000000000000000000000000000000000000000815260040160405180910390fd5b60005b82811015610f4b57610f308483611f7f565b81806001019250508080610f4390613d39565b915050610f1e565b5080600a81905550505050565b6000806002600084815260200190815260200160002060009054906101000a900473ffffffffffffffffffffffffffffffffffffffff169050600073ffffffffffffffffffffffffffffffffffffffff168173ffffffffffffffffffffffffffffffffffffffff161415611001576040517f08c379a0000000000000000000000000000000000000000000000000000000008152600401610ff890613e79565b60405180910390fd5b80915050919050565b600d60009054906101000a900460ff1681565b611025611b79565b73ffffffffffffffffffffffffffffffffffffffff166110436111eb565b73ffffffffffffffffffffffffffffffffffffffff1614611099576040517f08c379a000000000000000000000000000000000000000000000000000000000815260040161109090613cd3565b60405180910390fd5b6110a281612159565b50565b60008073ffffffffffffffffffffffffffffffffffffffff168273ffffffffffffffffffffffffffffffffffffffff161415611116576040517f08c379a000000000000000000000000000000000000000000000000000000000815260040161110d90613f0b565b60405180910390fd5b600360008373ffffffffffffffffffffffffffffffffffffffff1673ffffffffffffffffffffffffffffffffffffffff168152602001908152602001600020549050919050565b611165611b79565b73ffffffffffffffffffffffffffffffffffffffff166111836111eb565b73ffffffffffffffffffffffffffffffffffffffff16146111d9576040517f08c379a00000000000000000000000000000000000000000000000000000000081526004016111d090613cd3565b60405180910390fd5b6111e3600061219d565b565b600a5481565b6000600660009054906101000a900473ffffffffffffffffffffffffffffffffffffffff16905090565b61121d611b79565b73ffffffffffffffffffffffffffffffffffffffff1661123b6111eb565b73ffffffffffffffffffffffffffffffffffffffff1614611291576040517f08c379a000000000000000000000000000000000000000000000000000000000815260040161128890613cd3565b60405180910390fd5b80600b8190555050565b600c5481565b6060600180546112b0906139aa565b80601f01602080910402602001604051908101604052809291908181526020018280546112dc906139aa565b80156113295780601f106112fe57610100808354040283529160200191611329565b820191906000526020600020905b81548152906001019060200180831161130c57829003601f168201915b5050505050905090565b600b5481565b61134b611344611b79565b8383612263565b5050565b611357611b79565b73ffffffffffffffffffffffffffffffffffffffff166113756111eb565b73ffffffffffffffffffffffffffffffffffffffff16146113cb576040517f08c379a00000000000000000000000000000000000000000000000000000000081526004016113c290613cd3565b60405180910390fd5b6113d4816123d0565b50565b6113df611b79565b73ffffffffffffffffffffffffffffffffffffffff166113fd6111eb565b73ffffffffffffffffffffffffffffffffffffffff1614611453576040517f08c379a000000000000000000000000000000000000000000000000000000000815260040161144a90613cd3565b60405180910390fd5b80600c8190555050565b6000600a549050600d60009054906101000a900460ff166114aa576040517f3f88677400000000000000000000000000000000000000000000000000000000815260040160405180910390fd5b600a6001848490506114bc9190613bc1565b826114c79190613db1565b11156114ff576040517f52df9fe500000000000000000000000000000000000000000000000000000000815260040160405180910390fd5b3273ffffffffffffffffffffffffffffffffffffffff163373ffffffffffffffffffffffffffffffffffffffff1614611563576040517e61c20e00000000000000000000000000000000000000000000000000000000815260040160405180910390fd5b82829050600b546115749190613f2b565b34146115ab576040517ebfc92100000000000000000000000000000000000000000000000000000000815260040160405180910390fd5b60005b83839050811015611625576116008686838181106115cf576115ce613d82565b5b90506020028101906115e19190613f94565b8686858181106115f4576115f3613d82565b5b905060200201356124b6565b61160a3383611f7f565b8180600101925050808061161d90613d39565b9150506115ae565b5080600a819055505050505050565b61164561163f611b79565b83611c3a565b611684576040517f08c379a000000000000000000000000000000000000000000000000000000000815260040161167b90613c67565b60405180910390fd5b61169084848484612678565b50505050565b61169e611b79565b73ffffffffffffffffffffffffffffffffffffffff166116bc6111eb565b73ffffffffffffffffffffffffffffffffffffffff1614611712576040517f08c379a000000000000000000000000000000000000000000000000000000000815260040161170990613cd3565b60405180910390fd5b80600d60006101000a81548160ff02191690831515021790555050565b606061173a82611b0d565b611779576040517f08c379a000000000000000000000000000000000000000000000000000000000815260040161177090614069565b60405180910390fd5b60006117836126d4565b905060008151116117a357604051806020016040528060008152506117ce565b806117ad84612766565b6040516020016117be9291906140c5565b6040516020818303038152906040525b915050919050565b600980546117e3906139aa565b80601f016020809104026020016040519081016040528092919081815260200182805461180f906139aa565b801561185c5780601f106118315761010080835404028352916020019161185c565b820191906000526020600020905b81548152906001019060200180831161183f57829003601f168201915b505050505081565b600a81565b6000600560008473ffffffffffffffffffffffffffffffffffffffff1673ffffffffffffffffffffffffffffffffffffffff16815260200190815260200160002060008373ffffffffffffffffffffffffffffffffffffffff1673ffffffffffffffffffffffffffffffffffffffff16815260200190815260200160002060009054906101000a900460ff16905092915050565b60006101006007805490506119129190613f2b565b821061194a576040517fc6c61cb200000000000000000000000000000000000000000000000000000000815260040160405180910390fd5b60006101008361195a9190614118565b905060006101008461196c9190614149565b905060006007838154811061198457611983613d82565b5b90600052602060002001549050600060018383901c16905060018114945050505050919050565b6119b3611b79565b73ffffffffffffffffffffffffffffffffffffffff166119d16111eb565b73ffffffffffffffffffffffffffffffffffffffff1614611a27576040517f08c379a0000000000000000000000000000000000000000000000000000000008152600401611a1e90613cd3565b60405180910390fd5b600073ffffffffffffffffffffffffffffffffffffffff168173ffffffffffffffffffffffffffffffffffffffff161415611a97576040517f08c379a0000000000000000000000000000000000000000000000000000000008152600401611a8e906141ec565b60405180910390fd5b611aa08161219d565b50565b60007f01ffc9a7000000000000000000000000000000000000000000000000000000007bffffffffffffffffffffffffffffffffffffffffffffffffffffffff1916827bffffffffffffffffffffffffffffffffffffffffffffffffffffffff1916149050919050565b60008073ffffffffffffffffffffffffffffffffffffffff166002600084815260200190815260200160002060009054906101000a900473ffffffffffffffffffffffffffffffffffffffff1673ffffffffffffffffffffffffffffffffffffffff1614159050919050565b600033905090565b816004600083815260200190815260200160002060006101000a81548173ffffffffffffffffffffffffffffffffffffffff021916908373ffffffffffffffffffffffffffffffffffffffff160217905550808273ffffffffffffffffffffffffffffffffffffffff16611bf483610f58565b73ffffffffffffffffffffffffffffffffffffffff167f8c5be1e5ebec7d5bd14f71427d1e84f3dd0314c0f7b2291e5b200ac8c7c3b92560405160405180910390a45050565b6000611c4582611b0d565b611c84576040517f08c379a0000000000000000000000000000000000000000000000000000000008152600401611c7b9061427e565b60405180910390fd5b6000611c8f83610f58565b90508073ffffffffffffffffffffffffffffffffffffffff168473ffffffffffffffffffffffffffffffffffffffff161480611cfe57508373ffffffffffffffffffffffffffffffffffffffff16611ce68461095a565b73ffffffffffffffffffffffffffffffffffffffff16145b80611d0f5750611d0e8185611869565b5b91505092915050565b8273ffffffffffffffffffffffffffffffffffffffff16611d3882610f58565b73ffffffffffffffffffffffffffffffffffffffff1614611d8e576040517f08c379a0000000000000000000000000000000000000000000000000000000008152600401611d8590614310565b60405180910390fd5b600073ffffffffffffffffffffffffffffffffffffffff168273ffffffffffffffffffffffffffffffffffffffff161415611dfe576040517f08c379a0000000000000000000000000000000000000000000000000000000008152600401611df5906143a2565b60405180910390fd5b611e098383836128c7565b611e14600082611b81565b6001600360008573ffffffffffffffffffffffffffffffffffffffff1673ffffffffffffffffffffffffffffffffffffffff1681526020019081526020016000206000828254611e649190613bc1565b925050819055506001600360008473ffffffffffffffffffffffffffffffffffffffff1673ffffffffffffffffffffffffffffffffffffffff1681526020019081526020016000206000828254611ebb9190613db1565b92505081905550816002600083815260200190815260200160002060006101000a81548173ffffffffffffffffffffffffffffffffffffffff021916908373ffffffffffffffffffffffffffffffffffffffff160217905550808273ffffffffffffffffffffffffffffffffffffffff168473ffffffffffffffffffffffffffffffffffffffff167fddf252ad1be2c89b69c2b068fc378daa952ba7f163c4a11628f55a4df523b3ef60405160405180910390a4611f7a8383836128cc565b505050565b600073ffffffffffffffffffffffffffffffffffffffff168273ffffffffffffffffffffffffffffffffffffffff161415611fef576040517f08c379a0000000000000000000000000000000000000000000000000000000008152600401611fe69061440e565b60405180910390fd5b611ff881611b0d565b15612038576040517f08c379a000000000000000000000000000000000000000000000000000000000815260040161202f9061447a565b60405180910390fd5b612044600083836128c7565b6001600360008473ffffffffffffffffffffffffffffffffffffffff1673ffffffffffffffffffffffffffffffffffffffff16815260200190815260200160002060008282546120949190613db1565b92505081905550816002600083815260200190815260200160002060006101000a81548173ffffffffffffffffffffffffffffffffffffffff021916908373ffffffffffffffffffffffffffffffffffffffff160217905550808273ffffffffffffffffffffffffffffffffffffffff16600073ffffffffffffffffffffffffffffffffffffffff167fddf252ad1be2c89b69c2b068fc378daa952ba7f163c4a11628f55a4df523b3ef60405160405180910390a4612155600083836128cc565b5050565b80600860006101000a81548173ffffffffffffffffffffffffffffffffffffffff021916908373ffffffffffffffffffffffffffffffffffffffff16021790555050565b6000600660009054906101000a900473ffffffffffffffffffffffffffffffffffffffff16905081600660006101000a81548173ffffffffffffffffffffffffffffffffffffffff021916908373ffffffffffffffffffffffffffffffffffffffff1602179055508173ffffffffffffffffffffffffffffffffffffffff168173ffffffffffffffffffffffffffffffffffffffff167f8be0079c531659141344cd1fd0a4f28419497f9722a3daafe3b4186f6b6457e060405160405180910390a35050565b8173ffffffffffffffffffffffffffffffffffffffff168373ffffffffffffffffffffffffffffffffffffffff1614156122d2576040517f08c379a00000000000000000000000000000000000000000000000000000000081526004016122c9906144e6565b60405180910390fd5b80600560008573ffffffffffffffffffffffffffffffffffffffff1673ffffffffffffffffffffffffffffffffffffffff16815260200190815260200160002060008473ffffffffffffffffffffffffffffffffffffffff1673ffffffffffffffffffffffffffffffffffffffff16815260200190815260200160002060006101000a81548160ff0219169083151502179055508173ffffffffffffffffffffffffffffffffffffffff168373ffffffffffffffffffffffffffffffffffffffff167f17307eab39ab6107e8899845ad3d59bd9653f200f220920489ca2b5937696c31836040516123c3919061313e565b60405180910390a3505050565b60006001610100836123e29190614118565b6123ec9190613db1565b905060008167ffffffffffffffff81111561240a576124096133c6565b5b6040519080825280602002602001820160405280156124385781602001602082028036833780820191505090505b50905060005b82811015612499577fffffffffffffffffffffffffffffffffffffffffffffffffffffffffffffffff82828151811061247a57612479613d82565b5b602002602001018181525050808061249190613d39565b91505061243e565b5080600790805190602001906124b0929190613020565b50505050565b61252c33826040516020016124cc92919061456f565b6040516020818303038152906040528051906020012084848080601f016020809104026020016040519081016040528093929190818152602001838380828437600081840152601f19601f820116905080830192505050505050506128d1565b612562576040517f8baa579f00000000000000000000000000000000000000000000000000000000815260040160405180910390fd5b6101006007805490506125759190613f2b565b81106125ad576040517fc6c61cb200000000000000000000000000000000000000000000000000000000815260040160405180910390fd5b60008060008061010085816125c5576125c46140e9565b5b04935061010085816125da576125d96140e9565b5b069250600784815481106125f1576125f0613d82565b5b9060005260206000200154915060018383901c1690506000811415612642576040517fddefae2800000000000000000000000000000000000000000000000000000000815260040160405180910390fd5b826001901b1982169150816007858154811061266157612660613d82565b5b906000526020600020018190555050505050505050565b612683848484611d18565b61268f848484846129d4565b6126ce576040517f08c379a00000000000000000000000000000000000000000000000000000000081526004016126c59061460d565b60405180910390fd5b50505050565b6060600980546126e3906139aa565b80601f016020809104026020016040519081016040528092919081815260200182805461270f906139aa565b801561275c5780601f106127315761010080835404028352916020019161275c565b820191906000526020600020905b81548152906001019060200180831161273f57829003601f168201915b5050505050905090565b606060008214156127ae576040518060400160405280600181526020017f300000000000000000000000000000000000000000000000000000000000000081525090506128c2565b600082905060005b600082146127e05780806127c990613d39565b915050600a826127d99190614118565b91506127b6565b60008167ffffffffffffffff8111156127fc576127fb6133c6565b5b6040519080825280601f01601f19166020018201604052801561282e5781602001600182028036833780820191505090505b5090505b600085146128bb576001826128479190613bc1565b9150600a856128569190614149565b60306128629190613db1565b60f81b81838151811061287857612877613d82565b5b60200101907effffffffffffffffffffffffffffffffffffffffffffffffffffffffffffff1916908160001a905350600a856128b49190614118565b9450612832565b8093505050505b919050565b505050565b505050565b60008073ffffffffffffffffffffffffffffffffffffffff16600860009054906101000a900473ffffffffffffffffffffffffffffffffffffffff1673ffffffffffffffffffffffffffffffffffffffff16141561295b576040517f4501a91900000000000000000000000000000000000000000000000000000000815260040160405180910390fd5b600061296684612b5c565b9050600860009054906101000a900473ffffffffffffffffffffffffffffffffffffffff1673ffffffffffffffffffffffffffffffffffffffff166129b48483612b8c90919063ffffffff16565b73ffffffffffffffffffffffffffffffffffffffff161491505092915050565b60006129f58473ffffffffffffffffffffffffffffffffffffffff16612bb3565b15612b4f578373ffffffffffffffffffffffffffffffffffffffff1663150b7a02612a1e611b79565b8786866040518563ffffffff1660e01b8152600401612a409493929190614682565b6020604051808303816000875af1925050508015612a7c57506040513d601f19601f82011682018060405250810190612a7991906146e3565b60015b612aff573d8060008114612aac576040519150601f19603f3d011682016040523d82523d6000602084013e612ab1565b606091505b50600081511415612af7576040517f08c379a0000000000000000000000000000000000000000000000000000000008152600401612aee9061460d565b60405180910390fd5b805181602001fd5b63150b7a0260e01b7bffffffffffffffffffffffffffffffffffffffffffffffffffffffff1916817bffffffffffffffffffffffffffffffffffffffffffffffffffffffff191614915050612b54565b600190505b949350505050565b600081604051602001612b6f9190614787565b604051602081830303815290604052805190602001209050919050565b6000806000612b9b8585612bd6565b91509150612ba881612c59565b819250505092915050565b6000808273ffffffffffffffffffffffffffffffffffffffff163b119050919050565b600080604183511415612c185760008060006020860151925060408601519150606086015160001a9050612c0c87828585612e2e565b94509450505050612c52565b604083511415612c49576000806020850151915060408501519050612c3e868383612f3b565b935093505050612c52565b60006002915091505b9250929050565b60006004811115612c6d57612c6c6147ad565b5b816004811115612c8057612c7f6147ad565b5b1415612c8b57612e2b565b60016004811115612c9f57612c9e6147ad565b5b816004811115612cb257612cb16147ad565b5b1415612cf3576040517f08c379a0000000000000000000000000000000000000000000000000000000008152600401612cea90614828565b60405180910390fd5b60026004811115612d0757612d066147ad565b5b816004811115612d1a57612d196147ad565b5b1415612d5b576040517f08c379a0000000000000000000000000000000000000000000000000000000008152600401612d5290614894565b60405180910390fd5b60036004811115612d6f57612d6e6147ad565b5b816004811115612d8257612d816147ad565b5b1415612dc3576040517f08c379a0000000000000000000000000000000000000000000000000000000008152600401612dba90614926565b60405180910390fd5b600480811115612dd657612dd56147ad565b5b816004811115612de957612de86147ad565b5b1415612e2a576040517f08c379a0000000000000000000000000000000000000000000000000000000008152600401612e21906149b8565b60405180910390fd5b5b50565b6000807f7fffffffffffffffffffffffffffffff5d576e7357a4501ddfe92f46681b20a08360001c1115612e69576000600391509150612f32565b601b8560ff1614158015612e815750601c8560ff1614155b15612e93576000600491509150612f32565b600060018787878760405160008152602001604052604051612eb89493929190614a03565b6020604051602081039080840390855afa158015612eda573d6000803e3d6000fd5b505050602060405103519050600073ffffffffffffffffffffffffffffffffffffffff168173ffffffffffffffffffffffffffffffffffffffff161415612f2957600060019250925050612f32565b80600092509250505b94509492505050565b60008060007f7fffffffffffffffffffffffffffffffffffffffffffffffffffffffffffffff60001b841690506000601b60ff8660001c901c612f7e9190613db1565b9050612f8c87828885612e2e565b935093505050935093915050565b828054612fa6906139aa565b90600052602060002090601f016020900481019282612fc8576000855561300f565b82601f10612fe157805160ff191683800117855561300f565b8280016001018555821561300f579182015b8281111561300e578251825591602001919060010190612ff3565b5b50905061301c919061306d565b5090565b82805482825590600052602060002090810192821561305c579160200282015b8281111561305b578251825591602001919060010190613040565b5b509050613069919061306d565b5090565b5b8082111561308657600081600090555060010161306e565b5090565b6000604051905090565b600080fd5b600080fd5b60007fffffffff0000000000000000000000000000000000000000000000000000000082169050919050565b6130d38161309e565b81146130de57600080fd5b50565b6000813590506130f0816130ca565b92915050565b60006020828403121561310c5761310b613094565b5b600061311a848285016130e1565b91505092915050565b60008115159050919050565b61313881613123565b82525050565b6000602082019050613153600083018461312f565b92915050565b600081519050919050565b600082825260208201905092915050565b60005b83811015613193578082015181840152602081019050613178565b838111156131a2576000848401525b50505050565b6000601f19601f8301169050919050565b60006131c482613159565b6131ce8185613164565b93506131de818560208601613175565b6131e7816131a8565b840191505092915050565b6000602082019050818103600083015261320c81846131b9565b905092915050565b6000819050919050565b61322781613214565b811461323257600080fd5b50565b6000813590506132448161321e565b92915050565b6000602082840312156132605761325f613094565b5b600061326e84828501613235565b91505092915050565b600073ffffffffffffffffffffffffffffffffffffffff82169050919050565b60006132a282613277565b9050919050565b6132b281613297565b82525050565b60006020820190506132cd60008301846132a9565b92915050565b6132dc81613297565b81146132e757600080fd5b50565b6000813590506132f9816132d3565b92915050565b6000806040838503121561331657613315613094565b5b6000613324858286016132ea565b925050602061333585828601613235565b9150509250929050565b61334881613214565b82525050565b6000602082019050613363600083018461333f565b92915050565b60008060006060848603121561338257613381613094565b5b6000613390868287016132ea565b93505060206133a1868287016132ea565b92505060406133b286828701613235565b9150509250925092565b600080fd5b600080fd5b7f4e487b7100000000000000000000000000000000000000000000000000000000600052604160045260246000fd5b6133fe826131a8565b810181811067ffffffffffffffff8211171561341d5761341c6133c6565b5b80604052505050565b600061343061308a565b905061343c82826133f5565b919050565b600067ffffffffffffffff82111561345c5761345b6133c6565b5b613465826131a8565b9050602081019050919050565b82818337600083830152505050565b600061349461348f84613441565b613426565b9050828152602081018484840111156134b0576134af6133c1565b5b6134bb848285613472565b509392505050565b600082601f8301126134d8576134d76133bc565b5b81356134e8848260208601613481565b91505092915050565b60006020828403121561350757613506613094565b5b600082013567ffffffffffffffff81111561352557613524613099565b5b613531848285016134c3565b91505092915050565b6000602082840312156135505761354f613094565b5b600061355e848285016132ea565b91505092915050565b600081519050919050565b600082825260208201905092915050565b6000819050602082019050919050565b61359c81613214565b82525050565b60006135ae8383613593565b60208301905092915050565b6000602082019050919050565b60006135d282613567565b6135dc8185613572565b93506135e783613583565b8060005b838110156136185781516135ff88826135a2565b975061360a836135ba565b9250506001810190506135eb565b5085935050505092915050565b6000602082019050818103600083015261363f81846135c7565b905092915050565b61365081613123565b811461365b57600080fd5b50565b60008135905061366d81613647565b92915050565b6000806040838503121561368a57613689613094565b5b6000613698858286016132ea565b92505060206136a98582860161365e565b9150509250929050565b600080fd5b600080fd5b60008083601f8401126136d3576136d26133bc565b5b8235905067ffffffffffffffff8111156136f0576136ef6136b3565b5b60208301915083602082028301111561370c5761370b6136b8565b5b9250929050565b60008083601f840112613729576137286133bc565b5b8235905067ffffffffffffffff811115613746576137456136b3565b5b602083019150836020820283011115613762576137616136b8565b5b9250929050565b6000806000806040858703121561378357613782613094565b5b600085013567ffffffffffffffff8111156137a1576137a0613099565b5b6137ad878288016136bd565b9450945050602085013567ffffffffffffffff8111156137d0576137cf613099565b5b6137dc87828801613713565b925092505092959194509250565b600067ffffffffffffffff821115613805576138046133c6565b5b61380e826131a8565b9050602081019050919050565b600061382e613829846137ea565b613426565b90508281526020810184848401111561384a576138496133c1565b5b613855848285613472565b509392505050565b600082601f830112613872576138716133bc565b5b813561388284826020860161381b565b91505092915050565b600080600080608085870312156138a5576138a4613094565b5b60006138b3878288016132ea565b94505060206138c4878288016132ea565b93505060406138d587828801613235565b925050606085013567ffffffffffffffff8111156138f6576138f5613099565b5b6139028782880161385d565b91505092959194509250565b60006020828403121561392457613923613094565b5b60006139328482850161365e565b91505092915050565b6000806040838503121561395257613951613094565b5b6000613960858286016132ea565b9250506020613971858286016132ea565b9150509250929050565b7f4e487b7100000000000000000000000000000000000000000000000000000000600052602260045260246000fd5b600060028204905060018216806139c257607f821691505b602082108114156139d6576139d561397b565b5b50919050565b7f4552433732313a20617070726f76656420717565727920666f72206e6f6e657860008201527f697374656e7420746f6b656e0000000000000000000000000000000000000000602082015250565b6000613a38602c83613164565b9150613a43826139dc565b604082019050919050565b60006020820190508181036000830152613a6781613a2b565b9050919050565b7f4552433732313a20617070726f76616c20746f2063757272656e74206f776e6560008201527f7200000000000000000000000000000000000000000000000000000000000000602082015250565b6000613aca602183613164565b9150613ad582613a6e565b604082019050919050565b60006020820190508181036000830152613af981613abd565b9050919050565b7f4552433732313a20617070726f76652063616c6c6572206973206e6f74206f7760008201527f6e6572206e6f7220617070726f76656420666f7220616c6c0000000000000000602082015250565b6000613b5c603883613164565b9150613b6782613b00565b604082019050919050565b60006020820190508181036000830152613b8b81613b4f565b9050919050565b7f4e487b7100000000000000000000000000000000000000000000000000000000600052601160045260246000fd5b6000613bcc82613214565b9150613bd783613214565b925082821015613bea57613be9613b92565b5b828203905092915050565b7f4552433732313a207472616e736665722063616c6c6572206973206e6f74206f60008201527f776e6572206e6f7220617070726f766564000000000000000000000000000000602082015250565b6000613c51603183613164565b9150613c5c82613bf5565b604082019050919050565b60006020820190508181036000830152613c8081613c44565b9050919050565b7f4f776e61626c653a2063616c6c6572206973206e6f7420746865206f776e6572600082015250565b6000613cbd602083613164565b9150613cc882613c87565b602082019050919050565b60006020820190508181036000830152613cec81613cb0565b9050919050565b600081905092915050565b50565b6000613d0e600083613cf3565b9150613d1982613cfe565b600082019050919050565b6000613d2f82613d01565b9150819050919050565b6000613d4482613214565b91507fffffffffffffffffffffffffffffffffffffffffffffffffffffffffffffffff821415613d7757613d76613b92565b5b600182019050919050565b7f4e487b7100000000000000000000000000000000000000000000000000000000600052603260045260246000fd5b6000613dbc82613214565b9150613dc783613214565b9250827fffffffffffffffffffffffffffffffffffffffffffffffffffffffffffffffff03821115613dfc57613dfb613b92565b5b828201905092915050565b7f4552433732313a206f776e657220717565727920666f72206e6f6e657869737460008201527f656e7420746f6b656e0000000000000000000000000000000000000000000000602082015250565b6000613e63602983613164565b9150613e6e82613e07565b604082019050919050565b60006020820190508181036000830152613e9281613e56565b9050919050565b7f4552433732313a2062616c616e636520717565727920666f7220746865207a6560008201527f726f206164647265737300000000000000000000000000000000000000000000602082015250565b6000613ef5602a83613164565b9150613f0082613e99565b604082019050919050565b60006020820190508181036000830152613f2481613ee8565b9050919050565b6000613f3682613214565b9150613f4183613214565b9250817fffffffffffffffffffffffffffffffffffffffffffffffffffffffffffffffff0483118215151615613f7a57613f79613b92565b5b828202905092915050565b600080fd5b600080fd5b600080fd5b60008083356001602003843603038112613fb157613fb0613f85565b5b80840192508235915067ffffffffffffffff821115613fd357613fd2613f8a565b5b602083019250600182023603831315613fef57613fee613f8f565b5b509250929050565b7f4552433732314d657461646174613a2055524920717565727920666f72206e6f60008201527f6e6578697374656e7420746f6b656e0000000000000000000000000000000000602082015250565b6000614053602f83613164565b915061405e82613ff7565b604082019050919050565b6000602082019050818103600083015261408281614046565b9050919050565b600081905092915050565b600061409f82613159565b6140a98185614089565b93506140b9818560208601613175565b80840191505092915050565b60006140d18285614094565b91506140dd8284614094565b91508190509392505050565b7f4e487b7100000000000000000000000000000000000000000000000000000000600052601260045260246000fd5b600061412382613214565b915061412e83613214565b92508261413e5761413d6140e9565b5b828204905092915050565b600061415482613214565b915061415f83613214565b92508261416f5761416e6140e9565b5b828206905092915050565b7f4f776e61626c653a206e6577206f776e657220697320746865207a65726f206160008201527f6464726573730000000000000000000000000000000000000000000000000000602082015250565b60006141d6602683613164565b91506141e18261417a565b604082019050919050565b60006020820190508181036000830152614205816141c9565b9050919050565b7f4552433732313a206f70657261746f7220717565727920666f72206e6f6e657860008201527f697374656e7420746f6b656e0000000000000000000000000000000000000000602082015250565b6000614268602c83613164565b91506142738261420c565b604082019050919050565b600060208201905081810360008301526142978161425b565b9050919050565b7f4552433732313a207472616e736665722066726f6d20696e636f72726563742060008201527f6f776e6572000000000000000000000000000000000000000000000000000000602082015250565b60006142fa602583613164565b91506143058261429e565b604082019050919050565b60006020820190508181036000830152614329816142ed565b9050919050565b7f4552433732313a207472616e7366657220746f20746865207a65726f2061646460008201527f7265737300000000000000000000000000000000000000000000000000000000602082015250565b600061438c602483613164565b915061439782614330565b604082019050919050565b600060208201905081810360008301526143bb8161437f565b9050919050565b7f4552433732313a206d696e7420746f20746865207a65726f2061646472657373600082015250565b60006143f8602083613164565b9150614403826143c2565b602082019050919050565b60006020820190508181036000830152614427816143eb565b9050919050565b7f4552433732313a20746f6b656e20616c7265616479206d696e74656400000000600082015250565b6000614464601c83613164565b915061446f8261442e565b602082019050919050565b6000602082019050818103600083015261449381614457565b9050919050565b7f4552433732313a20617070726f766520746f2063616c6c657200000000000000600082015250565b60006144d0601983613164565b91506144db8261449a565b602082019050919050565b600060208201905081810360008301526144ff816144c3565b9050919050565b60008160601b9050919050565b600061451e82614506565b9050919050565b600061453082614513565b9050919050565b61454861454382613297565b614525565b82525050565b6000819050919050565b61456961456482613214565b61454e565b82525050565b600061457b8285614537565b60148201915061458b8284614558565b6020820191508190509392505050565b7f4552433732313a207472616e7366657220746f206e6f6e20455243373231526560008201527f63656976657220696d706c656d656e7465720000000000000000000000000000602082015250565b60006145f7603283613164565b91506146028261459b565b604082019050919050565b60006020820190508181036000830152614626816145ea565b9050919050565b600081519050919050565b600082825260208201905092915050565b60006146548261462d565b61465e8185614638565b935061466e818560208601613175565b614677816131a8565b840191505092915050565b600060808201905061469760008301876132a9565b6146a460208301866132a9565b6146b1604083018561333f565b81810360608301526146c38184614649565b905095945050505050565b6000815190506146dd816130ca565b92915050565b6000602082840312156146f9576146f8613094565b5b6000614707848285016146ce565b91505092915050565b7f19457468657265756d205369676e6564204d6573736167653a0a333200000000600082015250565b6000614746601c83614089565b915061475182614710565b601c82019050919050565b6000819050919050565b6000819050919050565b61478161477c8261475c565b614766565b82525050565b600061479282614739565b915061479e8284614770565b60208201915081905092915050565b7f4e487b7100000000000000000000000000000000000000000000000000000000600052602160045260246000fd5b7f45434453413a20696e76616c6964207369676e61747572650000000000000000600082015250565b6000614812601883613164565b915061481d826147dc565b602082019050919050565b6000602082019050818103600083015261484181614805565b9050919050565b7f45434453413a20696e76616c6964207369676e6174757265206c656e67746800600082015250565b600061487e601f83613164565b915061488982614848565b602082019050919050565b600060208201905081810360008301526148ad81614871565b9050919050565b7f45434453413a20696e76616c6964207369676e6174757265202773272076616c60008201527f7565000000000000000000000000000000000000000000000000000000000000602082015250565b6000614910602283613164565b915061491b826148b4565b604082019050919050565b6000602082019050818103600083015261493f81614903565b9050919050565b7f45434453413a20696e76616c6964207369676e6174757265202776272076616c60008201527f7565000000000000000000000000000000000000000000000000000000000000602082015250565b60006149a2602283613164565b91506149ad82614946565b604082019050919050565b600060208201905081810360008301526149d181614995565b9050919050565b6149e18161475c565b82525050565b600060ff82169050919050565b6149fd816149e7565b82525050565b6000608082019050614a1860008301876149d8565b614a2560208301866149f4565b614a3260408301856149d8565b614a3f60608301846149d8565b9594505050505056fea2646970667358221220fa875bae145bff67768f462e9700b87e1b7fb95e14b964ed76137cd412eed5f264736f6c634300080b0033697066733a2f2f516d503342596f476f7462364e477278784847574a6953314d6f68654c514c476f437246615072357575527469762f",
  "linkReferences": {},
  "deployedLinkReferences": {}
}