{
  "_format": "hh-sol-artifact-1",
  "contractName": "ERC721WL",
  "sourceName": "cache/solpp-generated-contracts/ERC721WL.sol",
  "abi": [
    {
      "inputs": [],
      "stateMutability": "nonpayable",
      "type": "constructor"
    },
    {
      "inputs": [],
      "name": "AlreadyMinted",
      "type": "error"
    },
    {
      "inputs": [],
      "name": "InvalidPrice",
      "type": "error"
    },
    {
      "inputs": [],
      "name": "InvalidQuantity",
      "type": "error"
    },
    {
      "inputs": [],
      "name": "InvalidSignature",
      "type": "error"
    },
    {
      "inputs": [],
      "name": "InvalidSignerAddress",
      "type": "error"
    },
    {
      "inputs": [],
      "name": "InvalidSpotId",
      "type": "error"
    },
    {
      "inputs": [],
      "name": "NoBots",
      "type": "error"
    },
    {
      "inputs": [],
      "name": "SaleInactive",
      "type": "error"
    },
    {
      "inputs": [],
      "name": "SoldOut",
      "type": "error"
    },
    {
      "inputs": [],
      "name": "WithdrawFailed",
      "type": "error"
    },
    {
      "anonymous": false,
      "inputs": [
        {
          "indexed": true,
          "internalType": "address",
          "name": "owner",
          "type": "address"
        },
        {
          "indexed": true,
          "internalType": "address",
          "name": "approved",
          "type": "address"
        },
        {
          "indexed": true,
          "internalType": "uint256",
          "name": "tokenId",
          "type": "uint256"
        }
      ],
      "name": "Approval",
      "type": "event"
    },
    {
      "anonymous": false,
      "inputs": [
        {
          "indexed": true,
          "internalType": "address",
          "name": "owner",
          "type": "address"
        },
        {
          "indexed": true,
          "internalType": "address",
          "name": "operator",
          "type": "address"
        },
        {
          "indexed": false,
          "internalType": "bool",
          "name": "approved",
          "type": "bool"
        }
      ],
      "name": "ApprovalForAll",
      "type": "event"
    },
    {
      "anonymous": false,
      "inputs": [
        {
          "indexed": true,
          "internalType": "address",
          "name": "previousOwner",
          "type": "address"
        },
        {
          "indexed": true,
          "internalType": "address",
          "name": "newOwner",
          "type": "address"
        }
      ],
      "name": "OwnershipTransferred",
      "type": "event"
    },
    {
      "anonymous": false,
      "inputs": [
        {
          "indexed": true,
          "internalType": "address",
          "name": "from",
          "type": "address"
        },
        {
          "indexed": true,
          "internalType": "address",
          "name": "to",
          "type": "address"
        },
        {
          "indexed": true,
          "internalType": "uint256",
          "name": "tokenId",
          "type": "uint256"
        }
      ],
      "name": "Transfer",
      "type": "event"
    },
    {
      "inputs": [],
      "name": "_baseTokenURI",
      "outputs": [
        {
          "internalType": "string",
          "name": "",
          "type": "string"
        }
      ],
      "stateMutability": "view",
      "type": "function"
    },
    {
      "inputs": [
        {
          "internalType": "address",
          "name": "to",
          "type": "address"
        },
        {
          "internalType": "uint256",
          "name": "tokenId",
          "type": "uint256"
        }
      ],
      "name": "approve",
      "outputs": [],
      "stateMutability": "nonpayable",
      "type": "function"
    },
    {
      "inputs": [
        {
          "internalType": "address",
          "name": "owner",
          "type": "address"
        }
      ],
      "name": "balanceOf",
      "outputs": [
        {
          "internalType": "uint256",
          "name": "",
          "type": "uint256"
        }
      ],
      "stateMutability": "view",
      "type": "function"
    },
    {
      "inputs": [
        {
          "internalType": "address",
          "name": "receiver",
          "type": "address"
        },
        {
          "internalType": "uint256",
          "name": "qty",
          "type": "uint256"
        }
      ],
      "name": "devMint",
      "outputs": [],
      "stateMutability": "nonpayable",
      "type": "function"
    },
    {
      "inputs": [
        {
          "internalType": "uint256",
          "name": "tokenId",
          "type": "uint256"
        }
      ],
      "name": "getApproved",
      "outputs": [
        {
          "internalType": "address",
          "name": "",
          "type": "address"
        }
      ],
      "stateMutability": "view",
      "type": "function"
    },
    {
      "inputs": [
        {
          "internalType": "address",
          "name": "owner",
          "type": "address"
        },
        {
          "internalType": "address",
          "name": "operator",
          "type": "address"
        }
      ],
      "name": "isApprovedForAll",
      "outputs": [
        {
          "internalType": "bool",
          "name": "",
          "type": "bool"
        }
      ],
      "stateMutability": "view",
      "type": "function"
    },
    {
      "inputs": [
        {
          "internalType": "uint256",
          "name": "spotId",
          "type": "uint256"
        }
      ],
      "name": "isValidSpot",
      "outputs": [
        {
          "internalType": "bool",
          "name": "",
          "type": "bool"
        }
      ],
      "stateMutability": "view",
      "type": "function"
    },
    {
      "inputs": [],
      "name": "maxMintAmountPerTx",
      "outputs": [
        {
          "internalType": "uint256",
          "name": "",
          "type": "uint256"
        }
      ],
      "stateMutability": "view",
      "type": "function"
    },
    {
      "inputs": [],
      "name": "maxSupply",
      "outputs": [
        {
          "internalType": "uint256",
          "name": "",
          "type": "uint256"
        }
      ],
      "stateMutability": "view",
      "type": "function"
    },
    {
      "inputs": [
        {
          "internalType": "bytes[]",
          "name": "_signatures",
          "type": "bytes[]"
        },
        {
          "internalType": "uint256[]",
          "name": "spotIds",
          "type": "uint256[]"
        }
      ],
      "name": "mint",
      "outputs": [],
      "stateMutability": "payable",
      "type": "function"
    },
    {
      "inputs": [],
      "name": "name",
      "outputs": [
        {
          "internalType": "string",
          "name": "",
          "type": "string"
        }
      ],
      "stateMutability": "view",
      "type": "function"
    },
    {
      "inputs": [],
      "name": "nextTokenId",
      "outputs": [
        {
          "internalType": "uint256",
          "name": "",
          "type": "uint256"
        }
      ],
      "stateMutability": "view",
      "type": "function"
    },
    {
      "inputs": [],
      "name": "owner",
      "outputs": [
        {
          "internalType": "address",
          "name": "",
          "type": "address"
        }
      ],
      "stateMutability": "view",
      "type": "function"
    },
    {
      "inputs": [
        {
          "internalType": "uint256",
          "name": "tokenId",
          "type": "uint256"
        }
      ],
      "name": "ownerOf",
      "outputs": [
        {
          "internalType": "address",
          "name": "",
          "type": "address"
        }
      ],
      "stateMutability": "view",
      "type": "function"
    },
    {
      "inputs": [],
      "name": "price",
      "outputs": [
        {
          "internalType": "uint256",
          "name": "",
          "type": "uint256"
        }
      ],
      "stateMutability": "view",
      "type": "function"
    },
    {
      "inputs": [],
      "name": "renounceOwnership",
      "outputs": [],
      "stateMutability": "nonpayable",
      "type": "function"
    },
    {
      "inputs": [
        {
          "internalType": "address",
          "name": "from",
          "type": "address"
        },
        {
          "internalType": "address",
          "name": "to",
          "type": "address"
        },
        {
          "internalType": "uint256",
          "name": "tokenId",
          "type": "uint256"
        }
      ],
      "name": "safeTransferFrom",
      "outputs": [],
      "stateMutability": "nonpayable",
      "type": "function"
    },
    {
      "inputs": [
        {
          "internalType": "address",
          "name": "from",
          "type": "address"
        },
        {
          "internalType": "address",
          "name": "to",
          "type": "address"
        },
        {
          "internalType": "uint256",
          "name": "tokenId",
          "type": "uint256"
        },
        {
          "internalType": "bytes",
          "name": "_data",
          "type": "bytes"
        }
      ],
      "name": "safeTransferFrom",
      "outputs": [],
      "stateMutability": "nonpayable",
      "type": "function"
    },
    {
      "inputs": [],
      "name": "saleActive",
      "outputs": [
        {
          "internalType": "bool",
          "name": "",
          "type": "bool"
        }
      ],
      "stateMutability": "view",
      "type": "function"
    },
    {
      "inputs": [
        {
          "internalType": "address",
          "name": "operator",
          "type": "address"
        },
        {
          "internalType": "bool",
          "name": "approved",
          "type": "bool"
        }
      ],
      "name": "setApprovalForAll",
      "outputs": [],
      "stateMutability": "nonpayable",
      "type": "function"
    },
    {
      "inputs": [
        {
          "internalType": "string",
          "name": "baseURI",
          "type": "string"
        }
      ],
      "name": "setBaseURI",
      "outputs": [],
      "stateMutability": "nonpayable",
      "type": "function"
    },
    {
      "inputs": [
        {
          "internalType": "uint256",
          "name": "num",
          "type": "uint256"
        }
      ],
      "name": "setClaimGroups",
      "outputs": [],
      "stateMutability": "nonpayable",
      "type": "function"
    },
    {
      "inputs": [
        {
          "internalType": "uint256",
          "name": "_maxMintAmountPerTx",
          "type": "uint256"
        }
      ],
      "name": "setMaxMintAmountPerTx",
      "outputs": [],
      "stateMutability": "nonpayable",
      "type": "function"
    },
    {
      "inputs": [
        {
          "internalType": "uint256",
          "name": "_price",
          "type": "uint256"
        }
      ],
      "name": "setPrice",
      "outputs": [],
      "stateMutability": "nonpayable",
      "type": "function"
    },
    {
      "inputs": [
        {
          "internalType": "bool",
          "name": "_state",
          "type": "bool"
        }
      ],
      "name": "setSaleState",
      "outputs": [],
      "stateMutability": "nonpayable",
      "type": "function"
    },
    {
      "inputs": [
        {
          "internalType": "address",
          "name": "_signer",
          "type": "address"
        }
      ],
      "name": "setSigner",
      "outputs": [],
      "stateMutability": "nonpayable",
      "type": "function"
    },
    {
      "inputs": [
        {
          "internalType": "bytes4",
          "name": "interfaceId",
          "type": "bytes4"
        }
      ],
      "name": "supportsInterface",
      "outputs": [
        {
          "internalType": "bool",
          "name": "",
          "type": "bool"
        }
      ],
      "stateMutability": "view",
      "type": "function"
    },
    {
      "inputs": [],
      "name": "symbol",
      "outputs": [
        {
          "internalType": "string",
          "name": "",
          "type": "string"
        }
      ],
      "stateMutability": "view",
      "type": "function"
    },
    {
      "inputs": [
        {
          "internalType": "uint256",
          "name": "tokenId",
          "type": "uint256"
        }
      ],
      "name": "tokenURI",
      "outputs": [
        {
          "internalType": "string",
          "name": "",
          "type": "string"
        }
      ],
      "stateMutability": "view",
      "type": "function"
    },
    {
      "inputs": [
        {
          "internalType": "address",
          "name": "wallet",
          "type": "address"
        }
      ],
      "name": "tokensOf",
      "outputs": [
        {
          "internalType": "uint256[]",
          "name": "",
          "type": "uint256[]"
        }
      ],
      "stateMutability": "view",
      "type": "function"
    },
    {
      "inputs": [],
      "name": "totalSupply",
      "outputs": [
        {
          "internalType": "uint256",
          "name": "",
          "type": "uint256"
        }
      ],
      "stateMutability": "view",
      "type": "function"
    },
    {
      "inputs": [
        {
          "internalType": "address",
          "name": "from",
          "type": "address"
        },
        {
          "internalType": "address",
          "name": "to",
          "type": "address"
        },
        {
          "internalType": "uint256",
          "name": "tokenId",
          "type": "uint256"
        }
      ],
      "name": "transferFrom",
      "outputs": [],
      "stateMutability": "nonpayable",
      "type": "function"
    },
    {
      "inputs": [
        {
          "internalType": "address",
          "name": "newOwner",
          "type": "address"
        }
      ],
      "name": "transferOwnership",
      "outputs": [],
      "stateMutability": "nonpayable",
      "type": "function"
    },
    {
      "inputs": [],
      "name": "withdraw",
      "outputs": [],
      "stateMutability": "payable",
      "type": "function"
    }
  ],
  "bytecode": "0x60806040526000600860006101000a81548173ffffffffffffffffffffffffffffffffffffffff021916908373ffffffffffffffffffffffffffffffffffffffff1602179055506001600a55662386f26fc10000600b556005600c556000600d60006101000a81548160ff0219169083151502179055503480156200008357600080fd5b506040518060400160405280600881526020017f50617373616765730000000000000000000000000000000000000000000000008152506040518060400160405280600381526020017f50534700000000000000000000000000000000000000000000000000000000008152508160009080519060200190620001089291906200024a565b508060019080519060200190620001219291906200024a565b50505062000144620001386200017c60201b60201c565b6200018460201b60201c565b60405180606001604052806036815260200162004dd66036913960099080519060200190620001759291906200024a565b506200035f565b600033905090565b6000600660009054906101000a900473ffffffffffffffffffffffffffffffffffffffff16905081600660006101000a81548173ffffffffffffffffffffffffffffffffffffffff021916908373ffffffffffffffffffffffffffffffffffffffff1602179055508173ffffffffffffffffffffffffffffffffffffffff168173ffffffffffffffffffffffffffffffffffffffff167f8be0079c531659141344cd1fd0a4f28419497f9722a3daafe3b4186f6b6457e060405160405180910390a35050565b828054620002589062000329565b90600052602060002090601f0160209004810192826200027c5760008555620002c8565b82601f106200029757805160ff1916838001178555620002c8565b82800160010185558215620002c8579182015b82811115620002c7578251825591602001919060010190620002aa565b5b509050620002d79190620002db565b5090565b5b80821115620002f6576000816000905550600101620002dc565b5090565b7f4e487b7100000000000000000000000000000000000000000000000000000000600052602260045260246000fd5b600060028204905060018216806200034257607f821691505b60208210811415620003595762000358620002fa565b5b50919050565b614a67806200036f6000396000f3fe6080604052600436106101f95760003560e01c80638da5cb5b1161010d578063b14990ab116100a0578063cfc86f7b1161006f578063cfc86f7b146106ed578063d5abeb0114610718578063e985e9c514610743578063f04fdc3114610780578063f2fde38b146107bd576101f9565b8063b14990ab14610642578063b88d4fde1461065e578063c4e3709514610687578063c87b56dd146106b0576101f9565b8063a035b1fe116100dc578063a035b1fe1461059c578063a22cb465146105c7578063abd3784e146105f0578063b071401b14610619576101f9565b80638da5cb5b146104f257806391b7f5ed1461051d57806394354fd01461054657806395d89b4114610571576101f9565b806355f804b31161019057806368428a1b1161015f57806368428a1b1461041f5780636c19e7831461044a57806370a0823114610473578063715018a6146104b057806375794a3c146104c7576101f9565b806355f804b3146103535780635a3f26721461037c578063627804af146103b95780636352211e146103e2576101f9565b806318160ddd116101cc57806318160ddd146102cc57806323b872dd146102f75780633ccfd60b1461032057806342842e0e1461032a576101f9565b806301ffc9a7146101fe57806306fdde031461023b578063081812fc14610266578063095ea7b3146102a3575b600080fd5b34801561020a57600080fd5b50610225600480360381019061022091906130df565b6107e6565b6040516102329190613127565b60405180910390f35b34801561024757600080fd5b506102506108c8565b60405161025d91906131db565b60405180910390f35b34801561027257600080fd5b5061028d60048036038101906102889190613233565b61095a565b60405161029a91906132a1565b60405180910390f35b3480156102af57600080fd5b506102ca60048036038101906102c591906132e8565b6109df565b005b3480156102d857600080fd5b506102e1610af7565b6040516102ee9190613337565b60405180910390f35b34801561030357600080fd5b5061031e60048036038101906103199190613352565b610b0d565b005b610328610b6d565b005b34801561033657600080fd5b50610351600480360381019061034c9190613352565b610c96565b005b34801561035f57600080fd5b5061037a600480360381019061037591906134da565b610cb6565b005b34801561038857600080fd5b506103a3600480360381019061039e9190613523565b610d4c565b6040516103b0919061360e565b60405180910390f35b3480156103c557600080fd5b506103e060048036038101906103db91906132e8565b610e46565b005b3480156103ee57600080fd5b5061040960048036038101906104049190613233565b610f59565b60405161041691906132a1565b60405180910390f35b34801561042b57600080fd5b5061043461100b565b6040516104419190613127565b60405180910390f35b34801561045657600080fd5b50610471600480360381019061046c9190613523565b61101e565b005b34801561047f57600080fd5b5061049a60048036038101906104959190613523565b6110a6565b6040516104a79190613337565b60405180910390f35b3480156104bc57600080fd5b506104c561115e565b005b3480156104d357600080fd5b506104dc6111e6565b6040516104e99190613337565b60405180910390f35b3480156104fe57600080fd5b506105076111ec565b60405161051491906132a1565b60405180910390f35b34801561052957600080fd5b50610544600480360381019061053f9190613233565b611216565b005b34801561055257600080fd5b5061055b61129c565b6040516105689190613337565b60405180910390f35b34801561057d57600080fd5b506105866112a2565b60405161059391906131db565b60405180910390f35b3480156105a857600080fd5b506105b1611334565b6040516105be9190613337565b60405180910390f35b3480156105d357600080fd5b506105ee60048036038101906105e9919061365c565b61133a565b005b3480156105fc57600080fd5b5061061760048036038101906106129190613233565b611350565b005b34801561062557600080fd5b50610640600480360381019061063b9190613233565b6113d8565b005b61065c60048036038101906106579190613752565b61145e565b005b34801561066a57600080fd5b5061068560048036038101906106809190613874565b61161c565b005b34801561069357600080fd5b506106ae60048036038101906106a991906138f7565b61167e565b005b3480156106bc57600080fd5b506106d760048036038101906106d29190613233565b611717565b6040516106e491906131db565b60405180910390f35b3480156106f957600080fd5b506107026117be565b60405161070f91906131db565b60405180910390f35b34801561072457600080fd5b5061072d61184c565b60405161073a9190613337565b60405180910390f35b34801561074f57600080fd5b5061076a60048036038101906107659190613924565b611852565b6040516107779190613127565b60405180910390f35b34801561078c57600080fd5b506107a760048036038101906107a29190613233565b6118e6565b6040516107b49190613127565b60405180910390f35b3480156107c957600080fd5b506107e460048036038101906107df9190613523565b611994565b005b60007f80ac58cd000000000000000000000000000000000000000000000000000000007bffffffffffffffffffffffffffffffffffffffffffffffffffffffff1916827bffffffffffffffffffffffffffffffffffffffffffffffffffffffff191614806108b157507f5b5e139f000000000000000000000000000000000000000000000000000000007bffffffffffffffffffffffffffffffffffffffffffffffffffffffff1916827bffffffffffffffffffffffffffffffffffffffffffffffffffffffff1916145b806108c157506108c082611a8c565b5b9050919050565b6060600080546108d790613993565b80601f016020809104026020016040519081016040528092919081815260200182805461090390613993565b80156109505780601f1061092557610100808354040283529160200191610950565b820191906000526020600020905b81548152906001019060200180831161093357829003601f168201915b5050505050905090565b600061096582611af6565b6109a4576040517f08c379a000000000000000000000000000000000000000000000000000000000815260040161099b90613a37565b60405180910390fd5b6004600083815260200190815260200160002060009054906101000a900473ffffffffffffffffffffffffffffffffffffffff169050919050565b60006109ea82610f59565b90508073ffffffffffffffffffffffffffffffffffffffff168373ffffffffffffffffffffffffffffffffffffffff161415610a5b576040517f08c379a0000000000000000000000000000000000000000000000000000000008152600401610a5290613ac9565b60405180910390fd5b8073ffffffffffffffffffffffffffffffffffffffff16610a7a611b62565b73ffffffffffffffffffffffffffffffffffffffff161480610aa95750610aa881610aa3611b62565b611852565b5b610ae8576040517f08c379a0000000000000000000000000000000000000000000000000000000008152600401610adf90613b5b565b60405180910390fd5b610af28383611b6a565b505050565b60006001600a54610b089190613baa565b905090565b610b1e610b18611b62565b82611c23565b610b5d576040517f08c379a0000000000000000000000000000000000000000000000000000000008152600401610b5490613c50565b60405180910390fd5b610b68838383611d01565b505050565b610b75611b62565b73ffffffffffffffffffffffffffffffffffffffff16610b936111ec565b73ffffffffffffffffffffffffffffffffffffffff1614610be9576040517f08c379a0000000000000000000000000000000000000000000000000000000008152600401610be090613cbc565b60405180910390fd5b6000610bf36111ec565b73ffffffffffffffffffffffffffffffffffffffff1647604051610c1690613d0d565b60006040518083038185875af1925050503d8060008114610c53576040519150601f19603f3d011682016040523d82523d6000602084013e610c58565b606091505b5050905080610c93576040517f750b219c00000000000000000000000000000000000000000000000000000000815260040160405180910390fd5b50565b610cb18383836040518060200160405280600081525061161c565b505050565b610cbe611b62565b73ffffffffffffffffffffffffffffffffffffffff16610cdc6111ec565b73ffffffffffffffffffffffffffffffffffffffff1614610d32576040517f08c379a0000000000000000000000000000000000000000000000000000000008152600401610d2990613cbc565b60405180910390fd5b8060099080519060200190610d48929190612f83565b5050565b60606000610d58610af7565b90506000610d65846110a6565b67ffffffffffffffff811115610d7e57610d7d6133af565b5b604051908082528060200260200182016040528015610dac5781602001602082028036833780820191505090505b509050600080600190505b838111610e3a57610dc781610f59565b73ffffffffffffffffffffffffffffffffffffffff168673ffffffffffffffffffffffffffffffffffffffff161415610e275780838380610e0790613d22565b945081518110610e1a57610e19613d6b565b5b6020026020010181815250505b8080610e3290613d22565b915050610db7565b50819350505050919050565b610e4e611b62565b73ffffffffffffffffffffffffffffffffffffffff16610e6c6111ec565b73ffffffffffffffffffffffffffffffffffffffff1614610ec2576040517f08c379a0000000000000000000000000000000000000000000000000000000008152600401610eb990613cbc565b60405180910390fd5b6000600a549050612710600183610ed99190613baa565b82610ee49190613d9a565b1115610f1c576040517f524f409b00000000000000000000000000000000000000000000000000000000815260040160405180910390fd5b60005b82811015610f4c57610f318483611f68565b81806001019250508080610f4490613d22565b915050610f1f565b5080600a81905550505050565b6000806002600084815260200190815260200160002060009054906101000a900473ffffffffffffffffffffffffffffffffffffffff169050600073ffffffffffffffffffffffffffffffffffffffff168173ffffffffffffffffffffffffffffffffffffffff161415611002576040517f08c379a0000000000000000000000000000000000000000000000000000000008152600401610ff990613e62565b60405180910390fd5b80915050919050565b600d60009054906101000a900460ff1681565b611026611b62565b73ffffffffffffffffffffffffffffffffffffffff166110446111ec565b73ffffffffffffffffffffffffffffffffffffffff161461109a576040517f08c379a000000000000000000000000000000000000000000000000000000000815260040161109190613cbc565b60405180910390fd5b6110a381612142565b50565b60008073ffffffffffffffffffffffffffffffffffffffff168273ffffffffffffffffffffffffffffffffffffffff161415611117576040517f08c379a000000000000000000000000000000000000000000000000000000000815260040161110e90613ef4565b60405180910390fd5b600360008373ffffffffffffffffffffffffffffffffffffffff1673ffffffffffffffffffffffffffffffffffffffff168152602001908152602001600020549050919050565b611166611b62565b73ffffffffffffffffffffffffffffffffffffffff166111846111ec565b73ffffffffffffffffffffffffffffffffffffffff16146111da576040517f08c379a00000000000000000000000000000000000000000000000000000000081526004016111d190613cbc565b60405180910390fd5b6111e46000612186565b565b600a5481565b6000600660009054906101000a900473ffffffffffffffffffffffffffffffffffffffff16905090565b61121e611b62565b73ffffffffffffffffffffffffffffffffffffffff1661123c6111ec565b73ffffffffffffffffffffffffffffffffffffffff1614611292576040517f08c379a000000000000000000000000000000000000000000000000000000000815260040161128990613cbc565b60405180910390fd5b80600b8190555050565b600c5481565b6060600180546112b190613993565b80601f01602080910402602001604051908101604052809291908181526020018280546112dd90613993565b801561132a5780601f106112ff5761010080835404028352916020019161132a565b820191906000526020600020905b81548152906001019060200180831161130d57829003601f168201915b5050505050905090565b600b5481565b61134c611345611b62565b838361224c565b5050565b611358611b62565b73ffffffffffffffffffffffffffffffffffffffff166113766111ec565b73ffffffffffffffffffffffffffffffffffffffff16146113cc576040517f08c379a00000000000000000000000000000000000000000000000000000000081526004016113c390613cbc565b60405180910390fd5b6113d5816123b9565b50565b6113e0611b62565b73ffffffffffffffffffffffffffffffffffffffff166113fe6111ec565b73ffffffffffffffffffffffffffffffffffffffff1614611454576040517f08c379a000000000000000000000000000000000000000000000000000000000815260040161144b90613cbc565b60405180910390fd5b80600c8190555050565b6000600a549050600d60009054906101000a900460ff166114ab576040517f3f88677400000000000000000000000000000000000000000000000000000000815260040160405180910390fd5b6127108111156114e7576040517f52df9fe500000000000000000000000000000000000000000000000000000000815260040160405180910390fd5b3273ffffffffffffffffffffffffffffffffffffffff163373ffffffffffffffffffffffffffffffffffffffff161461154b576040517e61c20e00000000000000000000000000000000000000000000000000000000815260040160405180910390fd5b82829050600b5461155c9190613f14565b3414611593576040517ebfc92100000000000000000000000000000000000000000000000000000000815260040160405180910390fd5b60005b8383905081101561160d576115e88686838181106115b7576115b6613d6b565b5b90506020028101906115c99190613f7d565b8686858181106115dc576115db613d6b565b5b9050602002013561249f565b6115f23383611f68565b8180600101925050808061160590613d22565b915050611596565b5080600a819055505050505050565b61162d611627611b62565b83611c23565b61166c576040517f08c379a000000000000000000000000000000000000000000000000000000000815260040161166390613c50565b60405180910390fd5b61167884848484612661565b50505050565b611686611b62565b73ffffffffffffffffffffffffffffffffffffffff166116a46111ec565b73ffffffffffffffffffffffffffffffffffffffff16146116fa576040517f08c379a00000000000000000000000000000000000000000000000000000000081526004016116f190613cbc565b60405180910390fd5b80600d60006101000a81548160ff02191690831515021790555050565b606061172282611af6565b611761576040517f08c379a000000000000000000000000000000000000000000000000000000000815260040161175890614052565b60405180910390fd5b600061176b6126bd565b9050600081511161178b57604051806020016040528060008152506117b6565b806117958461274f565b6040516020016117a69291906140ae565b6040516020818303038152906040525b915050919050565b600980546117cb90613993565b80601f01602080910402602001604051908101604052809291908181526020018280546117f790613993565b80156118445780601f1061181957610100808354040283529160200191611844565b820191906000526020600020905b81548152906001019060200180831161182757829003601f168201915b505050505081565b61271081565b6000600560008473ffffffffffffffffffffffffffffffffffffffff1673ffffffffffffffffffffffffffffffffffffffff16815260200190815260200160002060008373ffffffffffffffffffffffffffffffffffffffff1673ffffffffffffffffffffffffffffffffffffffff16815260200190815260200160002060009054906101000a900460ff16905092915050565b60006101006007805490506118fb9190613f14565b8210611933576040517fc6c61cb200000000000000000000000000000000000000000000000000000000815260040160405180910390fd5b6000610100836119439190614101565b90506000610100846119559190614132565b905060006007838154811061196d5761196c613d6b565b5b90600052602060002001549050600060018383901c16905060018114945050505050919050565b61199c611b62565b73ffffffffffffffffffffffffffffffffffffffff166119ba6111ec565b73ffffffffffffffffffffffffffffffffffffffff1614611a10576040517f08c379a0000000000000000000000000000000000000000000000000000000008152600401611a0790613cbc565b60405180910390fd5b600073ffffffffffffffffffffffffffffffffffffffff168173ffffffffffffffffffffffffffffffffffffffff161415611a80576040517f08c379a0000000000000000000000000000000000000000000000000000000008152600401611a77906141d5565b60405180910390fd5b611a8981612186565b50565b60007f01ffc9a7000000000000000000000000000000000000000000000000000000007bffffffffffffffffffffffffffffffffffffffffffffffffffffffff1916827bffffffffffffffffffffffffffffffffffffffffffffffffffffffff1916149050919050565b60008073ffffffffffffffffffffffffffffffffffffffff166002600084815260200190815260200160002060009054906101000a900473ffffffffffffffffffffffffffffffffffffffff1673ffffffffffffffffffffffffffffffffffffffff1614159050919050565b600033905090565b816004600083815260200190815260200160002060006101000a81548173ffffffffffffffffffffffffffffffffffffffff021916908373ffffffffffffffffffffffffffffffffffffffff160217905550808273ffffffffffffffffffffffffffffffffffffffff16611bdd83610f59565b73ffffffffffffffffffffffffffffffffffffffff167f8c5be1e5ebec7d5bd14f71427d1e84f3dd0314c0f7b2291e5b200ac8c7c3b92560405160405180910390a45050565b6000611c2e82611af6565b611c6d576040517f08c379a0000000000000000000000000000000000000000000000000000000008152600401611c6490614267565b60405180910390fd5b6000611c7883610f59565b90508073ffffffffffffffffffffffffffffffffffffffff168473ffffffffffffffffffffffffffffffffffffffff161480611ce757508373ffffffffffffffffffffffffffffffffffffffff16611ccf8461095a565b73ffffffffffffffffffffffffffffffffffffffff16145b80611cf85750611cf78185611852565b5b91505092915050565b8273ffffffffffffffffffffffffffffffffffffffff16611d2182610f59565b73ffffffffffffffffffffffffffffffffffffffff1614611d77576040517f08c379a0000000000000000000000000000000000000000000000000000000008152600401611d6e906142f9565b60405180910390fd5b600073ffffffffffffffffffffffffffffffffffffffff168273ffffffffffffffffffffffffffffffffffffffff161415611de7576040517f08c379a0000000000000000000000000000000000000000000000000000000008152600401611dde9061438b565b60405180910390fd5b611df28383836128b0565b611dfd600082611b6a565b6001600360008573ffffffffffffffffffffffffffffffffffffffff1673ffffffffffffffffffffffffffffffffffffffff1681526020019081526020016000206000828254611e4d9190613baa565b925050819055506001600360008473ffffffffffffffffffffffffffffffffffffffff1673ffffffffffffffffffffffffffffffffffffffff1681526020019081526020016000206000828254611ea49190613d9a565b92505081905550816002600083815260200190815260200160002060006101000a81548173ffffffffffffffffffffffffffffffffffffffff021916908373ffffffffffffffffffffffffffffffffffffffff160217905550808273ffffffffffffffffffffffffffffffffffffffff168473ffffffffffffffffffffffffffffffffffffffff167fddf252ad1be2c89b69c2b068fc378daa952ba7f163c4a11628f55a4df523b3ef60405160405180910390a4611f638383836128b5565b505050565b600073ffffffffffffffffffffffffffffffffffffffff168273ffffffffffffffffffffffffffffffffffffffff161415611fd8576040517f08c379a0000000000000000000000000000000000000000000000000000000008152600401611fcf906143f7565b60405180910390fd5b611fe181611af6565b15612021576040517f08c379a000000000000000000000000000000000000000000000000000000000815260040161201890614463565b60405180910390fd5b61202d600083836128b0565b6001600360008473ffffffffffffffffffffffffffffffffffffffff1673ffffffffffffffffffffffffffffffffffffffff168152602001908152602001600020600082825461207d9190613d9a565b92505081905550816002600083815260200190815260200160002060006101000a81548173ffffffffffffffffffffffffffffffffffffffff021916908373ffffffffffffffffffffffffffffffffffffffff160217905550808273ffffffffffffffffffffffffffffffffffffffff16600073ffffffffffffffffffffffffffffffffffffffff167fddf252ad1be2c89b69c2b068fc378daa952ba7f163c4a11628f55a4df523b3ef60405160405180910390a461213e600083836128b5565b5050565b80600860006101000a81548173ffffffffffffffffffffffffffffffffffffffff021916908373ffffffffffffffffffffffffffffffffffffffff16021790555050565b6000600660009054906101000a900473ffffffffffffffffffffffffffffffffffffffff16905081600660006101000a81548173ffffffffffffffffffffffffffffffffffffffff021916908373ffffffffffffffffffffffffffffffffffffffff1602179055508173ffffffffffffffffffffffffffffffffffffffff168173ffffffffffffffffffffffffffffffffffffffff167f8be0079c531659141344cd1fd0a4f28419497f9722a3daafe3b4186f6b6457e060405160405180910390a35050565b8173ffffffffffffffffffffffffffffffffffffffff168373ffffffffffffffffffffffffffffffffffffffff1614156122bb576040517f08c379a00000000000000000000000000000000000000000000000000000000081526004016122b2906144cf565b60405180910390fd5b80600560008573ffffffffffffffffffffffffffffffffffffffff1673ffffffffffffffffffffffffffffffffffffffff16815260200190815260200160002060008473ffffffffffffffffffffffffffffffffffffffff1673ffffffffffffffffffffffffffffffffffffffff16815260200190815260200160002060006101000a81548160ff0219169083151502179055508173ffffffffffffffffffffffffffffffffffffffff168373ffffffffffffffffffffffffffffffffffffffff167f17307eab39ab6107e8899845ad3d59bd9653f200f220920489ca2b5937696c31836040516123ac9190613127565b60405180910390a3505050565b60006001610100836123cb9190614101565b6123d59190613d9a565b905060008167ffffffffffffffff8111156123f3576123f26133af565b5b6040519080825280602002602001820160405280156124215781602001602082028036833780820191505090505b50905060005b82811015612482577fffffffffffffffffffffffffffffffffffffffffffffffffffffffffffffffff82828151811061246357612462613d6b565b5b602002602001018181525050808061247a90613d22565b915050612427565b508060079080519060200190612499929190613009565b50505050565b61251533826040516020016124b5929190614558565b6040516020818303038152906040528051906020012084848080601f016020809104026020016040519081016040528093929190818152602001838380828437600081840152601f19601f820116905080830192505050505050506128ba565b61254b576040517f8baa579f00000000000000000000000000000000000000000000000000000000815260040160405180910390fd5b61010060078054905061255e9190613f14565b8110612596576040517fc6c61cb200000000000000000000000000000000000000000000000000000000815260040160405180910390fd5b60008060008061010085816125ae576125ad6140d2565b5b04935061010085816125c3576125c26140d2565b5b069250600784815481106125da576125d9613d6b565b5b9060005260206000200154915060018383901c169050600081141561262b576040517fddefae2800000000000000000000000000000000000000000000000000000000815260040160405180910390fd5b826001901b1982169150816007858154811061264a57612649613d6b565b5b906000526020600020018190555050505050505050565b61266c848484611d01565b612678848484846129bd565b6126b7576040517f08c379a00000000000000000000000000000000000000000000000000000000081526004016126ae906145f6565b60405180910390fd5b50505050565b6060600980546126cc90613993565b80601f01602080910402602001604051908101604052809291908181526020018280546126f890613993565b80156127455780601f1061271a57610100808354040283529160200191612745565b820191906000526020600020905b81548152906001019060200180831161272857829003601f168201915b5050505050905090565b60606000821415612797576040518060400160405280600181526020017f300000000000000000000000000000000000000000000000000000000000000081525090506128ab565b600082905060005b600082146127c95780806127b290613d22565b915050600a826127c29190614101565b915061279f565b60008167ffffffffffffffff8111156127e5576127e46133af565b5b6040519080825280601f01601f1916602001820160405280156128175781602001600182028036833780820191505090505b5090505b600085146128a4576001826128309190613baa565b9150600a8561283f9190614132565b603061284b9190613d9a565b60f81b81838151811061286157612860613d6b565b5b60200101907effffffffffffffffffffffffffffffffffffffffffffffffffffffffffffff1916908160001a905350600a8561289d9190614101565b945061281b565b8093505050505b919050565b505050565b505050565b60008073ffffffffffffffffffffffffffffffffffffffff16600860009054906101000a900473ffffffffffffffffffffffffffffffffffffffff1673ffffffffffffffffffffffffffffffffffffffff161415612944576040517f4501a91900000000000000000000000000000000000000000000000000000000815260040160405180910390fd5b600061294f84612b45565b9050600860009054906101000a900473ffffffffffffffffffffffffffffffffffffffff1673ffffffffffffffffffffffffffffffffffffffff1661299d8483612b7590919063ffffffff16565b73ffffffffffffffffffffffffffffffffffffffff161491505092915050565b60006129de8473ffffffffffffffffffffffffffffffffffffffff16612b9c565b15612b38578373ffffffffffffffffffffffffffffffffffffffff1663150b7a02612a07611b62565b8786866040518563ffffffff1660e01b8152600401612a29949392919061466b565b6020604051808303816000875af1925050508015612a6557506040513d601f19601f82011682018060405250810190612a6291906146cc565b60015b612ae8573d8060008114612a95576040519150601f19603f3d011682016040523d82523d6000602084013e612a9a565b606091505b50600081511415612ae0576040517f08c379a0000000000000000000000000000000000000000000000000000000008152600401612ad7906145f6565b60405180910390fd5b805181602001fd5b63150b7a0260e01b7bffffffffffffffffffffffffffffffffffffffffffffffffffffffff1916817bffffffffffffffffffffffffffffffffffffffffffffffffffffffff191614915050612b3d565b600190505b949350505050565b600081604051602001612b589190614770565b604051602081830303815290604052805190602001209050919050565b6000806000612b848585612bbf565b91509150612b9181612c42565b819250505092915050565b6000808273ffffffffffffffffffffffffffffffffffffffff163b119050919050565b600080604183511415612c015760008060006020860151925060408601519150606086015160001a9050612bf587828585612e17565b94509450505050612c3b565b604083511415612c32576000806020850151915060408501519050612c27868383612f24565b935093505050612c3b565b60006002915091505b9250929050565b60006004811115612c5657612c55614796565b5b816004811115612c6957612c68614796565b5b1415612c7457612e14565b60016004811115612c8857612c87614796565b5b816004811115612c9b57612c9a614796565b5b1415612cdc576040517f08c379a0000000000000000000000000000000000000000000000000000000008152600401612cd390614811565b60405180910390fd5b60026004811115612cf057612cef614796565b5b816004811115612d0357612d02614796565b5b1415612d44576040517f08c379a0000000000000000000000000000000000000000000000000000000008152600401612d3b9061487d565b60405180910390fd5b60036004811115612d5857612d57614796565b5b816004811115612d6b57612d6a614796565b5b1415612dac576040517f08c379a0000000000000000000000000000000000000000000000000000000008152600401612da39061490f565b60405180910390fd5b600480811115612dbf57612dbe614796565b5b816004811115612dd257612dd1614796565b5b1415612e13576040517f08c379a0000000000000000000000000000000000000000000000000000000008152600401612e0a906149a1565b60405180910390fd5b5b50565b6000807f7fffffffffffffffffffffffffffffff5d576e7357a4501ddfe92f46681b20a08360001c1115612e52576000600391509150612f1b565b601b8560ff1614158015612e6a5750601c8560ff1614155b15612e7c576000600491509150612f1b565b600060018787878760405160008152602001604052604051612ea194939291906149ec565b6020604051602081039080840390855afa158015612ec3573d6000803e3d6000fd5b505050602060405103519050600073ffffffffffffffffffffffffffffffffffffffff168173ffffffffffffffffffffffffffffffffffffffff161415612f1257600060019250925050612f1b565b80600092509250505b94509492505050565b60008060007f7fffffffffffffffffffffffffffffffffffffffffffffffffffffffffffffff60001b841690506000601b60ff8660001c901c612f679190613d9a565b9050612f7587828885612e17565b935093505050935093915050565b828054612f8f90613993565b90600052602060002090601f016020900481019282612fb15760008555612ff8565b82601f10612fca57805160ff1916838001178555612ff8565b82800160010185558215612ff8579182015b82811115612ff7578251825591602001919060010190612fdc565b5b5090506130059190613056565b5090565b828054828255906000526020600020908101928215613045579160200282015b82811115613044578251825591602001919060010190613029565b5b5090506130529190613056565b5090565b5b8082111561306f576000816000905550600101613057565b5090565b6000604051905090565b600080fd5b600080fd5b60007fffffffff0000000000000000000000000000000000000000000000000000000082169050919050565b6130bc81613087565b81146130c757600080fd5b50565b6000813590506130d9816130b3565b92915050565b6000602082840312156130f5576130f461307d565b5b6000613103848285016130ca565b91505092915050565b60008115159050919050565b6131218161310c565b82525050565b600060208201905061313c6000830184613118565b92915050565b600081519050919050565b600082825260208201905092915050565b60005b8381101561317c578082015181840152602081019050613161565b8381111561318b576000848401525b50505050565b6000601f19601f8301169050919050565b60006131ad82613142565b6131b7818561314d565b93506131c781856020860161315e565b6131d081613191565b840191505092915050565b600060208201905081810360008301526131f581846131a2565b905092915050565b6000819050919050565b613210816131fd565b811461321b57600080fd5b50565b60008135905061322d81613207565b92915050565b6000602082840312156132495761324861307d565b5b60006132578482850161321e565b91505092915050565b600073ffffffffffffffffffffffffffffffffffffffff82169050919050565b600061328b82613260565b9050919050565b61329b81613280565b82525050565b60006020820190506132b66000830184613292565b92915050565b6132c581613280565b81146132d057600080fd5b50565b6000813590506132e2816132bc565b92915050565b600080604083850312156132ff576132fe61307d565b5b600061330d858286016132d3565b925050602061331e8582860161321e565b9150509250929050565b613331816131fd565b82525050565b600060208201905061334c6000830184613328565b92915050565b60008060006060848603121561336b5761336a61307d565b5b6000613379868287016132d3565b935050602061338a868287016132d3565b925050604061339b8682870161321e565b9150509250925092565b600080fd5b600080fd5b7f4e487b7100000000000000000000000000000000000000000000000000000000600052604160045260246000fd5b6133e782613191565b810181811067ffffffffffffffff82111715613406576134056133af565b5b80604052505050565b6000613419613073565b905061342582826133de565b919050565b600067ffffffffffffffff821115613445576134446133af565b5b61344e82613191565b9050602081019050919050565b82818337600083830152505050565b600061347d6134788461342a565b61340f565b905082815260208101848484011115613499576134986133aa565b5b6134a484828561345b565b509392505050565b600082601f8301126134c1576134c06133a5565b5b81356134d184826020860161346a565b91505092915050565b6000602082840312156134f0576134ef61307d565b5b600082013567ffffffffffffffff81111561350e5761350d613082565b5b61351a848285016134ac565b91505092915050565b6000602082840312156135395761353861307d565b5b6000613547848285016132d3565b91505092915050565b600081519050919050565b600082825260208201905092915050565b6000819050602082019050919050565b613585816131fd565b82525050565b6000613597838361357c565b60208301905092915050565b6000602082019050919050565b60006135bb82613550565b6135c5818561355b565b93506135d08361356c565b8060005b838110156136015781516135e8888261358b565b97506135f3836135a3565b9250506001810190506135d4565b5085935050505092915050565b6000602082019050818103600083015261362881846135b0565b905092915050565b6136398161310c565b811461364457600080fd5b50565b60008135905061365681613630565b92915050565b600080604083850312156136735761367261307d565b5b6000613681858286016132d3565b925050602061369285828601613647565b9150509250929050565b600080fd5b600080fd5b60008083601f8401126136bc576136bb6133a5565b5b8235905067ffffffffffffffff8111156136d9576136d861369c565b5b6020830191508360208202830111156136f5576136f46136a1565b5b9250929050565b60008083601f840112613712576137116133a5565b5b8235905067ffffffffffffffff81111561372f5761372e61369c565b5b60208301915083602082028301111561374b5761374a6136a1565b5b9250929050565b6000806000806040858703121561376c5761376b61307d565b5b600085013567ffffffffffffffff81111561378a57613789613082565b5b613796878288016136a6565b9450945050602085013567ffffffffffffffff8111156137b9576137b8613082565b5b6137c5878288016136fc565b925092505092959194509250565b600067ffffffffffffffff8211156137ee576137ed6133af565b5b6137f782613191565b9050602081019050919050565b6000613817613812846137d3565b61340f565b905082815260208101848484011115613833576138326133aa565b5b61383e84828561345b565b509392505050565b600082601f83011261385b5761385a6133a5565b5b813561386b848260208601613804565b91505092915050565b6000806000806080858703121561388e5761388d61307d565b5b600061389c878288016132d3565b94505060206138ad878288016132d3565b93505060406138be8782880161321e565b925050606085013567ffffffffffffffff8111156138df576138de613082565b5b6138eb87828801613846565b91505092959194509250565b60006020828403121561390d5761390c61307d565b5b600061391b84828501613647565b91505092915050565b6000806040838503121561393b5761393a61307d565b5b6000613949858286016132d3565b925050602061395a858286016132d3565b9150509250929050565b7f4e487b7100000000000000000000000000000000000000000000000000000000600052602260045260246000fd5b600060028204905060018216806139ab57607f821691505b602082108114156139bf576139be613964565b5b50919050565b7f4552433732313a20617070726f76656420717565727920666f72206e6f6e657860008201527f697374656e7420746f6b656e0000000000000000000000000000000000000000602082015250565b6000613a21602c8361314d565b9150613a2c826139c5565b604082019050919050565b60006020820190508181036000830152613a5081613a14565b9050919050565b7f4552433732313a20617070726f76616c20746f2063757272656e74206f776e6560008201527f7200000000000000000000000000000000000000000000000000000000000000602082015250565b6000613ab360218361314d565b9150613abe82613a57565b604082019050919050565b60006020820190508181036000830152613ae281613aa6565b9050919050565b7f4552433732313a20617070726f76652063616c6c6572206973206e6f74206f7760008201527f6e6572206e6f7220617070726f76656420666f7220616c6c0000000000000000602082015250565b6000613b4560388361314d565b9150613b5082613ae9565b604082019050919050565b60006020820190508181036000830152613b7481613b38565b9050919050565b7f4e487b7100000000000000000000000000000000000000000000000000000000600052601160045260246000fd5b6000613bb5826131fd565b9150613bc0836131fd565b925082821015613bd357613bd2613b7b565b5b828203905092915050565b7f4552433732313a207472616e736665722063616c6c6572206973206e6f74206f60008201527f776e6572206e6f7220617070726f766564000000000000000000000000000000602082015250565b6000613c3a60318361314d565b9150613c4582613bde565b604082019050919050565b60006020820190508181036000830152613c6981613c2d565b9050919050565b7f4f776e61626c653a2063616c6c6572206973206e6f7420746865206f776e6572600082015250565b6000613ca660208361314d565b9150613cb182613c70565b602082019050919050565b60006020820190508181036000830152613cd581613c99565b9050919050565b600081905092915050565b50565b6000613cf7600083613cdc565b9150613d0282613ce7565b600082019050919050565b6000613d1882613cea565b9150819050919050565b6000613d2d826131fd565b91507fffffffffffffffffffffffffffffffffffffffffffffffffffffffffffffffff821415613d6057613d5f613b7b565b5b600182019050919050565b7f4e487b7100000000000000000000000000000000000000000000000000000000600052603260045260246000fd5b6000613da5826131fd565b9150613db0836131fd565b9250827fffffffffffffffffffffffffffffffffffffffffffffffffffffffffffffffff03821115613de557613de4613b7b565b5b828201905092915050565b7f4552433732313a206f776e657220717565727920666f72206e6f6e657869737460008201527f656e7420746f6b656e0000000000000000000000000000000000000000000000602082015250565b6000613e4c60298361314d565b9150613e5782613df0565b604082019050919050565b60006020820190508181036000830152613e7b81613e3f565b9050919050565b7f4552433732313a2062616c616e636520717565727920666f7220746865207a6560008201527f726f206164647265737300000000000000000000000000000000000000000000602082015250565b6000613ede602a8361314d565b9150613ee982613e82565b604082019050919050565b60006020820190508181036000830152613f0d81613ed1565b9050919050565b6000613f1f826131fd565b9150613f2a836131fd565b9250817fffffffffffffffffffffffffffffffffffffffffffffffffffffffffffffffff0483118215151615613f6357613f62613b7b565b5b828202905092915050565b600080fd5b600080fd5b600080fd5b60008083356001602003843603038112613f9a57613f99613f6e565b5b80840192508235915067ffffffffffffffff821115613fbc57613fbb613f73565b5b602083019250600182023603831315613fd857613fd7613f78565b5b509250929050565b7f4552433732314d657461646174613a2055524920717565727920666f72206e6f60008201527f6e6578697374656e7420746f6b656e0000000000000000000000000000000000602082015250565b600061403c602f8361314d565b915061404782613fe0565b604082019050919050565b6000602082019050818103600083015261406b8161402f565b9050919050565b600081905092915050565b600061408882613142565b6140928185614072565b93506140a281856020860161315e565b80840191505092915050565b60006140ba828561407d565b91506140c6828461407d565b91508190509392505050565b7f4e487b7100000000000000000000000000000000000000000000000000000000600052601260045260246000fd5b600061410c826131fd565b9150614117836131fd565b925082614127576141266140d2565b5b828204905092915050565b600061413d826131fd565b9150614148836131fd565b925082614158576141576140d2565b5b828206905092915050565b7f4f776e61626c653a206e6577206f776e657220697320746865207a65726f206160008201527f6464726573730000000000000000000000000000000000000000000000000000602082015250565b60006141bf60268361314d565b91506141ca82614163565b604082019050919050565b600060208201905081810360008301526141ee816141b2565b9050919050565b7f4552433732313a206f70657261746f7220717565727920666f72206e6f6e657860008201527f697374656e7420746f6b656e0000000000000000000000000000000000000000602082015250565b6000614251602c8361314d565b915061425c826141f5565b604082019050919050565b6000602082019050818103600083015261428081614244565b9050919050565b7f4552433732313a207472616e736665722066726f6d20696e636f72726563742060008201527f6f776e6572000000000000000000000000000000000000000000000000000000602082015250565b60006142e360258361314d565b91506142ee82614287565b604082019050919050565b60006020820190508181036000830152614312816142d6565b9050919050565b7f4552433732313a207472616e7366657220746f20746865207a65726f2061646460008201527f7265737300000000000000000000000000000000000000000000000000000000602082015250565b600061437560248361314d565b915061438082614319565b604082019050919050565b600060208201905081810360008301526143a481614368565b9050919050565b7f4552433732313a206d696e7420746f20746865207a65726f2061646472657373600082015250565b60006143e160208361314d565b91506143ec826143ab565b602082019050919050565b60006020820190508181036000830152614410816143d4565b9050919050565b7f4552433732313a20746f6b656e20616c7265616479206d696e74656400000000600082015250565b600061444d601c8361314d565b915061445882614417565b602082019050919050565b6000602082019050818103600083015261447c81614440565b9050919050565b7f4552433732313a20617070726f766520746f2063616c6c657200000000000000600082015250565b60006144b960198361314d565b91506144c482614483565b602082019050919050565b600060208201905081810360008301526144e8816144ac565b9050919050565b60008160601b9050919050565b6000614507826144ef565b9050919050565b6000614519826144fc565b9050919050565b61453161452c82613280565b61450e565b82525050565b6000819050919050565b61455261454d826131fd565b614537565b82525050565b60006145648285614520565b6014820191506145748284614541565b6020820191508190509392505050565b7f4552433732313a207472616e7366657220746f206e6f6e20455243373231526560008201527f63656976657220696d706c656d656e7465720000000000000000000000000000602082015250565b60006145e060328361314d565b91506145eb82614584565b604082019050919050565b6000602082019050818103600083015261460f816145d3565b9050919050565b600081519050919050565b600082825260208201905092915050565b600061463d82614616565b6146478185614621565b935061465781856020860161315e565b61466081613191565b840191505092915050565b60006080820190506146806000830187613292565b61468d6020830186613292565b61469a6040830185613328565b81810360608301526146ac8184614632565b905095945050505050565b6000815190506146c6816130b3565b92915050565b6000602082840312156146e2576146e161307d565b5b60006146f0848285016146b7565b91505092915050565b7f19457468657265756d205369676e6564204d6573736167653a0a333200000000600082015250565b600061472f601c83614072565b915061473a826146f9565b601c82019050919050565b6000819050919050565b6000819050919050565b61476a61476582614745565b61474f565b82525050565b600061477b82614722565b91506147878284614759565b60208201915081905092915050565b7f4e487b7100000000000000000000000000000000000000000000000000000000600052602160045260246000fd5b7f45434453413a20696e76616c6964207369676e61747572650000000000000000600082015250565b60006147fb60188361314d565b9150614806826147c5565b602082019050919050565b6000602082019050818103600083015261482a816147ee565b9050919050565b7f45434453413a20696e76616c6964207369676e6174757265206c656e67746800600082015250565b6000614867601f8361314d565b915061487282614831565b602082019050919050565b600060208201905081810360008301526148968161485a565b9050919050565b7f45434453413a20696e76616c6964207369676e6174757265202773272076616c60008201527f7565000000000000000000000000000000000000000000000000000000000000602082015250565b60006148f960228361314d565b91506149048261489d565b604082019050919050565b60006020820190508181036000830152614928816148ec565b9050919050565b7f45434453413a20696e76616c6964207369676e6174757265202776272076616c60008201527f7565000000000000000000000000000000000000000000000000000000000000602082015250565b600061498b60228361314d565b91506149968261492f565b604082019050919050565b600060208201905081810360008301526149ba8161497e565b9050919050565b6149ca81614745565b82525050565b600060ff82169050919050565b6149e6816149d0565b82525050565b6000608082019050614a0160008301876149c1565b614a0e60208301866149dd565b614a1b60408301856149c1565b614a2860608301846149c1565b9594505050505056fea2646970667358221220f85843b70a8a00f827aecc1cca932d651005e53204ad8ed60d106704343098ca64736f6c634300080b0033697066733a2f2f516d503342596f476f7462364e477278784847574a6953314d6f68654c514c476f437246615072357575527469762f",
  "linkReferences": {},
  "deployedLinkReferences": {}
}