{
  "_format": "hh-sol-artifact-1",
  "contractName": "RennaLabsAccess",
  "sourceName": "cache/solpp-generated-contracts/RennaLabsAccess.sol",
  "abi": [
    {
      "inputs": [],
      "stateMutability": "nonpayable",
      "type": "constructor"
    },
    {
      "inputs": [],
      "name": "ApprovalCallerNotOwnerNorApproved",
      "type": "error"
    },
    {
      "inputs": [],
      "name": "ApprovalQueryForNonexistentToken",
      "type": "error"
    },
    {
      "inputs": [],
      "name": "ApproveToCaller",
      "type": "error"
    },
    {
      "inputs": [],
      "name": "BalanceQueryForZeroAddress",
      "type": "error"
    },
    {
      "inputs": [],
      "name": "InvalidPrice",
      "type": "error"
    },
    {
      "inputs": [],
      "name": "InvalidQuantity",
      "type": "error"
    },
    {
      "inputs": [],
      "name": "MintERC2309QuantityExceedsLimit",
      "type": "error"
    },
    {
      "inputs": [],
      "name": "MintToZeroAddress",
      "type": "error"
    },
    {
      "inputs": [],
      "name": "MintZeroQuantity",
      "type": "error"
    },
    {
      "inputs": [],
      "name": "NoBots",
      "type": "error"
    },
    {
      "inputs": [],
      "name": "OwnerQueryForNonexistentToken",
      "type": "error"
    },
    {
      "inputs": [],
      "name": "OwnershipNotInitializedForExtraData",
      "type": "error"
    },
    {
      "inputs": [],
      "name": "SaleInactive",
      "type": "error"
    },
    {
      "inputs": [],
      "name": "SoldOut",
      "type": "error"
    },
    {
      "inputs": [],
      "name": "TransferCallerNotOwnerNorApproved",
      "type": "error"
    },
    {
      "inputs": [],
      "name": "TransferFromIncorrectOwner",
      "type": "error"
    },
    {
      "inputs": [],
      "name": "TransferToNonERC721ReceiverImplementer",
      "type": "error"
    },
    {
      "inputs": [],
      "name": "TransferToZeroAddress",
      "type": "error"
    },
    {
      "inputs": [],
      "name": "URIQueryForNonexistentToken",
      "type": "error"
    },
    {
      "inputs": [],
      "name": "WithdrawFailed",
      "type": "error"
    },
    {
      "anonymous": false,
      "inputs": [
        {
          "indexed": true,
          "internalType": "address",
          "name": "owner",
          "type": "address"
        },
        {
          "indexed": true,
          "internalType": "address",
          "name": "approved",
          "type": "address"
        },
        {
          "indexed": true,
          "internalType": "uint256",
          "name": "tokenId",
          "type": "uint256"
        }
      ],
      "name": "Approval",
      "type": "event"
    },
    {
      "anonymous": false,
      "inputs": [
        {
          "indexed": true,
          "internalType": "address",
          "name": "owner",
          "type": "address"
        },
        {
          "indexed": true,
          "internalType": "address",
          "name": "operator",
          "type": "address"
        },
        {
          "indexed": false,
          "internalType": "bool",
          "name": "approved",
          "type": "bool"
        }
      ],
      "name": "ApprovalForAll",
      "type": "event"
    },
    {
      "anonymous": false,
      "inputs": [
        {
          "indexed": true,
          "internalType": "uint256",
          "name": "fromTokenId",
          "type": "uint256"
        },
        {
          "indexed": false,
          "internalType": "uint256",
          "name": "toTokenId",
          "type": "uint256"
        },
        {
          "indexed": true,
          "internalType": "address",
          "name": "from",
          "type": "address"
        },
        {
          "indexed": true,
          "internalType": "address",
          "name": "to",
          "type": "address"
        }
      ],
      "name": "ConsecutiveTransfer",
      "type": "event"
    },
    {
      "anonymous": false,
      "inputs": [
        {
          "indexed": true,
          "internalType": "address",
          "name": "previousOwner",
          "type": "address"
        },
        {
          "indexed": true,
          "internalType": "address",
          "name": "newOwner",
          "type": "address"
        }
      ],
      "name": "OwnershipTransferred",
      "type": "event"
    },
    {
      "anonymous": false,
      "inputs": [
        {
          "indexed": true,
          "internalType": "address",
          "name": "from",
          "type": "address"
        },
        {
          "indexed": true,
          "internalType": "address",
          "name": "to",
          "type": "address"
        },
        {
          "indexed": true,
          "internalType": "uint256",
          "name": "tokenId",
          "type": "uint256"
        }
      ],
      "name": "Transfer",
      "type": "event"
    },
    {
      "inputs": [],
      "name": "_baseTokenURI",
      "outputs": [
        {
          "internalType": "string",
          "name": "",
          "type": "string"
        }
      ],
      "stateMutability": "view",
      "type": "function"
    },
    {
      "inputs": [
        {
          "internalType": "address",
          "name": "to",
          "type": "address"
        },
        {
          "internalType": "uint256",
          "name": "tokenId",
          "type": "uint256"
        }
      ],
      "name": "approve",
      "outputs": [],
      "stateMutability": "nonpayable",
      "type": "function"
    },
    {
      "inputs": [
        {
          "internalType": "address",
          "name": "owner",
          "type": "address"
        }
      ],
      "name": "balanceOf",
      "outputs": [
        {
          "internalType": "uint256",
          "name": "",
          "type": "uint256"
        }
      ],
      "stateMutability": "view",
      "type": "function"
    },
    {
      "inputs": [
        {
          "internalType": "address",
          "name": "receiver",
          "type": "address"
        },
        {
          "internalType": "uint256",
          "name": "_quantity",
          "type": "uint256"
        }
      ],
      "name": "devMint",
      "outputs": [],
      "stateMutability": "nonpayable",
      "type": "function"
    },
    {
      "inputs": [
        {
          "internalType": "uint256",
          "name": "tokenId",
          "type": "uint256"
        }
      ],
      "name": "getApproved",
      "outputs": [
        {
          "internalType": "address",
          "name": "",
          "type": "address"
        }
      ],
      "stateMutability": "view",
      "type": "function"
    },
    {
      "inputs": [
        {
          "internalType": "uint256",
          "name": "tokenId",
          "type": "uint256"
        }
      ],
      "name": "getOwnershipData",
      "outputs": [
        {
          "components": [
            {
              "internalType": "address",
              "name": "addr",
              "type": "address"
            },
            {
              "internalType": "uint64",
              "name": "startTimestamp",
              "type": "uint64"
            },
            {
              "internalType": "bool",
              "name": "burned",
              "type": "bool"
            },
            {
              "internalType": "uint24",
              "name": "extraData",
              "type": "uint24"
            }
          ],
          "internalType": "struct IERC721A.TokenOwnership",
          "name": "",
          "type": "tuple"
        }
      ],
      "stateMutability": "view",
      "type": "function"
    },
    {
      "inputs": [
        {
          "internalType": "address",
          "name": "owner",
          "type": "address"
        },
        {
          "internalType": "address",
          "name": "operator",
          "type": "address"
        }
      ],
      "name": "isApprovedForAll",
      "outputs": [
        {
          "internalType": "bool",
          "name": "",
          "type": "bool"
        }
      ],
      "stateMutability": "view",
      "type": "function"
    },
    {
      "inputs": [],
      "name": "maxMintAmountPerTx",
      "outputs": [
        {
          "internalType": "uint256",
          "name": "",
          "type": "uint256"
        }
      ],
      "stateMutability": "view",
      "type": "function"
    },
    {
      "inputs": [],
      "name": "maxSupply",
      "outputs": [
        {
          "internalType": "uint256",
          "name": "",
          "type": "uint256"
        }
      ],
      "stateMutability": "view",
      "type": "function"
    },
    {
      "inputs": [
        {
          "internalType": "uint256",
          "name": "_quantity",
          "type": "uint256"
        }
      ],
      "name": "mint",
      "outputs": [],
      "stateMutability": "payable",
      "type": "function"
    },
    {
      "inputs": [],
      "name": "name",
      "outputs": [
        {
          "internalType": "string",
          "name": "",
          "type": "string"
        }
      ],
      "stateMutability": "view",
      "type": "function"
    },
    {
      "inputs": [],
      "name": "owner",
      "outputs": [
        {
          "internalType": "address",
          "name": "",
          "type": "address"
        }
      ],
      "stateMutability": "view",
      "type": "function"
    },
    {
      "inputs": [
        {
          "internalType": "uint256",
          "name": "tokenId",
          "type": "uint256"
        }
      ],
      "name": "ownerOf",
      "outputs": [
        {
          "internalType": "address",
          "name": "",
          "type": "address"
        }
      ],
      "stateMutability": "view",
      "type": "function"
    },
    {
      "inputs": [],
      "name": "price",
      "outputs": [
        {
          "internalType": "uint256",
          "name": "",
          "type": "uint256"
        }
      ],
      "stateMutability": "view",
      "type": "function"
    },
    {
      "inputs": [],
      "name": "renounceOwnership",
      "outputs": [],
      "stateMutability": "nonpayable",
      "type": "function"
    },
    {
      "inputs": [
        {
          "internalType": "address",
          "name": "from",
          "type": "address"
        },
        {
          "internalType": "address",
          "name": "to",
          "type": "address"
        },
        {
          "internalType": "uint256",
          "name": "tokenId",
          "type": "uint256"
        }
      ],
      "name": "safeTransferFrom",
      "outputs": [],
      "stateMutability": "nonpayable",
      "type": "function"
    },
    {
      "inputs": [
        {
          "internalType": "address",
          "name": "from",
          "type": "address"
        },
        {
          "internalType": "address",
          "name": "to",
          "type": "address"
        },
        {
          "internalType": "uint256",
          "name": "tokenId",
          "type": "uint256"
        },
        {
          "internalType": "bytes",
          "name": "_data",
          "type": "bytes"
        }
      ],
      "name": "safeTransferFrom",
      "outputs": [],
      "stateMutability": "nonpayable",
      "type": "function"
    },
    {
      "inputs": [],
      "name": "saleActive",
      "outputs": [
        {
          "internalType": "bool",
          "name": "",
          "type": "bool"
        }
      ],
      "stateMutability": "view",
      "type": "function"
    },
    {
      "inputs": [
        {
          "internalType": "address",
          "name": "operator",
          "type": "address"
        },
        {
          "internalType": "bool",
          "name": "approved",
          "type": "bool"
        }
      ],
      "name": "setApprovalForAll",
      "outputs": [],
      "stateMutability": "nonpayable",
      "type": "function"
    },
    {
      "inputs": [
        {
          "internalType": "string",
          "name": "baseURI",
          "type": "string"
        }
      ],
      "name": "setBaseURI",
      "outputs": [],
      "stateMutability": "nonpayable",
      "type": "function"
    },
    {
      "inputs": [
        {
          "internalType": "uint256",
          "name": "_maxMintAmountPerTx",
          "type": "uint256"
        }
      ],
      "name": "setMaxMintAmountPerTx",
      "outputs": [],
      "stateMutability": "nonpayable",
      "type": "function"
    },
    {
      "inputs": [
        {
          "internalType": "uint256",
          "name": "_price",
          "type": "uint256"
        }
      ],
      "name": "setPrice",
      "outputs": [],
      "stateMutability": "nonpayable",
      "type": "function"
    },
    {
      "inputs": [
        {
          "internalType": "bool",
          "name": "_state",
          "type": "bool"
        }
      ],
      "name": "setSaleState",
      "outputs": [],
      "stateMutability": "nonpayable",
      "type": "function"
    },
    {
      "inputs": [
        {
          "internalType": "bytes4",
          "name": "interfaceId",
          "type": "bytes4"
        }
      ],
      "name": "supportsInterface",
      "outputs": [
        {
          "internalType": "bool",
          "name": "",
          "type": "bool"
        }
      ],
      "stateMutability": "view",
      "type": "function"
    },
    {
      "inputs": [],
      "name": "symbol",
      "outputs": [
        {
          "internalType": "string",
          "name": "",
          "type": "string"
        }
      ],
      "stateMutability": "view",
      "type": "function"
    },
    {
      "inputs": [
        {
          "internalType": "uint256",
          "name": "_tokenId",
          "type": "uint256"
        }
      ],
      "name": "tokenURI",
      "outputs": [
        {
          "internalType": "string",
          "name": "",
          "type": "string"
        }
      ],
      "stateMutability": "view",
      "type": "function"
    },
    {
      "inputs": [],
      "name": "totalSupply",
      "outputs": [
        {
          "internalType": "uint256",
          "name": "",
          "type": "uint256"
        }
      ],
      "stateMutability": "view",
      "type": "function"
    },
    {
      "inputs": [
        {
          "internalType": "address",
          "name": "from",
          "type": "address"
        },
        {
          "internalType": "address",
          "name": "to",
          "type": "address"
        },
        {
          "internalType": "uint256",
          "name": "tokenId",
          "type": "uint256"
        }
      ],
      "name": "transferFrom",
      "outputs": [],
      "stateMutability": "nonpayable",
      "type": "function"
    },
    {
      "inputs": [
        {
          "internalType": "address",
          "name": "newOwner",
          "type": "address"
        }
      ],
      "name": "transferOwnership",
      "outputs": [],
      "stateMutability": "nonpayable",
      "type": "function"
    },
    {
      "inputs": [],
      "name": "withdraw",
      "outputs": [],
      "stateMutability": "payable",
      "type": "function"
    }
  ],
  "bytecode": "0x6080604052662386f26fc10000600b556005600c556000600d60006101000a81548160ff0219169083151502179055503480156200003c57600080fd5b506040518060400160405280601681526020017f52656e6e61204c616273204163636573732050617373000000000000000000008152506040518060400160405280600281526020017f524c000000000000000000000000000000000000000000000000000000000000815250620000c9620000bd6200016f60201b60201c565b6200017760201b60201c565b8160039080519060200190620000e192919062000240565b508060049080519060200190620000fa92919062000240565b506200010b6200023b60201b60201c565b600181905550505060016009819055506040518060400160405280601b81526020017f697066733a2f2f706174685f746f5f68696464656e5f697066732f0000000000815250600a90805190602001906200016892919062000240565b5062000355565b600033905090565b60008060009054906101000a900473ffffffffffffffffffffffffffffffffffffffff169050816000806101000a81548173ffffffffffffffffffffffffffffffffffffffff021916908373ffffffffffffffffffffffffffffffffffffffff1602179055508173ffffffffffffffffffffffffffffffffffffffff168173ffffffffffffffffffffffffffffffffffffffff167f8be0079c531659141344cd1fd0a4f28419497f9722a3daafe3b4186f6b6457e060405160405180910390a35050565b600090565b8280546200024e906200031f565b90600052602060002090601f016020900481019282620002725760008555620002be565b82601f106200028d57805160ff1916838001178555620002be565b82800160010185558215620002be579182015b82811115620002bd578251825591602001919060010190620002a0565b5b509050620002cd9190620002d1565b5090565b5b80821115620002ec576000816000905550600101620002d2565b5090565b7f4e487b7100000000000000000000000000000000000000000000000000000000600052602260045260246000fd5b600060028204905060018216806200033857607f821691505b602082108114156200034f576200034e620002f0565b5b50919050565b6131eb80620003656000396000f3fe6080604052600436106101cd5760003560e01c806391b7f5ed116100f7578063b071401b11610095578063cfc86f7b11610064578063cfc86f7b14610644578063d5abeb011461066f578063e985e9c51461069a578063f2fde38b146106d7576101cd565b8063b071401b1461058c578063b88d4fde146105b5578063c4e37095146105de578063c87b56dd14610607576101cd565b806395d89b41116100d157806395d89b41146104f1578063a035b1fe1461051c578063a0712d6814610547578063a22cb46514610563576101cd565b806391b7f5ed146104605780639231ab2a1461048957806394354fd0146104c6576101cd565b806342842e0e1161016f57806368428a1b1161013e57806368428a1b146103b657806370a08231146103e1578063715018a61461041e5780638da5cb5b14610435576101cd565b806342842e0e146102fe57806355f804b314610327578063627804af146103505780636352211e14610379576101cd565b8063095ea7b3116101ab578063095ea7b31461027757806318160ddd146102a057806323b872dd146102cb5780633ccfd60b146102f4576101cd565b806301ffc9a7146101d257806306fdde031461020f578063081812fc1461023a575b600080fd5b3480156101de57600080fd5b506101f960048036038101906101f491906124e2565b610700565b604051610206919061252a565b60405180910390f35b34801561021b57600080fd5b50610224610792565b60405161023191906125de565b60405180910390f35b34801561024657600080fd5b50610261600480360381019061025c9190612636565b610824565b60405161026e91906126a4565b60405180910390f35b34801561028357600080fd5b5061029e600480360381019061029991906126eb565b6108a3565b005b3480156102ac57600080fd5b506102b56109e7565b6040516102c2919061273a565b60405180910390f35b3480156102d757600080fd5b506102f260048036038101906102ed9190612755565b6109fe565b005b6102fc610d23565b005b34801561030a57600080fd5b5061032560048036038101906103209190612755565b610e4c565b005b34801561033357600080fd5b5061034e600480360381019061034991906128dd565b610e6c565b005b34801561035c57600080fd5b50610377600480360381019061037291906126eb565b610f02565b005b34801561038557600080fd5b506103a0600480360381019061039b9190612636565b610fda565b6040516103ad91906126a4565b60405180910390f35b3480156103c257600080fd5b506103cb610fec565b6040516103d8919061252a565b60405180910390f35b3480156103ed57600080fd5b5061040860048036038101906104039190612926565b610fff565b604051610415919061273a565b60405180910390f35b34801561042a57600080fd5b506104336110b8565b005b34801561044157600080fd5b5061044a611140565b60405161045791906126a4565b60405180910390f35b34801561046c57600080fd5b5061048760048036038101906104829190612636565b611169565b005b34801561049557600080fd5b506104b060048036038101906104ab9190612636565b6111ef565b6040516104bd9190612a07565b60405180910390f35b3480156104d257600080fd5b506104db611207565b6040516104e8919061273a565b60405180910390f35b3480156104fd57600080fd5b5061050661120d565b60405161051391906125de565b60405180910390f35b34801561052857600080fd5b5061053161129f565b60405161053e919061273a565b60405180910390f35b610561600480360381019061055c9190612636565b6112a5565b005b34801561056f57600080fd5b5061058a60048036038101906105859190612a4e565b611436565b005b34801561059857600080fd5b506105b360048036038101906105ae9190612636565b6115ae565b005b3480156105c157600080fd5b506105dc60048036038101906105d79190612b2f565b611634565b005b3480156105ea57600080fd5b5061060560048036038101906106009190612bb2565b6116a7565b005b34801561061357600080fd5b5061062e60048036038101906106299190612636565b611740565b60405161063b91906125de565b60405180910390f35b34801561065057600080fd5b506106596117e7565b60405161066691906125de565b60405180910390f35b34801561067b57600080fd5b50610684611875565b604051610691919061273a565b60405180910390f35b3480156106a657600080fd5b506106c160048036038101906106bc9190612bdf565b61187b565b6040516106ce919061252a565b60405180910390f35b3480156106e357600080fd5b506106fe60048036038101906106f99190612926565b61190f565b005b60006301ffc9a760e01b827bffffffffffffffffffffffffffffffffffffffffffffffffffffffff1916148061075b57506380ac58cd60e01b827bffffffffffffffffffffffffffffffffffffffffffffffffffffffff1916145b8061078b5750635b5e139f60e01b827bffffffffffffffffffffffffffffffffffffffffffffffffffffffff1916145b9050919050565b6060600380546107a190612c4e565b80601f01602080910402602001604051908101604052809291908181526020018280546107cd90612c4e565b801561081a5780601f106107ef5761010080835404028352916020019161081a565b820191906000526020600020905b8154815290600101906020018083116107fd57829003601f168201915b5050505050905090565b600061082f82611a07565b610865576040517fcf4700e400000000000000000000000000000000000000000000000000000000815260040160405180910390fd5b6007600083815260200190815260200160002060000160009054906101000a900473ffffffffffffffffffffffffffffffffffffffff169050919050565b60006108ae82610fda565b90508073ffffffffffffffffffffffffffffffffffffffff166108cf611a66565b73ffffffffffffffffffffffffffffffffffffffff1614610932576108fb816108f6611a66565b61187b565b610931576040517fcfb3b94200000000000000000000000000000000000000000000000000000000815260040160405180910390fd5b5b826007600084815260200190815260200160002060000160006101000a81548173ffffffffffffffffffffffffffffffffffffffff021916908373ffffffffffffffffffffffffffffffffffffffff160217905550818373ffffffffffffffffffffffffffffffffffffffff168273ffffffffffffffffffffffffffffffffffffffff167f8c5be1e5ebec7d5bd14f71427d1e84f3dd0314c0f7b2291e5b200ac8c7c3b92560405160405180910390a4505050565b60006109f1611a6e565b6002546001540303905090565b6000610a0982611a73565b90508373ffffffffffffffffffffffffffffffffffffffff168173ffffffffffffffffffffffffffffffffffffffff1614610a70576040517fa114810000000000000000000000000000000000000000000000000000000000815260040160405180910390fd5b600080610a7c84611b41565b91509150610a928187610a8d611a66565b611b68565b610ade57610aa786610aa2611a66565b61187b565b610add576040517f59c896be00000000000000000000000000000000000000000000000000000000815260040160405180910390fd5b5b600073ffffffffffffffffffffffffffffffffffffffff168573ffffffffffffffffffffffffffffffffffffffff161415610b45576040517fea553b3400000000000000000000000000000000000000000000000000000000815260040160405180910390fd5b610b528686866001611bac565b8015610b5d57600082555b600660008773ffffffffffffffffffffffffffffffffffffffff1673ffffffffffffffffffffffffffffffffffffffff168152602001908152602001600020600081546001900391905081905550600660008673ffffffffffffffffffffffffffffffffffffffff1673ffffffffffffffffffffffffffffffffffffffff1681526020019081526020016000206000815460010191905081905550610c2b85610c07888887611bb2565b7c020000000000000000000000000000000000000000000000000000000017611bda565b600560008681526020019081526020016000208190555060007c020000000000000000000000000000000000000000000000000000000084161415610cb3576000600185019050600060056000838152602001908152602001600020541415610cb1576001548114610cb0578360056000838152602001908152602001600020819055505b5b505b838573ffffffffffffffffffffffffffffffffffffffff168773ffffffffffffffffffffffffffffffffffffffff167fddf252ad1be2c89b69c2b068fc378daa952ba7f163c4a11628f55a4df523b3ef60405160405180910390a4610d1b8686866001611c05565b505050505050565b610d2b611c0b565b73ffffffffffffffffffffffffffffffffffffffff16610d49611140565b73ffffffffffffffffffffffffffffffffffffffff1614610d9f576040517f08c379a0000000000000000000000000000000000000000000000000000000008152600401610d9690612ccc565b60405180910390fd5b6000610da9611140565b73ffffffffffffffffffffffffffffffffffffffff1647604051610dcc90612d1d565b60006040518083038185875af1925050503d8060008114610e09576040519150601f19603f3d011682016040523d82523d6000602084013e610e0e565b606091505b5050905080610e49576040517f750b219c00000000000000000000000000000000000000000000000000000000815260040160405180910390fd5b50565b610e6783838360405180602001604052806000815250611634565b505050565b610e74611c0b565b73ffffffffffffffffffffffffffffffffffffffff16610e92611140565b73ffffffffffffffffffffffffffffffffffffffff1614610ee8576040517f08c379a0000000000000000000000000000000000000000000000000000000008152600401610edf90612ccc565b60405180910390fd5b80600a9080519060200190610efe929190612384565b5050565b610f0a611c0b565b73ffffffffffffffffffffffffffffffffffffffff16610f28611140565b73ffffffffffffffffffffffffffffffffffffffff1614610f7e576040517f08c379a0000000000000000000000000000000000000000000000000000000008152600401610f7590612ccc565b60405180910390fd5b614e2081610f8a6109e7565b610f949190612d61565b1115610fcc576040517f52df9fe500000000000000000000000000000000000000000000000000000000815260040160405180910390fd5b610fd68282611c13565b5050565b6000610fe582611a73565b9050919050565b600d60009054906101000a900460ff1681565b60008073ffffffffffffffffffffffffffffffffffffffff168273ffffffffffffffffffffffffffffffffffffffff161415611067576040517f8f4eb60400000000000000000000000000000000000000000000000000000000815260040160405180910390fd5b67ffffffffffffffff600660008473ffffffffffffffffffffffffffffffffffffffff1673ffffffffffffffffffffffffffffffffffffffff16815260200190815260200160002054169050919050565b6110c0611c0b565b73ffffffffffffffffffffffffffffffffffffffff166110de611140565b73ffffffffffffffffffffffffffffffffffffffff1614611134576040517f08c379a000000000000000000000000000000000000000000000000000000000815260040161112b90612ccc565b60405180910390fd5b61113e6000611c31565b565b60008060009054906101000a900473ffffffffffffffffffffffffffffffffffffffff16905090565b611171611c0b565b73ffffffffffffffffffffffffffffffffffffffff1661118f611140565b73ffffffffffffffffffffffffffffffffffffffff16146111e5576040517f08c379a00000000000000000000000000000000000000000000000000000000081526004016111dc90612ccc565b60405180910390fd5b80600b8190555050565b6111f761240a565b61120082611cf5565b9050919050565b600c5481565b60606004805461121c90612c4e565b80601f016020809104026020016040519081016040528092919081815260200182805461124890612c4e565b80156112955780601f1061126a57610100808354040283529160200191611295565b820191906000526020600020905b81548152906001019060200180831161127857829003601f168201915b5050505050905090565b600b5481565b600d60009054906101000a900460ff166112eb576040517f3f88677400000000000000000000000000000000000000000000000000000000815260040160405180910390fd5b60018110806112fb5750600c5481115b15611332576040517f524f409b00000000000000000000000000000000000000000000000000000000815260040160405180910390fd5b614e208161133e6109e7565b6113489190612d61565b1115611380576040517f52df9fe500000000000000000000000000000000000000000000000000000000815260040160405180910390fd5b3273ffffffffffffffffffffffffffffffffffffffff163373ffffffffffffffffffffffffffffffffffffffff16146113e4576040517e61c20e00000000000000000000000000000000000000000000000000000000815260040160405180910390fd5b80600b546113f29190612db7565b3414611429576040517ebfc92100000000000000000000000000000000000000000000000000000000815260040160405180910390fd5b6114333382611c13565b50565b61143e611a66565b73ffffffffffffffffffffffffffffffffffffffff168273ffffffffffffffffffffffffffffffffffffffff1614156114a3576040517fb06307db00000000000000000000000000000000000000000000000000000000815260040160405180910390fd5b80600860006114b0611a66565b73ffffffffffffffffffffffffffffffffffffffff1673ffffffffffffffffffffffffffffffffffffffff16815260200190815260200160002060008473ffffffffffffffffffffffffffffffffffffffff1673ffffffffffffffffffffffffffffffffffffffff16815260200190815260200160002060006101000a81548160ff0219169083151502179055508173ffffffffffffffffffffffffffffffffffffffff1661155d611a66565b73ffffffffffffffffffffffffffffffffffffffff167f17307eab39ab6107e8899845ad3d59bd9653f200f220920489ca2b5937696c31836040516115a2919061252a565b60405180910390a35050565b6115b6611c0b565b73ffffffffffffffffffffffffffffffffffffffff166115d4611140565b73ffffffffffffffffffffffffffffffffffffffff161461162a576040517f08c379a000000000000000000000000000000000000000000000000000000000815260040161162190612ccc565b60405180910390fd5b80600c8190555050565b61163f8484846109fe565b60008373ffffffffffffffffffffffffffffffffffffffff163b146116a15761166a84848484611d15565b6116a0576040517fd1a57ed600000000000000000000000000000000000000000000000000000000815260040160405180910390fd5b5b50505050565b6116af611c0b565b73ffffffffffffffffffffffffffffffffffffffff166116cd611140565b73ffffffffffffffffffffffffffffffffffffffff1614611723576040517f08c379a000000000000000000000000000000000000000000000000000000000815260040161171a90612ccc565b60405180910390fd5b80600d60006101000a81548160ff02191690831515021790555050565b606061174b82611a07565b61178a576040517f08c379a000000000000000000000000000000000000000000000000000000000815260040161178190612e83565b60405180910390fd5b6000611794611e66565b905060008151116117b457604051806020016040528060008152506117df565b806117be84611ef8565b6040516020016117cf929190612edf565b6040516020818303038152906040525b915050919050565b600a80546117f490612c4e565b80601f016020809104026020016040519081016040528092919081815260200182805461182090612c4e565b801561186d5780601f106118425761010080835404028352916020019161186d565b820191906000526020600020905b81548152906001019060200180831161185057829003601f168201915b505050505081565b614e2081565b6000600860008473ffffffffffffffffffffffffffffffffffffffff1673ffffffffffffffffffffffffffffffffffffffff16815260200190815260200160002060008373ffffffffffffffffffffffffffffffffffffffff1673ffffffffffffffffffffffffffffffffffffffff16815260200190815260200160002060009054906101000a900460ff16905092915050565b611917611c0b565b73ffffffffffffffffffffffffffffffffffffffff16611935611140565b73ffffffffffffffffffffffffffffffffffffffff161461198b576040517f08c379a000000000000000000000000000000000000000000000000000000000815260040161198290612ccc565b60405180910390fd5b600073ffffffffffffffffffffffffffffffffffffffff168173ffffffffffffffffffffffffffffffffffffffff1614156119fb576040517f08c379a00000000000000000000000000000000000000000000000000000000081526004016119f290612f75565b60405180910390fd5b611a0481611c31565b50565b600081611a12611a6e565b11158015611a21575060015482105b8015611a5f575060007c0100000000000000000000000000000000000000000000000000000000600560008581526020019081526020016000205416145b9050919050565b600033905090565b600090565b60008082905080611a82611a6e565b11611b0a57600154811015611b095760006005600083815260200190815260200160002054905060007c010000000000000000000000000000000000000000000000000000000082161415611b07575b6000811415611afd576005600083600190039350838152602001908152602001600020549050611ad2565b8092505050611b3c565b505b5b6040517fdf2d9b4200000000000000000000000000000000000000000000000000000000815260040160405180910390fd5b919050565b60008060006007600085815260200190815260200160002090508092508254915050915091565b600073ffffffffffffffffffffffffffffffffffffffff8316925073ffffffffffffffffffffffffffffffffffffffff821691508382148383141790509392505050565b50505050565b60008060e883901c905060e8611bc9868684612059565b62ffffff16901b9150509392505050565b600073ffffffffffffffffffffffffffffffffffffffff83169250814260a01b178317905092915050565b50505050565b600033905090565b611c2d828260405180602001604052806000815250612062565b5050565b60008060009054906101000a900473ffffffffffffffffffffffffffffffffffffffff169050816000806101000a81548173ffffffffffffffffffffffffffffffffffffffff021916908373ffffffffffffffffffffffffffffffffffffffff1602179055508173ffffffffffffffffffffffffffffffffffffffff168173ffffffffffffffffffffffffffffffffffffffff167f8be0079c531659141344cd1fd0a4f28419497f9722a3daafe3b4186f6b6457e060405160405180910390a35050565b611cfd61240a565b611d0e611d0983611a73565b612100565b9050919050565b60008373ffffffffffffffffffffffffffffffffffffffff1663150b7a02611d3b611a66565b8786866040518563ffffffff1660e01b8152600401611d5d9493929190612fea565b6020604051808303816000875af1925050508015611d9957506040513d601f19601f82011682018060405250810190611d96919061304b565b60015b611e13573d8060008114611dc9576040519150601f19603f3d011682016040523d82523d6000602084013e611dce565b606091505b50600081511415611e0b576040517fd1a57ed600000000000000000000000000000000000000000000000000000000815260040160405180910390fd5b805181602001fd5b63150b7a0260e01b7bffffffffffffffffffffffffffffffffffffffffffffffffffffffff1916817bffffffffffffffffffffffffffffffffffffffffffffffffffffffff191614915050949350505050565b6060600a8054611e7590612c4e565b80601f0160208091040260200160405190810160405280929190818152602001828054611ea190612c4e565b8015611eee5780601f10611ec357610100808354040283529160200191611eee565b820191906000526020600020905b815481529060010190602001808311611ed157829003601f168201915b5050505050905090565b60606000821415611f40576040518060400160405280600181526020017f30000000000000000000000000000000000000000000000000000000000000008152509050612054565b600082905060005b60008214611f72578080611f5b90613078565b915050600a82611f6b91906130f0565b9150611f48565b60008167ffffffffffffffff811115611f8e57611f8d6127b2565b5b6040519080825280601f01601f191660200182016040528015611fc05781602001600182028036833780820191505090505b5090505b6000851461204d57600182611fd99190613121565b9150600a85611fe89190613155565b6030611ff49190612d61565b60f81b81838151811061200a57612009613186565b5b60200101907effffffffffffffffffffffffffffffffffffffffffffffffffffffffffffff1916908160001a905350600a8561204691906130f0565b9450611fc4565b8093505050505b919050565b60009392505050565b61206c83836121b6565b60008373ffffffffffffffffffffffffffffffffffffffff163b146120fb5760006001549050600083820390505b6120ad6000868380600101945086611d15565b6120e3576040517fd1a57ed600000000000000000000000000000000000000000000000000000000815260040160405180910390fd5b81811061209a5781600154146120f857600080fd5b50505b505050565b61210861240a565b81816000019073ffffffffffffffffffffffffffffffffffffffff16908173ffffffffffffffffffffffffffffffffffffffff168152505060a082901c816020019067ffffffffffffffff16908167ffffffffffffffff168152505060007c01000000000000000000000000000000000000000000000000000000008316141581604001901515908115158152505060e882901c816060019062ffffff16908162ffffff1681525050919050565b6000600154905060008214156121f8576040517fb562e8dd00000000000000000000000000000000000000000000000000000000815260040160405180910390fd5b6122056000848385611bac565b600160406001901b178202600660008573ffffffffffffffffffffffffffffffffffffffff1673ffffffffffffffffffffffffffffffffffffffff1681526020019081526020016000206000828254019250508190555061227c8361226d6000866000611bb2565b61227685612374565b17611bda565b6005600083815260200190815260200160002081905550600080838301905073ffffffffffffffffffffffffffffffffffffffff85169150828260007fddf252ad1be2c89b69c2b068fc378daa952ba7f163c4a11628f55a4df523b3ef600080a4600183015b81811461231d57808360007fddf252ad1be2c89b69c2b068fc378daa952ba7f163c4a11628f55a4df523b3ef600080a46001810190506122e2565b506000821415612359576040517f2e07630000000000000000000000000000000000000000000000000000000000815260040160405180910390fd5b80600181905550505061236f6000848385611c05565b505050565b60006001821460e11b9050919050565b82805461239090612c4e565b90600052602060002090601f0160209004810192826123b257600085556123f9565b82601f106123cb57805160ff19168380011785556123f9565b828001600101855582156123f9579182015b828111156123f85782518255916020019190600101906123dd565b5b5090506124069190612459565b5090565b6040518060800160405280600073ffffffffffffffffffffffffffffffffffffffff168152602001600067ffffffffffffffff168152602001600015158152602001600062ffffff1681525090565b5b8082111561247257600081600090555060010161245a565b5090565b6000604051905090565b600080fd5b600080fd5b60007fffffffff0000000000000000000000000000000000000000000000000000000082169050919050565b6124bf8161248a565b81146124ca57600080fd5b50565b6000813590506124dc816124b6565b92915050565b6000602082840312156124f8576124f7612480565b5b6000612506848285016124cd565b91505092915050565b60008115159050919050565b6125248161250f565b82525050565b600060208201905061253f600083018461251b565b92915050565b600081519050919050565b600082825260208201905092915050565b60005b8381101561257f578082015181840152602081019050612564565b8381111561258e576000848401525b50505050565b6000601f19601f8301169050919050565b60006125b082612545565b6125ba8185612550565b93506125ca818560208601612561565b6125d381612594565b840191505092915050565b600060208201905081810360008301526125f881846125a5565b905092915050565b6000819050919050565b61261381612600565b811461261e57600080fd5b50565b6000813590506126308161260a565b92915050565b60006020828403121561264c5761264b612480565b5b600061265a84828501612621565b91505092915050565b600073ffffffffffffffffffffffffffffffffffffffff82169050919050565b600061268e82612663565b9050919050565b61269e81612683565b82525050565b60006020820190506126b96000830184612695565b92915050565b6126c881612683565b81146126d357600080fd5b50565b6000813590506126e5816126bf565b92915050565b6000806040838503121561270257612701612480565b5b6000612710858286016126d6565b925050602061272185828601612621565b9150509250929050565b61273481612600565b82525050565b600060208201905061274f600083018461272b565b92915050565b60008060006060848603121561276e5761276d612480565b5b600061277c868287016126d6565b935050602061278d868287016126d6565b925050604061279e86828701612621565b9150509250925092565b600080fd5b600080fd5b7f4e487b7100000000000000000000000000000000000000000000000000000000600052604160045260246000fd5b6127ea82612594565b810181811067ffffffffffffffff82111715612809576128086127b2565b5b80604052505050565b600061281c612476565b905061282882826127e1565b919050565b600067ffffffffffffffff821115612848576128476127b2565b5b61285182612594565b9050602081019050919050565b82818337600083830152505050565b600061288061287b8461282d565b612812565b90508281526020810184848401111561289c5761289b6127ad565b5b6128a784828561285e565b509392505050565b600082601f8301126128c4576128c36127a8565b5b81356128d484826020860161286d565b91505092915050565b6000602082840312156128f3576128f2612480565b5b600082013567ffffffffffffffff81111561291157612910612485565b5b61291d848285016128af565b91505092915050565b60006020828403121561293c5761293b612480565b5b600061294a848285016126d6565b91505092915050565b61295c81612683565b82525050565b600067ffffffffffffffff82169050919050565b61297f81612962565b82525050565b61298e8161250f565b82525050565b600062ffffff82169050919050565b6129ac81612994565b82525050565b6080820160008201516129c86000850182612953565b5060208201516129db6020850182612976565b5060408201516129ee6040850182612985565b506060820151612a0160608501826129a3565b50505050565b6000608082019050612a1c60008301846129b2565b92915050565b612a2b8161250f565b8114612a3657600080fd5b50565b600081359050612a4881612a22565b92915050565b60008060408385031215612a6557612a64612480565b5b6000612a73858286016126d6565b9250506020612a8485828601612a39565b9150509250929050565b600067ffffffffffffffff821115612aa957612aa86127b2565b5b612ab282612594565b9050602081019050919050565b6000612ad2612acd84612a8e565b612812565b905082815260208101848484011115612aee57612aed6127ad565b5b612af984828561285e565b509392505050565b600082601f830112612b1657612b156127a8565b5b8135612b26848260208601612abf565b91505092915050565b60008060008060808587031215612b4957612b48612480565b5b6000612b57878288016126d6565b9450506020612b68878288016126d6565b9350506040612b7987828801612621565b925050606085013567ffffffffffffffff811115612b9a57612b99612485565b5b612ba687828801612b01565b91505092959194509250565b600060208284031215612bc857612bc7612480565b5b6000612bd684828501612a39565b91505092915050565b60008060408385031215612bf657612bf5612480565b5b6000612c04858286016126d6565b9250506020612c15858286016126d6565b9150509250929050565b7f4e487b7100000000000000000000000000000000000000000000000000000000600052602260045260246000fd5b60006002820490506001821680612c6657607f821691505b60208210811415612c7a57612c79612c1f565b5b50919050565b7f4f776e61626c653a2063616c6c6572206973206e6f7420746865206f776e6572600082015250565b6000612cb6602083612550565b9150612cc182612c80565b602082019050919050565b60006020820190508181036000830152612ce581612ca9565b9050919050565b600081905092915050565b50565b6000612d07600083612cec565b9150612d1282612cf7565b600082019050919050565b6000612d2882612cfa565b9150819050919050565b7f4e487b7100000000000000000000000000000000000000000000000000000000600052601160045260246000fd5b6000612d6c82612600565b9150612d7783612600565b9250827fffffffffffffffffffffffffffffffffffffffffffffffffffffffffffffffff03821115612dac57612dab612d32565b5b828201905092915050565b6000612dc282612600565b9150612dcd83612600565b9250817fffffffffffffffffffffffffffffffffffffffffffffffffffffffffffffffff0483118215151615612e0657612e05612d32565b5b828202905092915050565b7f4552433732314d657461646174613a2055524920717565727920666f72206e6f60008201527f6e6578697374656e7420746f6b656e0000000000000000000000000000000000602082015250565b6000612e6d602f83612550565b9150612e7882612e11565b604082019050919050565b60006020820190508181036000830152612e9c81612e60565b9050919050565b600081905092915050565b6000612eb982612545565b612ec38185612ea3565b9350612ed3818560208601612561565b80840191505092915050565b6000612eeb8285612eae565b9150612ef78284612eae565b91508190509392505050565b7f4f776e61626c653a206e6577206f776e657220697320746865207a65726f206160008201527f6464726573730000000000000000000000000000000000000000000000000000602082015250565b6000612f5f602683612550565b9150612f6a82612f03565b604082019050919050565b60006020820190508181036000830152612f8e81612f52565b9050919050565b600081519050919050565b600082825260208201905092915050565b6000612fbc82612f95565b612fc68185612fa0565b9350612fd6818560208601612561565b612fdf81612594565b840191505092915050565b6000608082019050612fff6000830187612695565b61300c6020830186612695565b613019604083018561272b565b818103606083015261302b8184612fb1565b905095945050505050565b600081519050613045816124b6565b92915050565b60006020828403121561306157613060612480565b5b600061306f84828501613036565b91505092915050565b600061308382612600565b91507fffffffffffffffffffffffffffffffffffffffffffffffffffffffffffffffff8214156130b6576130b5612d32565b5b600182019050919050565b7f4e487b7100000000000000000000000000000000000000000000000000000000600052601260045260246000fd5b60006130fb82612600565b915061310683612600565b925082613116576131156130c1565b5b828204905092915050565b600061312c82612600565b915061313783612600565b92508282101561314a57613149612d32565b5b828203905092915050565b600061316082612600565b915061316b83612600565b92508261317b5761317a6130c1565b5b828206905092915050565b7f4e487b7100000000000000000000000000000000000000000000000000000000600052603260045260246000fdfea26469706673582212205a59b80070203bc7ef26120a4e99a5eebaa9d21c5f7cd42808d149e2586e5db164736f6c634300080b0033",
  "linkReferences": {},
  "deployedLinkReferences": {}
}