{
  "_format": "hh-sol-artifact-1",
  "contractName": "ERC721TEST",
  "sourceName": "cache/solpp-generated-contracts/ERC721.sol",
  "abi": [
    {
      "inputs": [],
      "stateMutability": "nonpayable",
      "type": "constructor"
    },
    {
      "inputs": [],
      "name": "InvalidPrice",
      "type": "error"
    },
    {
      "inputs": [],
      "name": "InvalidQuantity",
      "type": "error"
    },
    {
      "inputs": [],
      "name": "NoBots",
      "type": "error"
    },
    {
      "inputs": [],
      "name": "SaleInactive",
      "type": "error"
    },
    {
      "inputs": [],
      "name": "SoldOut",
      "type": "error"
    },
    {
      "inputs": [],
      "name": "WithdrawFailed",
      "type": "error"
    },
    {
      "anonymous": false,
      "inputs": [
        {
          "indexed": true,
          "internalType": "address",
          "name": "owner",
          "type": "address"
        },
        {
          "indexed": true,
          "internalType": "address",
          "name": "approved",
          "type": "address"
        },
        {
          "indexed": true,
          "internalType": "uint256",
          "name": "tokenId",
          "type": "uint256"
        }
      ],
      "name": "Approval",
      "type": "event"
    },
    {
      "anonymous": false,
      "inputs": [
        {
          "indexed": true,
          "internalType": "address",
          "name": "owner",
          "type": "address"
        },
        {
          "indexed": true,
          "internalType": "address",
          "name": "operator",
          "type": "address"
        },
        {
          "indexed": false,
          "internalType": "bool",
          "name": "approved",
          "type": "bool"
        }
      ],
      "name": "ApprovalForAll",
      "type": "event"
    },
    {
      "anonymous": false,
      "inputs": [
        {
          "indexed": true,
          "internalType": "address",
          "name": "previousOwner",
          "type": "address"
        },
        {
          "indexed": true,
          "internalType": "address",
          "name": "newOwner",
          "type": "address"
        }
      ],
      "name": "OwnershipTransferred",
      "type": "event"
    },
    {
      "anonymous": false,
      "inputs": [
        {
          "indexed": true,
          "internalType": "address",
          "name": "from",
          "type": "address"
        },
        {
          "indexed": true,
          "internalType": "address",
          "name": "to",
          "type": "address"
        },
        {
          "indexed": true,
          "internalType": "uint256",
          "name": "tokenId",
          "type": "uint256"
        }
      ],
      "name": "Transfer",
      "type": "event"
    },
    {
      "inputs": [],
      "name": "_baseTokenURI",
      "outputs": [
        {
          "internalType": "string",
          "name": "",
          "type": "string"
        }
      ],
      "stateMutability": "view",
      "type": "function"
    },
    {
      "inputs": [
        {
          "internalType": "address",
          "name": "to",
          "type": "address"
        },
        {
          "internalType": "uint256",
          "name": "tokenId",
          "type": "uint256"
        }
      ],
      "name": "approve",
      "outputs": [],
      "stateMutability": "nonpayable",
      "type": "function"
    },
    {
      "inputs": [
        {
          "internalType": "address",
          "name": "owner",
          "type": "address"
        }
      ],
      "name": "balanceOf",
      "outputs": [
        {
          "internalType": "uint256",
          "name": "",
          "type": "uint256"
        }
      ],
      "stateMutability": "view",
      "type": "function"
    },
    {
      "inputs": [
        {
          "internalType": "address",
          "name": "receiver",
          "type": "address"
        },
        {
          "internalType": "uint256",
          "name": "qty",
          "type": "uint256"
        }
      ],
      "name": "devMint",
      "outputs": [],
      "stateMutability": "nonpayable",
      "type": "function"
    },
    {
      "inputs": [
        {
          "internalType": "uint256",
          "name": "tokenId",
          "type": "uint256"
        }
      ],
      "name": "getApproved",
      "outputs": [
        {
          "internalType": "address",
          "name": "",
          "type": "address"
        }
      ],
      "stateMutability": "view",
      "type": "function"
    },
    {
      "inputs": [
        {
          "internalType": "address",
          "name": "owner",
          "type": "address"
        },
        {
          "internalType": "address",
          "name": "operator",
          "type": "address"
        }
      ],
      "name": "isApprovedForAll",
      "outputs": [
        {
          "internalType": "bool",
          "name": "",
          "type": "bool"
        }
      ],
      "stateMutability": "view",
      "type": "function"
    },
    {
      "inputs": [],
      "name": "maxMintAmountPerTx",
      "outputs": [
        {
          "internalType": "uint256",
          "name": "",
          "type": "uint256"
        }
      ],
      "stateMutability": "view",
      "type": "function"
    },
    {
      "inputs": [],
      "name": "maxSupply",
      "outputs": [
        {
          "internalType": "uint256",
          "name": "",
          "type": "uint256"
        }
      ],
      "stateMutability": "view",
      "type": "function"
    },
    {
      "inputs": [
        {
          "internalType": "uint256",
          "name": "_quantity",
          "type": "uint256"
        }
      ],
      "name": "mint",
      "outputs": [],
      "stateMutability": "payable",
      "type": "function"
    },
    {
      "inputs": [],
      "name": "name",
      "outputs": [
        {
          "internalType": "string",
          "name": "",
          "type": "string"
        }
      ],
      "stateMutability": "view",
      "type": "function"
    },
    {
      "inputs": [],
      "name": "nextTokenId",
      "outputs": [
        {
          "internalType": "uint256",
          "name": "",
          "type": "uint256"
        }
      ],
      "stateMutability": "view",
      "type": "function"
    },
    {
      "inputs": [],
      "name": "owner",
      "outputs": [
        {
          "internalType": "address",
          "name": "",
          "type": "address"
        }
      ],
      "stateMutability": "view",
      "type": "function"
    },
    {
      "inputs": [
        {
          "internalType": "uint256",
          "name": "tokenId",
          "type": "uint256"
        }
      ],
      "name": "ownerOf",
      "outputs": [
        {
          "internalType": "address",
          "name": "",
          "type": "address"
        }
      ],
      "stateMutability": "view",
      "type": "function"
    },
    {
      "inputs": [],
      "name": "price",
      "outputs": [
        {
          "internalType": "uint256",
          "name": "",
          "type": "uint256"
        }
      ],
      "stateMutability": "view",
      "type": "function"
    },
    {
      "inputs": [],
      "name": "renounceOwnership",
      "outputs": [],
      "stateMutability": "nonpayable",
      "type": "function"
    },
    {
      "inputs": [
        {
          "internalType": "address",
          "name": "from",
          "type": "address"
        },
        {
          "internalType": "address",
          "name": "to",
          "type": "address"
        },
        {
          "internalType": "uint256",
          "name": "tokenId",
          "type": "uint256"
        }
      ],
      "name": "safeTransferFrom",
      "outputs": [],
      "stateMutability": "nonpayable",
      "type": "function"
    },
    {
      "inputs": [
        {
          "internalType": "address",
          "name": "from",
          "type": "address"
        },
        {
          "internalType": "address",
          "name": "to",
          "type": "address"
        },
        {
          "internalType": "uint256",
          "name": "tokenId",
          "type": "uint256"
        },
        {
          "internalType": "bytes",
          "name": "_data",
          "type": "bytes"
        }
      ],
      "name": "safeTransferFrom",
      "outputs": [],
      "stateMutability": "nonpayable",
      "type": "function"
    },
    {
      "inputs": [],
      "name": "saleActive",
      "outputs": [
        {
          "internalType": "bool",
          "name": "",
          "type": "bool"
        }
      ],
      "stateMutability": "view",
      "type": "function"
    },
    {
      "inputs": [
        {
          "internalType": "address",
          "name": "operator",
          "type": "address"
        },
        {
          "internalType": "bool",
          "name": "approved",
          "type": "bool"
        }
      ],
      "name": "setApprovalForAll",
      "outputs": [],
      "stateMutability": "nonpayable",
      "type": "function"
    },
    {
      "inputs": [
        {
          "internalType": "string",
          "name": "baseURI",
          "type": "string"
        }
      ],
      "name": "setBaseURI",
      "outputs": [],
      "stateMutability": "nonpayable",
      "type": "function"
    },
    {
      "inputs": [
        {
          "internalType": "uint256",
          "name": "_maxMintAmountPerTx",
          "type": "uint256"
        }
      ],
      "name": "setMaxMintAmountPerTx",
      "outputs": [],
      "stateMutability": "nonpayable",
      "type": "function"
    },
    {
      "inputs": [
        {
          "internalType": "uint256",
          "name": "_price",
          "type": "uint256"
        }
      ],
      "name": "setPrice",
      "outputs": [],
      "stateMutability": "nonpayable",
      "type": "function"
    },
    {
      "inputs": [
        {
          "internalType": "bool",
          "name": "_state",
          "type": "bool"
        }
      ],
      "name": "setSaleState",
      "outputs": [],
      "stateMutability": "nonpayable",
      "type": "function"
    },
    {
      "inputs": [
        {
          "internalType": "bytes4",
          "name": "interfaceId",
          "type": "bytes4"
        }
      ],
      "name": "supportsInterface",
      "outputs": [
        {
          "internalType": "bool",
          "name": "",
          "type": "bool"
        }
      ],
      "stateMutability": "view",
      "type": "function"
    },
    {
      "inputs": [],
      "name": "symbol",
      "outputs": [
        {
          "internalType": "string",
          "name": "",
          "type": "string"
        }
      ],
      "stateMutability": "view",
      "type": "function"
    },
    {
      "inputs": [
        {
          "internalType": "uint256",
          "name": "tokenId",
          "type": "uint256"
        }
      ],
      "name": "tokenURI",
      "outputs": [
        {
          "internalType": "string",
          "name": "",
          "type": "string"
        }
      ],
      "stateMutability": "view",
      "type": "function"
    },
    {
      "inputs": [
        {
          "internalType": "address",
          "name": "wallet",
          "type": "address"
        }
      ],
      "name": "tokensOf",
      "outputs": [
        {
          "internalType": "uint256[]",
          "name": "",
          "type": "uint256[]"
        }
      ],
      "stateMutability": "view",
      "type": "function"
    },
    {
      "inputs": [],
      "name": "totalSupply",
      "outputs": [
        {
          "internalType": "uint256",
          "name": "",
          "type": "uint256"
        }
      ],
      "stateMutability": "view",
      "type": "function"
    },
    {
      "inputs": [
        {
          "internalType": "address",
          "name": "from",
          "type": "address"
        },
        {
          "internalType": "address",
          "name": "to",
          "type": "address"
        },
        {
          "internalType": "uint256",
          "name": "tokenId",
          "type": "uint256"
        }
      ],
      "name": "transferFrom",
      "outputs": [],
      "stateMutability": "nonpayable",
      "type": "function"
    },
    {
      "inputs": [
        {
          "internalType": "address",
          "name": "newOwner",
          "type": "address"
        }
      ],
      "name": "transferOwnership",
      "outputs": [],
      "stateMutability": "nonpayable",
      "type": "function"
    },
    {
      "inputs": [],
      "name": "withdraw",
      "outputs": [],
      "stateMutability": "payable",
      "type": "function"
    }
  ],
  "bytecode": "0x60806040526001600855662386f26fc100006009556005600a556000600b60006101000a81548160ff0219169083151502179055503480156200004157600080fd5b506040518060400160405280600481526020017f54657374000000000000000000000000000000000000000000000000000000008152506040518060400160405280600481526020017f54455354000000000000000000000000000000000000000000000000000000008152508160009080519060200190620000c692919062000224565b508060019080519060200190620000df92919062000224565b50505062000102620000f66200015660201b60201c565b6200015e60201b60201c565b6040518060400160405280601f81526020017f697066733a2f2f706174685f746f5f756e72657665616c65645f697066732f00815250600790805190602001906200014f92919062000224565b5062000339565b600033905090565b6000600660009054906101000a900473ffffffffffffffffffffffffffffffffffffffff16905081600660006101000a81548173ffffffffffffffffffffffffffffffffffffffff021916908373ffffffffffffffffffffffffffffffffffffffff1602179055508173ffffffffffffffffffffffffffffffffffffffff168173ffffffffffffffffffffffffffffffffffffffff167f8be0079c531659141344cd1fd0a4f28419497f9722a3daafe3b4186f6b6457e060405160405180910390a35050565b828054620002329062000303565b90600052602060002090601f016020900481019282620002565760008555620002a2565b82601f106200027157805160ff1916838001178555620002a2565b82800160010185558215620002a2579182015b82811115620002a157825182559160200191906001019062000284565b5b509050620002b19190620002b5565b5090565b5b80821115620002d0576000816000905550600101620002b6565b5090565b7f4e487b7100000000000000000000000000000000000000000000000000000000600052602260045260246000fd5b600060028204905060018216806200031c57607f821691505b60208210811415620003335762000332620002d4565b5b50919050565b613a2380620003496000396000f3fe6080604052600436106101d85760003560e01c806375794a3c11610102578063b071401b11610095578063cfc86f7b11610064578063cfc86f7b1461067a578063d5abeb01146106a5578063e985e9c5146106d0578063f2fde38b1461070d576101d8565b8063b071401b146105c2578063b88d4fde146105eb578063c4e3709514610614578063c87b56dd1461063d576101d8565b806395d89b41116100d157806395d89b4114610527578063a035b1fe14610552578063a0712d681461057d578063a22cb46514610599576101d8565b806375794a3c1461047d5780638da5cb5b146104a857806391b7f5ed146104d357806394354fd0146104fc576101d8565b806342842e0e1161017a5780636352211e116101495780636352211e146103c157806368428a1b146103fe57806370a0823114610429578063715018a614610466576101d8565b806342842e0e1461030957806355f804b3146103325780635a3f26721461035b578063627804af14610398576101d8565b8063095ea7b3116101b6578063095ea7b31461028257806318160ddd146102ab57806323b872dd146102d65780633ccfd60b146102ff576101d8565b806301ffc9a7146101dd57806306fdde031461021a578063081812fc14610245575b600080fd5b3480156101e957600080fd5b5061020460048036038101906101ff9190612611565b610736565b6040516102119190612659565b60405180910390f35b34801561022657600080fd5b5061022f610818565b60405161023c919061270d565b60405180910390f35b34801561025157600080fd5b5061026c60048036038101906102679190612765565b6108aa565b60405161027991906127d3565b60405180910390f35b34801561028e57600080fd5b506102a960048036038101906102a4919061281a565b61092f565b005b3480156102b757600080fd5b506102c0610a47565b6040516102cd9190612869565b60405180910390f35b3480156102e257600080fd5b506102fd60048036038101906102f89190612884565b610a5d565b005b610307610abd565b005b34801561031557600080fd5b50610330600480360381019061032b9190612884565b610be6565b005b34801561033e57600080fd5b5061035960048036038101906103549190612a0c565b610c06565b005b34801561036757600080fd5b50610382600480360381019061037d9190612a55565b610c9c565b60405161038f9190612b40565b60405180910390f35b3480156103a457600080fd5b506103bf60048036038101906103ba919061281a565b610d96565b005b3480156103cd57600080fd5b506103e860048036038101906103e39190612765565b610ea9565b6040516103f591906127d3565b60405180910390f35b34801561040a57600080fd5b50610413610f5b565b6040516104209190612659565b60405180910390f35b34801561043557600080fd5b50610450600480360381019061044b9190612a55565b610f6e565b60405161045d9190612869565b60405180910390f35b34801561047257600080fd5b5061047b611026565b005b34801561048957600080fd5b506104926110ae565b60405161049f9190612869565b60405180910390f35b3480156104b457600080fd5b506104bd6110b4565b6040516104ca91906127d3565b60405180910390f35b3480156104df57600080fd5b506104fa60048036038101906104f59190612765565b6110de565b005b34801561050857600080fd5b50610511611164565b60405161051e9190612869565b60405180910390f35b34801561053357600080fd5b5061053c61116a565b604051610549919061270d565b60405180910390f35b34801561055e57600080fd5b506105676111fc565b6040516105749190612869565b60405180910390f35b61059760048036038101906105929190612765565b611202565b005b3480156105a557600080fd5b506105c060048036038101906105bb9190612b8e565b6113b7565b005b3480156105ce57600080fd5b506105e960048036038101906105e49190612765565b6113cd565b005b3480156105f757600080fd5b50610612600480360381019061060d9190612c6f565b611453565b005b34801561062057600080fd5b5061063b60048036038101906106369190612cf2565b6114b5565b005b34801561064957600080fd5b50610664600480360381019061065f9190612765565b61154e565b604051610671919061270d565b60405180910390f35b34801561068657600080fd5b5061068f6115f5565b60405161069c919061270d565b60405180910390f35b3480156106b157600080fd5b506106ba611683565b6040516106c79190612869565b60405180910390f35b3480156106dc57600080fd5b506106f760048036038101906106f29190612d1f565b611689565b6040516107049190612659565b60405180910390f35b34801561071957600080fd5b50610734600480360381019061072f9190612a55565b61171d565b005b60007f80ac58cd000000000000000000000000000000000000000000000000000000007bffffffffffffffffffffffffffffffffffffffffffffffffffffffff1916827bffffffffffffffffffffffffffffffffffffffffffffffffffffffff1916148061080157507f5b5e139f000000000000000000000000000000000000000000000000000000007bffffffffffffffffffffffffffffffffffffffffffffffffffffffff1916827bffffffffffffffffffffffffffffffffffffffffffffffffffffffff1916145b80610811575061081082611815565b5b9050919050565b60606000805461082790612d8e565b80601f016020809104026020016040519081016040528092919081815260200182805461085390612d8e565b80156108a05780601f10610875576101008083540402835291602001916108a0565b820191906000526020600020905b81548152906001019060200180831161088357829003601f168201915b5050505050905090565b60006108b58261187f565b6108f4576040517f08c379a00000000000000000000000000000000000000000000000000000000081526004016108eb90612e32565b60405180910390fd5b6004600083815260200190815260200160002060009054906101000a900473ffffffffffffffffffffffffffffffffffffffff169050919050565b600061093a82610ea9565b90508073ffffffffffffffffffffffffffffffffffffffff168373ffffffffffffffffffffffffffffffffffffffff1614156109ab576040517f08c379a00000000000000000000000000000000000000000000000000000000081526004016109a290612ec4565b60405180910390fd5b8073ffffffffffffffffffffffffffffffffffffffff166109ca6118eb565b73ffffffffffffffffffffffffffffffffffffffff1614806109f957506109f8816109f36118eb565b611689565b5b610a38576040517f08c379a0000000000000000000000000000000000000000000000000000000008152600401610a2f90612f56565b60405180910390fd5b610a4283836118f3565b505050565b60006001600854610a589190612fa5565b905090565b610a6e610a686118eb565b826119ac565b610aad576040517f08c379a0000000000000000000000000000000000000000000000000000000008152600401610aa49061304b565b60405180910390fd5b610ab8838383611a8a565b505050565b610ac56118eb565b73ffffffffffffffffffffffffffffffffffffffff16610ae36110b4565b73ffffffffffffffffffffffffffffffffffffffff1614610b39576040517f08c379a0000000000000000000000000000000000000000000000000000000008152600401610b30906130b7565b60405180910390fd5b6000610b436110b4565b73ffffffffffffffffffffffffffffffffffffffff1647604051610b6690613108565b60006040518083038185875af1925050503d8060008114610ba3576040519150601f19603f3d011682016040523d82523d6000602084013e610ba8565b606091505b5050905080610be3576040517f750b219c00000000000000000000000000000000000000000000000000000000815260040160405180910390fd5b50565b610c0183838360405180602001604052806000815250611453565b505050565b610c0e6118eb565b73ffffffffffffffffffffffffffffffffffffffff16610c2c6110b4565b73ffffffffffffffffffffffffffffffffffffffff1614610c82576040517f08c379a0000000000000000000000000000000000000000000000000000000008152600401610c79906130b7565b60405180910390fd5b8060079080519060200190610c98929190612502565b5050565b60606000610ca8610a47565b90506000610cb584610f6e565b67ffffffffffffffff811115610cce57610ccd6128e1565b5b604051908082528060200260200182016040528015610cfc5781602001602082028036833780820191505090505b509050600080600190505b838111610d8a57610d1781610ea9565b73ffffffffffffffffffffffffffffffffffffffff168673ffffffffffffffffffffffffffffffffffffffff161415610d775780838380610d579061311d565b945081518110610d6a57610d69613166565b5b6020026020010181815250505b8080610d829061311d565b915050610d07565b50819350505050919050565b610d9e6118eb565b73ffffffffffffffffffffffffffffffffffffffff16610dbc6110b4565b73ffffffffffffffffffffffffffffffffffffffff1614610e12576040517f08c379a0000000000000000000000000000000000000000000000000000000008152600401610e09906130b7565b60405180910390fd5b60006008549050612710600183610e299190612fa5565b82610e349190613195565b1115610e6c576040517f524f409b00000000000000000000000000000000000000000000000000000000815260040160405180910390fd5b60005b82811015610e9c57610e818483611cf1565b81806001019250508080610e949061311d565b915050610e6f565b5080600881905550505050565b6000806002600084815260200190815260200160002060009054906101000a900473ffffffffffffffffffffffffffffffffffffffff169050600073ffffffffffffffffffffffffffffffffffffffff168173ffffffffffffffffffffffffffffffffffffffff161415610f52576040517f08c379a0000000000000000000000000000000000000000000000000000000008152600401610f499061325d565b60405180910390fd5b80915050919050565b600b60009054906101000a900460ff1681565b60008073ffffffffffffffffffffffffffffffffffffffff168273ffffffffffffffffffffffffffffffffffffffff161415610fdf576040517f08c379a0000000000000000000000000000000000000000000000000000000008152600401610fd6906132ef565b60405180910390fd5b600360008373ffffffffffffffffffffffffffffffffffffffff1673ffffffffffffffffffffffffffffffffffffffff168152602001908152602001600020549050919050565b61102e6118eb565b73ffffffffffffffffffffffffffffffffffffffff1661104c6110b4565b73ffffffffffffffffffffffffffffffffffffffff16146110a2576040517f08c379a0000000000000000000000000000000000000000000000000000000008152600401611099906130b7565b60405180910390fd5b6110ac6000611ecb565b565b60085481565b6000600660009054906101000a900473ffffffffffffffffffffffffffffffffffffffff16905090565b6110e66118eb565b73ffffffffffffffffffffffffffffffffffffffff166111046110b4565b73ffffffffffffffffffffffffffffffffffffffff161461115a576040517f08c379a0000000000000000000000000000000000000000000000000000000008152600401611151906130b7565b60405180910390fd5b8060098190555050565b600a5481565b60606001805461117990612d8e565b80601f01602080910402602001604051908101604052809291908181526020018280546111a590612d8e565b80156111f25780601f106111c7576101008083540402835291602001916111f2565b820191906000526020600020905b8154815290600101906020018083116111d557829003601f168201915b5050505050905090565b60095481565b60006008549050600b60009054906101000a900460ff1661124f576040517f3f88677400000000000000000000000000000000000000000000000000000000815260040160405180910390fd5b600182108061125f5750600a5482115b15611296576040517f524f409b00000000000000000000000000000000000000000000000000000000815260040160405180910390fd5b6127108111156112d2576040517f52df9fe500000000000000000000000000000000000000000000000000000000815260040160405180910390fd5b3273ffffffffffffffffffffffffffffffffffffffff163373ffffffffffffffffffffffffffffffffffffffff1614611336576040517e61c20e00000000000000000000000000000000000000000000000000000000815260040160405180910390fd5b81600954611344919061330f565b341461137b576040517ebfc92100000000000000000000000000000000000000000000000000000000815260040160405180910390fd5b60005b828110156113ab576113903383611cf1565b818060010192505080806113a39061311d565b91505061137e565b50806008819055505050565b6113c96113c26118eb565b8383611f91565b5050565b6113d56118eb565b73ffffffffffffffffffffffffffffffffffffffff166113f36110b4565b73ffffffffffffffffffffffffffffffffffffffff1614611449576040517f08c379a0000000000000000000000000000000000000000000000000000000008152600401611440906130b7565b60405180910390fd5b80600a8190555050565b61146461145e6118eb565b836119ac565b6114a3576040517f08c379a000000000000000000000000000000000000000000000000000000000815260040161149a9061304b565b60405180910390fd5b6114af848484846120fe565b50505050565b6114bd6118eb565b73ffffffffffffffffffffffffffffffffffffffff166114db6110b4565b73ffffffffffffffffffffffffffffffffffffffff1614611531576040517f08c379a0000000000000000000000000000000000000000000000000000000008152600401611528906130b7565b60405180910390fd5b80600b60006101000a81548160ff02191690831515021790555050565b60606115598261187f565b611598576040517f08c379a000000000000000000000000000000000000000000000000000000000815260040161158f906133db565b60405180910390fd5b60006115a261215a565b905060008151116115c257604051806020016040528060008152506115ed565b806115cc846121ec565b6040516020016115dd929190613437565b6040516020818303038152906040525b915050919050565b6007805461160290612d8e565b80601f016020809104026020016040519081016040528092919081815260200182805461162e90612d8e565b801561167b5780601f106116505761010080835404028352916020019161167b565b820191906000526020600020905b81548152906001019060200180831161165e57829003601f168201915b505050505081565b61271081565b6000600560008473ffffffffffffffffffffffffffffffffffffffff1673ffffffffffffffffffffffffffffffffffffffff16815260200190815260200160002060008373ffffffffffffffffffffffffffffffffffffffff1673ffffffffffffffffffffffffffffffffffffffff16815260200190815260200160002060009054906101000a900460ff16905092915050565b6117256118eb565b73ffffffffffffffffffffffffffffffffffffffff166117436110b4565b73ffffffffffffffffffffffffffffffffffffffff1614611799576040517f08c379a0000000000000000000000000000000000000000000000000000000008152600401611790906130b7565b60405180910390fd5b600073ffffffffffffffffffffffffffffffffffffffff168173ffffffffffffffffffffffffffffffffffffffff161415611809576040517f08c379a0000000000000000000000000000000000000000000000000000000008152600401611800906134cd565b60405180910390fd5b61181281611ecb565b50565b60007f01ffc9a7000000000000000000000000000000000000000000000000000000007bffffffffffffffffffffffffffffffffffffffffffffffffffffffff1916827bffffffffffffffffffffffffffffffffffffffffffffffffffffffff1916149050919050565b60008073ffffffffffffffffffffffffffffffffffffffff166002600084815260200190815260200160002060009054906101000a900473ffffffffffffffffffffffffffffffffffffffff1673ffffffffffffffffffffffffffffffffffffffff1614159050919050565b600033905090565b816004600083815260200190815260200160002060006101000a81548173ffffffffffffffffffffffffffffffffffffffff021916908373ffffffffffffffffffffffffffffffffffffffff160217905550808273ffffffffffffffffffffffffffffffffffffffff1661196683610ea9565b73ffffffffffffffffffffffffffffffffffffffff167f8c5be1e5ebec7d5bd14f71427d1e84f3dd0314c0f7b2291e5b200ac8c7c3b92560405160405180910390a45050565b60006119b78261187f565b6119f6576040517f08c379a00000000000000000000000000000000000000000000000000000000081526004016119ed9061355f565b60405180910390fd5b6000611a0183610ea9565b90508073ffffffffffffffffffffffffffffffffffffffff168473ffffffffffffffffffffffffffffffffffffffff161480611a7057508373ffffffffffffffffffffffffffffffffffffffff16611a58846108aa565b73ffffffffffffffffffffffffffffffffffffffff16145b80611a815750611a808185611689565b5b91505092915050565b8273ffffffffffffffffffffffffffffffffffffffff16611aaa82610ea9565b73ffffffffffffffffffffffffffffffffffffffff1614611b00576040517f08c379a0000000000000000000000000000000000000000000000000000000008152600401611af7906135f1565b60405180910390fd5b600073ffffffffffffffffffffffffffffffffffffffff168273ffffffffffffffffffffffffffffffffffffffff161415611b70576040517f08c379a0000000000000000000000000000000000000000000000000000000008152600401611b6790613683565b60405180910390fd5b611b7b83838361234d565b611b866000826118f3565b6001600360008573ffffffffffffffffffffffffffffffffffffffff1673ffffffffffffffffffffffffffffffffffffffff1681526020019081526020016000206000828254611bd69190612fa5565b925050819055506001600360008473ffffffffffffffffffffffffffffffffffffffff1673ffffffffffffffffffffffffffffffffffffffff1681526020019081526020016000206000828254611c2d9190613195565b92505081905550816002600083815260200190815260200160002060006101000a81548173ffffffffffffffffffffffffffffffffffffffff021916908373ffffffffffffffffffffffffffffffffffffffff160217905550808273ffffffffffffffffffffffffffffffffffffffff168473ffffffffffffffffffffffffffffffffffffffff167fddf252ad1be2c89b69c2b068fc378daa952ba7f163c4a11628f55a4df523b3ef60405160405180910390a4611cec838383612352565b505050565b600073ffffffffffffffffffffffffffffffffffffffff168273ffffffffffffffffffffffffffffffffffffffff161415611d61576040517f08c379a0000000000000000000000000000000000000000000000000000000008152600401611d58906136ef565b60405180910390fd5b611d6a8161187f565b15611daa576040517f08c379a0000000000000000000000000000000000000000000000000000000008152600401611da19061375b565b60405180910390fd5b611db66000838361234d565b6001600360008473ffffffffffffffffffffffffffffffffffffffff1673ffffffffffffffffffffffffffffffffffffffff1681526020019081526020016000206000828254611e069190613195565b92505081905550816002600083815260200190815260200160002060006101000a81548173ffffffffffffffffffffffffffffffffffffffff021916908373ffffffffffffffffffffffffffffffffffffffff160217905550808273ffffffffffffffffffffffffffffffffffffffff16600073ffffffffffffffffffffffffffffffffffffffff167fddf252ad1be2c89b69c2b068fc378daa952ba7f163c4a11628f55a4df523b3ef60405160405180910390a4611ec760008383612352565b5050565b6000600660009054906101000a900473ffffffffffffffffffffffffffffffffffffffff16905081600660006101000a81548173ffffffffffffffffffffffffffffffffffffffff021916908373ffffffffffffffffffffffffffffffffffffffff1602179055508173ffffffffffffffffffffffffffffffffffffffff168173ffffffffffffffffffffffffffffffffffffffff167f8be0079c531659141344cd1fd0a4f28419497f9722a3daafe3b4186f6b6457e060405160405180910390a35050565b8173ffffffffffffffffffffffffffffffffffffffff168373ffffffffffffffffffffffffffffffffffffffff161415612000576040517f08c379a0000000000000000000000000000000000000000000000000000000008152600401611ff7906137c7565b60405180910390fd5b80600560008573ffffffffffffffffffffffffffffffffffffffff1673ffffffffffffffffffffffffffffffffffffffff16815260200190815260200160002060008473ffffffffffffffffffffffffffffffffffffffff1673ffffffffffffffffffffffffffffffffffffffff16815260200190815260200160002060006101000a81548160ff0219169083151502179055508173ffffffffffffffffffffffffffffffffffffffff168373ffffffffffffffffffffffffffffffffffffffff167f17307eab39ab6107e8899845ad3d59bd9653f200f220920489ca2b5937696c31836040516120f19190612659565b60405180910390a3505050565b612109848484611a8a565b61211584848484612357565b612154576040517f08c379a000000000000000000000000000000000000000000000000000000000815260040161214b90613859565b60405180910390fd5b50505050565b60606007805461216990612d8e565b80601f016020809104026020016040519081016040528092919081815260200182805461219590612d8e565b80156121e25780601f106121b7576101008083540402835291602001916121e2565b820191906000526020600020905b8154815290600101906020018083116121c557829003601f168201915b5050505050905090565b60606000821415612234576040518060400160405280600181526020017f30000000000000000000000000000000000000000000000000000000000000008152509050612348565b600082905060005b6000821461226657808061224f9061311d565b915050600a8261225f91906138a8565b915061223c565b60008167ffffffffffffffff811115612282576122816128e1565b5b6040519080825280601f01601f1916602001820160405280156122b45781602001600182028036833780820191505090505b5090505b60008514612341576001826122cd9190612fa5565b9150600a856122dc91906138d9565b60306122e89190613195565b60f81b8183815181106122fe576122fd613166565b5b60200101907effffffffffffffffffffffffffffffffffffffffffffffffffffffffffffff1916908160001a905350600a8561233a91906138a8565b94506122b8565b8093505050505b919050565b505050565b505050565b60006123788473ffffffffffffffffffffffffffffffffffffffff166124df565b156124d2578373ffffffffffffffffffffffffffffffffffffffff1663150b7a026123a16118eb565b8786866040518563ffffffff1660e01b81526004016123c3949392919061395f565b6020604051808303816000875af19250505080156123ff57506040513d601f19601f820116820180604052508101906123fc91906139c0565b60015b612482573d806000811461242f576040519150601f19603f3d011682016040523d82523d6000602084013e612434565b606091505b5060008151141561247a576040517f08c379a000000000000000000000000000000000000000000000000000000000815260040161247190613859565b60405180910390fd5b805181602001fd5b63150b7a0260e01b7bffffffffffffffffffffffffffffffffffffffffffffffffffffffff1916817bffffffffffffffffffffffffffffffffffffffffffffffffffffffff1916149150506124d7565b600190505b949350505050565b6000808273ffffffffffffffffffffffffffffffffffffffff163b119050919050565b82805461250e90612d8e565b90600052602060002090601f0160209004810192826125305760008555612577565b82601f1061254957805160ff1916838001178555612577565b82800160010185558215612577579182015b8281111561257657825182559160200191906001019061255b565b5b5090506125849190612588565b5090565b5b808211156125a1576000816000905550600101612589565b5090565b6000604051905090565b600080fd5b600080fd5b60007fffffffff0000000000000000000000000000000000000000000000000000000082169050919050565b6125ee816125b9565b81146125f957600080fd5b50565b60008135905061260b816125e5565b92915050565b600060208284031215612627576126266125af565b5b6000612635848285016125fc565b91505092915050565b60008115159050919050565b6126538161263e565b82525050565b600060208201905061266e600083018461264a565b92915050565b600081519050919050565b600082825260208201905092915050565b60005b838110156126ae578082015181840152602081019050612693565b838111156126bd576000848401525b50505050565b6000601f19601f8301169050919050565b60006126df82612674565b6126e9818561267f565b93506126f9818560208601612690565b612702816126c3565b840191505092915050565b6000602082019050818103600083015261272781846126d4565b905092915050565b6000819050919050565b6127428161272f565b811461274d57600080fd5b50565b60008135905061275f81612739565b92915050565b60006020828403121561277b5761277a6125af565b5b600061278984828501612750565b91505092915050565b600073ffffffffffffffffffffffffffffffffffffffff82169050919050565b60006127bd82612792565b9050919050565b6127cd816127b2565b82525050565b60006020820190506127e860008301846127c4565b92915050565b6127f7816127b2565b811461280257600080fd5b50565b600081359050612814816127ee565b92915050565b60008060408385031215612831576128306125af565b5b600061283f85828601612805565b925050602061285085828601612750565b9150509250929050565b6128638161272f565b82525050565b600060208201905061287e600083018461285a565b92915050565b60008060006060848603121561289d5761289c6125af565b5b60006128ab86828701612805565b93505060206128bc86828701612805565b92505060406128cd86828701612750565b9150509250925092565b600080fd5b600080fd5b7f4e487b7100000000000000000000000000000000000000000000000000000000600052604160045260246000fd5b612919826126c3565b810181811067ffffffffffffffff82111715612938576129376128e1565b5b80604052505050565b600061294b6125a5565b90506129578282612910565b919050565b600067ffffffffffffffff821115612977576129766128e1565b5b612980826126c3565b9050602081019050919050565b82818337600083830152505050565b60006129af6129aa8461295c565b612941565b9050828152602081018484840111156129cb576129ca6128dc565b5b6129d684828561298d565b509392505050565b600082601f8301126129f3576129f26128d7565b5b8135612a0384826020860161299c565b91505092915050565b600060208284031215612a2257612a216125af565b5b600082013567ffffffffffffffff811115612a4057612a3f6125b4565b5b612a4c848285016129de565b91505092915050565b600060208284031215612a6b57612a6a6125af565b5b6000612a7984828501612805565b91505092915050565b600081519050919050565b600082825260208201905092915050565b6000819050602082019050919050565b612ab78161272f565b82525050565b6000612ac98383612aae565b60208301905092915050565b6000602082019050919050565b6000612aed82612a82565b612af78185612a8d565b9350612b0283612a9e565b8060005b83811015612b33578151612b1a8882612abd565b9750612b2583612ad5565b925050600181019050612b06565b5085935050505092915050565b60006020820190508181036000830152612b5a8184612ae2565b905092915050565b612b6b8161263e565b8114612b7657600080fd5b50565b600081359050612b8881612b62565b92915050565b60008060408385031215612ba557612ba46125af565b5b6000612bb385828601612805565b9250506020612bc485828601612b79565b9150509250929050565b600067ffffffffffffffff821115612be957612be86128e1565b5b612bf2826126c3565b9050602081019050919050565b6000612c12612c0d84612bce565b612941565b905082815260208101848484011115612c2e57612c2d6128dc565b5b612c3984828561298d565b509392505050565b600082601f830112612c5657612c556128d7565b5b8135612c66848260208601612bff565b91505092915050565b60008060008060808587031215612c8957612c886125af565b5b6000612c9787828801612805565b9450506020612ca887828801612805565b9350506040612cb987828801612750565b925050606085013567ffffffffffffffff811115612cda57612cd96125b4565b5b612ce687828801612c41565b91505092959194509250565b600060208284031215612d0857612d076125af565b5b6000612d1684828501612b79565b91505092915050565b60008060408385031215612d3657612d356125af565b5b6000612d4485828601612805565b9250506020612d5585828601612805565b9150509250929050565b7f4e487b7100000000000000000000000000000000000000000000000000000000600052602260045260246000fd5b60006002820490506001821680612da657607f821691505b60208210811415612dba57612db9612d5f565b5b50919050565b7f4552433732313a20617070726f76656420717565727920666f72206e6f6e657860008201527f697374656e7420746f6b656e0000000000000000000000000000000000000000602082015250565b6000612e1c602c8361267f565b9150612e2782612dc0565b604082019050919050565b60006020820190508181036000830152612e4b81612e0f565b9050919050565b7f4552433732313a20617070726f76616c20746f2063757272656e74206f776e6560008201527f7200000000000000000000000000000000000000000000000000000000000000602082015250565b6000612eae60218361267f565b9150612eb982612e52565b604082019050919050565b60006020820190508181036000830152612edd81612ea1565b9050919050565b7f4552433732313a20617070726f76652063616c6c6572206973206e6f74206f7760008201527f6e6572206e6f7220617070726f76656420666f7220616c6c0000000000000000602082015250565b6000612f4060388361267f565b9150612f4b82612ee4565b604082019050919050565b60006020820190508181036000830152612f6f81612f33565b9050919050565b7f4e487b7100000000000000000000000000000000000000000000000000000000600052601160045260246000fd5b6000612fb08261272f565b9150612fbb8361272f565b925082821015612fce57612fcd612f76565b5b828203905092915050565b7f4552433732313a207472616e736665722063616c6c6572206973206e6f74206f60008201527f776e6572206e6f7220617070726f766564000000000000000000000000000000602082015250565b600061303560318361267f565b915061304082612fd9565b604082019050919050565b6000602082019050818103600083015261306481613028565b9050919050565b7f4f776e61626c653a2063616c6c6572206973206e6f7420746865206f776e6572600082015250565b60006130a160208361267f565b91506130ac8261306b565b602082019050919050565b600060208201905081810360008301526130d081613094565b9050919050565b600081905092915050565b50565b60006130f26000836130d7565b91506130fd826130e2565b600082019050919050565b6000613113826130e5565b9150819050919050565b60006131288261272f565b91507fffffffffffffffffffffffffffffffffffffffffffffffffffffffffffffffff82141561315b5761315a612f76565b5b600182019050919050565b7f4e487b7100000000000000000000000000000000000000000000000000000000600052603260045260246000fd5b60006131a08261272f565b91506131ab8361272f565b9250827fffffffffffffffffffffffffffffffffffffffffffffffffffffffffffffffff038211156131e0576131df612f76565b5b828201905092915050565b7f4552433732313a206f776e657220717565727920666f72206e6f6e657869737460008201527f656e7420746f6b656e0000000000000000000000000000000000000000000000602082015250565b600061324760298361267f565b9150613252826131eb565b604082019050919050565b600060208201905081810360008301526132768161323a565b9050919050565b7f4552433732313a2062616c616e636520717565727920666f7220746865207a6560008201527f726f206164647265737300000000000000000000000000000000000000000000602082015250565b60006132d9602a8361267f565b91506132e48261327d565b604082019050919050565b60006020820190508181036000830152613308816132cc565b9050919050565b600061331a8261272f565b91506133258361272f565b9250817fffffffffffffffffffffffffffffffffffffffffffffffffffffffffffffffff048311821515161561335e5761335d612f76565b5b828202905092915050565b7f4552433732314d657461646174613a2055524920717565727920666f72206e6f60008201527f6e6578697374656e7420746f6b656e0000000000000000000000000000000000602082015250565b60006133c5602f8361267f565b91506133d082613369565b604082019050919050565b600060208201905081810360008301526133f4816133b8565b9050919050565b600081905092915050565b600061341182612674565b61341b81856133fb565b935061342b818560208601612690565b80840191505092915050565b60006134438285613406565b915061344f8284613406565b91508190509392505050565b7f4f776e61626c653a206e6577206f776e657220697320746865207a65726f206160008201527f6464726573730000000000000000000000000000000000000000000000000000602082015250565b60006134b760268361267f565b91506134c28261345b565b604082019050919050565b600060208201905081810360008301526134e6816134aa565b9050919050565b7f4552433732313a206f70657261746f7220717565727920666f72206e6f6e657860008201527f697374656e7420746f6b656e0000000000000000000000000000000000000000602082015250565b6000613549602c8361267f565b9150613554826134ed565b604082019050919050565b600060208201905081810360008301526135788161353c565b9050919050565b7f4552433732313a207472616e736665722066726f6d20696e636f72726563742060008201527f6f776e6572000000000000000000000000000000000000000000000000000000602082015250565b60006135db60258361267f565b91506135e68261357f565b604082019050919050565b6000602082019050818103600083015261360a816135ce565b9050919050565b7f4552433732313a207472616e7366657220746f20746865207a65726f2061646460008201527f7265737300000000000000000000000000000000000000000000000000000000602082015250565b600061366d60248361267f565b915061367882613611565b604082019050919050565b6000602082019050818103600083015261369c81613660565b9050919050565b7f4552433732313a206d696e7420746f20746865207a65726f2061646472657373600082015250565b60006136d960208361267f565b91506136e4826136a3565b602082019050919050565b60006020820190508181036000830152613708816136cc565b9050919050565b7f4552433732313a20746f6b656e20616c7265616479206d696e74656400000000600082015250565b6000613745601c8361267f565b91506137508261370f565b602082019050919050565b6000602082019050818103600083015261377481613738565b9050919050565b7f4552433732313a20617070726f766520746f2063616c6c657200000000000000600082015250565b60006137b160198361267f565b91506137bc8261377b565b602082019050919050565b600060208201905081810360008301526137e0816137a4565b9050919050565b7f4552433732313a207472616e7366657220746f206e6f6e20455243373231526560008201527f63656976657220696d706c656d656e7465720000000000000000000000000000602082015250565b600061384360328361267f565b915061384e826137e7565b604082019050919050565b6000602082019050818103600083015261387281613836565b9050919050565b7f4e487b7100000000000000000000000000000000000000000000000000000000600052601260045260246000fd5b60006138b38261272f565b91506138be8361272f565b9250826138ce576138cd613879565b5b828204905092915050565b60006138e48261272f565b91506138ef8361272f565b9250826138ff576138fe613879565b5b828206905092915050565b600081519050919050565b600082825260208201905092915050565b60006139318261390a565b61393b8185613915565b935061394b818560208601612690565b613954816126c3565b840191505092915050565b600060808201905061397460008301876127c4565b61398160208301866127c4565b61398e604083018561285a565b81810360608301526139a08184613926565b905095945050505050565b6000815190506139ba816125e5565b92915050565b6000602082840312156139d6576139d56125af565b5b60006139e4848285016139ab565b9150509291505056fea26469706673582212202246871a8a42ed3beafcfcb11332bb162afb65876c42d79fc85a2f7149e382f564736f6c634300080b0033",
  "linkReferences": {},
  "deployedLinkReferences": {}
}