{
  "_format": "hh-sol-artifact-1",
  "contractName": "ERC721TEST",
  "sourceName": "cache/solpp-generated-contracts/ERC721.sol",
  "abi": [
    {
      "inputs": [],
      "stateMutability": "nonpayable",
      "type": "constructor"
    },
    {
      "inputs": [],
      "name": "InvalidPrice",
      "type": "error"
    },
    {
      "inputs": [],
      "name": "InvalidQuantity",
      "type": "error"
    },
    {
      "inputs": [],
      "name": "NoBots",
      "type": "error"
    },
    {
      "inputs": [],
      "name": "SaleInactive",
      "type": "error"
    },
    {
      "inputs": [],
      "name": "SoldOut",
      "type": "error"
    },
    {
      "inputs": [],
      "name": "WithdrawFailed",
      "type": "error"
    },
    {
      "anonymous": false,
      "inputs": [
        {
          "indexed": true,
          "internalType": "address",
          "name": "owner",
          "type": "address"
        },
        {
          "indexed": true,
          "internalType": "address",
          "name": "approved",
          "type": "address"
        },
        {
          "indexed": true,
          "internalType": "uint256",
          "name": "tokenId",
          "type": "uint256"
        }
      ],
      "name": "Approval",
      "type": "event"
    },
    {
      "anonymous": false,
      "inputs": [
        {
          "indexed": true,
          "internalType": "address",
          "name": "owner",
          "type": "address"
        },
        {
          "indexed": true,
          "internalType": "address",
          "name": "operator",
          "type": "address"
        },
        {
          "indexed": false,
          "internalType": "bool",
          "name": "approved",
          "type": "bool"
        }
      ],
      "name": "ApprovalForAll",
      "type": "event"
    },
    {
      "anonymous": false,
      "inputs": [
        {
          "indexed": true,
          "internalType": "address",
          "name": "previousOwner",
          "type": "address"
        },
        {
          "indexed": true,
          "internalType": "address",
          "name": "newOwner",
          "type": "address"
        }
      ],
      "name": "OwnershipTransferred",
      "type": "event"
    },
    {
      "anonymous": false,
      "inputs": [
        {
          "indexed": true,
          "internalType": "address",
          "name": "from",
          "type": "address"
        },
        {
          "indexed": true,
          "internalType": "address",
          "name": "to",
          "type": "address"
        },
        {
          "indexed": true,
          "internalType": "uint256",
          "name": "tokenId",
          "type": "uint256"
        }
      ],
      "name": "Transfer",
      "type": "event"
    },
    {
      "inputs": [],
      "name": "_baseTokenURI",
      "outputs": [
        {
          "internalType": "string",
          "name": "",
          "type": "string"
        }
      ],
      "stateMutability": "view",
      "type": "function"
    },
    {
      "inputs": [
        {
          "internalType": "address",
          "name": "to",
          "type": "address"
        },
        {
          "internalType": "uint256",
          "name": "tokenId",
          "type": "uint256"
        }
      ],
      "name": "approve",
      "outputs": [],
      "stateMutability": "nonpayable",
      "type": "function"
    },
    {
      "inputs": [
        {
          "internalType": "address",
          "name": "owner",
          "type": "address"
        }
      ],
      "name": "balanceOf",
      "outputs": [
        {
          "internalType": "uint256",
          "name": "",
          "type": "uint256"
        }
      ],
      "stateMutability": "view",
      "type": "function"
    },
    {
      "inputs": [
        {
          "internalType": "address",
          "name": "receiver",
          "type": "address"
        },
        {
          "internalType": "uint256",
          "name": "_quantity",
          "type": "uint256"
        }
      ],
      "name": "devMint",
      "outputs": [],
      "stateMutability": "nonpayable",
      "type": "function"
    },
    {
      "inputs": [
        {
          "internalType": "uint256",
          "name": "tokenId",
          "type": "uint256"
        }
      ],
      "name": "getApproved",
      "outputs": [
        {
          "internalType": "address",
          "name": "",
          "type": "address"
        }
      ],
      "stateMutability": "view",
      "type": "function"
    },
    {
      "inputs": [
        {
          "internalType": "address",
          "name": "owner",
          "type": "address"
        },
        {
          "internalType": "address",
          "name": "operator",
          "type": "address"
        }
      ],
      "name": "isApprovedForAll",
      "outputs": [
        {
          "internalType": "bool",
          "name": "",
          "type": "bool"
        }
      ],
      "stateMutability": "view",
      "type": "function"
    },
    {
      "inputs": [],
      "name": "maxMintAmountPerTx",
      "outputs": [
        {
          "internalType": "uint256",
          "name": "",
          "type": "uint256"
        }
      ],
      "stateMutability": "view",
      "type": "function"
    },
    {
      "inputs": [],
      "name": "maxSupply",
      "outputs": [
        {
          "internalType": "uint256",
          "name": "",
          "type": "uint256"
        }
      ],
      "stateMutability": "view",
      "type": "function"
    },
    {
      "inputs": [
        {
          "internalType": "uint256",
          "name": "_quantity",
          "type": "uint256"
        }
      ],
      "name": "mint",
      "outputs": [],
      "stateMutability": "payable",
      "type": "function"
    },
    {
      "inputs": [],
      "name": "name",
      "outputs": [
        {
          "internalType": "string",
          "name": "",
          "type": "string"
        }
      ],
      "stateMutability": "view",
      "type": "function"
    },
    {
      "inputs": [],
      "name": "nextTokenId",
      "outputs": [
        {
          "internalType": "uint256",
          "name": "",
          "type": "uint256"
        }
      ],
      "stateMutability": "view",
      "type": "function"
    },
    {
      "inputs": [],
      "name": "owner",
      "outputs": [
        {
          "internalType": "address",
          "name": "",
          "type": "address"
        }
      ],
      "stateMutability": "view",
      "type": "function"
    },
    {
      "inputs": [
        {
          "internalType": "uint256",
          "name": "tokenId",
          "type": "uint256"
        }
      ],
      "name": "ownerOf",
      "outputs": [
        {
          "internalType": "address",
          "name": "",
          "type": "address"
        }
      ],
      "stateMutability": "view",
      "type": "function"
    },
    {
      "inputs": [],
      "name": "price",
      "outputs": [
        {
          "internalType": "uint256",
          "name": "",
          "type": "uint256"
        }
      ],
      "stateMutability": "view",
      "type": "function"
    },
    {
      "inputs": [],
      "name": "renounceOwnership",
      "outputs": [],
      "stateMutability": "nonpayable",
      "type": "function"
    },
    {
      "inputs": [
        {
          "internalType": "address",
          "name": "from",
          "type": "address"
        },
        {
          "internalType": "address",
          "name": "to",
          "type": "address"
        },
        {
          "internalType": "uint256",
          "name": "tokenId",
          "type": "uint256"
        }
      ],
      "name": "safeTransferFrom",
      "outputs": [],
      "stateMutability": "nonpayable",
      "type": "function"
    },
    {
      "inputs": [
        {
          "internalType": "address",
          "name": "from",
          "type": "address"
        },
        {
          "internalType": "address",
          "name": "to",
          "type": "address"
        },
        {
          "internalType": "uint256",
          "name": "tokenId",
          "type": "uint256"
        },
        {
          "internalType": "bytes",
          "name": "_data",
          "type": "bytes"
        }
      ],
      "name": "safeTransferFrom",
      "outputs": [],
      "stateMutability": "nonpayable",
      "type": "function"
    },
    {
      "inputs": [],
      "name": "saleActive",
      "outputs": [
        {
          "internalType": "bool",
          "name": "",
          "type": "bool"
        }
      ],
      "stateMutability": "view",
      "type": "function"
    },
    {
      "inputs": [
        {
          "internalType": "address",
          "name": "operator",
          "type": "address"
        },
        {
          "internalType": "bool",
          "name": "approved",
          "type": "bool"
        }
      ],
      "name": "setApprovalForAll",
      "outputs": [],
      "stateMutability": "nonpayable",
      "type": "function"
    },
    {
      "inputs": [
        {
          "internalType": "string",
          "name": "baseURI",
          "type": "string"
        }
      ],
      "name": "setBaseURI",
      "outputs": [],
      "stateMutability": "nonpayable",
      "type": "function"
    },
    {
      "inputs": [
        {
          "internalType": "uint256",
          "name": "_maxMintAmountPerTx",
          "type": "uint256"
        }
      ],
      "name": "setMaxMintAmountPerTx",
      "outputs": [],
      "stateMutability": "nonpayable",
      "type": "function"
    },
    {
      "inputs": [
        {
          "internalType": "uint256",
          "name": "_price",
          "type": "uint256"
        }
      ],
      "name": "setPrice",
      "outputs": [],
      "stateMutability": "nonpayable",
      "type": "function"
    },
    {
      "inputs": [
        {
          "internalType": "bool",
          "name": "_state",
          "type": "bool"
        }
      ],
      "name": "setSaleState",
      "outputs": [],
      "stateMutability": "nonpayable",
      "type": "function"
    },
    {
      "inputs": [
        {
          "internalType": "bytes4",
          "name": "interfaceId",
          "type": "bytes4"
        }
      ],
      "name": "supportsInterface",
      "outputs": [
        {
          "internalType": "bool",
          "name": "",
          "type": "bool"
        }
      ],
      "stateMutability": "view",
      "type": "function"
    },
    {
      "inputs": [],
      "name": "symbol",
      "outputs": [
        {
          "internalType": "string",
          "name": "",
          "type": "string"
        }
      ],
      "stateMutability": "view",
      "type": "function"
    },
    {
      "inputs": [
        {
          "internalType": "uint256",
          "name": "tokenId",
          "type": "uint256"
        }
      ],
      "name": "tokenURI",
      "outputs": [
        {
          "internalType": "string",
          "name": "",
          "type": "string"
        }
      ],
      "stateMutability": "view",
      "type": "function"
    },
    {
      "inputs": [
        {
          "internalType": "address",
          "name": "wallet",
          "type": "address"
        }
      ],
      "name": "tokensOf",
      "outputs": [
        {
          "internalType": "uint256[]",
          "name": "",
          "type": "uint256[]"
        }
      ],
      "stateMutability": "view",
      "type": "function"
    },
    {
      "inputs": [],
      "name": "totalSupply",
      "outputs": [
        {
          "internalType": "uint256",
          "name": "",
          "type": "uint256"
        }
      ],
      "stateMutability": "view",
      "type": "function"
    },
    {
      "inputs": [
        {
          "internalType": "address",
          "name": "from",
          "type": "address"
        },
        {
          "internalType": "address",
          "name": "to",
          "type": "address"
        },
        {
          "internalType": "uint256",
          "name": "tokenId",
          "type": "uint256"
        }
      ],
      "name": "transferFrom",
      "outputs": [],
      "stateMutability": "nonpayable",
      "type": "function"
    },
    {
      "inputs": [
        {
          "internalType": "address",
          "name": "newOwner",
          "type": "address"
        }
      ],
      "name": "transferOwnership",
      "outputs": [],
      "stateMutability": "nonpayable",
      "type": "function"
    },
    {
      "inputs": [],
      "name": "withdraw",
      "outputs": [],
      "stateMutability": "payable",
      "type": "function"
    }
  ],
  "bytecode": "0x60806040526001600855662386f26fc100006009556005600a556000600b60006101000a81548160ff0219169083151502179055503480156200004157600080fd5b506040518060400160405280600481526020017f54657374000000000000000000000000000000000000000000000000000000008152506040518060400160405280600481526020017f54455354000000000000000000000000000000000000000000000000000000008152508160009080519060200190620000c692919062000224565b508060019080519060200190620000df92919062000224565b50505062000102620000f66200015660201b60201c565b6200015e60201b60201c565b6040518060400160405280601f81526020017f697066733a2f2f706174685f746f5f756e72657665616c65645f697066732f00815250600790805190602001906200014f92919062000224565b5062000339565b600033905090565b6000600660009054906101000a900473ffffffffffffffffffffffffffffffffffffffff16905081600660006101000a81548173ffffffffffffffffffffffffffffffffffffffff021916908373ffffffffffffffffffffffffffffffffffffffff1602179055508173ffffffffffffffffffffffffffffffffffffffff168173ffffffffffffffffffffffffffffffffffffffff167f8be0079c531659141344cd1fd0a4f28419497f9722a3daafe3b4186f6b6457e060405160405180910390a35050565b828054620002329062000303565b90600052602060002090601f016020900481019282620002565760008555620002a2565b82601f106200027157805160ff1916838001178555620002a2565b82800160010185558215620002a2579182015b82811115620002a157825182559160200191906001019062000284565b5b509050620002b19190620002b5565b5090565b5b80821115620002d0576000816000905550600101620002b6565b5090565b7f4e487b7100000000000000000000000000000000000000000000000000000000600052602260045260246000fd5b600060028204905060018216806200031c57607f821691505b60208210811415620003335762000332620002d4565b5b50919050565b613a3780620003496000396000f3fe6080604052600436106101d85760003560e01c806375794a3c11610102578063b071401b11610095578063cfc86f7b11610064578063cfc86f7b1461067a578063d5abeb01146106a5578063e985e9c5146106d0578063f2fde38b1461070d576101d8565b8063b071401b146105c2578063b88d4fde146105eb578063c4e3709514610614578063c87b56dd1461063d576101d8565b806395d89b41116100d157806395d89b4114610527578063a035b1fe14610552578063a0712d681461057d578063a22cb46514610599576101d8565b806375794a3c1461047d5780638da5cb5b146104a857806391b7f5ed146104d357806394354fd0146104fc576101d8565b806342842e0e1161017a5780636352211e116101495780636352211e146103c157806368428a1b146103fe57806370a0823114610429578063715018a614610466576101d8565b806342842e0e1461030957806355f804b3146103325780635a3f26721461035b578063627804af14610398576101d8565b8063095ea7b3116101b6578063095ea7b31461028257806318160ddd146102ab57806323b872dd146102d65780633ccfd60b146102ff576101d8565b806301ffc9a7146101dd57806306fdde031461021a578063081812fc14610245575b600080fd5b3480156101e957600080fd5b5061020460048036038101906101ff9190612625565b610736565b604051610211919061266d565b60405180910390f35b34801561022657600080fd5b5061022f610818565b60405161023c9190612721565b60405180910390f35b34801561025157600080fd5b5061026c60048036038101906102679190612779565b6108aa565b60405161027991906127e7565b60405180910390f35b34801561028e57600080fd5b506102a960048036038101906102a4919061282e565b61092f565b005b3480156102b757600080fd5b506102c0610a47565b6040516102cd919061287d565b60405180910390f35b3480156102e257600080fd5b506102fd60048036038101906102f89190612898565b610a5d565b005b610307610abd565b005b34801561031557600080fd5b50610330600480360381019061032b9190612898565b610be6565b005b34801561033e57600080fd5b5061035960048036038101906103549190612a20565b610c06565b005b34801561036757600080fd5b50610382600480360381019061037d9190612a69565b610c9c565b60405161038f9190612b54565b60405180910390f35b3480156103a457600080fd5b506103bf60048036038101906103ba919061282e565b610d96565b005b3480156103cd57600080fd5b506103e860048036038101906103e39190612779565b610ea8565b6040516103f591906127e7565b60405180910390f35b34801561040a57600080fd5b50610413610f5a565b604051610420919061266d565b60405180910390f35b34801561043557600080fd5b50610450600480360381019061044b9190612a69565b610f6d565b60405161045d919061287d565b60405180910390f35b34801561047257600080fd5b5061047b611025565b005b34801561048957600080fd5b506104926110ad565b60405161049f919061287d565b60405180910390f35b3480156104b457600080fd5b506104bd6110b3565b6040516104ca91906127e7565b60405180910390f35b3480156104df57600080fd5b506104fa60048036038101906104f59190612779565b6110dd565b005b34801561050857600080fd5b50610511611163565b60405161051e919061287d565b60405180910390f35b34801561053357600080fd5b5061053c611169565b6040516105499190612721565b60405180910390f35b34801561055e57600080fd5b506105676111fb565b604051610574919061287d565b60405180910390f35b61059760048036038101906105929190612779565b611201565b005b3480156105a557600080fd5b506105c060048036038101906105bb9190612ba2565b6113cc565b005b3480156105ce57600080fd5b506105e960048036038101906105e49190612779565b6113e2565b005b3480156105f757600080fd5b50610612600480360381019061060d9190612c83565b611468565b005b34801561062057600080fd5b5061063b60048036038101906106369190612d06565b6114ca565b005b34801561064957600080fd5b50610664600480360381019061065f9190612779565b611563565b6040516106719190612721565b60405180910390f35b34801561068657600080fd5b5061068f61160a565b60405161069c9190612721565b60405180910390f35b3480156106b157600080fd5b506106ba611698565b6040516106c7919061287d565b60405180910390f35b3480156106dc57600080fd5b506106f760048036038101906106f29190612d33565b61169d565b604051610704919061266d565b60405180910390f35b34801561071957600080fd5b50610734600480360381019061072f9190612a69565b611731565b005b60007f80ac58cd000000000000000000000000000000000000000000000000000000007bffffffffffffffffffffffffffffffffffffffffffffffffffffffff1916827bffffffffffffffffffffffffffffffffffffffffffffffffffffffff1916148061080157507f5b5e139f000000000000000000000000000000000000000000000000000000007bffffffffffffffffffffffffffffffffffffffffffffffffffffffff1916827bffffffffffffffffffffffffffffffffffffffffffffffffffffffff1916145b80610811575061081082611829565b5b9050919050565b60606000805461082790612da2565b80601f016020809104026020016040519081016040528092919081815260200182805461085390612da2565b80156108a05780601f10610875576101008083540402835291602001916108a0565b820191906000526020600020905b81548152906001019060200180831161088357829003601f168201915b5050505050905090565b60006108b582611893565b6108f4576040517f08c379a00000000000000000000000000000000000000000000000000000000081526004016108eb90612e46565b60405180910390fd5b6004600083815260200190815260200160002060009054906101000a900473ffffffffffffffffffffffffffffffffffffffff169050919050565b600061093a82610ea8565b90508073ffffffffffffffffffffffffffffffffffffffff168373ffffffffffffffffffffffffffffffffffffffff1614156109ab576040517f08c379a00000000000000000000000000000000000000000000000000000000081526004016109a290612ed8565b60405180910390fd5b8073ffffffffffffffffffffffffffffffffffffffff166109ca6118ff565b73ffffffffffffffffffffffffffffffffffffffff1614806109f957506109f8816109f36118ff565b61169d565b5b610a38576040517f08c379a0000000000000000000000000000000000000000000000000000000008152600401610a2f90612f6a565b60405180910390fd5b610a428383611907565b505050565b60006001600854610a589190612fb9565b905090565b610a6e610a686118ff565b826119c0565b610aad576040517f08c379a0000000000000000000000000000000000000000000000000000000008152600401610aa49061305f565b60405180910390fd5b610ab8838383611a9e565b505050565b610ac56118ff565b73ffffffffffffffffffffffffffffffffffffffff16610ae36110b3565b73ffffffffffffffffffffffffffffffffffffffff1614610b39576040517f08c379a0000000000000000000000000000000000000000000000000000000008152600401610b30906130cb565b60405180910390fd5b6000610b436110b3565b73ffffffffffffffffffffffffffffffffffffffff1647604051610b669061311c565b60006040518083038185875af1925050503d8060008114610ba3576040519150601f19603f3d011682016040523d82523d6000602084013e610ba8565b606091505b5050905080610be3576040517f750b219c00000000000000000000000000000000000000000000000000000000815260040160405180910390fd5b50565b610c0183838360405180602001604052806000815250611468565b505050565b610c0e6118ff565b73ffffffffffffffffffffffffffffffffffffffff16610c2c6110b3565b73ffffffffffffffffffffffffffffffffffffffff1614610c82576040517f08c379a0000000000000000000000000000000000000000000000000000000008152600401610c79906130cb565b60405180910390fd5b8060079080519060200190610c98929190612516565b5050565b60606000610ca8610a47565b90506000610cb584610f6d565b67ffffffffffffffff811115610cce57610ccd6128f5565b5b604051908082528060200260200182016040528015610cfc5781602001602082028036833780820191505090505b509050600080600190505b838111610d8a57610d1781610ea8565b73ffffffffffffffffffffffffffffffffffffffff168673ffffffffffffffffffffffffffffffffffffffff161415610d775780838380610d5790613131565b945081518110610d6a57610d6961317a565b5b6020026020010181815250505b8080610d8290613131565b915050610d07565b50819350505050919050565b610d9e6118ff565b73ffffffffffffffffffffffffffffffffffffffff16610dbc6110b3565b73ffffffffffffffffffffffffffffffffffffffff1614610e12576040517f08c379a0000000000000000000000000000000000000000000000000000000008152600401610e09906130cb565b60405180910390fd5b60006008549050600a600183610e289190612fb9565b82610e3391906131a9565b1115610e6b576040517f52df9fe500000000000000000000000000000000000000000000000000000000815260040160405180910390fd5b60005b82811015610e9b57610e808483611d05565b81806001019250508080610e9390613131565b915050610e6e565b5080600881905550505050565b6000806002600084815260200190815260200160002060009054906101000a900473ffffffffffffffffffffffffffffffffffffffff169050600073ffffffffffffffffffffffffffffffffffffffff168173ffffffffffffffffffffffffffffffffffffffff161415610f51576040517f08c379a0000000000000000000000000000000000000000000000000000000008152600401610f4890613271565b60405180910390fd5b80915050919050565b600b60009054906101000a900460ff1681565b60008073ffffffffffffffffffffffffffffffffffffffff168273ffffffffffffffffffffffffffffffffffffffff161415610fde576040517f08c379a0000000000000000000000000000000000000000000000000000000008152600401610fd590613303565b60405180910390fd5b600360008373ffffffffffffffffffffffffffffffffffffffff1673ffffffffffffffffffffffffffffffffffffffff168152602001908152602001600020549050919050565b61102d6118ff565b73ffffffffffffffffffffffffffffffffffffffff1661104b6110b3565b73ffffffffffffffffffffffffffffffffffffffff16146110a1576040517f08c379a0000000000000000000000000000000000000000000000000000000008152600401611098906130cb565b60405180910390fd5b6110ab6000611edf565b565b60085481565b6000600660009054906101000a900473ffffffffffffffffffffffffffffffffffffffff16905090565b6110e56118ff565b73ffffffffffffffffffffffffffffffffffffffff166111036110b3565b73ffffffffffffffffffffffffffffffffffffffff1614611159576040517f08c379a0000000000000000000000000000000000000000000000000000000008152600401611150906130cb565b60405180910390fd5b8060098190555050565b600a5481565b60606001805461117890612da2565b80601f01602080910402602001604051908101604052809291908181526020018280546111a490612da2565b80156111f15780601f106111c6576101008083540402835291602001916111f1565b820191906000526020600020905b8154815290600101906020018083116111d457829003601f168201915b5050505050905090565b60095481565b60006008549050600b60009054906101000a900460ff1661124e576040517f3f88677400000000000000000000000000000000000000000000000000000000815260040160405180910390fd5b600182108061125e5750600a5482115b15611295576040517f524f409b00000000000000000000000000000000000000000000000000000000815260040160405180910390fd5b600a6001836112a49190612fb9565b826112af91906131a9565b11156112e7576040517f52df9fe500000000000000000000000000000000000000000000000000000000815260040160405180910390fd5b3273ffffffffffffffffffffffffffffffffffffffff163373ffffffffffffffffffffffffffffffffffffffff161461134b576040517e61c20e00000000000000000000000000000000000000000000000000000000815260040160405180910390fd5b816009546113599190613323565b3414611390576040517ebfc92100000000000000000000000000000000000000000000000000000000815260040160405180910390fd5b60005b828110156113c0576113a53383611d05565b818060010192505080806113b890613131565b915050611393565b50806008819055505050565b6113de6113d76118ff565b8383611fa5565b5050565b6113ea6118ff565b73ffffffffffffffffffffffffffffffffffffffff166114086110b3565b73ffffffffffffffffffffffffffffffffffffffff161461145e576040517f08c379a0000000000000000000000000000000000000000000000000000000008152600401611455906130cb565b60405180910390fd5b80600a8190555050565b6114796114736118ff565b836119c0565b6114b8576040517f08c379a00000000000000000000000000000000000000000000000000000000081526004016114af9061305f565b60405180910390fd5b6114c484848484612112565b50505050565b6114d26118ff565b73ffffffffffffffffffffffffffffffffffffffff166114f06110b3565b73ffffffffffffffffffffffffffffffffffffffff1614611546576040517f08c379a000000000000000000000000000000000000000000000000000000000815260040161153d906130cb565b60405180910390fd5b80600b60006101000a81548160ff02191690831515021790555050565b606061156e82611893565b6115ad576040517f08c379a00000000000000000000000000000000000000000000000000000000081526004016115a4906133ef565b60405180910390fd5b60006115b761216e565b905060008151116115d75760405180602001604052806000815250611602565b806115e184612200565b6040516020016115f292919061344b565b6040516020818303038152906040525b915050919050565b6007805461161790612da2565b80601f016020809104026020016040519081016040528092919081815260200182805461164390612da2565b80156116905780601f1061166557610100808354040283529160200191611690565b820191906000526020600020905b81548152906001019060200180831161167357829003601f168201915b505050505081565b600a81565b6000600560008473ffffffffffffffffffffffffffffffffffffffff1673ffffffffffffffffffffffffffffffffffffffff16815260200190815260200160002060008373ffffffffffffffffffffffffffffffffffffffff1673ffffffffffffffffffffffffffffffffffffffff16815260200190815260200160002060009054906101000a900460ff16905092915050565b6117396118ff565b73ffffffffffffffffffffffffffffffffffffffff166117576110b3565b73ffffffffffffffffffffffffffffffffffffffff16146117ad576040517f08c379a00000000000000000000000000000000000000000000000000000000081526004016117a4906130cb565b60405180910390fd5b600073ffffffffffffffffffffffffffffffffffffffff168173ffffffffffffffffffffffffffffffffffffffff16141561181d576040517f08c379a0000000000000000000000000000000000000000000000000000000008152600401611814906134e1565b60405180910390fd5b61182681611edf565b50565b60007f01ffc9a7000000000000000000000000000000000000000000000000000000007bffffffffffffffffffffffffffffffffffffffffffffffffffffffff1916827bffffffffffffffffffffffffffffffffffffffffffffffffffffffff1916149050919050565b60008073ffffffffffffffffffffffffffffffffffffffff166002600084815260200190815260200160002060009054906101000a900473ffffffffffffffffffffffffffffffffffffffff1673ffffffffffffffffffffffffffffffffffffffff1614159050919050565b600033905090565b816004600083815260200190815260200160002060006101000a81548173ffffffffffffffffffffffffffffffffffffffff021916908373ffffffffffffffffffffffffffffffffffffffff160217905550808273ffffffffffffffffffffffffffffffffffffffff1661197a83610ea8565b73ffffffffffffffffffffffffffffffffffffffff167f8c5be1e5ebec7d5bd14f71427d1e84f3dd0314c0f7b2291e5b200ac8c7c3b92560405160405180910390a45050565b60006119cb82611893565b611a0a576040517f08c379a0000000000000000000000000000000000000000000000000000000008152600401611a0190613573565b60405180910390fd5b6000611a1583610ea8565b90508073ffffffffffffffffffffffffffffffffffffffff168473ffffffffffffffffffffffffffffffffffffffff161480611a8457508373ffffffffffffffffffffffffffffffffffffffff16611a6c846108aa565b73ffffffffffffffffffffffffffffffffffffffff16145b80611a955750611a94818561169d565b5b91505092915050565b8273ffffffffffffffffffffffffffffffffffffffff16611abe82610ea8565b73ffffffffffffffffffffffffffffffffffffffff1614611b14576040517f08c379a0000000000000000000000000000000000000000000000000000000008152600401611b0b90613605565b60405180910390fd5b600073ffffffffffffffffffffffffffffffffffffffff168273ffffffffffffffffffffffffffffffffffffffff161415611b84576040517f08c379a0000000000000000000000000000000000000000000000000000000008152600401611b7b90613697565b60405180910390fd5b611b8f838383612361565b611b9a600082611907565b6001600360008573ffffffffffffffffffffffffffffffffffffffff1673ffffffffffffffffffffffffffffffffffffffff1681526020019081526020016000206000828254611bea9190612fb9565b925050819055506001600360008473ffffffffffffffffffffffffffffffffffffffff1673ffffffffffffffffffffffffffffffffffffffff1681526020019081526020016000206000828254611c4191906131a9565b92505081905550816002600083815260200190815260200160002060006101000a81548173ffffffffffffffffffffffffffffffffffffffff021916908373ffffffffffffffffffffffffffffffffffffffff160217905550808273ffffffffffffffffffffffffffffffffffffffff168473ffffffffffffffffffffffffffffffffffffffff167fddf252ad1be2c89b69c2b068fc378daa952ba7f163c4a11628f55a4df523b3ef60405160405180910390a4611d00838383612366565b505050565b600073ffffffffffffffffffffffffffffffffffffffff168273ffffffffffffffffffffffffffffffffffffffff161415611d75576040517f08c379a0000000000000000000000000000000000000000000000000000000008152600401611d6c90613703565b60405180910390fd5b611d7e81611893565b15611dbe576040517f08c379a0000000000000000000000000000000000000000000000000000000008152600401611db59061376f565b60405180910390fd5b611dca60008383612361565b6001600360008473ffffffffffffffffffffffffffffffffffffffff1673ffffffffffffffffffffffffffffffffffffffff1681526020019081526020016000206000828254611e1a91906131a9565b92505081905550816002600083815260200190815260200160002060006101000a81548173ffffffffffffffffffffffffffffffffffffffff021916908373ffffffffffffffffffffffffffffffffffffffff160217905550808273ffffffffffffffffffffffffffffffffffffffff16600073ffffffffffffffffffffffffffffffffffffffff167fddf252ad1be2c89b69c2b068fc378daa952ba7f163c4a11628f55a4df523b3ef60405160405180910390a4611edb60008383612366565b5050565b6000600660009054906101000a900473ffffffffffffffffffffffffffffffffffffffff16905081600660006101000a81548173ffffffffffffffffffffffffffffffffffffffff021916908373ffffffffffffffffffffffffffffffffffffffff1602179055508173ffffffffffffffffffffffffffffffffffffffff168173ffffffffffffffffffffffffffffffffffffffff167f8be0079c531659141344cd1fd0a4f28419497f9722a3daafe3b4186f6b6457e060405160405180910390a35050565b8173ffffffffffffffffffffffffffffffffffffffff168373ffffffffffffffffffffffffffffffffffffffff161415612014576040517f08c379a000000000000000000000000000000000000000000000000000000000815260040161200b906137db565b60405180910390fd5b80600560008573ffffffffffffffffffffffffffffffffffffffff1673ffffffffffffffffffffffffffffffffffffffff16815260200190815260200160002060008473ffffffffffffffffffffffffffffffffffffffff1673ffffffffffffffffffffffffffffffffffffffff16815260200190815260200160002060006101000a81548160ff0219169083151502179055508173ffffffffffffffffffffffffffffffffffffffff168373ffffffffffffffffffffffffffffffffffffffff167f17307eab39ab6107e8899845ad3d59bd9653f200f220920489ca2b5937696c3183604051612105919061266d565b60405180910390a3505050565b61211d848484611a9e565b6121298484848461236b565b612168576040517f08c379a000000000000000000000000000000000000000000000000000000000815260040161215f9061386d565b60405180910390fd5b50505050565b60606007805461217d90612da2565b80601f01602080910402602001604051908101604052809291908181526020018280546121a990612da2565b80156121f65780601f106121cb576101008083540402835291602001916121f6565b820191906000526020600020905b8154815290600101906020018083116121d957829003601f168201915b5050505050905090565b60606000821415612248576040518060400160405280600181526020017f3000000000000000000000000000000000000000000000000000000000000000815250905061235c565b600082905060005b6000821461227a57808061226390613131565b915050600a8261227391906138bc565b9150612250565b60008167ffffffffffffffff811115612296576122956128f5565b5b6040519080825280601f01601f1916602001820160405280156122c85781602001600182028036833780820191505090505b5090505b60008514612355576001826122e19190612fb9565b9150600a856122f091906138ed565b60306122fc91906131a9565b60f81b8183815181106123125761231161317a565b5b60200101907effffffffffffffffffffffffffffffffffffffffffffffffffffffffffffff1916908160001a905350600a8561234e91906138bc565b94506122cc565b8093505050505b919050565b505050565b505050565b600061238c8473ffffffffffffffffffffffffffffffffffffffff166124f3565b156124e6578373ffffffffffffffffffffffffffffffffffffffff1663150b7a026123b56118ff565b8786866040518563ffffffff1660e01b81526004016123d79493929190613973565b6020604051808303816000875af192505050801561241357506040513d601f19601f8201168201806040525081019061241091906139d4565b60015b612496573d8060008114612443576040519150601f19603f3d011682016040523d82523d6000602084013e612448565b606091505b5060008151141561248e576040517f08c379a00000000000000000000000000000000000000000000000000000000081526004016124859061386d565b60405180910390fd5b805181602001fd5b63150b7a0260e01b7bffffffffffffffffffffffffffffffffffffffffffffffffffffffff1916817bffffffffffffffffffffffffffffffffffffffffffffffffffffffff1916149150506124eb565b600190505b949350505050565b6000808273ffffffffffffffffffffffffffffffffffffffff163b119050919050565b82805461252290612da2565b90600052602060002090601f016020900481019282612544576000855561258b565b82601f1061255d57805160ff191683800117855561258b565b8280016001018555821561258b579182015b8281111561258a57825182559160200191906001019061256f565b5b509050612598919061259c565b5090565b5b808211156125b557600081600090555060010161259d565b5090565b6000604051905090565b600080fd5b600080fd5b60007fffffffff0000000000000000000000000000000000000000000000000000000082169050919050565b612602816125cd565b811461260d57600080fd5b50565b60008135905061261f816125f9565b92915050565b60006020828403121561263b5761263a6125c3565b5b600061264984828501612610565b91505092915050565b60008115159050919050565b61266781612652565b82525050565b6000602082019050612682600083018461265e565b92915050565b600081519050919050565b600082825260208201905092915050565b60005b838110156126c25780820151818401526020810190506126a7565b838111156126d1576000848401525b50505050565b6000601f19601f8301169050919050565b60006126f382612688565b6126fd8185612693565b935061270d8185602086016126a4565b612716816126d7565b840191505092915050565b6000602082019050818103600083015261273b81846126e8565b905092915050565b6000819050919050565b61275681612743565b811461276157600080fd5b50565b6000813590506127738161274d565b92915050565b60006020828403121561278f5761278e6125c3565b5b600061279d84828501612764565b91505092915050565b600073ffffffffffffffffffffffffffffffffffffffff82169050919050565b60006127d1826127a6565b9050919050565b6127e1816127c6565b82525050565b60006020820190506127fc60008301846127d8565b92915050565b61280b816127c6565b811461281657600080fd5b50565b60008135905061282881612802565b92915050565b60008060408385031215612845576128446125c3565b5b600061285385828601612819565b925050602061286485828601612764565b9150509250929050565b61287781612743565b82525050565b6000602082019050612892600083018461286e565b92915050565b6000806000606084860312156128b1576128b06125c3565b5b60006128bf86828701612819565b93505060206128d086828701612819565b92505060406128e186828701612764565b9150509250925092565b600080fd5b600080fd5b7f4e487b7100000000000000000000000000000000000000000000000000000000600052604160045260246000fd5b61292d826126d7565b810181811067ffffffffffffffff8211171561294c5761294b6128f5565b5b80604052505050565b600061295f6125b9565b905061296b8282612924565b919050565b600067ffffffffffffffff82111561298b5761298a6128f5565b5b612994826126d7565b9050602081019050919050565b82818337600083830152505050565b60006129c36129be84612970565b612955565b9050828152602081018484840111156129df576129de6128f0565b5b6129ea8482856129a1565b509392505050565b600082601f830112612a0757612a066128eb565b5b8135612a178482602086016129b0565b91505092915050565b600060208284031215612a3657612a356125c3565b5b600082013567ffffffffffffffff811115612a5457612a536125c8565b5b612a60848285016129f2565b91505092915050565b600060208284031215612a7f57612a7e6125c3565b5b6000612a8d84828501612819565b91505092915050565b600081519050919050565b600082825260208201905092915050565b6000819050602082019050919050565b612acb81612743565b82525050565b6000612add8383612ac2565b60208301905092915050565b6000602082019050919050565b6000612b0182612a96565b612b0b8185612aa1565b9350612b1683612ab2565b8060005b83811015612b47578151612b2e8882612ad1565b9750612b3983612ae9565b925050600181019050612b1a565b5085935050505092915050565b60006020820190508181036000830152612b6e8184612af6565b905092915050565b612b7f81612652565b8114612b8a57600080fd5b50565b600081359050612b9c81612b76565b92915050565b60008060408385031215612bb957612bb86125c3565b5b6000612bc785828601612819565b9250506020612bd885828601612b8d565b9150509250929050565b600067ffffffffffffffff821115612bfd57612bfc6128f5565b5b612c06826126d7565b9050602081019050919050565b6000612c26612c2184612be2565b612955565b905082815260208101848484011115612c4257612c416128f0565b5b612c4d8482856129a1565b509392505050565b600082601f830112612c6a57612c696128eb565b5b8135612c7a848260208601612c13565b91505092915050565b60008060008060808587031215612c9d57612c9c6125c3565b5b6000612cab87828801612819565b9450506020612cbc87828801612819565b9350506040612ccd87828801612764565b925050606085013567ffffffffffffffff811115612cee57612ced6125c8565b5b612cfa87828801612c55565b91505092959194509250565b600060208284031215612d1c57612d1b6125c3565b5b6000612d2a84828501612b8d565b91505092915050565b60008060408385031215612d4a57612d496125c3565b5b6000612d5885828601612819565b9250506020612d6985828601612819565b9150509250929050565b7f4e487b7100000000000000000000000000000000000000000000000000000000600052602260045260246000fd5b60006002820490506001821680612dba57607f821691505b60208210811415612dce57612dcd612d73565b5b50919050565b7f4552433732313a20617070726f76656420717565727920666f72206e6f6e657860008201527f697374656e7420746f6b656e0000000000000000000000000000000000000000602082015250565b6000612e30602c83612693565b9150612e3b82612dd4565b604082019050919050565b60006020820190508181036000830152612e5f81612e23565b9050919050565b7f4552433732313a20617070726f76616c20746f2063757272656e74206f776e6560008201527f7200000000000000000000000000000000000000000000000000000000000000602082015250565b6000612ec2602183612693565b9150612ecd82612e66565b604082019050919050565b60006020820190508181036000830152612ef181612eb5565b9050919050565b7f4552433732313a20617070726f76652063616c6c6572206973206e6f74206f7760008201527f6e6572206e6f7220617070726f76656420666f7220616c6c0000000000000000602082015250565b6000612f54603883612693565b9150612f5f82612ef8565b604082019050919050565b60006020820190508181036000830152612f8381612f47565b9050919050565b7f4e487b7100000000000000000000000000000000000000000000000000000000600052601160045260246000fd5b6000612fc482612743565b9150612fcf83612743565b925082821015612fe257612fe1612f8a565b5b828203905092915050565b7f4552433732313a207472616e736665722063616c6c6572206973206e6f74206f60008201527f776e6572206e6f7220617070726f766564000000000000000000000000000000602082015250565b6000613049603183612693565b915061305482612fed565b604082019050919050565b600060208201905081810360008301526130788161303c565b9050919050565b7f4f776e61626c653a2063616c6c6572206973206e6f7420746865206f776e6572600082015250565b60006130b5602083612693565b91506130c08261307f565b602082019050919050565b600060208201905081810360008301526130e4816130a8565b9050919050565b600081905092915050565b50565b60006131066000836130eb565b9150613111826130f6565b600082019050919050565b6000613127826130f9565b9150819050919050565b600061313c82612743565b91507fffffffffffffffffffffffffffffffffffffffffffffffffffffffffffffffff82141561316f5761316e612f8a565b5b600182019050919050565b7f4e487b7100000000000000000000000000000000000000000000000000000000600052603260045260246000fd5b60006131b482612743565b91506131bf83612743565b9250827fffffffffffffffffffffffffffffffffffffffffffffffffffffffffffffffff038211156131f4576131f3612f8a565b5b828201905092915050565b7f4552433732313a206f776e657220717565727920666f72206e6f6e657869737460008201527f656e7420746f6b656e0000000000000000000000000000000000000000000000602082015250565b600061325b602983612693565b9150613266826131ff565b604082019050919050565b6000602082019050818103600083015261328a8161324e565b9050919050565b7f4552433732313a2062616c616e636520717565727920666f7220746865207a6560008201527f726f206164647265737300000000000000000000000000000000000000000000602082015250565b60006132ed602a83612693565b91506132f882613291565b604082019050919050565b6000602082019050818103600083015261331c816132e0565b9050919050565b600061332e82612743565b915061333983612743565b9250817fffffffffffffffffffffffffffffffffffffffffffffffffffffffffffffffff048311821515161561337257613371612f8a565b5b828202905092915050565b7f4552433732314d657461646174613a2055524920717565727920666f72206e6f60008201527f6e6578697374656e7420746f6b656e0000000000000000000000000000000000602082015250565b60006133d9602f83612693565b91506133e48261337d565b604082019050919050565b60006020820190508181036000830152613408816133cc565b9050919050565b600081905092915050565b600061342582612688565b61342f818561340f565b935061343f8185602086016126a4565b80840191505092915050565b6000613457828561341a565b9150613463828461341a565b91508190509392505050565b7f4f776e61626c653a206e6577206f776e657220697320746865207a65726f206160008201527f6464726573730000000000000000000000000000000000000000000000000000602082015250565b60006134cb602683612693565b91506134d68261346f565b604082019050919050565b600060208201905081810360008301526134fa816134be565b9050919050565b7f4552433732313a206f70657261746f7220717565727920666f72206e6f6e657860008201527f697374656e7420746f6b656e0000000000000000000000000000000000000000602082015250565b600061355d602c83612693565b915061356882613501565b604082019050919050565b6000602082019050818103600083015261358c81613550565b9050919050565b7f4552433732313a207472616e736665722066726f6d20696e636f72726563742060008201527f6f776e6572000000000000000000000000000000000000000000000000000000602082015250565b60006135ef602583612693565b91506135fa82613593565b604082019050919050565b6000602082019050818103600083015261361e816135e2565b9050919050565b7f4552433732313a207472616e7366657220746f20746865207a65726f2061646460008201527f7265737300000000000000000000000000000000000000000000000000000000602082015250565b6000613681602483612693565b915061368c82613625565b604082019050919050565b600060208201905081810360008301526136b081613674565b9050919050565b7f4552433732313a206d696e7420746f20746865207a65726f2061646472657373600082015250565b60006136ed602083612693565b91506136f8826136b7565b602082019050919050565b6000602082019050818103600083015261371c816136e0565b9050919050565b7f4552433732313a20746f6b656e20616c7265616479206d696e74656400000000600082015250565b6000613759601c83612693565b915061376482613723565b602082019050919050565b600060208201905081810360008301526137888161374c565b9050919050565b7f4552433732313a20617070726f766520746f2063616c6c657200000000000000600082015250565b60006137c5601983612693565b91506137d08261378f565b602082019050919050565b600060208201905081810360008301526137f4816137b8565b9050919050565b7f4552433732313a207472616e7366657220746f206e6f6e20455243373231526560008201527f63656976657220696d706c656d656e7465720000000000000000000000000000602082015250565b6000613857603283612693565b9150613862826137fb565b604082019050919050565b600060208201905081810360008301526138868161384a565b9050919050565b7f4e487b7100000000000000000000000000000000000000000000000000000000600052601260045260246000fd5b60006138c782612743565b91506138d283612743565b9250826138e2576138e161388d565b5b828204905092915050565b60006138f882612743565b915061390383612743565b9250826139135761391261388d565b5b828206905092915050565b600081519050919050565b600082825260208201905092915050565b60006139458261391e565b61394f8185613929565b935061395f8185602086016126a4565b613968816126d7565b840191505092915050565b600060808201905061398860008301876127d8565b61399560208301866127d8565b6139a2604083018561286e565b81810360608301526139b4818461393a565b905095945050505050565b6000815190506139ce816125f9565b92915050565b6000602082840312156139ea576139e96125c3565b5b60006139f8848285016139bf565b9150509291505056fea2646970667358221220fdd9ef4a989f0b4e4e47e511d5ce51fa421db6f025be2303a71d53c1e2ef997264736f6c634300080b0033",
  "linkReferences": {},
  "deployedLinkReferences": {}
}