{
  "_format": "hh-sol-artifact-1",
  "contractName": "ERC721TEST",
  "sourceName": "cache/solpp-generated-contracts/ERC721.sol",
  "abi": [
    {
      "inputs": [],
      "stateMutability": "nonpayable",
      "type": "constructor"
    },
    {
      "anonymous": false,
      "inputs": [
        {
          "indexed": true,
          "internalType": "address",
          "name": "owner",
          "type": "address"
        },
        {
          "indexed": true,
          "internalType": "address",
          "name": "approved",
          "type": "address"
        },
        {
          "indexed": true,
          "internalType": "uint256",
          "name": "tokenId",
          "type": "uint256"
        }
      ],
      "name": "Approval",
      "type": "event"
    },
    {
      "anonymous": false,
      "inputs": [
        {
          "indexed": true,
          "internalType": "address",
          "name": "owner",
          "type": "address"
        },
        {
          "indexed": true,
          "internalType": "address",
          "name": "operator",
          "type": "address"
        },
        {
          "indexed": false,
          "internalType": "bool",
          "name": "approved",
          "type": "bool"
        }
      ],
      "name": "ApprovalForAll",
      "type": "event"
    },
    {
      "anonymous": false,
      "inputs": [
        {
          "indexed": true,
          "internalType": "address",
          "name": "previousOwner",
          "type": "address"
        },
        {
          "indexed": true,
          "internalType": "address",
          "name": "newOwner",
          "type": "address"
        }
      ],
      "name": "OwnershipTransferred",
      "type": "event"
    },
    {
      "anonymous": false,
      "inputs": [
        {
          "indexed": true,
          "internalType": "address",
          "name": "from",
          "type": "address"
        },
        {
          "indexed": true,
          "internalType": "address",
          "name": "to",
          "type": "address"
        },
        {
          "indexed": true,
          "internalType": "uint256",
          "name": "tokenId",
          "type": "uint256"
        }
      ],
      "name": "Transfer",
      "type": "event"
    },
    {
      "inputs": [
        {
          "internalType": "uint256",
          "name": "_mintAmount",
          "type": "uint256"
        },
        {
          "internalType": "address",
          "name": "_receiver",
          "type": "address"
        }
      ],
      "name": "airdrop",
      "outputs": [],
      "stateMutability": "nonpayable",
      "type": "function"
    },
    {
      "inputs": [
        {
          "internalType": "address",
          "name": "to",
          "type": "address"
        },
        {
          "internalType": "uint256",
          "name": "tokenId",
          "type": "uint256"
        }
      ],
      "name": "approve",
      "outputs": [],
      "stateMutability": "nonpayable",
      "type": "function"
    },
    {
      "inputs": [
        {
          "internalType": "address",
          "name": "owner",
          "type": "address"
        }
      ],
      "name": "balanceOf",
      "outputs": [
        {
          "internalType": "uint256",
          "name": "",
          "type": "uint256"
        }
      ],
      "stateMutability": "view",
      "type": "function"
    },
    {
      "inputs": [],
      "name": "cost",
      "outputs": [
        {
          "internalType": "uint256",
          "name": "",
          "type": "uint256"
        }
      ],
      "stateMutability": "view",
      "type": "function"
    },
    {
      "inputs": [
        {
          "internalType": "uint256",
          "name": "tokenId",
          "type": "uint256"
        }
      ],
      "name": "getApproved",
      "outputs": [
        {
          "internalType": "address",
          "name": "",
          "type": "address"
        }
      ],
      "stateMutability": "view",
      "type": "function"
    },
    {
      "inputs": [],
      "name": "hiddenMetadataUri",
      "outputs": [
        {
          "internalType": "string",
          "name": "",
          "type": "string"
        }
      ],
      "stateMutability": "view",
      "type": "function"
    },
    {
      "inputs": [
        {
          "internalType": "address",
          "name": "owner",
          "type": "address"
        },
        {
          "internalType": "address",
          "name": "operator",
          "type": "address"
        }
      ],
      "name": "isApprovedForAll",
      "outputs": [
        {
          "internalType": "bool",
          "name": "",
          "type": "bool"
        }
      ],
      "stateMutability": "view",
      "type": "function"
    },
    {
      "inputs": [],
      "name": "maxMintAmountPerTx",
      "outputs": [
        {
          "internalType": "uint256",
          "name": "",
          "type": "uint256"
        }
      ],
      "stateMutability": "view",
      "type": "function"
    },
    {
      "inputs": [],
      "name": "maxSupply",
      "outputs": [
        {
          "internalType": "uint256",
          "name": "",
          "type": "uint256"
        }
      ],
      "stateMutability": "view",
      "type": "function"
    },
    {
      "inputs": [
        {
          "internalType": "uint256",
          "name": "_mintAmount",
          "type": "uint256"
        }
      ],
      "name": "mint",
      "outputs": [],
      "stateMutability": "payable",
      "type": "function"
    },
    {
      "inputs": [],
      "name": "name",
      "outputs": [
        {
          "internalType": "string",
          "name": "",
          "type": "string"
        }
      ],
      "stateMutability": "view",
      "type": "function"
    },
    {
      "inputs": [],
      "name": "owner",
      "outputs": [
        {
          "internalType": "address",
          "name": "",
          "type": "address"
        }
      ],
      "stateMutability": "view",
      "type": "function"
    },
    {
      "inputs": [
        {
          "internalType": "uint256",
          "name": "tokenId",
          "type": "uint256"
        }
      ],
      "name": "ownerOf",
      "outputs": [
        {
          "internalType": "address",
          "name": "",
          "type": "address"
        }
      ],
      "stateMutability": "view",
      "type": "function"
    },
    {
      "inputs": [],
      "name": "paused",
      "outputs": [
        {
          "internalType": "bool",
          "name": "",
          "type": "bool"
        }
      ],
      "stateMutability": "view",
      "type": "function"
    },
    {
      "inputs": [],
      "name": "renounceOwnership",
      "outputs": [],
      "stateMutability": "nonpayable",
      "type": "function"
    },
    {
      "inputs": [],
      "name": "revealed",
      "outputs": [
        {
          "internalType": "bool",
          "name": "",
          "type": "bool"
        }
      ],
      "stateMutability": "view",
      "type": "function"
    },
    {
      "inputs": [
        {
          "internalType": "address",
          "name": "from",
          "type": "address"
        },
        {
          "internalType": "address",
          "name": "to",
          "type": "address"
        },
        {
          "internalType": "uint256",
          "name": "tokenId",
          "type": "uint256"
        }
      ],
      "name": "safeTransferFrom",
      "outputs": [],
      "stateMutability": "nonpayable",
      "type": "function"
    },
    {
      "inputs": [
        {
          "internalType": "address",
          "name": "from",
          "type": "address"
        },
        {
          "internalType": "address",
          "name": "to",
          "type": "address"
        },
        {
          "internalType": "uint256",
          "name": "tokenId",
          "type": "uint256"
        },
        {
          "internalType": "bytes",
          "name": "_data",
          "type": "bytes"
        }
      ],
      "name": "safeTransferFrom",
      "outputs": [],
      "stateMutability": "nonpayable",
      "type": "function"
    },
    {
      "inputs": [
        {
          "internalType": "address",
          "name": "operator",
          "type": "address"
        },
        {
          "internalType": "bool",
          "name": "approved",
          "type": "bool"
        }
      ],
      "name": "setApprovalForAll",
      "outputs": [],
      "stateMutability": "nonpayable",
      "type": "function"
    },
    {
      "inputs": [
        {
          "internalType": "uint256",
          "name": "_cost",
          "type": "uint256"
        }
      ],
      "name": "setCost",
      "outputs": [],
      "stateMutability": "nonpayable",
      "type": "function"
    },
    {
      "inputs": [
        {
          "internalType": "string",
          "name": "_hiddenMetadataUri",
          "type": "string"
        }
      ],
      "name": "setHiddenMetadataUri",
      "outputs": [],
      "stateMutability": "nonpayable",
      "type": "function"
    },
    {
      "inputs": [
        {
          "internalType": "uint256",
          "name": "_maxMintAmountPerTx",
          "type": "uint256"
        }
      ],
      "name": "setMaxMintAmountPerTx",
      "outputs": [],
      "stateMutability": "nonpayable",
      "type": "function"
    },
    {
      "inputs": [
        {
          "internalType": "bool",
          "name": "_state",
          "type": "bool"
        }
      ],
      "name": "setPaused",
      "outputs": [],
      "stateMutability": "nonpayable",
      "type": "function"
    },
    {
      "inputs": [
        {
          "internalType": "bool",
          "name": "_state",
          "type": "bool"
        }
      ],
      "name": "setRevealed",
      "outputs": [],
      "stateMutability": "nonpayable",
      "type": "function"
    },
    {
      "inputs": [
        {
          "internalType": "string",
          "name": "_uriPrefix",
          "type": "string"
        }
      ],
      "name": "setUriPrefix",
      "outputs": [],
      "stateMutability": "nonpayable",
      "type": "function"
    },
    {
      "inputs": [
        {
          "internalType": "string",
          "name": "_uriSuffix",
          "type": "string"
        }
      ],
      "name": "setUriSuffix",
      "outputs": [],
      "stateMutability": "nonpayable",
      "type": "function"
    },
    {
      "inputs": [
        {
          "internalType": "bytes4",
          "name": "interfaceId",
          "type": "bytes4"
        }
      ],
      "name": "supportsInterface",
      "outputs": [
        {
          "internalType": "bool",
          "name": "",
          "type": "bool"
        }
      ],
      "stateMutability": "view",
      "type": "function"
    },
    {
      "inputs": [],
      "name": "symbol",
      "outputs": [
        {
          "internalType": "string",
          "name": "",
          "type": "string"
        }
      ],
      "stateMutability": "view",
      "type": "function"
    },
    {
      "inputs": [
        {
          "internalType": "uint256",
          "name": "_tokenId",
          "type": "uint256"
        }
      ],
      "name": "tokenURI",
      "outputs": [
        {
          "internalType": "string",
          "name": "",
          "type": "string"
        }
      ],
      "stateMutability": "view",
      "type": "function"
    },
    {
      "inputs": [],
      "name": "totalSupply",
      "outputs": [
        {
          "internalType": "uint256",
          "name": "",
          "type": "uint256"
        }
      ],
      "stateMutability": "view",
      "type": "function"
    },
    {
      "inputs": [
        {
          "internalType": "address",
          "name": "from",
          "type": "address"
        },
        {
          "internalType": "address",
          "name": "to",
          "type": "address"
        },
        {
          "internalType": "uint256",
          "name": "tokenId",
          "type": "uint256"
        }
      ],
      "name": "transferFrom",
      "outputs": [],
      "stateMutability": "nonpayable",
      "type": "function"
    },
    {
      "inputs": [
        {
          "internalType": "address",
          "name": "newOwner",
          "type": "address"
        }
      ],
      "name": "transferOwnership",
      "outputs": [],
      "stateMutability": "nonpayable",
      "type": "function"
    },
    {
      "inputs": [],
      "name": "uriPrefix",
      "outputs": [
        {
          "internalType": "string",
          "name": "",
          "type": "string"
        }
      ],
      "stateMutability": "view",
      "type": "function"
    },
    {
      "inputs": [],
      "name": "uriSuffix",
      "outputs": [
        {
          "internalType": "string",
          "name": "",
          "type": "string"
        }
      ],
      "stateMutability": "view",
      "type": "function"
    },
    {
      "inputs": [
        {
          "internalType": "address",
          "name": "_owner",
          "type": "address"
        }
      ],
      "name": "walletOfOwner",
      "outputs": [
        {
          "internalType": "uint256[]",
          "name": "",
          "type": "uint256[]"
        }
      ],
      "stateMutability": "view",
      "type": "function"
    },
    {
      "inputs": [],
      "name": "withdraw",
      "outputs": [],
      "stateMutability": "payable",
      "type": "function"
    }
  ],
  "bytecode": "0x608060405260405180602001604052806000815250600990805190602001906200002b9291906200038b565b506040518060400160405280600581526020017f2e6a736f6e000000000000000000000000000000000000000000000000000000815250600a9080519060200190620000799291906200038b565b50662386f26fc10000600c55612710600d556005600e556001600f60006101000a81548160ff0219169083151502179055506000600f60016101000a81548160ff021916908315150217905550348015620000d357600080fd5b506040518060400160405280600481526020017f4e414d45000000000000000000000000000000000000000000000000000000008152506040518060400160405280600681526020017f53594d424f4c00000000000000000000000000000000000000000000000000008152508160009080519060200190620001589291906200038b565b508060019080519060200190620001719291906200038b565b5050506200019462000188620001e860201b60201c565b620001f060201b60201c565b6001600781905550620001e26040518060400160405280601a81526020017f697066733a2f2f5f5f4349445f5f2f68696464656e2e6a736f6e000000000000815250620002b660201b60201c565b62000523565b600033905090565b6000600660009054906101000a900473ffffffffffffffffffffffffffffffffffffffff16905081600660006101000a81548173ffffffffffffffffffffffffffffffffffffffff021916908373ffffffffffffffffffffffffffffffffffffffff1602179055508173ffffffffffffffffffffffffffffffffffffffff168173ffffffffffffffffffffffffffffffffffffffff167f8be0079c531659141344cd1fd0a4f28419497f9722a3daafe3b4186f6b6457e060405160405180910390a35050565b620002c6620001e860201b60201c565b73ffffffffffffffffffffffffffffffffffffffff16620002ec6200036160201b60201c565b73ffffffffffffffffffffffffffffffffffffffff161462000345576040517f08c379a00000000000000000000000000000000000000000000000000000000081526004016200033c906200049c565b60405180910390fd5b80600b90805190602001906200035d9291906200038b565b5050565b6000600660009054906101000a900473ffffffffffffffffffffffffffffffffffffffff16905090565b8280546200039990620004ed565b90600052602060002090601f016020900481019282620003bd576000855562000409565b82601f10620003d857805160ff191683800117855562000409565b8280016001018555821562000409579182015b8281111562000408578251825591602001919060010190620003eb565b5b5090506200041891906200041c565b5090565b5b80821115620004375760008160009055506001016200041d565b5090565b600082825260208201905092915050565b7f4f776e61626c653a2063616c6c6572206973206e6f7420746865206f776e6572600082015250565b6000620004846020836200043b565b915062000491826200044c565b602082019050919050565b60006020820190508181036000830152620004b78162000475565b9050919050565b7f4e487b7100000000000000000000000000000000000000000000000000000000600052602260045260246000fd5b600060028204905060018216806200050657607f821691505b602082108114156200051d576200051c620004be565b5b50919050565b61434380620005336000396000f3fe60806040526004361061020f5760003560e01c80636352211e11610118578063a45ba8e7116100a0578063c87b56dd1161006f578063c87b56dd14610747578063d5abeb0114610784578063e0a80853146107af578063e985e9c5146107d8578063f2fde38b146108155761020f565b8063a45ba8e7146106a1578063b071401b146106cc578063b88d4fde146106f5578063bc63f02e1461071e5761020f565b80638da5cb5b116100e75780638da5cb5b146105db57806394354fd01461060657806395d89b4114610631578063a0712d681461065c578063a22cb465146106785761020f565b80636352211e1461052157806370a082311461055e578063715018a61461059b5780637ec4a659146105b25761020f565b80633ccfd60b1161019b5780634fdd43cb1161016a5780634fdd43cb1461044c57806351830227146104755780635503a0e8146104a05780635c975abb146104cb57806362b99ad4146104f65761020f565b80633ccfd60b146103b357806342842e0e146103bd578063438b6300146103e657806344a0d68a146104235761020f565b806313faede6116101e257806313faede6146102e257806316ba10e01461030d57806316c38b3c1461033657806318160ddd1461035f57806323b872dd1461038a5761020f565b806301ffc9a71461021457806306fdde0314610251578063081812fc1461027c578063095ea7b3146102b9575b600080fd5b34801561022057600080fd5b5061023b60048036038101906102369190612c34565b61083e565b6040516102489190612c7c565b60405180910390f35b34801561025d57600080fd5b50610266610920565b6040516102739190612d30565b60405180910390f35b34801561028857600080fd5b506102a3600480360381019061029e9190612d88565b6109b2565b6040516102b09190612df6565b60405180910390f35b3480156102c557600080fd5b506102e060048036038101906102db9190612e3d565b610a37565b005b3480156102ee57600080fd5b506102f7610b4f565b6040516103049190612e8c565b60405180910390f35b34801561031957600080fd5b50610334600480360381019061032f9190612fdc565b610b55565b005b34801561034257600080fd5b5061035d60048036038101906103589190613051565b610beb565b005b34801561036b57600080fd5b50610374610c84565b6040516103819190612e8c565b60405180910390f35b34801561039657600080fd5b506103b160048036038101906103ac919061307e565b610c95565b005b6103bb610cf5565b005b3480156103c957600080fd5b506103e460048036038101906103df919061307e565b610e47565b005b3480156103f257600080fd5b5061040d600480360381019061040891906130d1565b610e67565b60405161041a91906131bc565b60405180910390f35b34801561042f57600080fd5b5061044a60048036038101906104459190612d88565b610f72565b005b34801561045857600080fd5b50610473600480360381019061046e9190612fdc565b610ff8565b005b34801561048157600080fd5b5061048a61108e565b6040516104979190612c7c565b60405180910390f35b3480156104ac57600080fd5b506104b56110a1565b6040516104c29190612d30565b60405180910390f35b3480156104d757600080fd5b506104e061112f565b6040516104ed9190612c7c565b60405180910390f35b34801561050257600080fd5b5061050b611142565b6040516105189190612d30565b60405180910390f35b34801561052d57600080fd5b5061054860048036038101906105439190612d88565b6111d0565b6040516105559190612df6565b60405180910390f35b34801561056a57600080fd5b50610585600480360381019061058091906130d1565b611282565b6040516105929190612e8c565b60405180910390f35b3480156105a757600080fd5b506105b061133a565b005b3480156105be57600080fd5b506105d960048036038101906105d49190612fdc565b6113c2565b005b3480156105e757600080fd5b506105f0611458565b6040516105fd9190612df6565b60405180910390f35b34801561061257600080fd5b5061061b611482565b6040516106289190612e8c565b60405180910390f35b34801561063d57600080fd5b50610646611488565b6040516106539190612d30565b60405180910390f35b61067660048036038101906106719190612d88565b61151a565b005b34801561068457600080fd5b5061069f600480360381019061069a91906131de565b611674565b005b3480156106ad57600080fd5b506106b661168a565b6040516106c39190612d30565b60405180910390f35b3480156106d857600080fd5b506106f360048036038101906106ee9190612d88565b611718565b005b34801561070157600080fd5b5061071c600480360381019061071791906132bf565b61179e565b005b34801561072a57600080fd5b5061074560048036038101906107409190613342565b611800565b005b34801561075357600080fd5b5061076e60048036038101906107699190612d88565b611936565b60405161077b9190612d30565b60405180910390f35b34801561079057600080fd5b50610799611a8f565b6040516107a69190612e8c565b60405180910390f35b3480156107bb57600080fd5b506107d660048036038101906107d19190613051565b611a95565b005b3480156107e457600080fd5b506107ff60048036038101906107fa9190613382565b611b2e565b60405161080c9190612c7c565b60405180910390f35b34801561082157600080fd5b5061083c600480360381019061083791906130d1565b611bc2565b005b60007f80ac58cd000000000000000000000000000000000000000000000000000000007bffffffffffffffffffffffffffffffffffffffffffffffffffffffff1916827bffffffffffffffffffffffffffffffffffffffffffffffffffffffff1916148061090957507f5b5e139f000000000000000000000000000000000000000000000000000000007bffffffffffffffffffffffffffffffffffffffffffffffffffffffff1916827bffffffffffffffffffffffffffffffffffffffffffffffffffffffff1916145b80610919575061091882611cba565b5b9050919050565b60606000805461092f906133f1565b80601f016020809104026020016040519081016040528092919081815260200182805461095b906133f1565b80156109a85780601f1061097d576101008083540402835291602001916109a8565b820191906000526020600020905b81548152906001019060200180831161098b57829003601f168201915b5050505050905090565b60006109bd82611d24565b6109fc576040517f08c379a00000000000000000000000000000000000000000000000000000000081526004016109f390613495565b60405180910390fd5b6004600083815260200190815260200160002060009054906101000a900473ffffffffffffffffffffffffffffffffffffffff169050919050565b6000610a42826111d0565b90508073ffffffffffffffffffffffffffffffffffffffff168373ffffffffffffffffffffffffffffffffffffffff161415610ab3576040517f08c379a0000000000000000000000000000000000000000000000000000000008152600401610aaa90613527565b60405180910390fd5b8073ffffffffffffffffffffffffffffffffffffffff16610ad2611d90565b73ffffffffffffffffffffffffffffffffffffffff161480610b015750610b0081610afb611d90565b611b2e565b5b610b40576040517f08c379a0000000000000000000000000000000000000000000000000000000008152600401610b37906135b9565b60405180910390fd5b610b4a8383611d98565b505050565b600c5481565b610b5d611d90565b73ffffffffffffffffffffffffffffffffffffffff16610b7b611458565b73ffffffffffffffffffffffffffffffffffffffff1614610bd1576040517f08c379a0000000000000000000000000000000000000000000000000000000008152600401610bc890613625565b60405180910390fd5b80600a9080519060200190610be7929190612b25565b5050565b610bf3611d90565b73ffffffffffffffffffffffffffffffffffffffff16610c11611458565b73ffffffffffffffffffffffffffffffffffffffff1614610c67576040517f08c379a0000000000000000000000000000000000000000000000000000000008152600401610c5e90613625565b60405180910390fd5b80600f60006101000a81548160ff02191690831515021790555050565b6000610c906008611e51565b905090565b610ca6610ca0611d90565b82611e5f565b610ce5576040517f08c379a0000000000000000000000000000000000000000000000000000000008152600401610cdc906136b7565b60405180910390fd5b610cf0838383611f3d565b505050565b610cfd611d90565b73ffffffffffffffffffffffffffffffffffffffff16610d1b611458565b73ffffffffffffffffffffffffffffffffffffffff1614610d71576040517f08c379a0000000000000000000000000000000000000000000000000000000008152600401610d6890613625565b60405180910390fd5b60026007541415610db7576040517f08c379a0000000000000000000000000000000000000000000000000000000008152600401610dae90613723565b60405180910390fd5b60026007819055506000610dc9611458565b73ffffffffffffffffffffffffffffffffffffffff1647604051610dec90613774565b60006040518083038185875af1925050503d8060008114610e29576040519150601f19603f3d011682016040523d82523d6000602084013e610e2e565b606091505b5050905080610e3c57600080fd5b506001600781905550565b610e628383836040518060200160405280600081525061179e565b505050565b60606000610e7483611282565b905060008167ffffffffffffffff811115610e9257610e91612eb1565b5b604051908082528060200260200182016040528015610ec05781602001602082028036833780820191505090505b50905060006001905060005b8381108015610edd5750600d548211155b15610f66576000610eed836111d0565b90508673ffffffffffffffffffffffffffffffffffffffff168173ffffffffffffffffffffffffffffffffffffffff161415610f525782848381518110610f3757610f36613789565b5b6020026020010181815250508180610f4e906137e7565b9250505b8280610f5d906137e7565b93505050610ecc565b82945050505050919050565b610f7a611d90565b73ffffffffffffffffffffffffffffffffffffffff16610f98611458565b73ffffffffffffffffffffffffffffffffffffffff1614610fee576040517f08c379a0000000000000000000000000000000000000000000000000000000008152600401610fe590613625565b60405180910390fd5b80600c8190555050565b611000611d90565b73ffffffffffffffffffffffffffffffffffffffff1661101e611458565b73ffffffffffffffffffffffffffffffffffffffff1614611074576040517f08c379a000000000000000000000000000000000000000000000000000000000815260040161106b90613625565b60405180910390fd5b80600b908051906020019061108a929190612b25565b5050565b600f60019054906101000a900460ff1681565b600a80546110ae906133f1565b80601f01602080910402602001604051908101604052809291908181526020018280546110da906133f1565b80156111275780601f106110fc57610100808354040283529160200191611127565b820191906000526020600020905b81548152906001019060200180831161110a57829003601f168201915b505050505081565b600f60009054906101000a900460ff1681565b6009805461114f906133f1565b80601f016020809104026020016040519081016040528092919081815260200182805461117b906133f1565b80156111c85780601f1061119d576101008083540402835291602001916111c8565b820191906000526020600020905b8154815290600101906020018083116111ab57829003601f168201915b505050505081565b6000806002600084815260200190815260200160002060009054906101000a900473ffffffffffffffffffffffffffffffffffffffff169050600073ffffffffffffffffffffffffffffffffffffffff168173ffffffffffffffffffffffffffffffffffffffff161415611279576040517f08c379a0000000000000000000000000000000000000000000000000000000008152600401611270906138a2565b60405180910390fd5b80915050919050565b60008073ffffffffffffffffffffffffffffffffffffffff168273ffffffffffffffffffffffffffffffffffffffff1614156112f3576040517f08c379a00000000000000000000000000000000000000000000000000000000081526004016112ea90613934565b60405180910390fd5b600360008373ffffffffffffffffffffffffffffffffffffffff1673ffffffffffffffffffffffffffffffffffffffff168152602001908152602001600020549050919050565b611342611d90565b73ffffffffffffffffffffffffffffffffffffffff16611360611458565b73ffffffffffffffffffffffffffffffffffffffff16146113b6576040517f08c379a00000000000000000000000000000000000000000000000000000000081526004016113ad90613625565b60405180910390fd5b6113c060006121a4565b565b6113ca611d90565b73ffffffffffffffffffffffffffffffffffffffff166113e8611458565b73ffffffffffffffffffffffffffffffffffffffff161461143e576040517f08c379a000000000000000000000000000000000000000000000000000000000815260040161143590613625565b60405180910390fd5b8060099080519060200190611454929190612b25565b5050565b6000600660009054906101000a900473ffffffffffffffffffffffffffffffffffffffff16905090565b600e5481565b606060018054611497906133f1565b80601f01602080910402602001604051908101604052809291908181526020018280546114c3906133f1565b80156115105780601f106114e557610100808354040283529160200191611510565b820191906000526020600020905b8154815290600101906020018083116114f357829003601f168201915b5050505050905090565b8060008111801561152d5750600e548111155b61156c576040517f08c379a0000000000000000000000000000000000000000000000000000000008152600401611563906139a0565b60405180910390fd5b600d548161157a6008611e51565b61158491906139c0565b11156115c5576040517f08c379a00000000000000000000000000000000000000000000000000000000081526004016115bc90613a62565b60405180910390fd5b600f60009054906101000a900460ff1615611615576040517f08c379a000000000000000000000000000000000000000000000000000000000815260040161160c90613ace565b60405180910390fd5b61161d611458565b73ffffffffffffffffffffffffffffffffffffffff163373ffffffffffffffffffffffffffffffffffffffff16146116665761166582600c546116609190613aee565b61226a565b5b611670338361230b565b5050565b61168661167f611d90565b838361234b565b5050565b600b8054611697906133f1565b80601f01602080910402602001604051908101604052809291908181526020018280546116c3906133f1565b80156117105780601f106116e557610100808354040283529160200191611710565b820191906000526020600020905b8154815290600101906020018083116116f357829003601f168201915b505050505081565b611720611d90565b73ffffffffffffffffffffffffffffffffffffffff1661173e611458565b73ffffffffffffffffffffffffffffffffffffffff1614611794576040517f08c379a000000000000000000000000000000000000000000000000000000000815260040161178b90613625565b60405180910390fd5b80600e8190555050565b6117af6117a9611d90565b83611e5f565b6117ee576040517f08c379a00000000000000000000000000000000000000000000000000000000081526004016117e5906136b7565b60405180910390fd5b6117fa848484846124b8565b50505050565b816000811180156118135750600e548111155b611852576040517f08c379a0000000000000000000000000000000000000000000000000000000008152600401611849906139a0565b60405180910390fd5b600d54816118606008611e51565b61186a91906139c0565b11156118ab576040517f08c379a00000000000000000000000000000000000000000000000000000000081526004016118a290613a62565b60405180910390fd5b6118b3611d90565b73ffffffffffffffffffffffffffffffffffffffff166118d1611458565b73ffffffffffffffffffffffffffffffffffffffff1614611927576040517f08c379a000000000000000000000000000000000000000000000000000000000815260040161191e90613625565b60405180910390fd5b611931828461230b565b505050565b606061194182611d24565b611980576040517f08c379a000000000000000000000000000000000000000000000000000000000815260040161197790613bba565b60405180910390fd5b60001515600f60019054906101000a900460ff1615151415611a2e57600b80546119a9906133f1565b80601f01602080910402602001604051908101604052809291908181526020018280546119d5906133f1565b8015611a225780601f106119f757610100808354040283529160200191611a22565b820191906000526020600020905b815481529060010190602001808311611a0557829003601f168201915b50505050509050611a8a565b6000611a38612514565b90506000815111611a585760405180602001604052806000815250611a86565b80611a62846125a6565b600a604051602001611a7693929190613caa565b6040516020818303038152906040525b9150505b919050565b600d5481565b611a9d611d90565b73ffffffffffffffffffffffffffffffffffffffff16611abb611458565b73ffffffffffffffffffffffffffffffffffffffff1614611b11576040517f08c379a0000000000000000000000000000000000000000000000000000000008152600401611b0890613625565b60405180910390fd5b80600f60016101000a81548160ff02191690831515021790555050565b6000600560008473ffffffffffffffffffffffffffffffffffffffff1673ffffffffffffffffffffffffffffffffffffffff16815260200190815260200160002060008373ffffffffffffffffffffffffffffffffffffffff1673ffffffffffffffffffffffffffffffffffffffff16815260200190815260200160002060009054906101000a900460ff16905092915050565b611bca611d90565b73ffffffffffffffffffffffffffffffffffffffff16611be8611458565b73ffffffffffffffffffffffffffffffffffffffff1614611c3e576040517f08c379a0000000000000000000000000000000000000000000000000000000008152600401611c3590613625565b60405180910390fd5b600073ffffffffffffffffffffffffffffffffffffffff168173ffffffffffffffffffffffffffffffffffffffff161415611cae576040517f08c379a0000000000000000000000000000000000000000000000000000000008152600401611ca590613d4d565b60405180910390fd5b611cb7816121a4565b50565b60007f01ffc9a7000000000000000000000000000000000000000000000000000000007bffffffffffffffffffffffffffffffffffffffffffffffffffffffff1916827bffffffffffffffffffffffffffffffffffffffffffffffffffffffff1916149050919050565b60008073ffffffffffffffffffffffffffffffffffffffff166002600084815260200190815260200160002060009054906101000a900473ffffffffffffffffffffffffffffffffffffffff1673ffffffffffffffffffffffffffffffffffffffff1614159050919050565b600033905090565b816004600083815260200190815260200160002060006101000a81548173ffffffffffffffffffffffffffffffffffffffff021916908373ffffffffffffffffffffffffffffffffffffffff160217905550808273ffffffffffffffffffffffffffffffffffffffff16611e0b836111d0565b73ffffffffffffffffffffffffffffffffffffffff167f8c5be1e5ebec7d5bd14f71427d1e84f3dd0314c0f7b2291e5b200ac8c7c3b92560405160405180910390a45050565b600081600001549050919050565b6000611e6a82611d24565b611ea9576040517f08c379a0000000000000000000000000000000000000000000000000000000008152600401611ea090613ddf565b60405180910390fd5b6000611eb4836111d0565b90508073ffffffffffffffffffffffffffffffffffffffff168473ffffffffffffffffffffffffffffffffffffffff161480611f2357508373ffffffffffffffffffffffffffffffffffffffff16611f0b846109b2565b73ffffffffffffffffffffffffffffffffffffffff16145b80611f345750611f338185611b2e565b5b91505092915050565b8273ffffffffffffffffffffffffffffffffffffffff16611f5d826111d0565b73ffffffffffffffffffffffffffffffffffffffff1614611fb3576040517f08c379a0000000000000000000000000000000000000000000000000000000008152600401611faa90613e71565b60405180910390fd5b600073ffffffffffffffffffffffffffffffffffffffff168273ffffffffffffffffffffffffffffffffffffffff161415612023576040517f08c379a000000000000000000000000000000000000000000000000000000000815260040161201a90613f03565b60405180910390fd5b61202e838383612707565b612039600082611d98565b6001600360008573ffffffffffffffffffffffffffffffffffffffff1673ffffffffffffffffffffffffffffffffffffffff16815260200190815260200160002060008282546120899190613f23565b925050819055506001600360008473ffffffffffffffffffffffffffffffffffffffff1673ffffffffffffffffffffffffffffffffffffffff16815260200190815260200160002060008282546120e091906139c0565b92505081905550816002600083815260200190815260200160002060006101000a81548173ffffffffffffffffffffffffffffffffffffffff021916908373ffffffffffffffffffffffffffffffffffffffff160217905550808273ffffffffffffffffffffffffffffffffffffffff168473ffffffffffffffffffffffffffffffffffffffff167fddf252ad1be2c89b69c2b068fc378daa952ba7f163c4a11628f55a4df523b3ef60405160405180910390a461219f83838361270c565b505050565b6000600660009054906101000a900473ffffffffffffffffffffffffffffffffffffffff16905081600660006101000a81548173ffffffffffffffffffffffffffffffffffffffff021916908373ffffffffffffffffffffffffffffffffffffffff1602179055508173ffffffffffffffffffffffffffffffffffffffff168173ffffffffffffffffffffffffffffffffffffffff167f8be0079c531659141344cd1fd0a4f28419497f9722a3daafe3b4186f6b6457e060405160405180910390a35050565b803410156122ad576040517f08c379a00000000000000000000000000000000000000000000000000000000081526004016122a490613fa3565b60405180910390fd5b80341115612308573373ffffffffffffffffffffffffffffffffffffffff166108fc82346122db9190613f23565b9081150290604051600060405180830381858888f19350505050158015612306573d6000803e3d6000fd5b505b50565b60005b81811015612346576123206008612711565b6123338361232e6008611e51565b612727565b808061233e906137e7565b91505061230e565b505050565b8173ffffffffffffffffffffffffffffffffffffffff168373ffffffffffffffffffffffffffffffffffffffff1614156123ba576040517f08c379a00000000000000000000000000000000000000000000000000000000081526004016123b19061400f565b60405180910390fd5b80600560008573ffffffffffffffffffffffffffffffffffffffff1673ffffffffffffffffffffffffffffffffffffffff16815260200190815260200160002060008473ffffffffffffffffffffffffffffffffffffffff1673ffffffffffffffffffffffffffffffffffffffff16815260200190815260200160002060006101000a81548160ff0219169083151502179055508173ffffffffffffffffffffffffffffffffffffffff168373ffffffffffffffffffffffffffffffffffffffff167f17307eab39ab6107e8899845ad3d59bd9653f200f220920489ca2b5937696c31836040516124ab9190612c7c565b60405180910390a3505050565b6124c3848484611f3d565b6124cf84848484612745565b61250e576040517f08c379a0000000000000000000000000000000000000000000000000000000008152600401612505906140a1565b60405180910390fd5b50505050565b606060098054612523906133f1565b80601f016020809104026020016040519081016040528092919081815260200182805461254f906133f1565b801561259c5780601f106125715761010080835404028352916020019161259c565b820191906000526020600020905b81548152906001019060200180831161257f57829003601f168201915b5050505050905090565b606060008214156125ee576040518060400160405280600181526020017f30000000000000000000000000000000000000000000000000000000000000008152509050612702565b600082905060005b60008214612620578080612609906137e7565b915050600a8261261991906140f0565b91506125f6565b60008167ffffffffffffffff81111561263c5761263b612eb1565b5b6040519080825280601f01601f19166020018201604052801561266e5781602001600182028036833780820191505090505b5090505b600085146126fb576001826126879190613f23565b9150600a856126969190614121565b60306126a291906139c0565b60f81b8183815181106126b8576126b7613789565b5b60200101907effffffffffffffffffffffffffffffffffffffffffffffffffffffffffffff1916908160001a905350600a856126f491906140f0565b9450612672565b8093505050505b919050565b505050565b505050565b6001816000016000828254019250508190555050565b6127418282604051806020016040528060008152506128cd565b5050565b60006127668473ffffffffffffffffffffffffffffffffffffffff16612928565b156128c0578373ffffffffffffffffffffffffffffffffffffffff1663150b7a0261278f611d90565b8786866040518563ffffffff1660e01b81526004016127b194939291906141a7565b6020604051808303816000875af19250505080156127ed57506040513d601f19601f820116820180604052508101906127ea9190614208565b60015b612870573d806000811461281d576040519150601f19603f3d011682016040523d82523d6000602084013e612822565b606091505b50600081511415612868576040517f08c379a000000000000000000000000000000000000000000000000000000000815260040161285f906140a1565b60405180910390fd5b805181602001fd5b63150b7a0260e01b7bffffffffffffffffffffffffffffffffffffffffffffffffffffffff1916817bffffffffffffffffffffffffffffffffffffffffffffffffffffffff1916149150506128c5565b600190505b949350505050565b6128d7838361294b565b6128e46000848484612745565b612923576040517f08c379a000000000000000000000000000000000000000000000000000000000815260040161291a906140a1565b60405180910390fd5b505050565b6000808273ffffffffffffffffffffffffffffffffffffffff163b119050919050565b600073ffffffffffffffffffffffffffffffffffffffff168273ffffffffffffffffffffffffffffffffffffffff1614156129bb576040517f08c379a00000000000000000000000000000000000000000000000000000000081526004016129b290614281565b60405180910390fd5b6129c481611d24565b15612a04576040517f08c379a00000000000000000000000000000000000000000000000000000000081526004016129fb906142ed565b60405180910390fd5b612a1060008383612707565b6001600360008473ffffffffffffffffffffffffffffffffffffffff1673ffffffffffffffffffffffffffffffffffffffff1681526020019081526020016000206000828254612a6091906139c0565b92505081905550816002600083815260200190815260200160002060006101000a81548173ffffffffffffffffffffffffffffffffffffffff021916908373ffffffffffffffffffffffffffffffffffffffff160217905550808273ffffffffffffffffffffffffffffffffffffffff16600073ffffffffffffffffffffffffffffffffffffffff167fddf252ad1be2c89b69c2b068fc378daa952ba7f163c4a11628f55a4df523b3ef60405160405180910390a4612b216000838361270c565b5050565b828054612b31906133f1565b90600052602060002090601f016020900481019282612b535760008555612b9a565b82601f10612b6c57805160ff1916838001178555612b9a565b82800160010185558215612b9a579182015b82811115612b99578251825591602001919060010190612b7e565b5b509050612ba79190612bab565b5090565b5b80821115612bc4576000816000905550600101612bac565b5090565b6000604051905090565b600080fd5b600080fd5b60007fffffffff0000000000000000000000000000000000000000000000000000000082169050919050565b612c1181612bdc565b8114612c1c57600080fd5b50565b600081359050612c2e81612c08565b92915050565b600060208284031215612c4a57612c49612bd2565b5b6000612c5884828501612c1f565b91505092915050565b60008115159050919050565b612c7681612c61565b82525050565b6000602082019050612c916000830184612c6d565b92915050565b600081519050919050565b600082825260208201905092915050565b60005b83811015612cd1578082015181840152602081019050612cb6565b83811115612ce0576000848401525b50505050565b6000601f19601f8301169050919050565b6000612d0282612c97565b612d0c8185612ca2565b9350612d1c818560208601612cb3565b612d2581612ce6565b840191505092915050565b60006020820190508181036000830152612d4a8184612cf7565b905092915050565b6000819050919050565b612d6581612d52565b8114612d7057600080fd5b50565b600081359050612d8281612d5c565b92915050565b600060208284031215612d9e57612d9d612bd2565b5b6000612dac84828501612d73565b91505092915050565b600073ffffffffffffffffffffffffffffffffffffffff82169050919050565b6000612de082612db5565b9050919050565b612df081612dd5565b82525050565b6000602082019050612e0b6000830184612de7565b92915050565b612e1a81612dd5565b8114612e2557600080fd5b50565b600081359050612e3781612e11565b92915050565b60008060408385031215612e5457612e53612bd2565b5b6000612e6285828601612e28565b9250506020612e7385828601612d73565b9150509250929050565b612e8681612d52565b82525050565b6000602082019050612ea16000830184612e7d565b92915050565b600080fd5b600080fd5b7f4e487b7100000000000000000000000000000000000000000000000000000000600052604160045260246000fd5b612ee982612ce6565b810181811067ffffffffffffffff82111715612f0857612f07612eb1565b5b80604052505050565b6000612f1b612bc8565b9050612f278282612ee0565b919050565b600067ffffffffffffffff821115612f4757612f46612eb1565b5b612f5082612ce6565b9050602081019050919050565b82818337600083830152505050565b6000612f7f612f7a84612f2c565b612f11565b905082815260208101848484011115612f9b57612f9a612eac565b5b612fa6848285612f5d565b509392505050565b600082601f830112612fc357612fc2612ea7565b5b8135612fd3848260208601612f6c565b91505092915050565b600060208284031215612ff257612ff1612bd2565b5b600082013567ffffffffffffffff8111156130105761300f612bd7565b5b61301c84828501612fae565b91505092915050565b61302e81612c61565b811461303957600080fd5b50565b60008135905061304b81613025565b92915050565b60006020828403121561306757613066612bd2565b5b60006130758482850161303c565b91505092915050565b60008060006060848603121561309757613096612bd2565b5b60006130a586828701612e28565b93505060206130b686828701612e28565b92505060406130c786828701612d73565b9150509250925092565b6000602082840312156130e7576130e6612bd2565b5b60006130f584828501612e28565b91505092915050565b600081519050919050565b600082825260208201905092915050565b6000819050602082019050919050565b61313381612d52565b82525050565b6000613145838361312a565b60208301905092915050565b6000602082019050919050565b6000613169826130fe565b6131738185613109565b935061317e8361311a565b8060005b838110156131af5781516131968882613139565b97506131a183613151565b925050600181019050613182565b5085935050505092915050565b600060208201905081810360008301526131d6818461315e565b905092915050565b600080604083850312156131f5576131f4612bd2565b5b600061320385828601612e28565b92505060206132148582860161303c565b9150509250929050565b600067ffffffffffffffff82111561323957613238612eb1565b5b61324282612ce6565b9050602081019050919050565b600061326261325d8461321e565b612f11565b90508281526020810184848401111561327e5761327d612eac565b5b613289848285612f5d565b509392505050565b600082601f8301126132a6576132a5612ea7565b5b81356132b684826020860161324f565b91505092915050565b600080600080608085870312156132d9576132d8612bd2565b5b60006132e787828801612e28565b94505060206132f887828801612e28565b935050604061330987828801612d73565b925050606085013567ffffffffffffffff81111561332a57613329612bd7565b5b61333687828801613291565b91505092959194509250565b6000806040838503121561335957613358612bd2565b5b600061336785828601612d73565b925050602061337885828601612e28565b9150509250929050565b6000806040838503121561339957613398612bd2565b5b60006133a785828601612e28565b92505060206133b885828601612e28565b9150509250929050565b7f4e487b7100000000000000000000000000000000000000000000000000000000600052602260045260246000fd5b6000600282049050600182168061340957607f821691505b6020821081141561341d5761341c6133c2565b5b50919050565b7f4552433732313a20617070726f76656420717565727920666f72206e6f6e657860008201527f697374656e7420746f6b656e0000000000000000000000000000000000000000602082015250565b600061347f602c83612ca2565b915061348a82613423565b604082019050919050565b600060208201905081810360008301526134ae81613472565b9050919050565b7f4552433732313a20617070726f76616c20746f2063757272656e74206f776e6560008201527f7200000000000000000000000000000000000000000000000000000000000000602082015250565b6000613511602183612ca2565b915061351c826134b5565b604082019050919050565b6000602082019050818103600083015261354081613504565b9050919050565b7f4552433732313a20617070726f76652063616c6c6572206973206e6f74206f7760008201527f6e6572206e6f7220617070726f76656420666f7220616c6c0000000000000000602082015250565b60006135a3603883612ca2565b91506135ae82613547565b604082019050919050565b600060208201905081810360008301526135d281613596565b9050919050565b7f4f776e61626c653a2063616c6c6572206973206e6f7420746865206f776e6572600082015250565b600061360f602083612ca2565b915061361a826135d9565b602082019050919050565b6000602082019050818103600083015261363e81613602565b9050919050565b7f4552433732313a207472616e736665722063616c6c6572206973206e6f74206f60008201527f776e6572206e6f7220617070726f766564000000000000000000000000000000602082015250565b60006136a1603183612ca2565b91506136ac82613645565b604082019050919050565b600060208201905081810360008301526136d081613694565b9050919050565b7f5265656e7472616e637947756172643a207265656e7472616e742063616c6c00600082015250565b600061370d601f83612ca2565b9150613718826136d7565b602082019050919050565b6000602082019050818103600083015261373c81613700565b9050919050565b600081905092915050565b50565b600061375e600083613743565b91506137698261374e565b600082019050919050565b600061377f82613751565b9150819050919050565b7f4e487b7100000000000000000000000000000000000000000000000000000000600052603260045260246000fd5b7f4e487b7100000000000000000000000000000000000000000000000000000000600052601160045260246000fd5b60006137f282612d52565b91507fffffffffffffffffffffffffffffffffffffffffffffffffffffffffffffffff821415613825576138246137b8565b5b600182019050919050565b7f4552433732313a206f776e657220717565727920666f72206e6f6e657869737460008201527f656e7420746f6b656e0000000000000000000000000000000000000000000000602082015250565b600061388c602983612ca2565b915061389782613830565b604082019050919050565b600060208201905081810360008301526138bb8161387f565b9050919050565b7f4552433732313a2062616c616e636520717565727920666f7220746865207a6560008201527f726f206164647265737300000000000000000000000000000000000000000000602082015250565b600061391e602a83612ca2565b9150613929826138c2565b604082019050919050565b6000602082019050818103600083015261394d81613911565b9050919050565b7f496e76616c6964206d696e7420616d6f756e7421000000000000000000000000600082015250565b600061398a601483612ca2565b915061399582613954565b602082019050919050565b600060208201905081810360008301526139b98161397d565b9050919050565b60006139cb82612d52565b91506139d683612d52565b9250827fffffffffffffffffffffffffffffffffffffffffffffffffffffffffffffffff03821115613a0b57613a0a6137b8565b5b828201905092915050565b7f4d617820737570706c7920657863656564656421000000000000000000000000600082015250565b6000613a4c601483612ca2565b9150613a5782613a16565b602082019050919050565b60006020820190508181036000830152613a7b81613a3f565b9050919050565b7f54686520636f6e74726163742069732070617573656421000000000000000000600082015250565b6000613ab8601783612ca2565b9150613ac382613a82565b602082019050919050565b60006020820190508181036000830152613ae781613aab565b9050919050565b6000613af982612d52565b9150613b0483612d52565b9250817fffffffffffffffffffffffffffffffffffffffffffffffffffffffffffffffff0483118215151615613b3d57613b3c6137b8565b5b828202905092915050565b7f4552433732314d657461646174613a2055524920717565727920666f72206e6f60008201527f6e6578697374656e7420746f6b656e0000000000000000000000000000000000602082015250565b6000613ba4602f83612ca2565b9150613baf82613b48565b604082019050919050565b60006020820190508181036000830152613bd381613b97565b9050919050565b600081905092915050565b6000613bf082612c97565b613bfa8185613bda565b9350613c0a818560208601612cb3565b80840191505092915050565b60008190508160005260206000209050919050565b60008154613c38816133f1565b613c428186613bda565b94506001821660008114613c5d5760018114613c6e57613ca1565b60ff19831686528186019350613ca1565b613c7785613c16565b60005b83811015613c9957815481890152600182019150602081019050613c7a565b838801955050505b50505092915050565b6000613cb68286613be5565b9150613cc28285613be5565b9150613cce8284613c2b565b9150819050949350505050565b7f4f776e61626c653a206e6577206f776e657220697320746865207a65726f206160008201527f6464726573730000000000000000000000000000000000000000000000000000602082015250565b6000613d37602683612ca2565b9150613d4282613cdb565b604082019050919050565b60006020820190508181036000830152613d6681613d2a565b9050919050565b7f4552433732313a206f70657261746f7220717565727920666f72206e6f6e657860008201527f697374656e7420746f6b656e0000000000000000000000000000000000000000602082015250565b6000613dc9602c83612ca2565b9150613dd482613d6d565b604082019050919050565b60006020820190508181036000830152613df881613dbc565b9050919050565b7f4552433732313a207472616e736665722066726f6d20696e636f72726563742060008201527f6f776e6572000000000000000000000000000000000000000000000000000000602082015250565b6000613e5b602583612ca2565b9150613e6682613dff565b604082019050919050565b60006020820190508181036000830152613e8a81613e4e565b9050919050565b7f4552433732313a207472616e7366657220746f20746865207a65726f2061646460008201527f7265737300000000000000000000000000000000000000000000000000000000602082015250565b6000613eed602483612ca2565b9150613ef882613e91565b604082019050919050565b60006020820190508181036000830152613f1c81613ee0565b9050919050565b6000613f2e82612d52565b9150613f3983612d52565b925082821015613f4c57613f4b6137b8565b5b828203905092915050565b7f4e65656420746f2073656e64206d6f7265204554482e00000000000000000000600082015250565b6000613f8d601683612ca2565b9150613f9882613f57565b602082019050919050565b60006020820190508181036000830152613fbc81613f80565b9050919050565b7f4552433732313a20617070726f766520746f2063616c6c657200000000000000600082015250565b6000613ff9601983612ca2565b915061400482613fc3565b602082019050919050565b6000602082019050818103600083015261402881613fec565b9050919050565b7f4552433732313a207472616e7366657220746f206e6f6e20455243373231526560008201527f63656976657220696d706c656d656e7465720000000000000000000000000000602082015250565b600061408b603283612ca2565b91506140968261402f565b604082019050919050565b600060208201905081810360008301526140ba8161407e565b9050919050565b7f4e487b7100000000000000000000000000000000000000000000000000000000600052601260045260246000fd5b60006140fb82612d52565b915061410683612d52565b925082614116576141156140c1565b5b828204905092915050565b600061412c82612d52565b915061413783612d52565b925082614147576141466140c1565b5b828206905092915050565b600081519050919050565b600082825260208201905092915050565b600061417982614152565b614183818561415d565b9350614193818560208601612cb3565b61419c81612ce6565b840191505092915050565b60006080820190506141bc6000830187612de7565b6141c96020830186612de7565b6141d66040830185612e7d565b81810360608301526141e8818461416e565b905095945050505050565b60008151905061420281612c08565b92915050565b60006020828403121561421e5761421d612bd2565b5b600061422c848285016141f3565b91505092915050565b7f4552433732313a206d696e7420746f20746865207a65726f2061646472657373600082015250565b600061426b602083612ca2565b915061427682614235565b602082019050919050565b6000602082019050818103600083015261429a8161425e565b9050919050565b7f4552433732313a20746f6b656e20616c7265616479206d696e74656400000000600082015250565b60006142d7601c83612ca2565b91506142e2826142a1565b602082019050919050565b60006020820190508181036000830152614306816142ca565b905091905056fea26469706673582212201438bfb30f338ff63bc59f7b5ce2f71449dfdff27c17d4d87f5b58444419bbcf64736f6c634300080b0033",
  "linkReferences": {},
  "deployedLinkReferences": {}
}