{
  "_format": "hh-sol-artifact-1",
  "contractName": "Ticketed",
  "sourceName": "cache/solpp-generated-contracts/Ticketed.sol",
  "abi": [
    {
      "inputs": [],
      "name": "InvalidSpotId",
      "type": "error"
    },
    {
      "inputs": [
        {
          "internalType": "uint256",
          "name": "spotId",
          "type": "uint256"
        }
      ],
      "name": "isValidSpot",
      "outputs": [
        {
          "internalType": "bool",
          "name": "",
          "type": "bool"
        }
      ],
      "stateMutability": "view",
      "type": "function"
    }
  ],
  "bytecode": "0x60806040526000600160006101000a81548173ffffffffffffffffffffffffffffffffffffffff021916908373ffffffffffffffffffffffffffffffffffffffff16021790555034801561005257600080fd5b5061032a806100626000396000f3fe608060405234801561001057600080fd5b506004361061002b5760003560e01c8063f04fdc3114610030575b600080fd5b61004a60048036038101906100459190610148565b610060565b6040516100579190610190565b60405180910390f35b600061010060008054905061007591906101da565b82106100ad576040517fc6c61cb200000000000000000000000000000000000000000000000000000000815260040160405180910390fd5b6000610100836100bd9190610263565b90506000610100846100cf9190610294565b905060008083815481106100e6576100e56102c5565b5b90600052602060002001549050600060018383901c16905060018114945050505050919050565b600080fd5b6000819050919050565b61012581610112565b811461013057600080fd5b50565b6000813590506101428161011c565b92915050565b60006020828403121561015e5761015d61010d565b5b600061016c84828501610133565b91505092915050565b60008115159050919050565b61018a81610175565b82525050565b60006020820190506101a56000830184610181565b92915050565b7f4e487b7100000000000000000000000000000000000000000000000000000000600052601160045260246000fd5b60006101e582610112565b91506101f083610112565b9250817fffffffffffffffffffffffffffffffffffffffffffffffffffffffffffffffff0483118215151615610229576102286101ab565b5b828202905092915050565b7f4e487b7100000000000000000000000000000000000000000000000000000000600052601260045260246000fd5b600061026e82610112565b915061027983610112565b92508261028957610288610234565b5b828204905092915050565b600061029f82610112565b91506102aa83610112565b9250826102ba576102b9610234565b5b828206905092915050565b7f4e487b7100000000000000000000000000000000000000000000000000000000600052603260045260246000fdfea264697066735822122089971460c5085a76b0675f02df7ab0c12c47065de9d009c92707ba5ee7a4abb764736f6c634300080b0033",
  "linkReferences": {},
  "deployedLinkReferences": {}
}